{
  "contractName": "BlockCar",
  "abi": [
    {
      "inputs": [],
      "stateMutability": "nonpayable",
      "type": "constructor"
    },
    {
      "anonymous": false,
      "inputs": [
        {
          "indexed": true,
          "internalType": "address",
          "name": "owner",
          "type": "address"
        },
        {
          "indexed": true,
          "internalType": "address",
          "name": "approved",
          "type": "address"
        },
        {
          "indexed": true,
          "internalType": "uint256",
          "name": "tokenId",
          "type": "uint256"
        }
      ],
      "name": "Approval",
      "type": "event"
    },
    {
      "anonymous": false,
      "inputs": [
        {
          "indexed": true,
          "internalType": "address",
          "name": "owner",
          "type": "address"
        },
        {
          "indexed": true,
          "internalType": "address",
          "name": "operator",
          "type": "address"
        },
        {
          "indexed": false,
          "internalType": "bool",
          "name": "approved",
          "type": "bool"
        }
      ],
      "name": "ApprovalForAll",
      "type": "event"
    },
    {
      "anonymous": false,
      "inputs": [
        {
          "indexed": false,
          "internalType": "address",
          "name": "_address",
          "type": "address"
        },
        {
          "indexed": false,
          "internalType": "uint256",
          "name": "nftId",
          "type": "uint256"
        }
      ],
      "name": "CarForSale",
      "type": "event"
    },
    {
      "anonymous": false,
      "inputs": [
        {
          "indexed": false,
          "internalType": "address",
          "name": "_address",
          "type": "address"
        },
        {
          "indexed": false,
          "internalType": "uint256",
          "name": "nftId",
          "type": "uint256"
        }
      ],
      "name": "CarInfosIsUpdatedForSale",
      "type": "event"
    },
    {
      "anonymous": false,
      "inputs": [
        {
          "indexed": false,
          "internalType": "address",
          "name": "_address",
          "type": "address"
        },
        {
          "indexed": false,
          "internalType": "uint256",
          "name": "nftId",
          "type": "uint256"
        }
      ],
      "name": "CarIsScrapped",
      "type": "event"
    },
    {
      "anonymous": false,
      "inputs": [
        {
          "indexed": false,
          "internalType": "address",
          "name": "_address",
          "type": "address"
        },
        {
          "indexed": false,
          "internalType": "uint256",
          "name": "nftId",
          "type": "uint256"
        }
      ],
      "name": "CarIsStolen",
      "type": "event"
    },
    {
      "anonymous": false,
      "inputs": [
        {
          "indexed": false,
          "internalType": "address",
          "name": "_address",
          "type": "address"
        },
        {
          "indexed": false,
          "internalType": "uint256",
          "name": "nftId",
          "type": "uint256"
        }
      ],
      "name": "CarStatusReinitForSale",
      "type": "event"
    },
    {
      "anonymous": false,
      "inputs": [
        {
          "indexed": false,
          "internalType": "uint256",
          "name": "nftId",
          "type": "uint256"
        }
      ],
      "name": "KycIsDone",
      "type": "event"
    },
    {
      "anonymous": false,
      "inputs": [
        {
          "indexed": false,
          "internalType": "address",
          "name": "_address",
          "type": "address"
        },
        {
          "indexed": false,
          "internalType": "uint256",
          "name": "nftId",
          "type": "uint256"
        }
      ],
      "name": "KycIsWaiting",
      "type": "event"
    },
    {
      "anonymous": false,
      "inputs": [
        {
          "indexed": false,
          "internalType": "address",
          "name": "_address",
          "type": "address"
        }
      ],
      "name": "LogDepositReceived",
      "type": "event"
    },
    {
      "anonymous": false,
      "inputs": [
        {
          "indexed": false,
          "internalType": "address",
          "name": "userAddress",
          "type": "address"
        },
        {
          "indexed": false,
          "internalType": "string",
          "name": "tokenURI",
          "type": "string"
        },
        {
          "indexed": false,
          "internalType": "uint256",
          "name": "nftId",
          "type": "uint256"
        },
        {
          "indexed": false,
          "internalType": "string",
          "name": "vin",
          "type": "string"
        },
        {
          "indexed": false,
          "internalType": "string",
          "name": "brand",
          "type": "string"
        },
        {
          "indexed": false,
          "internalType": "string",
          "name": "model",
          "type": "string"
        },
        {
          "indexed": false,
          "internalType": "string",
          "name": "color",
          "type": "string"
        },
        {
          "indexed": false,
          "internalType": "uint32",
          "name": "power",
          "type": "uint32"
        },
        {
          "indexed": false,
          "internalType": "string",
          "name": "registrationCountry",
          "type": "string"
        },
        {
          "indexed": false,
          "internalType": "uint32",
          "name": "registrationDate",
          "type": "uint32"
        }
      ],
      "name": "Minted",
      "type": "event"
    },
    {
      "anonymous": false,
      "inputs": [
        {
          "indexed": true,
          "internalType": "address",
          "name": "previousOwner",
          "type": "address"
        },
        {
          "indexed": true,
          "internalType": "address",
          "name": "newOwner",
          "type": "address"
        }
      ],
      "name": "OwnershipTransferred",
      "type": "event"
    },
    {
      "anonymous": false,
      "inputs": [
        {
          "indexed": false,
          "internalType": "address",
          "name": "_address",
          "type": "address"
        },
        {
          "indexed": false,
          "internalType": "uint256",
          "name": "nftId",
          "type": "uint256"
        }
      ],
      "name": "StopDelegation",
      "type": "event"
    },
    {
      "anonymous": false,
      "inputs": [
        {
          "indexed": true,
          "internalType": "address",
          "name": "from",
          "type": "address"
        },
        {
          "indexed": true,
          "internalType": "address",
          "name": "to",
          "type": "address"
        },
        {
          "indexed": true,
          "internalType": "uint256",
          "name": "tokenId",
          "type": "uint256"
        }
      ],
      "name": "Transfer",
      "type": "event"
    },
    {
      "stateMutability": "payable",
      "type": "fallback",
      "payable": true
    },
    {
      "inputs": [
        {
          "internalType": "address",
          "name": "to",
          "type": "address"
        },
        {
          "internalType": "uint256",
          "name": "tokenId",
          "type": "uint256"
        }
      ],
      "name": "approve",
      "outputs": [],
      "stateMutability": "nonpayable",
      "type": "function"
    },
    {
      "inputs": [
        {
          "internalType": "address",
          "name": "owner",
          "type": "address"
        }
      ],
      "name": "balanceOf",
      "outputs": [
        {
          "internalType": "uint256",
          "name": "",
          "type": "uint256"
        }
      ],
      "stateMutability": "view",
      "type": "function",
      "constant": true
    },
    {
      "inputs": [
        {
          "internalType": "uint256",
          "name": "tokenId",
          "type": "uint256"
        }
      ],
      "name": "getApproved",
      "outputs": [
        {
          "internalType": "address",
          "name": "",
          "type": "address"
        }
      ],
      "stateMutability": "view",
      "type": "function",
      "constant": true
    },
    {
      "inputs": [
        {
          "internalType": "address",
          "name": "owner",
          "type": "address"
        },
        {
          "internalType": "address",
          "name": "operator",
          "type": "address"
        }
      ],
      "name": "isApprovedForAll",
      "outputs": [
        {
          "internalType": "bool",
          "name": "",
          "type": "bool"
        }
      ],
      "stateMutability": "view",
      "type": "function",
      "constant": true
    },
    {
      "inputs": [],
      "name": "name",
      "outputs": [
        {
          "internalType": "string",
          "name": "",
          "type": "string"
        }
      ],
      "stateMutability": "view",
      "type": "function",
      "constant": true
    },
    {
      "inputs": [
        {
          "internalType": "address",
          "name": "",
          "type": "address"
        },
        {
          "internalType": "uint256",
          "name": "",
          "type": "uint256"
        }
      ],
      "name": "nftIdAndOwner",
      "outputs": [
        {
          "internalType": "uint256",
          "name": "",
          "type": "uint256"
        }
      ],
      "stateMutability": "view",
      "type": "function",
      "constant": true
    },
    {
      "inputs": [],
      "name": "owner",
      "outputs": [
        {
          "internalType": "address",
          "name": "",
          "type": "address"
        }
      ],
      "stateMutability": "view",
      "type": "function",
      "constant": true
    },
    {
      "inputs": [
        {
          "internalType": "uint256",
          "name": "tokenId",
          "type": "uint256"
        }
      ],
      "name": "ownerOf",
      "outputs": [
        {
          "internalType": "address",
          "name": "",
          "type": "address"
        }
      ],
      "stateMutability": "view",
      "type": "function",
      "constant": true
    },
    {
      "inputs": [],
      "name": "renounceOwnership",
      "outputs": [],
      "stateMutability": "nonpayable",
      "type": "function"
    },
    {
      "inputs": [
        {
          "internalType": "address",
          "name": "operator",
          "type": "address"
        },
        {
          "internalType": "bool",
          "name": "approved",
          "type": "bool"
        }
      ],
      "name": "setApprovalForAll",
      "outputs": [],
      "stateMutability": "nonpayable",
      "type": "function"
    },
    {
      "inputs": [
        {
          "internalType": "bytes4",
          "name": "interfaceId",
          "type": "bytes4"
        }
      ],
      "name": "supportsInterface",
      "outputs": [
        {
          "internalType": "bool",
          "name": "",
          "type": "bool"
        }
      ],
      "stateMutability": "view",
      "type": "function",
      "constant": true
    },
    {
      "inputs": [],
      "name": "symbol",
      "outputs": [
        {
          "internalType": "string",
          "name": "",
          "type": "string"
        }
      ],
      "stateMutability": "view",
      "type": "function",
      "constant": true
    },
    {
      "inputs": [
        {
          "internalType": "uint256",
          "name": "tokenId",
          "type": "uint256"
        }
      ],
      "name": "tokenURI",
      "outputs": [
        {
          "internalType": "string",
          "name": "",
          "type": "string"
        }
      ],
      "stateMutability": "view",
      "type": "function",
      "constant": true
    },
    {
      "inputs": [
        {
          "internalType": "address",
          "name": "newOwner",
          "type": "address"
        }
      ],
      "name": "transferOwnership",
      "outputs": [],
      "stateMutability": "nonpayable",
      "type": "function"
    },
    {
      "stateMutability": "payable",
      "type": "receive",
      "payable": true
    },
    {
      "inputs": [
        {
          "internalType": "string",
          "name": "_tokenURI",
          "type": "string"
        },
        {
          "internalType": "string",
          "name": "_vin",
          "type": "string"
        },
        {
          "internalType": "string",
          "name": "_brand",
          "type": "string"
        },
        {
          "internalType": "string",
          "name": "_model",
          "type": "string"
        },
        {
          "internalType": "string",
          "name": "_color",
          "type": "string"
        },
        {
          "internalType": "uint32",
          "name": "_power",
          "type": "uint32"
        },
        {
          "internalType": "string",
          "name": "_registrationCountry",
          "type": "string"
        },
        {
          "internalType": "uint32",
          "name": "_registrationDate",
          "type": "uint32"
        }
      ],
      "name": "mintCar",
      "outputs": [
        {
          "internalType": "uint256",
          "name": "",
          "type": "uint256"
        }
      ],
      "stateMutability": "nonpayable",
      "type": "function"
    },
    {
      "inputs": [
        {
          "internalType": "address",
          "name": "_owner",
          "type": "address"
        }
      ],
      "name": "getNftIdsByAddress",
      "outputs": [
        {
          "internalType": "uint256[]",
          "name": "",
          "type": "uint256[]"
        }
      ],
      "stateMutability": "view",
      "type": "function",
      "constant": true
    },
    {
      "inputs": [
        {
          "internalType": "uint256",
          "name": "_tokenIds",
          "type": "uint256"
        }
      ],
      "name": "kycIsApproved",
      "outputs": [],
      "stateMutability": "nonpayable",
      "type": "function"
    },
    {
      "inputs": [
        {
          "internalType": "uint256",
          "name": "_tokenIds",
          "type": "uint256"
        }
      ],
      "name": "getCarNft",
      "outputs": [
        {
          "components": [
            {
              "internalType": "string",
              "name": "vin",
              "type": "string"
            },
            {
              "internalType": "string",
              "name": "brand",
              "type": "string"
            },
            {
              "internalType": "string",
              "name": "model",
              "type": "string"
            },
            {
              "internalType": "string",
              "name": "color",
              "type": "string"
            },
            {
              "internalType": "uint32",
              "name": "power",
              "type": "uint32"
            },
            {
              "internalType": "string",
              "name": "registrationCountry",
              "type": "string"
            },
            {
              "internalType": "uint32",
              "name": "registrationDate",
              "type": "uint32"
            },
            {
              "internalType": "string",
              "name": "linkDocument",
              "type": "string"
            },
            {
              "components": [
                {
                  "internalType": "bool",
                  "name": "isOnSale",
                  "type": "bool"
                },
                {
                  "internalType": "bool",
                  "name": "isDelegated",
                  "type": "bool"
                },
                {
                  "internalType": "bool",
                  "name": "isStolen",
                  "type": "bool"
                },
                {
                  "internalType": "bool",
                  "name": "isWaitingKyc",
                  "type": "bool"
                },
                {
                  "internalType": "bool",
                  "name": "isKycDone",
                  "type": "bool"
                },
                {
                  "internalType": "bool",
                  "name": "isScrapped",
                  "type": "bool"
                }
              ],
              "internalType": "struct BlockCar.Status",
              "name": "status",
              "type": "tuple"
            },
            {
              "components": [
                {
                  "internalType": "uint32",
                  "name": "mileage",
                  "type": "uint32"
                },
                {
                  "internalType": "uint32",
                  "name": "price",
                  "type": "uint32"
                },
                {
                  "internalType": "uint32",
                  "name": "localisation",
                  "type": "uint32"
                },
                {
                  "internalType": "string",
                  "name": "contactDetails",
                  "type": "string"
                }
              ],
              "internalType": "struct BlockCar.InfosForSale",
              "name": "infosForSale",
              "type": "tuple"
            }
          ],
          "internalType": "struct BlockCar.Car",
          "name": "",
          "type": "tuple"
        }
      ],
      "stateMutability": "view",
      "type": "function",
      "constant": true
    },
    {
      "inputs": [
        {
          "internalType": "uint256",
          "name": "_tokenIds",
          "type": "uint256"
        },
        {
          "internalType": "uint32",
          "name": "_mileage",
          "type": "uint32"
        },
        {
          "internalType": "uint32",
          "name": "_price",
          "type": "uint32"
        },
        {
          "internalType": "uint32",
          "name": "_localisation",
          "type": "uint32"
        },
        {
          "internalType": "string",
          "name": "_contactDetails",
          "type": "string"
        }
      ],
      "name": "carIsForSaleAndSetInformationsForSale",
      "outputs": [],
      "stateMutability": "nonpayable",
      "type": "function"
    },
    {
      "inputs": [
        {
          "internalType": "uint256",
          "name": "_tokenIds",
          "type": "uint256"
        }
      ],
      "name": "carIsStolen",
      "outputs": [],
      "stateMutability": "nonpayable",
      "type": "function"
    },
    {
      "inputs": [
        {
          "internalType": "uint256",
          "name": "_tokenIds",
          "type": "uint256"
        }
      ],
      "name": "carIsScrapped",
      "outputs": [],
      "stateMutability": "nonpayable",
      "type": "function"
    },
    {
      "inputs": [
        {
          "internalType": "uint256",
          "name": "_tokenIds",
          "type": "uint256"
        }
      ],
      "name": "reinitStatusForSelling",
      "outputs": [],
      "stateMutability": "nonpayable",
      "type": "function"
    },
    {
      "inputs": [
        {
          "internalType": "address",
          "name": "delegatorAddress",
          "type": "address"
        },
        {
          "internalType": "uint256",
          "name": "_tokenIds",
          "type": "uint256"
        }
      ],
      "name": "delegeteCar",
      "outputs": [],
      "stateMutability": "nonpayable",
      "type": "function"
    },
    {
      "inputs": [
        {
          "internalType": "uint256",
          "name": "_tokenIds",
          "type": "uint256"
        }
      ],
      "name": "stopDelegation",
      "outputs": [],
      "stateMutability": "nonpayable",
      "type": "function"
    },
    {
      "inputs": [
        {
          "internalType": "uint256",
          "name": "_tokenIds",
          "type": "uint256"
        }
      ],
      "name": "askKyc",
      "outputs": [],
      "stateMutability": "nonpayable",
      "type": "function"
    },
    {
      "inputs": [
        {
          "internalType": "address",
          "name": "from",
          "type": "address"
        },
        {
          "internalType": "address",
          "name": "to",
          "type": "address"
        },
        {
          "internalType": "uint256",
          "name": "tokenId",
          "type": "uint256"
        }
      ],
      "name": "transferFrom",
      "outputs": [],
      "stateMutability": "nonpayable",
      "type": "function"
    },
    {
      "inputs": [
        {
          "internalType": "address",
          "name": "from",
          "type": "address"
        },
        {
          "internalType": "address",
          "name": "to",
          "type": "address"
        },
        {
          "internalType": "uint256",
          "name": "tokenId",
          "type": "uint256"
        }
      ],
      "name": "safeTransferFrom",
      "outputs": [],
      "stateMutability": "nonpayable",
      "type": "function"
    },
    {
      "inputs": [
        {
          "internalType": "address",
          "name": "from",
          "type": "address"
        },
        {
          "internalType": "address",
          "name": "to",
          "type": "address"
        },
        {
          "internalType": "uint256",
          "name": "tokenId",
          "type": "uint256"
        },
        {
          "internalType": "bytes",
          "name": "data",
          "type": "bytes"
        }
      ],
      "name": "safeTransferFrom",
      "outputs": [],
      "stateMutability": "nonpayable",
      "type": "function"
    },
    {
      "inputs": [
        {
          "internalType": "uint256",
          "name": "_tokenIds",
          "type": "uint256"
        }
      ],
      "name": "sellNftAndTransferValueToOwner",
      "outputs": [],
      "stateMutability": "payable",
      "type": "function",
      "payable": true
    },
    {
      "inputs": [
        {
          "internalType": "uint256",
          "name": "_tokenIds",
          "type": "uint256"
        }
      ],
      "name": "sellNftAndTransferValueToOwnerAndDelegator",
      "outputs": [],
      "stateMutability": "payable",
      "type": "function",
      "payable": true
    },
    {
      "inputs": [],
      "name": "withdrawal",
      "outputs": [],
      "stateMutability": "nonpayable",
      "type": "function"
    }
  ],
  "bytecode": "0x60806040523480156200001157600080fd5b5060405180604001604052806008815260200167213637b1b5a1b0b960c11b81525060405180604001604052806003815260200162424c4360e81b81525081600090816200006091906200018d565b5060016200006f82826200018d565b5050506200008c620000866200009260201b60201c565b62000096565b62000259565b3390565b600780546001600160a01b038381166001600160a01b0319831681179093556040519116919082907f8be0079c531659141344cd1fd0a4f28419497f9722a3daafe3b4186f6b6457e090600090a35050565b634e487b7160e01b600052604160045260246000fd5b600181811c908216806200011357607f821691505b6020821081036200013457634e487b7160e01b600052602260045260246000fd5b50919050565b601f8211156200018857600081815260208120601f850160051c81016020861015620001635750805b601f850160051c820191505b8181101562000184578281556001016200016f565b5050505b505050565b81516001600160401b03811115620001a957620001a9620000e8565b620001c181620001ba8454620000fe565b846200013a565b602080601f831160018114620001f95760008415620001e05750858301515b600019600386901b1c1916600185901b17855562000184565b600085815260208120601f198616915b828110156200022a5788860151825594840194600190910190840162000209565b5085821015620002495787850151600019600388901b60f8161c191681555b5050505050600190811b01905550565b613aaf80620002696000396000f3fe60806040526004361061016c5760003560e01c806301ffc9a7146101c057806304fd79eb146101f557806306fdde031461020a578063081812fc1461022c578063095ea7b314610259578063138391cf1461027957806317077f341461029957806323b872dd146102b95780632bb02add146102d957806342842e0e146102f95780635e99032c1461031957806362232d60146103475780636352211e146103675780636dfdd3d11461038757806370a08231146103b4578063715018a6146103d4578063843cdb25146103e95780638654ffae146104165780638da5cb5b1461043657806395d89b411461044b578063a22cb46514610460578063b1dcf54b14610480578063b7e3887414610493578063b88d4fde146104b3578063c87b56dd146104d3578063d3ee4b1f146104f3578063d4e9329214610513578063dd79753014610528578063e4003a8b14610548578063e985e9c514610568578063f2fde38b1461058857610198565b3661019857600080516020613a5a8339815191523360405161018e9190612de7565b60405180910390a1005b36156101a357600080fd5b600080516020613a5a8339815191523360405161018e9190612de7565b3480156101cc57600080fd5b506101e06101db366004612e11565b6105a8565b60405190151581526020015b60405180910390f35b610208610203366004612e2e565b6105fa565b005b34801561021657600080fd5b5061021f610749565b6040516101ec9190612e97565b34801561023857600080fd5b5061024c610247366004612e2e565b6107db565b6040516101ec9190612de7565b34801561026557600080fd5b50610208610274366004612ec6565b610802565b34801561028557600080fd5b50610208610294366004612e2e565b610917565b3480156102a557600080fd5b506102086102b4366004612e2e565b6109de565b3480156102c557600080fd5b506102086102d4366004612ef0565b610ad5565b3480156102e557600080fd5b506102086102f4366004612e2e565b610aeb565b34801561030557600080fd5b50610208610314366004612ef0565b610bf1565b34801561032557600080fd5b50610339610334366004612ec6565b610c0c565b6040519081526020016101ec565b34801561035357600080fd5b50610339610362366004612feb565b610c3d565b34801561037357600080fd5b5061024c610382366004612e2e565b611235565b34801561039357600080fd5b506103a76103a2366004613102565b611269565b6040516101ec919061311d565b3480156103c057600080fd5b506103396103cf366004613102565b6112d5565b3480156103e057600080fd5b5061020861135b565b3480156103f557600080fd5b50610409610404366004612e2e565b61136f565b6040516101ec91906131a0565b34801561042257600080fd5b50610208610431366004612ec6565b611899565b34801561044257600080fd5b5061024c61197f565b34801561045757600080fd5b5061021f61198e565b34801561046c57600080fd5b5061020861047b3660046132ff565b61199d565b61020861048e366004612e2e565b6119ac565b34801561049f57600080fd5b506102086104ae36600461333b565b611a46565b3480156104bf57600080fd5b506102086104ce3660046133e7565b611bf9565b3480156104df57600080fd5b5061021f6104ee366004612e2e565b611c10565b3480156104ff57600080fd5b5061020861050e366004612e2e565b611d20565b34801561051f57600080fd5b50610208611e08565b34801561053457600080fd5b50610208610543366004612e2e565b611ed8565b34801561055457600080fd5b50610208610563366004612e2e565b611fbf565b34801561057457600080fd5b506101e0610583366004613462565b61212f565b34801561059457600080fd5b506102086105a3366004613102565b61215d565b60006001600160e01b031982166380ac58cd60e01b14806105d957506001600160e01b03198216635b5e139f60e01b145b806105f457506301ffc9a760e01b6001600160e01b03198316145b92915050565b6000600a610609346009613495565b61061391906134ba565b90506000610622600a346134ba565b9050600061062f84611235565b9050600061063c856107db565b905061065161064a86611235565b3387610bf1565b6000826001600160a01b03168560405160006040518083038185875af1925050503d806000811461069e576040519150601f19603f3d011682016040523d82523d6000602084013e6106a3565b606091505b50509050806106cd5760405162461bcd60e51b81526004016106c4906134dc565b60405180910390fd5b6000826001600160a01b03168560405160006040518083038185875af1925050503d806000811461071a576040519150601f19603f3d011682016040523d82523d6000602084013e61071f565b606091505b50509050806107405760405162461bcd60e51b81526004016106c4906134dc565b50505050505050565b6060600080546107589061350a565b80601f01602080910402602001604051908101604052809291908181526020018280546107849061350a565b80156107d15780601f106107a6576101008083540402835291602001916107d1565b820191906000526020600020905b8154815290600101906020018083116107b457829003601f168201915b5050505050905090565b60006107e6826121d3565b506000908152600460205260409020546001600160a01b031690565b600061080d82611235565b9050806001600160a01b0316836001600160a01b03160361087a5760405162461bcd60e51b815260206004820152602160248201527f4552433732313a20617070726f76616c20746f2063757272656e74206f776e656044820152603960f91b60648201526084016106c4565b336001600160a01b03821614806108965750610896813361212f565b6109085760405162461bcd60e51b815260206004820152603d60248201527f4552433732313a20617070726f76652063616c6c6572206973206e6f7420746f60448201527f6b656e206f776e6572206f7220617070726f76656420666f7220616c6c00000060648201526084016106c4565b61091283836121f8565b505050565b61091f612266565b600081815260096020526040902060080154600160201b900460ff161561097e5760405162461bcd60e51b81526020600482015260136024820152724b594320697320616c726561647920646f6e6560681b60448201526064016106c4565b60008181526009602052604090819020600801805464ffff0000001916600160201b179055517fb4293506fd0891b482e7ab2fdd3324ba5140637e19b16e1500b0c9e10007912c906109d39083815260200190565b60405180910390a150565b80336109e982611235565b6001600160a01b03161480610a35575033610a03826107db565b6001600160a01b0316148015610a35575060008181526009602052604090206008015460ff6101009091041615156001145b610a515760405162461bcd60e51b81526004016106c490613544565b600854811115610a735760405162461bcd60e51b81526004016106c490613574565b60008281526009602052604090819020600801805465ff00000000ff1916600160281b179055517fb96055dc390556bfafab4e01280bb37f129238dfdf4f5ce86cb8254a296a5fcd90610ac990339085906135a7565b60405180910390a15050565b610ae08383836122c5565b6109128383836123da565b8033610af682611235565b6001600160a01b031614610b1c5760405162461bcd60e51b81526004016106c4906135c0565b600854811115610b3e5760405162461bcd60e51b81526004016106c490613574565b60008281526009602052604090206008015460ff610100909104161515600114610ba55760405162461bcd60e51b8152602060048201526018602482015277151a1948139195081a5cc81b9bdd0819195b1959d85d195960421b60448201526064016106c4565b60008281526009602052604090819020600801805461ff0019169055517fad49dd00456a9f6e9ce6a3ba7797224fd1b1aac7ee2fe01bdf250b1a41f3323e90610ac990339085906135a7565b61091283838360405180602001604052806000815250611bf9565b600a6020528160005260406000208181548110610c2857600080fd5b90600052602060002001600091509150505481565b600033610c7e5760405162461bcd60e51b815260206004820152600f60248201526e496e76616c6964206164647265737360881b60448201526064016106c4565b6000895111610cc35760405162461bcd60e51b8152602060048201526011602482015270496e76616c696420746f6b656e2055524960781b60448201526064016106c4565b6000885111610d025760405162461bcd60e51b815260206004820152600b60248201526a24b73b30b634b2102b24a760a91b60448201526064016106c4565b6000875111610d435760405162461bcd60e51b815260206004820152600d60248201526c125b9d985b1a5908189c985b99609a1b60448201526064016106c4565b6000865111610d855760405162461bcd60e51b815260206004820152600e60248201526d125b9d985b1a59081b5bd90c195b60921b60448201526064016106c4565b6000855111610da65760405162461bcd60e51b81526004016106c4906135ef565b60008463ffffffff1611610dec5760405162461bcd60e51b815260206004820152600d60248201526c24b73b30b634b2103837bbb2b960991b60448201526064016106c4565b6000835111610e3c5760405162461bcd60e51b815260206004820152601c60248201527b496e76616c696420726567697374726174696f6e20636f756e74727960201b60448201526064016106c4565b60008263ffffffff1611610e8e5760405162461bcd60e51b8152602060048201526019602482015278496e76616c696420726567697374726174696f6e206461746560381b60448201526064016106c4565b610e9c600880546001019055565b6000610ea760085490565b9050610eb3338261252c565b610ebd818b612627565b600a6000336001600160a01b03166001600160a01b0316815260200190815260200160002081908060018154018082558091505060019003906000526020600020016000909190919091505560006040518060c0016040528060001515815260200160001515815260200160001515815260200160001515815260200160001515815260200160001515815250905060006040518060800160405280600063ffffffff168152602001600063ffffffff168152602001600063ffffffff16815260200160405180602001604052806000815250815250905060006040518061014001604052808d81526020018c81526020018b81526020018a81526020018963ffffffff1681526020018881526020018763ffffffff168152602001604051806020016040528060008152508152602001848152602001838152509050806009600086815260200190815260200160002060008201518160000190816110239190613679565b50602082015160018201906110389082613679565b506040820151600282019061104d9082613679565b50606082015160038201906110629082613679565b50608082015160048201805463ffffffff191663ffffffff90921691909117905560a082015160058201906110979082613679565b5060c082015160068201805463ffffffff191663ffffffff90921691909117905560e082015160078201906110cc9082613679565b5061010082810151805160088401805460208085015160408087015160608089015160808a015160a0909a015161ffff1990971698151561ff001916989098179315159099029290921763ffff00001916620100009215159290920263ff0000001916919091176301000000951515959095029490941761ffff60201b1916600160201b951515860260ff60281b191617600160281b92151592909202919091179091556101208601518051600987018054938301519483015163ffffffff9283166001600160401b0319909516949094179482169095029390931763ffffffff60401b1916600160401b939092169290920217825591820151600a8401906111d59082613679565b5050509050507f9d9e037da80b359004ae7c185bb38ec26e586e28db82390fd43ec2664e105868338e868f8f8f8f8f8f8f60405161121c9a99989796959493929190613732565b60405180910390a150919b9a5050505050505050505050565b600080611241836126ab565b90506001600160a01b0381166105f45760405162461bcd60e51b81526004016106c4906137eb565b6001600160a01b0381166000908152600a60209081526040918290208054835181840281018401909452808452606093928301828280156112c957602002820191906000526020600020905b8154815260200190600101908083116112b5575b50505050509050919050565b60006001600160a01b03821661133f5760405162461bcd60e51b815260206004820152602960248201527f4552433732313a2061646472657373207a65726f206973206e6f7420612076616044820152683634b21037bbb732b960b91b60648201526084016106c4565b506001600160a01b031660009081526003602052604090205490565b611363612266565b61136d60006126c6565b565b611377612d29565b6008548211156113995760405162461bcd60e51b81526004016106c490613574565b60008281526009602052604090819020815161014081019092528054829082906113c29061350a565b80601f01602080910402602001604051908101604052809291908181526020018280546113ee9061350a565b801561143b5780601f106114105761010080835404028352916020019161143b565b820191906000526020600020905b81548152906001019060200180831161141e57829003601f168201915b505050505081526020016001820180546114549061350a565b80601f01602080910402602001604051908101604052809291908181526020018280546114809061350a565b80156114cd5780601f106114a2576101008083540402835291602001916114cd565b820191906000526020600020905b8154815290600101906020018083116114b057829003601f168201915b505050505081526020016002820180546114e69061350a565b80601f01602080910402602001604051908101604052809291908181526020018280546115129061350a565b801561155f5780601f106115345761010080835404028352916020019161155f565b820191906000526020600020905b81548152906001019060200180831161154257829003601f168201915b505050505081526020016003820180546115789061350a565b80601f01602080910402602001604051908101604052809291908181526020018280546115a49061350a565b80156115f15780601f106115c6576101008083540402835291602001916115f1565b820191906000526020600020905b8154815290600101906020018083116115d457829003601f168201915b5050509183525050600482015463ffffffff16602082015260058201805460409092019161161e9061350a565b80601f016020809104026020016040519081016040528092919081815260200182805461164a9061350a565b80156116975780601f1061166c57610100808354040283529160200191611697565b820191906000526020600020905b81548152906001019060200180831161167a57829003601f168201915b5050509183525050600682015463ffffffff1660208201526007820180546040909201916116c49061350a565b80601f01602080910402602001604051908101604052809291908181526020018280546116f09061350a565b801561173d5780601f106117125761010080835404028352916020019161173d565b820191906000526020600020905b81548152906001019060200180831161172057829003601f168201915b50505091835250506040805160c081018252600884015460ff8082161515835261010082048116151560208481019190915262010000830482161515848601526301000000830482161515606080860191909152600160201b80850484161515608080880191909152600160281b909504909316151560a0860152818701949094528451928301855260098701805463ffffffff8082168652938104841692850192909252600160401b90910490911682850152600a860180549490950194919390928401919061180d9061350a565b80601f01602080910402602001604051908101604052809291908181526020018280546118399061350a565b80156118865780601f1061185b57610100808354040283529160200191611886565b820191906000526020600020905b81548152906001019060200180831161186957829003601f168201915b5050509190925250505090525092915050565b80336118a482611235565b6001600160a01b0316146118ca5760405162461bcd60e51b81526004016106c4906135c0565b6008548111156118ec5760405162461bcd60e51b81526004016106c490613574565b600082815260096020526040902060080154600160201b900460ff1615156001146119535760405162461bcd60e51b8152602060048201526017602482015276151a194812d650c81a5cc81b9bdd08185c1c1c9bdd9959604a1b60448201526064016106c4565b61195d8383610802565b506000908152600960205260409020600801805461ff00191661010017905550565b6007546001600160a01b031690565b6060600180546107589061350a565b6119a8338383612718565b5050565b3460006119b883611235565b90506119cd6119c684611235565b3385610bf1565b6000816001600160a01b03168360405160006040518083038185875af1925050503d8060008114611a1a576040519150601f19603f3d011682016040523d82523d6000602084013e611a1f565b606091505b5050905080611a405760405162461bcd60e51b81526004016106c4906134dc565b50505050565b8533611a5182611235565b6001600160a01b03161480611a9d575033611a6b826107db565b6001600160a01b0316148015611a9d575060008181526009602052604090206008015460ff6101009091041615156001145b611ab95760405162461bcd60e51b81526004016106c490613544565b600854811115611adb5760405162461bcd60e51b81526004016106c490613574565b60008663ffffffff1611611b285760405162461bcd60e51b81526020600482015260146024820152730546865206d696c656167652063616e20626520360641b60448201526064016106c4565b60008563ffffffff1611611b725760405162461bcd60e51b81526020600482015260116024820152705468657265206973206e6f20707269636560781b60448201526064016106c4565b60008463ffffffff1611611bc55760405162461bcd60e51b815260206004820152601a602482015279151a19481c1bddd95c881a5cc81b9bdd081a5b991a58d85d195960321b60448201526064016106c4565b81611be25760405162461bcd60e51b81526004016106c4906135ef565b611beb876127e2565b6107408787878787876128c5565b611c048484846122c5565b611a40848484846129fc565b6060611c1b826121d3565b60008281526006602052604081208054611c349061350a565b80601f0160208091040260200160405190810160405280929190818152602001828054611c609061350a565b8015611cad5780601f10611c8257610100808354040283529160200191611cad565b820191906000526020600020905b815481529060010190602001808311611c9057829003601f168201915b505050505090506000611ccb60408051602081019091526000815290565b90508051600003611cdd575092915050565b815115611d0f578082604051602001611cf792919061381d565b60405160208183030381529060405292505050919050565b611d1884612a2f565b949350505050565b8033611d2b82611235565b6001600160a01b03161480611d77575033611d45826107db565b6001600160a01b0316148015611d77575060008181526009602052604090206008015460ff6101009091041615156001145b611d935760405162461bcd60e51b81526004016106c490613544565b600854811115611db55760405162461bcd60e51b81526004016106c490613574565b60008281526009602052604090819020600801805465ff0000ff00ff19166001179055517f42de0c82dcee68944531d0808772e3ecdb27934b4ca5e911f5d3aa5f84f8051c90610ac990339085906135a7565b611e10612266565b6001471015611e6d5760405162461bcd60e51b815260206004820152602360248201527f596f75206e656564206174206c6561737420312045544820746f20776974686460448201526272617760e81b60648201526084016106c4565b604051600090339047908381818185875af1925050503d8060008114611eaf576040519150601f19603f3d011682016040523d82523d6000602084013e611eb4565b606091505b5050905080611ed55760405162461bcd60e51b81526004016106c4906134dc565b50565b8033611ee382611235565b6001600160a01b03161480611f2f575033611efd826107db565b6001600160a01b0316148015611f2f575060008181526009602052604090206008015460ff6101009091041615156001145b611f4b5760405162461bcd60e51b81526004016106c490613544565b600854811115611f6d5760405162461bcd60e51b81526004016106c490613574565b60008281526009602052604090819020600801805462ff00ff191662010000179055517f60e8a429222a855335f96447eb29a2ad534c03839cee40535bae9e8b90c35fa490610ac990339085906135a7565b8033611fca82611235565b6001600160a01b031614611ff05760405162461bcd60e51b81526004016106c4906135c0565b6008548111156120125760405162461bcd60e51b81526004016106c490613574565b600082815260096020526040902060080154600160201b900460ff1615156001146120715760405162461bcd60e51b815260206004820152600f60248201526e546865204b594320697320646f6e6560881b60448201526064016106c4565b6000828152600960205260409020600801546301000000900460ff1615156001146120db5760405162461bcd60e51b815260206004820152601a602482015279546865204b594320697320616c72656164792077616974696e6760301b60448201526064016106c4565b60008281526009602052604090819020600801805463ff00000019166301000000179055517f37c9295f2badb14d8e2d0c130c195c55982826812bed878e9fa0c3bd804d005190610ac990339085906135a7565b6001600160a01b03918216600090815260056020908152604080832093909416825291909152205460ff1690565b612165612266565b6001600160a01b0381166121ca5760405162461bcd60e51b815260206004820152602660248201527f4f776e61626c653a206e6577206f776e657220697320746865207a65726f206160448201526564647265737360d01b60648201526084016106c4565b611ed5816126c6565b6121dc81612aa3565b611ed55760405162461bcd60e51b81526004016106c4906137eb565b600081815260046020526040902080546001600160a01b0319166001600160a01b038416908117909155819061222d82611235565b6001600160a01b03167f8c5be1e5ebec7d5bd14f71427d1e84f3dd0314c0f7b2291e5b200ac8c7c3b92560405160405180910390a45050565b3361226f61197f565b6001600160a01b03161461136d5760405162461bcd60e51b815260206004820181905260248201527f4f776e61626c653a2063616c6c6572206973206e6f7420746865206f776e657260448201526064016106c4565b80336122d082611235565b6001600160a01b0316148061231c5750336122ea826107db565b6001600160a01b031614801561231c575060008181526009602052604090206008015460ff6101009091041615156001145b6123385760405162461bcd60e51b81526004016106c490613544565b60085481111561235a5760405162461bcd60e51b81526004016106c490613574565b6000828152600960209081526040808320600801805464ff0000ffff191690556001600160a01b0387168352600a909152902080548390811061239f5761239f61384c565b600091825260208083209091018290556001600160a01b039094168152600a8452604081208054600181018255908252939020909201555050565b826001600160a01b03166123ed82611235565b6001600160a01b0316146124135760405162461bcd60e51b81526004016106c490613862565b6001600160a01b0382166124755760405162461bcd60e51b8152602060048201526024808201527f4552433732313a207472616e7366657220746f20746865207a65726f206164646044820152637265737360e01b60648201526084016106c4565b826001600160a01b031661248882611235565b6001600160a01b0316146124ae5760405162461bcd60e51b81526004016106c490613862565b600081815260046020908152604080832080546001600160a01b03199081169091556001600160a01b038781168086526003855283862080546000190190559087168086528386208054600101905586865260029094528285208054909216841790915590518493600080516020613a3a83398151915291a4505050565b6001600160a01b0382166125825760405162461bcd60e51b815260206004820181905260248201527f4552433732313a206d696e7420746f20746865207a65726f206164647265737360448201526064016106c4565b61258b81612aa3565b156125a85760405162461bcd60e51b81526004016106c4906138a7565b6125b181612aa3565b156125ce5760405162461bcd60e51b81526004016106c4906138a7565b6001600160a01b038216600081815260036020908152604080832080546001019055848352600290915280822080546001600160a01b031916841790555183929190600080516020613a3a833981519152908290a45050565b61263082612aa3565b6126935760405162461bcd60e51b815260206004820152602e60248201527f45524337323155524953746f726167653a2055524920736574206f66206e6f6e60448201526d32bc34b9ba32b73a103a37b5b2b760911b60648201526084016106c4565b60008281526006602052604090206109128282613679565b6000908152600260205260409020546001600160a01b031690565b600780546001600160a01b038381166001600160a01b0319831681179093556040519116919082907f8be0079c531659141344cd1fd0a4f28419497f9722a3daafe3b4186f6b6457e090600090a35050565b816001600160a01b0316836001600160a01b0316036127755760405162461bcd60e51b815260206004820152601960248201527822a9219b99189d1030b8383937bb32903a379031b0b63632b960391b60448201526064016106c4565b6001600160a01b03838116600081815260056020908152604080832094871680845294825291829020805460ff191686151590811790915591519182527f17307eab39ab6107e8899845ad3d59bd9653f200f220920489ca2b5937696c31910160405180910390a3505050565b80336127ed82611235565b6001600160a01b03161480612839575033612807826107db565b6001600160a01b0316148015612839575060008181526009602052604090206008015460ff6101009091041615156001145b6128555760405162461bcd60e51b81526004016106c490613544565b6008548111156128775760405162461bcd60e51b81526004016106c490613574565b60008281526009602052604090819020600801805460ff19166001179055517f3430d398933c226727007f56eff4241254cdc4b3f2301b0fb5d396795bd5e6a090610ac990339085906135a7565b85336128d082611235565b6001600160a01b0316148061291c5750336128ea826107db565b6001600160a01b031614801561291c575060008181526009602052604090206008015460ff6101009091041615156001145b6129385760405162461bcd60e51b81526004016106c490613544565b60085481111561295a5760405162461bcd60e51b81526004016106c490613574565b6000878152600960208190526040909120908101805463ffffffff878116600160401b0263ffffffff60401b198a8316600160201b026001600160401b0319909416928c16929092179290921716179055600a016129b98385836138dd565b507fd8a68757b0f1a481cde06cf48ee7ea1ccd5d4cf3a737c3aedda4c26e86a5081c33886040516129eb9291906135a7565b60405180910390a150505050505050565b612a078484846123da565b612a1384848484612ac0565b611a405760405162461bcd60e51b81526004016106c490613997565b6060612a3a826121d3565b6000612a5160408051602081019091526000815290565b90506000815111612a715760405180602001604052806000815250612a9c565b80612a7b84612bc1565b604051602001612a8c92919061381d565b6040516020818303038152906040525b9392505050565b600080612aaf836126ab565b6001600160a01b0316141592915050565b60006001600160a01b0384163b15612bb657604051630a85bd0160e11b81526001600160a01b0385169063150b7a0290612b049033908990889088906004016139e9565b6020604051808303816000875af1925050508015612b3f575060408051601f3d908101601f19168201909252612b3c91810190613a1c565b60015b612b9c573d808015612b6d576040519150601f19603f3d011682016040523d82523d6000602084013e612b72565b606091505b508051600003612b945760405162461bcd60e51b81526004016106c490613997565b805181602001fd5b6001600160e01b031916630a85bd0160e11b149050611d18565b506001949350505050565b60606000612bce83612c53565b60010190506000816001600160401b03811115612bed57612bed612f2c565b6040519080825280601f01601f191660200182016040528015612c17576020820181803683370190505b5090508181016020015b600019016f181899199a1a9b1b9c1cb0b131b232b360811b600a86061a8153600a8504945084612c2157509392505050565b60008072184f03e93ff9f4daa797ed6e38ed64bf6a1f0160401b8310612c925772184f03e93ff9f4daa797ed6e38ed64bf6a1f0160401b830492506040015b6904ee2d6d415b85acef8160201b8310612cbc576904ee2d6d415b85acef8160201b830492506020015b662386f26fc100008310612cda57662386f26fc10000830492506010015b6305f5e1008310612cf2576305f5e100830492506008015b6127108310612d0657612710830492506004015b60648310612d18576064830492506002015b600a83106105f45760010192915050565b60405180610140016040528060608152602001606081526020016060815260200160608152602001600063ffffffff16815260200160608152602001600063ffffffff16815260200160608152602001612dbe6040518060c001604052806000151581526020016000151581526020016000151581526020016000151581526020016000151581526020016000151581525090565b815260408051608081018252600080825260208281018290529282015260608082015291015290565b6001600160a01b0391909116815260200190565b6001600160e01b031981168114611ed557600080fd5b600060208284031215612e2357600080fd5b8135612a9c81612dfb565b600060208284031215612e4057600080fd5b5035919050565b60005b83811015612e62578181015183820152602001612e4a565b50506000910152565b60008151808452612e83816020860160208601612e47565b601f01601f19169290920160200192915050565b602081526000612a9c6020830184612e6b565b80356001600160a01b0381168114612ec157600080fd5b919050565b60008060408385031215612ed957600080fd5b612ee283612eaa565b946020939093013593505050565b600080600060608486031215612f0557600080fd5b612f0e84612eaa565b9250612f1c60208501612eaa565b9150604084013590509250925092565b634e487b7160e01b600052604160045260246000fd5b60006001600160401b0380841115612f5c57612f5c612f2c565b604051601f8501601f19908116603f01168101908282118183101715612f8457612f84612f2c565b81604052809350858152868686011115612f9d57600080fd5b858560208301376000602087830101525050509392505050565b600082601f830112612fc857600080fd5b612a9c83833560208501612f42565b803563ffffffff81168114612ec157600080fd5b600080600080600080600080610100898b03121561300857600080fd5b88356001600160401b038082111561301f57600080fd5b61302b8c838d01612fb7565b995060208b013591508082111561304157600080fd5b61304d8c838d01612fb7565b985060408b013591508082111561306357600080fd5b61306f8c838d01612fb7565b975060608b013591508082111561308557600080fd5b6130918c838d01612fb7565b965060808b01359150808211156130a757600080fd5b6130b38c838d01612fb7565b95506130c160a08c01612fd7565b945060c08b01359150808211156130d757600080fd5b506130e48b828c01612fb7565b9250506130f360e08a01612fd7565b90509295985092959890939650565b60006020828403121561311457600080fd5b612a9c82612eaa565b6020808252825182820181905260009190848201906040850190845b8181101561315557835183529284019291840191600101613139565b50909695505050505050565b600063ffffffff80835116845280602084015116602085015280604084015116604085015250606082015160806060850152611d186080850182612e6b565b60208152600082516101e08060208501526131bf610200850183612e6b565b91506020850151601f19808685030160408701526131dd8483612e6b565b935060408701519150808685030160608701526131fa8483612e6b565b935060608701519150808685030160808701526132178483612e6b565b93506080870151915061323260a087018363ffffffff169052565b60a08701519150808685030160c087015261324d8483612e6b565b935060c0870151915061326860e087018363ffffffff169052565b60e087015191506101008187860301818801526132858584612e6b565b908801518051151561012089810191909152602082015115156101408a0152604082015115156101608a0152606082015115156101808a0152608082015115156101a08a015260a09091015115156101c08901528801518782039290920184880152935090506132f58382613161565b9695505050505050565b6000806040838503121561331257600080fd5b61331b83612eaa565b91506020830135801515811461333057600080fd5b809150509250929050565b60008060008060008060a0878903121561335457600080fd5b8635955061336460208801612fd7565b945061337260408801612fd7565b935061338060608801612fd7565b925060808701356001600160401b038082111561339c57600080fd5b818901915089601f8301126133b057600080fd5b8135818111156133bf57600080fd5b8a60208285010111156133d157600080fd5b6020830194508093505050509295509295509295565b600080600080608085870312156133fd57600080fd5b61340685612eaa565b935061341460208601612eaa565b92506040850135915060608501356001600160401b0381111561343657600080fd5b8501601f8101871361344757600080fd5b61345687823560208401612f42565b91505092959194509250565b6000806040838503121561347557600080fd5b61347e83612eaa565b915061348c60208401612eaa565b90509250929050565b80820281158282048414176105f457634e487b7160e01b600052601160045260246000fd5b6000826134d757634e487b7160e01b600052601260045260246000fd5b500490565b6020808252601490820152737472616e73666572206469646e277420776f726b60601b604082015260600190565b600181811c9082168061351e57607f821691505b60208210810361353e57634e487b7160e01b600052602260045260246000fd5b50919050565b602080825260169082015275165bdd48185c99481b9bdd08185d5d1a1bdc9a5e995960521b604082015260600190565b602080825260199082015278151a1948139195081a59081a5cc81b9bdd0818dbdc9c9958dd603a1b604082015260600190565b6001600160a01b03929092168252602082015260400190565b6020808252601590820152742cb7ba9030b932903737ba103a34329037bbb732b960591b604082015260600190565b6020808252600d908201526c24b73b30b634b21031b7b637b960991b604082015260600190565b601f82111561091257600081815260208120601f850160051c8101602086101561363d5750805b601f850160051c820191505b8181101561365c57828155600101613649565b505050505050565b600019600383901b1c191660019190911b1790565b81516001600160401b0381111561369257613692612f2c565b6136a6816136a0845461350a565b84613616565b602080601f8311600181146136d557600084156136c35750858301515b6136cd8582613664565b86555061365c565b600085815260208120601f198616915b82811015613704578886015182559484019460019091019084016136e5565b50858210156137225787850151600019600388901b60f8161c191681555b5050505050600190811b01905550565b6001600160a01b038b168152610140602082018190526000906137578382018d612e6b565b90508a60408401528281036060840152613771818b612e6b565b90508281036080840152613785818a612e6b565b905082810360a08401526137998189612e6b565b905082810360c08401526137ad8188612e6b565b905063ffffffff80871660e08501528382036101008501526137cf8287612e6b565b925080851661012085015250509b9a5050505050505050505050565b602080825260189082015277115490cdcc8c4e881a5b9d985b1a59081d1bdad95b88125160421b604082015260600190565b6000835161382f818460208801612e47565b835190830190613843818360208801612e47565b01949350505050565b634e487b7160e01b600052603260045260246000fd5b60208082526025908201527f4552433732313a207472616e736665722066726f6d20696e636f72726563742060408201526437bbb732b960d91b606082015260800190565b6020808252601c908201527b115490cdcc8c4e881d1bdad95b88185b1c9958591e481b5a5b9d195960221b604082015260600190565b6001600160401b038311156138f4576138f4612f2c565b61390883613902835461350a565b83613616565b6000601f84116001811461393657600085156139245750838201355b61392e8682613664565b845550613990565b600083815260209020601f19861690835b828110156139675786850135825560209485019460019092019101613947565b50868210156139845760001960f88860031b161c19848701351681555b505060018560011b0183555b5050505050565b60208082526032908201527f4552433732313a207472616e7366657220746f206e6f6e20455243373231526560408201527131b2b4bb32b91034b6b83632b6b2b73a32b960711b606082015260800190565b6001600160a01b03858116825284166020820152604081018390526080606082018190526000906132f590830184612e6b565b600060208284031215613a2e57600080fd5b8151612a9c81612dfb56feddf252ad1be2c89b69c2b068fc378daa952ba7f163c4a11628f55a4df523b3ef15382559391789f1865e10e9c8b51327a9cb0381eae89973ada229e7a78c08f3a26469706673582212206f5b37f7cc06eb072ba533bd88c30f0abdcfd7d347f529a238e5fd3cb166c45364736f6c63430008120033",
  "immutableReferences": {},
  "source": "// SPDX-License-Identifier: MIT\npragma solidity 0.8.18;\n\nimport \"@openzeppelin/contracts/token/ERC721/ERC721.sol\";\nimport \"@openzeppelin/contracts/token/ERC721/extensions/ERC721URIStorage.sol\";\nimport \"@openzeppelin/contracts/utils/Counters.sol\";\nimport \"@openzeppelin/contracts/access/Ownable.sol\";\n//import \"./BlockCarLib.sol\";\n\n\n/**\n * @title BlockCar\n * @author Germain Winckel\n * @notice The blockCar contract code\n * @dev The blockCar contract code\n */\ncontract BlockCar is ERC721URIStorage, Ownable {\n    /**\n    * @dev The counter from the openzeppelin contract Counters.sol\n    */\n    using Counters for Counters.Counter;\n    Counters.Counter private tokenIds;\n\n    /**\n    * @dev The Status of each NFT, this struct is in the Car struct. When mint, all values are false\n    */\n    struct Status {\n        bool isOnSale;\n        bool isDelegated;\n        bool isStolen;\n        bool isWaitingKyc;\n        bool isKycDone;\n        bool isScrapped;\n    }\n\n    /**\n    * @dev Others informations we need for sell the car\n    */\n    struct InfosForSale {\n      \tuint32 mileage;\n      \tuint32 price;\n      \tuint32 localisation;\n      \tstring contactDetails;\n    }\n\n    /**\n    * @dev A complex type that all the statics informations of a NFT. \n\t* linkDocument contains all the link to the differents documents, the separtoir is ;\n    */\n\tstruct Car{\n\t\tstring vin;\n\t\tstring brand;\n\t\tstring model;\n      \tstring color;\n      \tuint32 power; //kw\n      \tstring registrationCountry;\n      \tuint32 registrationDate;    // dd/mm/yyyy\n      \tstring linkDocument;        //only value which can change\n      \tStatus status;\n        InfosForSale infosForSale;\n\t}\n    \n\t/// @dev Mapping the NFT ID with the car informations\n    mapping(uint256 => Car) nftCarInfos;\n\n    /// @dev Mapping the NFT ID with informations for sale\n    mapping(address => uint256[]) public nftIdAndOwner;  \n\n    /// @dev Mapping the NFT ID with informations for sale\n    //mapping(uint256 => address) delegatorList;\n\n\t/// @dev An event when a user did the KYC for a car\n    event KycIsDone (uint256 nftId);\n\n    /// @dev An event when a user did is waiting for the KYC\n    event KycIsWaiting (address _address, uint256 nftId);\n\t\n\t/// @dev An event that registers when a user did the KYC for a car\n    event Minted (address userAddress, string tokenURI, uint256 nftId, string vin, string brand, string model, string color, uint32 power, string registrationCountry, uint32 registrationDate);\n\n    /// @dev An event when a car is for sale\n    event CarForSale (address _address, uint256 nftId);\n\n    /// @dev An event when a the car sell is delegated          // not sure we need this event\n    //event CarIsDelegated (address _addressOwner, address delegatedAddress, uint256 nftId);\n\n    /// @dev An event when a the car sell saled                 // not sure we need this event\n    //event CarIsSaled (address _oldAddressOwner, address _newAddressOwner, uint256 nftId);\n\n    /// @dev An event when the car is Scrapped\n    event CarIsScrapped (address _address, uint256 nftId);\n\n    /// @dev An event when the car is Stolen\n    event CarIsStolen (address _address, uint256 nftId);\n\n    /// @dev An event when the car informations are updated for sale\n    event CarInfosIsUpdatedForSale (address _address, uint256 nftId);\n\n    /// @dev An event when the car informations are updated for sale\n    event CarStatusReinitForSale (address _address, uint256 nftId);\n\n    /// @dev An event when the car informations are updated for sale\n    event StopDelegation (address _address, uint256 nftId);\n\n    /// @dev An event when a deposit is received\n    event LogDepositReceived (address _address);\n\n    constructor() ERC721 (\"BlockCar\", \"BLC\") {\n    }\n\n\t/**\n     * @dev To mint an NFT\n\t * @param _tokenURI : Link to jdon/image\n\t * @param _vin : Vehicle Identification Number\n\t * @param _brand : Brand of the car\n\t * @param _model : Model of the car\n\t * @param _color : color of the car\n\t * @param _power : Power of the car in Kw\n\t * @param _registrationCountry : Reistration country\n\t * @param _registrationDate : Regisytration date in ddmmyyyy\n     * @return newItemId mThe Id of the NFT \n     */\n    function mintCar(string memory _tokenURI, string memory _vin, string memory _brand, string memory _model, string memory _color, uint32 _power, string memory _registrationCountry, uint32 _registrationDate) public returns (uint256) {\n        require(msg.sender != address(0), \"Invalid address\");\n        require(bytes(_tokenURI).length > 0, \"Invalid token URI\");\n        require(bytes(_vin).length > 0, \"Invalid VIN\");\n        require(bytes(_brand).length > 0, \"Invalid brand\");\n        require(bytes(_model).length > 0, \"Invalid mod0el\");\n        require(bytes(_color).length > 0, \"Invalid color\");\n        require(_power > 0, \"Invalid power\");\n        require(bytes(_registrationCountry).length > 0, \"Invalid registration country\");\n        require(_registrationDate > 0, \"Invalid registration date\");\n\n        tokenIds.increment();\n        uint256 newItemId = tokenIds.current();\n        _mint(msg.sender, newItemId);\n        _setTokenURI(newItemId, _tokenURI);\n\n        nftIdAndOwner[msg.sender].push(newItemId);\n        \n        Status memory statusIni = Status(false,false,false,false,false,false);\n        InfosForSale memory infosForSaleIni = InfosForSale(0,0,0,\"\");\n\t\tCar memory car = Car(_vin, _brand, _model, _color, _power, _registrationCountry, _registrationDate, \"\",statusIni, infosForSaleIni);\n\t\tnftCarInfos[newItemId] = car;\n\t\temit Minted (msg.sender, _tokenURI, newItemId, _vin, _brand, _model, _color, _power, _registrationCountry, _registrationDate);\n        return newItemId;\n    }\n\n    function getNftIdsByAddress(address _owner) external view returns (uint256[] memory) {\n        return nftIdAndOwner[_owner];\n    }\n\n    /**\n    * @dev Modifier to check if the address is owner or the delegator of the NFT\n    * @param _tokenIds The Id of the NFT \n    */\n    modifier isNftOwnerOrDelegator(uint256 _tokenIds) {\n        require(ownerOf(_tokenIds)==msg.sender || (getApproved(_tokenIds)==msg.sender &&  nftCarInfos[_tokenIds].status.isDelegated == true) , 'You are not authorized');\n        require(_tokenIds <= tokenIds.current(), 'The NFT id is not correct');\n        _;\n    }\n\n        /**\n    * @dev Modifier to check if the address is owner of the NFT\n    * @param _tokenIds The Id of the NFT \n    */\n    modifier isNftOwner(uint256 _tokenIds) {\n        require(ownerOf(_tokenIds)==msg.sender, 'You are not the owner');\n        require(_tokenIds <= tokenIds.current(), 'The NFT id is not correct');\n        _;\n    }\n\n    /**\n    * @dev Change the status of isKycDone to true\n    * @param _tokenIds The Id of the NFT \n    */\n    function kycIsApproved (uint256 _tokenIds) external onlyOwner {\n        require(nftCarInfos[_tokenIds].status.isKycDone == false, 'KYC is already done');\n\t\tnftCarInfos[_tokenIds].status.isWaitingKyc = false;\n\t\tnftCarInfos[_tokenIds].status.isKycDone = true;\n\t\temit KycIsDone(_tokenIds);\n    }\n\n    /**\n    * @dev Get the NFT informations\n    * @param _tokenIds The Id of the NFT \n    */\n    function getCarNft (uint256 _tokenIds) external view returns (Car memory) {\n        require(_tokenIds <= tokenIds.current(), 'The NFT id is not correct');\n        return nftCarInfos[_tokenIds];\n    }\n\n    /**\n    * @dev Change boolean 'isOnSale' to true, is car is for sale\n    * @param _tokenIds The Id of the NFT \n    */\n    function carIsForSale (uint256 _tokenIds) internal isNftOwnerOrDelegator (_tokenIds) {\n        nftCarInfos[_tokenIds].status.isOnSale = true;\n        emit CarForSale (msg.sender, _tokenIds);\n    }\n\n    /**\n    * @dev Change boolean 'isOnSale' to true, this car is for sale\n    * @param _tokenIds The Id of the NFT \n    * @param _mileage the mileage of the car\n    * @param _price The price of the car\n    * @param _localisation the localisation of the car\n    * @param _contactDetails The details of the contact\n    */\n    function setInformationsForSale (uint256 _tokenIds, uint32 _mileage, uint32 _price, uint32 _localisation, string calldata _contactDetails) internal isNftOwnerOrDelegator (_tokenIds) {\n        nftCarInfos[_tokenIds].infosForSale.mileage = _mileage;\n        nftCarInfos[_tokenIds].infosForSale.price = _price;\n        nftCarInfos[_tokenIds].infosForSale.localisation = _localisation;\n        nftCarInfos[_tokenIds].infosForSale.contactDetails = _contactDetails;\n        emit CarInfosIsUpdatedForSale (msg.sender, _tokenIds);\n    }\n\n    function carIsForSaleAndSetInformationsForSale (uint256 _tokenIds, uint32 _mileage, uint32 _price, uint32 _localisation, string calldata _contactDetails) external isNftOwnerOrDelegator (_tokenIds) {\n        require(_mileage > 0, \"The mileage can be 0\");\n        require(_price > 0, \"There is no price\");\n        require(_localisation > 0, \"The power is not indicated\");\n        require(bytes(_contactDetails).length > 0, \"Invalid color\");\n        carIsForSale(_tokenIds);\n        setInformationsForSale(_tokenIds, _mileage, _price, _localisation, _contactDetails);\n    }\n\n    /**\n    * @dev Change boolean 'isStolen' to true, this car is stolen\n    * @param _tokenIds The Id of the NFT \n    */\n    function carIsStolen (uint256 _tokenIds) external isNftOwnerOrDelegator (_tokenIds) {\n        nftCarInfos[_tokenIds].status.isStolen = true;\n        nftCarInfos[_tokenIds].status.isOnSale = false;\n        emit CarIsStolen (msg.sender, _tokenIds);\n    }\n\n    /**\n    * @dev Change boolean 'isScrapped' to true, this car is Scrapped\n    * @param _tokenIds The Id of the NFT \n    */\n    function carIsScrapped (uint256 _tokenIds) external isNftOwnerOrDelegator (_tokenIds) {\n        nftCarInfos[_tokenIds].status.isScrapped = true;\n        nftCarInfos[_tokenIds].status.isOnSale = false;\n        emit CarIsScrapped(msg.sender, _tokenIds);\n    }\n\n        /**\n    * @dev Change boolean 'isScrapped' to true, this car is Scrapped\n    * @param _tokenIds The Id of the NFT \n    */\n    function reinitStatusForSelling (uint256 _tokenIds) external isNftOwnerOrDelegator (_tokenIds) {\n        nftCarInfos[_tokenIds].status.isScrapped = false;\n        nftCarInfos[_tokenIds].status.isStolen = false;\n        nftCarInfos[_tokenIds].status.isOnSale = true;\n        emit CarStatusReinitForSale(msg.sender, _tokenIds);\n    }\n\n    /**\n    * @dev Change boolean 'isDelegated' to true, this car is Delegated\n    * @param _tokenIds The Id of the NFT \n    */\n    function delegeteCar (address delegatorAddress, uint256 _tokenIds) external isNftOwner (_tokenIds) {\n        require(nftCarInfos[_tokenIds].status.isKycDone == true, \"The KYC is not approved\");\n        approve(delegatorAddress, _tokenIds);\n        nftCarInfos[_tokenIds].status.isDelegated = true;\n        //emit CarIsDelegated(msg.sender, delegatorAddress, _tokenIds);\n    }\n\n    /**\n    * @dev Change boolean 'isDelegated' to false, this car is not delegated anymore\n    * @param _tokenIds The Id of the NFT \n    */\n    function stopDelegation (uint256 _tokenIds) external isNftOwner (_tokenIds) {\n        require(nftCarInfos[_tokenIds].status.isDelegated == true, \"The NFT is not delegated\");\n        nftCarInfos[_tokenIds].status.isDelegated = false;\n        emit StopDelegation(msg.sender, _tokenIds);\n    }\n\n    /**\n    * @dev Change boolean 'isWaitingKyc' to false, this car is not delegated anymore\n    * @param _tokenIds The Id of the NFT \n    */\n    function askKyc (uint256 _tokenIds) external isNftOwner (_tokenIds) {\n        require(nftCarInfos[_tokenIds].status.isKycDone == true, \"The KYC is done\");\n        require(nftCarInfos[_tokenIds].status.isWaitingKyc == true, \"The KYC is already waiting\");\n        nftCarInfos[_tokenIds].status.isWaitingKyc = true;\n        emit KycIsWaiting(msg.sender, _tokenIds);\n    }\n\n    function testingAndTransfer (address _from, address _to, uint256 _tokenIds) internal isNftOwnerOrDelegator (_tokenIds)  {\n        nftCarInfos[_tokenIds].status.isKycDone = false;\n        nftCarInfos[_tokenIds].status.isDelegated = false;\n        nftCarInfos[_tokenIds].status.isOnSale = false;\n        delete (nftIdAndOwner[_from][_tokenIds]);\n        nftIdAndOwner[_to].push(_tokenIds);\n\n    }\n\n    function addDocumentLink(string memory _newLink, uint256 _tokenIds) internal isNftOwnerOrDelegator (_tokenIds)  {\n        string memory currentLink = nftCarInfos[_tokenIds].linkDocument;\n        if (bytes(currentLink).length == 0) {\n            nftCarInfos[_tokenIds].linkDocument = _newLink;\n        } else {\n            nftCarInfos[_tokenIds].linkDocument = string(abi.encodePacked(currentLink, \";\", _newLink));\n        }\n    }\n\n    /**\n     * @dev See {IERC721-transferFrom}.\n     */\n    function transferFrom(\n        address from,\n        address to,\n        uint256 tokenId\n    ) public virtual override {\n        testingAndTransfer(from, to, tokenId);\n        _transfer(from, to, tokenId);\n    }\n\n    /**\n     * @dev See {IERC721-safeTransferFrom}.\n     */\n    function safeTransferFrom(\n        address from,\n        address to,\n        uint256 tokenId\n    ) public virtual override {\n        safeTransferFrom(from, to, tokenId, \"\");\n    }\n\n    /**\n     * @dev See {IERC721-safeTransferFrom}.\n     */\n    function safeTransferFrom(\n        address from,\n        address to,\n        uint256 tokenId,\n        bytes memory data\n    ) public virtual override {\n        testingAndTransfer(from, to, tokenId);\n        _safeTransfer(from, to, tokenId, data);\n    }\n\n    function sellNftAndTransferValueToOwner(uint256 _tokenIds) external payable  {\n        uint256 valueSend               = msg.value;\n        address ownerAddress            = ownerOf(_tokenIds);\n        safeTransferFrom(ownerOf(_tokenIds),msg.sender,_tokenIds);\n        (bool sent, )                   = payable(ownerAddress).call{value: valueSend}(\"\");\n        require(sent, unicode\"transfer didn't work\");\n    }\n\n    function sellNftAndTransferValueToOwnerAndDelegator(uint256 _tokenIds) external payable  {\n        uint256 valueSendForOwner       = (msg.value*9)/10;\n        uint256 valueSendForDelegator   = msg.value/10;\n        address ownerAddress            = ownerOf(_tokenIds);\n        address delegatorAddress        = getApproved(_tokenIds);\n\n        safeTransferFrom(ownerOf(_tokenIds),msg.sender,_tokenIds);\n\n        (bool sent1, )                   = payable(ownerAddress).call{value: valueSendForOwner}(\"\");\n        require(sent1, unicode\"transfer didn't work\");\n        \n        (bool sent2, )                   = payable(delegatorAddress).call{value: valueSendForDelegator}(\"\");\n        require(sent2, unicode\"transfer didn't work\");\n    \n    }\n\n\n    fallback() external payable { \n        require(msg.data.length == 0);\n        emit LogDepositReceived(msg.sender); \n    }\n \n    receive() external payable { \n        emit LogDepositReceived(msg.sender); \n    }\n\n    function withdrawal() public onlyOwner {\n        require(address(this).balance >= 1, \"You need at least 1 ETH to withdraw\");\n        (bool sent, )                   = payable(msg.sender).call{value: address(this).balance}(\"\");\n        require(sent, unicode\"transfer didn't work\");\n    }\n    //add others documents\n}\n",
  "sourcePath": "/home/germain/Projet4/truffle/contracts/BlockCar.sol",
  "compiler": {
    "name": "solc",
    "version": "0.8.18+commit.87f61d96.Emscripten.clang"
  },
  "schemaVersion": "3.4.13",
  "updatedAt": "2023-03-31T00:00:08.248Z",
  "networkType": "ethereum",
  "devdoc": {
    "author": "Germain Winckel",
    "details": "The blockCar contract code",
    "events": {
      "Approval(address,address,uint256)": {
        "details": "Emitted when `owner` enables `approved` to manage the `tokenId` token."
      },
      "ApprovalForAll(address,address,bool)": {
        "details": "Emitted when `owner` enables or disables (`approved`) `operator` to manage all of its assets."
      },
      "CarForSale(address,uint256)": {
        "details": "An event when a car is for sale"
      },
      "CarInfosIsUpdatedForSale(address,uint256)": {
        "details": "An event when the car informations are updated for sale"
      },
      "CarIsScrapped(address,uint256)": {
        "details": "An event when the car is Scrapped"
      },
      "CarIsStolen(address,uint256)": {
        "details": "An event when the car is Stolen"
      },
      "CarStatusReinitForSale(address,uint256)": {
        "details": "An event when the car informations are updated for sale"
      },
      "KycIsDone(uint256)": {
        "details": "An event when a user did the KYC for a car"
      },
      "KycIsWaiting(address,uint256)": {
        "details": "An event when a user did is waiting for the KYC"
      },
      "LogDepositReceived(address)": {
        "details": "An event when a deposit is received"
      },
      "Minted(address,string,uint256,string,string,string,string,uint32,string,uint32)": {
        "details": "An event that registers when a user did the KYC for a car"
      },
      "StopDelegation(address,uint256)": {
        "details": "An event when the car informations are updated for sale"
      },
      "Transfer(address,address,uint256)": {
        "details": "Emitted when `tokenId` token is transferred from `from` to `to`."
      }
    },
    "kind": "dev",
    "methods": {
      "approve(address,uint256)": {
        "details": "See {IERC721-approve}."
      },
      "askKyc(uint256)": {
        "details": "Change boolean 'isWaitingKyc' to false, this car is not delegated anymore",
        "params": {
          "_tokenIds": "The Id of the NFT "
        }
      },
      "balanceOf(address)": {
        "details": "See {IERC721-balanceOf}."
      },
      "carIsScrapped(uint256)": {
        "details": "Change boolean 'isScrapped' to true, this car is Scrapped",
        "params": {
          "_tokenIds": "The Id of the NFT "
        }
      },
      "carIsStolen(uint256)": {
        "details": "Change boolean 'isStolen' to true, this car is stolen",
        "params": {
          "_tokenIds": "The Id of the NFT "
        }
      },
      "delegeteCar(address,uint256)": {
        "details": "Change boolean 'isDelegated' to true, this car is Delegated",
        "params": {
          "_tokenIds": "The Id of the NFT "
        }
      },
      "getApproved(uint256)": {
        "details": "See {IERC721-getApproved}."
      },
      "getCarNft(uint256)": {
        "details": "Get the NFT informations",
        "params": {
          "_tokenIds": "The Id of the NFT "
        }
      },
      "isApprovedForAll(address,address)": {
        "details": "See {IERC721-isApprovedForAll}."
      },
      "kycIsApproved(uint256)": {
        "details": "Change the status of isKycDone to true",
        "params": {
          "_tokenIds": "The Id of the NFT "
        }
      },
      "mintCar(string,string,string,string,string,uint32,string,uint32)": {
        "details": "To mint an NFT",
        "params": {
          "_brand": ": Brand of the car",
          "_color": ": color of the car",
          "_model": ": Model of the car",
          "_power": ": Power of the car in Kw",
          "_registrationCountry": ": Reistration country",
          "_registrationDate": ": Regisytration date in ddmmyyyy",
          "_tokenURI": ": Link to jdon/image",
          "_vin": ": Vehicle Identification Number"
        },
        "returns": {
          "_0": "newItemId mThe Id of the NFT "
        }
      },
      "name()": {
        "details": "See {IERC721Metadata-name}."
      },
      "owner()": {
        "details": "Returns the address of the current owner."
      },
      "ownerOf(uint256)": {
        "details": "See {IERC721-ownerOf}."
      },
      "reinitStatusForSelling(uint256)": {
        "details": "Change boolean 'isScrapped' to true, this car is Scrapped",
        "params": {
          "_tokenIds": "The Id of the NFT "
        }
      },
      "renounceOwnership()": {
        "details": "Leaves the contract without owner. It will not be possible to call `onlyOwner` functions anymore. Can only be called by the current owner. NOTE: Renouncing ownership will leave the contract without an owner, thereby removing any functionality that is only available to the owner."
      },
      "safeTransferFrom(address,address,uint256)": {
        "details": "See {IERC721-safeTransferFrom}."
      },
      "safeTransferFrom(address,address,uint256,bytes)": {
        "details": "See {IERC721-safeTransferFrom}."
      },
      "setApprovalForAll(address,bool)": {
        "details": "See {IERC721-setApprovalForAll}."
      },
      "stopDelegation(uint256)": {
        "details": "Change boolean 'isDelegated' to false, this car is not delegated anymore",
        "params": {
          "_tokenIds": "The Id of the NFT "
        }
      },
      "supportsInterface(bytes4)": {
        "details": "See {IERC165-supportsInterface}."
      },
      "symbol()": {
        "details": "See {IERC721Metadata-symbol}."
      },
      "tokenURI(uint256)": {
        "details": "See {IERC721Metadata-tokenURI}."
      },
      "transferFrom(address,address,uint256)": {
        "details": "See {IERC721-transferFrom}."
      },
      "transferOwnership(address)": {
        "details": "Transfers ownership of the contract to a new account (`newOwner`). Can only be called by the current owner."
      }
    },
    "stateVariables": {
      "nftCarInfos": {
        "details": "Mapping the NFT ID with the car informations"
      },
      "nftIdAndOwner": {
        "details": "Mapping the NFT ID with informations for sale"
      }
    },
    "title": "BlockCar",
    "version": 1
  },
  "userdoc": {
    "kind": "user",
    "methods": {},
    "notice": "The blockCar contract code",
    "version": 1
  }
}