{
  "contractName": "BlockCar",
  "abi": [
    {
      "inputs": [],
      "stateMutability": "nonpayable",
      "type": "constructor"
    },
    {
      "anonymous": false,
      "inputs": [
        {
          "indexed": true,
          "internalType": "address",
          "name": "owner",
          "type": "address"
        },
        {
          "indexed": true,
          "internalType": "address",
          "name": "approved",
          "type": "address"
        },
        {
          "indexed": true,
          "internalType": "uint256",
          "name": "tokenId",
          "type": "uint256"
        }
      ],
      "name": "Approval",
      "type": "event"
    },
    {
      "anonymous": false,
      "inputs": [
        {
          "indexed": true,
          "internalType": "address",
          "name": "owner",
          "type": "address"
        },
        {
          "indexed": true,
          "internalType": "address",
          "name": "operator",
          "type": "address"
        },
        {
          "indexed": false,
          "internalType": "bool",
          "name": "approved",
          "type": "bool"
        }
      ],
      "name": "ApprovalForAll",
      "type": "event"
    },
    {
      "anonymous": false,
      "inputs": [
        {
          "indexed": false,
          "internalType": "address",
          "name": "_address",
          "type": "address"
        },
        {
          "indexed": false,
          "internalType": "uint256",
          "name": "nftId",
          "type": "uint256"
        }
      ],
      "name": "CarForSale",
      "type": "event"
    },
    {
      "anonymous": false,
      "inputs": [
        {
          "indexed": false,
          "internalType": "address",
          "name": "_address",
          "type": "address"
        },
        {
          "indexed": false,
          "internalType": "uint256",
          "name": "nftId",
          "type": "uint256"
        }
      ],
      "name": "CarInfosIsUpdatedForSale",
      "type": "event"
    },
    {
      "anonymous": false,
      "inputs": [
        {
          "indexed": false,
          "internalType": "address",
          "name": "_address",
          "type": "address"
        },
        {
          "indexed": false,
          "internalType": "uint256",
          "name": "nftId",
          "type": "uint256"
        }
      ],
      "name": "CarIsScrapped",
      "type": "event"
    },
    {
      "anonymous": false,
      "inputs": [
        {
          "indexed": false,
          "internalType": "address",
          "name": "_address",
          "type": "address"
        },
        {
          "indexed": false,
          "internalType": "uint256",
          "name": "nftId",
          "type": "uint256"
        }
      ],
      "name": "CarIsStolen",
      "type": "event"
    },
    {
      "anonymous": false,
      "inputs": [
        {
          "indexed": false,
          "internalType": "address",
          "name": "_address",
          "type": "address"
        },
        {
          "indexed": false,
          "internalType": "uint256",
          "name": "nftId",
          "type": "uint256"
        }
      ],
      "name": "CarStatusReinitForSale",
      "type": "event"
    },
    {
      "anonymous": false,
      "inputs": [
        {
          "indexed": false,
          "internalType": "uint256",
          "name": "nftId",
          "type": "uint256"
        }
      ],
      "name": "KycIsDone",
      "type": "event"
    },
    {
      "anonymous": false,
      "inputs": [
        {
          "indexed": false,
          "internalType": "address",
          "name": "_address",
          "type": "address"
        },
        {
          "indexed": false,
          "internalType": "uint256",
          "name": "nftId",
          "type": "uint256"
        }
      ],
      "name": "KycIsWaiting",
      "type": "event"
    },
    {
      "anonymous": false,
      "inputs": [
        {
          "indexed": false,
          "internalType": "address",
          "name": "_address",
          "type": "address"
        }
      ],
      "name": "LogDepositReceived",
      "type": "event"
    },
    {
      "anonymous": false,
      "inputs": [
        {
          "indexed": false,
          "internalType": "address",
          "name": "userAddress",
          "type": "address"
        },
        {
          "indexed": false,
          "internalType": "string",
          "name": "tokenURI",
          "type": "string"
        },
        {
          "indexed": false,
          "internalType": "uint256",
          "name": "nftId",
          "type": "uint256"
        },
        {
          "indexed": false,
          "internalType": "string",
          "name": "vin",
          "type": "string"
        },
        {
          "indexed": false,
          "internalType": "string",
          "name": "brand",
          "type": "string"
        },
        {
          "indexed": false,
          "internalType": "string",
          "name": "model",
          "type": "string"
        },
        {
          "indexed": false,
          "internalType": "string",
          "name": "color",
          "type": "string"
        },
        {
          "indexed": false,
          "internalType": "uint32",
          "name": "power",
          "type": "uint32"
        },
        {
          "indexed": false,
          "internalType": "string",
          "name": "registrationCountry",
          "type": "string"
        },
        {
          "indexed": false,
          "internalType": "uint32",
          "name": "registrationDate",
          "type": "uint32"
        }
      ],
      "name": "Minted",
      "type": "event"
    },
    {
      "anonymous": false,
      "inputs": [
        {
          "indexed": true,
          "internalType": "address",
          "name": "previousOwner",
          "type": "address"
        },
        {
          "indexed": true,
          "internalType": "address",
          "name": "newOwner",
          "type": "address"
        }
      ],
      "name": "OwnershipTransferred",
      "type": "event"
    },
    {
      "anonymous": false,
      "inputs": [
        {
          "indexed": false,
          "internalType": "address",
          "name": "_address",
          "type": "address"
        },
        {
          "indexed": false,
          "internalType": "uint256",
          "name": "nftId",
          "type": "uint256"
        }
      ],
      "name": "StopDelegation",
      "type": "event"
    },
    {
      "anonymous": false,
      "inputs": [
        {
          "indexed": true,
          "internalType": "address",
          "name": "from",
          "type": "address"
        },
        {
          "indexed": true,
          "internalType": "address",
          "name": "to",
          "type": "address"
        },
        {
          "indexed": true,
          "internalType": "uint256",
          "name": "tokenId",
          "type": "uint256"
        }
      ],
      "name": "Transfer",
      "type": "event"
    },
    {
      "stateMutability": "payable",
      "type": "fallback",
      "payable": true
    },
    {
      "inputs": [
        {
          "internalType": "address",
          "name": "to",
          "type": "address"
        },
        {
          "internalType": "uint256",
          "name": "tokenId",
          "type": "uint256"
        }
      ],
      "name": "approve",
      "outputs": [],
      "stateMutability": "nonpayable",
      "type": "function"
    },
    {
      "inputs": [
        {
          "internalType": "address",
          "name": "owner",
          "type": "address"
        }
      ],
      "name": "balanceOf",
      "outputs": [
        {
          "internalType": "uint256",
          "name": "",
          "type": "uint256"
        }
      ],
      "stateMutability": "view",
      "type": "function",
      "constant": true
    },
    {
      "inputs": [
        {
          "internalType": "uint256",
          "name": "tokenId",
          "type": "uint256"
        }
      ],
      "name": "getApproved",
      "outputs": [
        {
          "internalType": "address",
          "name": "",
          "type": "address"
        }
      ],
      "stateMutability": "view",
      "type": "function",
      "constant": true
    },
    {
      "inputs": [
        {
          "internalType": "address",
          "name": "owner",
          "type": "address"
        },
        {
          "internalType": "address",
          "name": "operator",
          "type": "address"
        }
      ],
      "name": "isApprovedForAll",
      "outputs": [
        {
          "internalType": "bool",
          "name": "",
          "type": "bool"
        }
      ],
      "stateMutability": "view",
      "type": "function",
      "constant": true
    },
    {
      "inputs": [],
      "name": "name",
      "outputs": [
        {
          "internalType": "string",
          "name": "",
          "type": "string"
        }
      ],
      "stateMutability": "view",
      "type": "function",
      "constant": true
    },
    {
      "inputs": [
        {
          "internalType": "address",
          "name": "",
          "type": "address"
        },
        {
          "internalType": "uint256",
          "name": "",
          "type": "uint256"
        }
      ],
      "name": "nftIdAndDelegator",
      "outputs": [
        {
          "internalType": "uint256",
          "name": "",
          "type": "uint256"
        }
      ],
      "stateMutability": "view",
      "type": "function",
      "constant": true
    },
    {
      "inputs": [
        {
          "internalType": "address",
          "name": "",
          "type": "address"
        },
        {
          "internalType": "uint256",
          "name": "",
          "type": "uint256"
        }
      ],
      "name": "nftIdAndOwner",
      "outputs": [
        {
          "internalType": "uint256",
          "name": "",
          "type": "uint256"
        }
      ],
      "stateMutability": "view",
      "type": "function",
      "constant": true
    },
    {
      "inputs": [],
      "name": "owner",
      "outputs": [
        {
          "internalType": "address",
          "name": "",
          "type": "address"
        }
      ],
      "stateMutability": "view",
      "type": "function",
      "constant": true
    },
    {
      "inputs": [
        {
          "internalType": "uint256",
          "name": "tokenId",
          "type": "uint256"
        }
      ],
      "name": "ownerOf",
      "outputs": [
        {
          "internalType": "address",
          "name": "",
          "type": "address"
        }
      ],
      "stateMutability": "view",
      "type": "function",
      "constant": true
    },
    {
      "inputs": [],
      "name": "renounceOwnership",
      "outputs": [],
      "stateMutability": "nonpayable",
      "type": "function"
    },
    {
      "inputs": [
        {
          "internalType": "address",
          "name": "operator",
          "type": "address"
        },
        {
          "internalType": "bool",
          "name": "approved",
          "type": "bool"
        }
      ],
      "name": "setApprovalForAll",
      "outputs": [],
      "stateMutability": "nonpayable",
      "type": "function"
    },
    {
      "inputs": [
        {
          "internalType": "bytes4",
          "name": "interfaceId",
          "type": "bytes4"
        }
      ],
      "name": "supportsInterface",
      "outputs": [
        {
          "internalType": "bool",
          "name": "",
          "type": "bool"
        }
      ],
      "stateMutability": "view",
      "type": "function",
      "constant": true
    },
    {
      "inputs": [],
      "name": "symbol",
      "outputs": [
        {
          "internalType": "string",
          "name": "",
          "type": "string"
        }
      ],
      "stateMutability": "view",
      "type": "function",
      "constant": true
    },
    {
      "inputs": [
        {
          "internalType": "uint256",
          "name": "tokenId",
          "type": "uint256"
        }
      ],
      "name": "tokenURI",
      "outputs": [
        {
          "internalType": "string",
          "name": "",
          "type": "string"
        }
      ],
      "stateMutability": "view",
      "type": "function",
      "constant": true
    },
    {
      "inputs": [
        {
          "internalType": "address",
          "name": "newOwner",
          "type": "address"
        }
      ],
      "name": "transferOwnership",
      "outputs": [],
      "stateMutability": "nonpayable",
      "type": "function"
    },
    {
      "stateMutability": "payable",
      "type": "receive",
      "payable": true
    },
    {
      "inputs": [
        {
          "internalType": "string",
          "name": "_tokenURI",
          "type": "string"
        },
        {
          "internalType": "string",
          "name": "_vin",
          "type": "string"
        },
        {
          "internalType": "string",
          "name": "_brand",
          "type": "string"
        },
        {
          "internalType": "string",
          "name": "_model",
          "type": "string"
        },
        {
          "internalType": "string",
          "name": "_color",
          "type": "string"
        },
        {
          "internalType": "uint32",
          "name": "_power",
          "type": "uint32"
        },
        {
          "internalType": "string",
          "name": "_registrationCountry",
          "type": "string"
        },
        {
          "internalType": "uint32",
          "name": "_registrationDate",
          "type": "uint32"
        }
      ],
      "name": "mintCar",
      "outputs": [
        {
          "internalType": "uint256",
          "name": "",
          "type": "uint256"
        }
      ],
      "stateMutability": "nonpayable",
      "type": "function"
    },
    {
      "inputs": [
        {
          "internalType": "address",
          "name": "_owner",
          "type": "address"
        }
      ],
      "name": "getNftIdsByAddress",
      "outputs": [
        {
          "internalType": "uint256[]",
          "name": "",
          "type": "uint256[]"
        }
      ],
      "stateMutability": "view",
      "type": "function",
      "constant": true
    },
    {
      "inputs": [
        {
          "internalType": "address",
          "name": "_owner",
          "type": "address"
        }
      ],
      "name": "getNftIdsByDelegatorAddress",
      "outputs": [
        {
          "internalType": "uint256[]",
          "name": "",
          "type": "uint256[]"
        }
      ],
      "stateMutability": "view",
      "type": "function",
      "constant": true
    },
    {
      "inputs": [
        {
          "internalType": "bool",
          "name": "_isOnSale",
          "type": "bool"
        },
        {
          "internalType": "bool",
          "name": "_isDelegated",
          "type": "bool"
        },
        {
          "internalType": "bool",
          "name": "_isStolen",
          "type": "bool"
        },
        {
          "internalType": "bool",
          "name": "_isWaitingKyc",
          "type": "bool"
        },
        {
          "internalType": "bool",
          "name": "_isKycDone",
          "type": "bool"
        },
        {
          "internalType": "bool",
          "name": "_isScrapped",
          "type": "bool"
        }
      ],
      "name": "getNftIdsByStatus",
      "outputs": [
        {
          "internalType": "uint256[]",
          "name": "",
          "type": "uint256[]"
        }
      ],
      "stateMutability": "view",
      "type": "function",
      "constant": true
    },
    {
      "inputs": [
        {
          "internalType": "uint256",
          "name": "_tokenIds",
          "type": "uint256"
        }
      ],
      "name": "kycIsApproved",
      "outputs": [],
      "stateMutability": "nonpayable",
      "type": "function"
    },
    {
      "inputs": [
        {
          "internalType": "uint256",
          "name": "_tokenIds",
          "type": "uint256"
        }
      ],
      "name": "getCarNft",
      "outputs": [
        {
          "components": [
            {
              "internalType": "string",
              "name": "vin",
              "type": "string"
            },
            {
              "internalType": "string",
              "name": "brand",
              "type": "string"
            },
            {
              "internalType": "string",
              "name": "model",
              "type": "string"
            },
            {
              "internalType": "string",
              "name": "color",
              "type": "string"
            },
            {
              "internalType": "uint32",
              "name": "power",
              "type": "uint32"
            },
            {
              "internalType": "string",
              "name": "registrationCountry",
              "type": "string"
            },
            {
              "internalType": "uint32",
              "name": "registrationDate",
              "type": "uint32"
            },
            {
              "internalType": "string",
              "name": "linkDocument",
              "type": "string"
            },
            {
              "components": [
                {
                  "internalType": "bool",
                  "name": "isOnSale",
                  "type": "bool"
                },
                {
                  "internalType": "bool",
                  "name": "isDelegated",
                  "type": "bool"
                },
                {
                  "internalType": "bool",
                  "name": "isStolen",
                  "type": "bool"
                },
                {
                  "internalType": "bool",
                  "name": "isWaitingKyc",
                  "type": "bool"
                },
                {
                  "internalType": "bool",
                  "name": "isKycDone",
                  "type": "bool"
                },
                {
                  "internalType": "bool",
                  "name": "isScrapped",
                  "type": "bool"
                }
              ],
              "internalType": "struct BlockCar.Status",
              "name": "status",
              "type": "tuple"
            },
            {
              "components": [
                {
                  "internalType": "uint32",
                  "name": "mileage",
                  "type": "uint32"
                },
                {
                  "internalType": "uint32",
                  "name": "price",
                  "type": "uint32"
                },
                {
                  "internalType": "uint32",
                  "name": "localisation",
                  "type": "uint32"
                },
                {
                  "internalType": "string",
                  "name": "contactDetails",
                  "type": "string"
                }
              ],
              "internalType": "struct BlockCar.InfosForSale",
              "name": "infosForSale",
              "type": "tuple"
            }
          ],
          "internalType": "struct BlockCar.Car",
          "name": "",
          "type": "tuple"
        }
      ],
      "stateMutability": "view",
      "type": "function",
      "constant": true
    },
    {
      "inputs": [
        {
          "internalType": "uint256",
          "name": "_tokenIds",
          "type": "uint256"
        },
        {
          "internalType": "uint32",
          "name": "_mileage",
          "type": "uint32"
        },
        {
          "internalType": "uint32",
          "name": "_price",
          "type": "uint32"
        },
        {
          "internalType": "uint32",
          "name": "_localisation",
          "type": "uint32"
        },
        {
          "internalType": "string",
          "name": "_contactDetails",
          "type": "string"
        }
      ],
      "name": "carIsForSaleAndSetInformationsForSale",
      "outputs": [],
      "stateMutability": "nonpayable",
      "type": "function"
    },
    {
      "inputs": [
        {
          "internalType": "uint256",
          "name": "_tokenIds",
          "type": "uint256"
        }
      ],
      "name": "carIsStolen",
      "outputs": [],
      "stateMutability": "nonpayable",
      "type": "function"
    },
    {
      "inputs": [
        {
          "internalType": "uint256",
          "name": "_tokenIds",
          "type": "uint256"
        }
      ],
      "name": "carIsScrapped",
      "outputs": [],
      "stateMutability": "nonpayable",
      "type": "function"
    },
    {
      "inputs": [
        {
          "internalType": "uint256",
          "name": "_tokenIds",
          "type": "uint256"
        }
      ],
      "name": "reinitStatusForSelling",
      "outputs": [],
      "stateMutability": "nonpayable",
      "type": "function"
    },
    {
      "inputs": [
        {
          "internalType": "address",
          "name": "delegatorAddress",
          "type": "address"
        },
        {
          "internalType": "uint256",
          "name": "_tokenIds",
          "type": "uint256"
        }
      ],
      "name": "delegeteCar",
      "outputs": [],
      "stateMutability": "nonpayable",
      "type": "function"
    },
    {
      "inputs": [
        {
          "internalType": "uint256",
          "name": "_tokenIds",
          "type": "uint256"
        }
      ],
      "name": "stopDelegation",
      "outputs": [],
      "stateMutability": "nonpayable",
      "type": "function"
    },
    {
      "inputs": [
        {
          "internalType": "uint256",
          "name": "_tokenIds",
          "type": "uint256"
        }
      ],
      "name": "askKyc",
      "outputs": [],
      "stateMutability": "nonpayable",
      "type": "function"
    },
    {
      "inputs": [
        {
          "internalType": "address",
          "name": "from",
          "type": "address"
        },
        {
          "internalType": "address",
          "name": "to",
          "type": "address"
        },
        {
          "internalType": "uint256",
          "name": "tokenId",
          "type": "uint256"
        }
      ],
      "name": "transferFrom",
      "outputs": [],
      "stateMutability": "nonpayable",
      "type": "function"
    },
    {
      "inputs": [
        {
          "internalType": "address",
          "name": "from",
          "type": "address"
        },
        {
          "internalType": "address",
          "name": "to",
          "type": "address"
        },
        {
          "internalType": "uint256",
          "name": "tokenId",
          "type": "uint256"
        }
      ],
      "name": "safeTransferFrom",
      "outputs": [],
      "stateMutability": "nonpayable",
      "type": "function"
    },
    {
      "inputs": [
        {
          "internalType": "address",
          "name": "from",
          "type": "address"
        },
        {
          "internalType": "address",
          "name": "to",
          "type": "address"
        },
        {
          "internalType": "uint256",
          "name": "tokenId",
          "type": "uint256"
        },
        {
          "internalType": "bytes",
          "name": "data",
          "type": "bytes"
        }
      ],
      "name": "safeTransferFrom",
      "outputs": [],
      "stateMutability": "nonpayable",
      "type": "function"
    },
    {
      "inputs": [
        {
          "internalType": "uint256",
          "name": "_tokenIds",
          "type": "uint256"
        }
      ],
      "name": "sellNftAndTransferValueToOwner",
      "outputs": [],
      "stateMutability": "payable",
      "type": "function",
      "payable": true
    },
    {
      "inputs": [
        {
          "internalType": "uint256",
          "name": "_tokenIds",
          "type": "uint256"
        }
      ],
      "name": "sellNftAndTransferValueToOwnerAndDelegator",
      "outputs": [],
      "stateMutability": "payable",
      "type": "function",
      "payable": true
    },
    {
      "inputs": [],
      "name": "withdrawal",
      "outputs": [],
      "stateMutability": "nonpayable",
      "type": "function"
    }
  ],
  "bytecode": "0x60806040523480156200001157600080fd5b5060405180604001604052806008815260200167213637b1b5a1b0b960c11b81525060405180604001604052806003815260200162424c4360e81b81525081600090816200006091906200018d565b5060016200006f82826200018d565b5050506200008c620000866200009260201b60201c565b62000096565b62000259565b3390565b600780546001600160a01b038381166001600160a01b0319831681179093556040519116919082907f8be0079c531659141344cd1fd0a4f28419497f9722a3daafe3b4186f6b6457e090600090a35050565b634e487b7160e01b600052604160045260246000fd5b600181811c908216806200011357607f821691505b6020821081036200013457634e487b7160e01b600052602260045260246000fd5b50919050565b601f8211156200018857600081815260208120601f850160051c81016020861015620001635750805b601f850160051c820191505b8181101562000184578281556001016200016f565b5050505b505050565b81516001600160401b03811115620001a957620001a9620000e8565b620001c181620001ba8454620000fe565b846200013a565b602080601f831160018114620001f95760008415620001e05750858301515b600019600386901b1c1916600185901b17855562000184565b600085815260208120601f198616915b828110156200022a5788860151825594840194600190910190840162000209565b5085821015620002495787850151600019600388901b60f8161c191681555b5050505050600190811b01905550565b61408480620002696000396000f3fe60806040526004361061018d5760003560e01c806301ffc9a7146101e157806304fd79eb1461021657806306fdde031461022b578063081812fc1461024d578063095ea7b31461027a578063138391cf1461029a57806317077f34146102ba57806323b872dd146102da5780632bb02add146102fa57806342842e0e1461031a5780635e99032c1461033a57806362232d60146103685780636352211e146103885780636dfdd3d1146103a857806370a08231146103d5578063715018a6146103f5578063843cdb251461040a5780638654ffae146104375780638da5cb5b1461045757806395d89b411461046c578063a22cb46514610481578063b1dcf54b146104a1578063b7e38874146104b4578063b88d4fde146104d4578063c87b56dd146104f4578063d3ee4b1f14610514578063d4d50cf514610534578063d4e9329214610554578063d9f613c414610569578063dd79753014610589578063e4003a8b146105a9578063e556e7f4146105c9578063e985e9c5146105e9578063f2fde38b14610609576101b9565b366101b95760008051602061402f833981519152336040516101af919061331f565b60405180910390a1005b36156101c457600080fd5b60008051602061402f833981519152336040516101af919061331f565b3480156101ed57600080fd5b506102016101fc366004613349565b610629565b60405190151581526020015b60405180910390f35b610229610224366004613366565b61067b565b005b34801561023757600080fd5b506102406107ca565b60405161020d91906133cf565b34801561025957600080fd5b5061026d610268366004613366565b61085c565b60405161020d919061331f565b34801561028657600080fd5b506102296102953660046133fe565b610883565b3480156102a657600080fd5b506102296102b5366004613366565b610998565b3480156102c657600080fd5b506102296102d5366004613366565b610a5f565b3480156102e657600080fd5b506102296102f5366004613428565b610b56565b34801561030657600080fd5b50610229610315366004613366565b610b6c565b34801561032657600080fd5b50610229610335366004613428565b610cbc565b34801561034657600080fd5b5061035a6103553660046133fe565b610cd7565b60405190815260200161020d565b34801561037457600080fd5b5061035a610383366004613523565b610d08565b34801561039457600080fd5b5061026d6103a3366004613366565b611300565b3480156103b457600080fd5b506103c86103c336600461363a565b611334565b60405161020d9190613655565b3480156103e157600080fd5b5061035a6103f036600461363a565b6113a0565b34801561040157600080fd5b50610229611426565b34801561041657600080fd5b5061042a610425366004613366565b61143a565b60405161020d91906136d8565b34801561044357600080fd5b506102296104523660046133fe565b611964565b34801561046357600080fd5b5061026d611a71565b34801561047857600080fd5b50610240611a80565b34801561048d57600080fd5b5061022961049c366004613847565b611a8f565b6102296104af366004613366565b611a9e565b3480156104c057600080fd5b506102296104cf36600461387a565b611b38565b3480156104e057600080fd5b506102296104ef366004613926565b611ceb565b34801561050057600080fd5b5061024061050f366004613366565b611d02565b34801561052057600080fd5b5061022961052f366004613366565b611e12565b34801561054057600080fd5b506103c861054f36600461363a565b611efa565b34801561056057600080fd5b50610229611f64565b34801561057557600080fd5b506103c86105843660046139a1565b612034565b34801561059557600080fd5b506102296105a4366004613366565b6123fc565b3480156105b557600080fd5b506102296105c4366004613366565b6124e3565b3480156105d557600080fd5b5061035a6105e43660046133fe565b61264b565b3480156105f557600080fd5b50610201610604366004613a15565b612667565b34801561061557600080fd5b5061022961062436600461363a565b612695565b60006001600160e01b031982166380ac58cd60e01b148061065a57506001600160e01b03198216635b5e139f60e01b145b8061067557506301ffc9a760e01b6001600160e01b03198316145b92915050565b6000600a61068a346009613a55565b6106949190613a6c565b905060006106a3600a34613a6c565b905060006106b084611300565b905060006106bd8561085c565b90506106d26106cb86611300565b3387610cbc565b6000826001600160a01b03168560405160006040518083038185875af1925050503d806000811461071f576040519150601f19603f3d011682016040523d82523d6000602084013e610724565b606091505b505090508061074e5760405162461bcd60e51b815260040161074590613a8e565b60405180910390fd5b6000826001600160a01b03168560405160006040518083038185875af1925050503d806000811461079b576040519150601f19603f3d011682016040523d82523d6000602084013e6107a0565b606091505b50509050806107c15760405162461bcd60e51b815260040161074590613a8e565b50505050505050565b6060600080546107d990613abc565b80601f016020809104026020016040519081016040528092919081815260200182805461080590613abc565b80156108525780601f1061082757610100808354040283529160200191610852565b820191906000526020600020905b81548152906001019060200180831161083557829003601f168201915b5050505050905090565b60006108678261270b565b506000908152600460205260409020546001600160a01b031690565b600061088e82611300565b9050806001600160a01b0316836001600160a01b0316036108fb5760405162461bcd60e51b815260206004820152602160248201527f4552433732313a20617070726f76616c20746f2063757272656e74206f776e656044820152603960f91b6064820152608401610745565b336001600160a01b038216148061091757506109178133612667565b6109895760405162461bcd60e51b815260206004820152603d60248201527f4552433732313a20617070726f76652063616c6c6572206973206e6f7420746f60448201527f6b656e206f776e6572206f7220617070726f76656420666f7220616c6c0000006064820152608401610745565b6109938383612730565b505050565b6109a061279e565b600081815260096020526040902060080154600160201b900460ff16156109ff5760405162461bcd60e51b81526020600482015260136024820152724b594320697320616c726561647920646f6e6560681b6044820152606401610745565b60008181526009602052604090819020600801805464ffff0000001916600160201b179055517fb4293506fd0891b482e7ab2fdd3324ba5140637e19b16e1500b0c9e10007912c90610a549083815260200190565b60405180910390a150565b8033610a6a82611300565b6001600160a01b03161480610ab6575033610a848261085c565b6001600160a01b0316148015610ab6575060008181526009602052604090206008015460ff6101009091041615156001145b610ad25760405162461bcd60e51b815260040161074590613af6565b600854811115610af45760405162461bcd60e51b815260040161074590613b26565b60008281526009602052604090819020600801805465ff00000000ff1916600160281b179055517fb96055dc390556bfafab4e01280bb37f129238dfdf4f5ce86cb8254a296a5fcd90610b4a9033908590613b59565b60405180910390a15050565b610b618383836127fd565b610993838383612912565b8033610b7782611300565b6001600160a01b031614610b9d5760405162461bcd60e51b815260040161074590613b72565b600854811115610bbf5760405162461bcd60e51b815260040161074590613b26565b60008281526009602052604090206008015460ff610100909104161515600114610c265760405162461bcd60e51b8152602060048201526018602482015277151a1948139195081a5cc81b9bdd0819195b1959d85d195960421b6044820152606401610745565b6000828152600960205260408120600801805461ff0019169055600b90610c4c8461085c565b6001600160a01b03166001600160a01b031681526020019081526020016000208281548110610c7d57610c7d613ba1565b90600052602060002001600090557fad49dd00456a9f6e9ce6a3ba7797224fd1b1aac7ee2fe01bdf250b1a41f3323e3383604051610b4a929190613b59565b61099383838360405180602001604052806000815250611ceb565b600a6020528160005260406000208181548110610cf357600080fd5b90600052602060002001600091509150505481565b600033610d495760405162461bcd60e51b815260206004820152600f60248201526e496e76616c6964206164647265737360881b6044820152606401610745565b6000895111610d8e5760405162461bcd60e51b8152602060048201526011602482015270496e76616c696420746f6b656e2055524960781b6044820152606401610745565b6000885111610dcd5760405162461bcd60e51b815260206004820152600b60248201526a24b73b30b634b2102b24a760a91b6044820152606401610745565b6000875111610e0e5760405162461bcd60e51b815260206004820152600d60248201526c125b9d985b1a5908189c985b99609a1b6044820152606401610745565b6000865111610e505760405162461bcd60e51b815260206004820152600e60248201526d125b9d985b1a59081b5bd90c195b60921b6044820152606401610745565b6000855111610e715760405162461bcd60e51b815260040161074590613bb7565b60008463ffffffff1611610eb75760405162461bcd60e51b815260206004820152600d60248201526c24b73b30b634b2103837bbb2b960991b6044820152606401610745565b6000835111610f075760405162461bcd60e51b815260206004820152601c60248201527b496e76616c696420726567697374726174696f6e20636f756e74727960201b6044820152606401610745565b60008263ffffffff1611610f595760405162461bcd60e51b8152602060048201526019602482015278496e76616c696420726567697374726174696f6e206461746560381b6044820152606401610745565b610f67600880546001019055565b6000610f7260085490565b9050610f7e3382612a64565b610f88818b612b5f565b600a6000336001600160a01b03166001600160a01b0316815260200190815260200160002081908060018154018082558091505060019003906000526020600020016000909190919091505560006040518060c0016040528060001515815260200160001515815260200160001515815260200160001515815260200160001515815260200160001515815250905060006040518060800160405280600063ffffffff168152602001600063ffffffff168152602001600063ffffffff16815260200160405180602001604052806000815250815250905060006040518061014001604052808d81526020018c81526020018b81526020018a81526020018963ffffffff1681526020018881526020018763ffffffff168152602001604051806020016040528060008152508152602001848152602001838152509050806009600086815260200190815260200160002060008201518160000190816110ee9190613c41565b50602082015160018201906111039082613c41565b50604082015160028201906111189082613c41565b506060820151600382019061112d9082613c41565b50608082015160048201805463ffffffff191663ffffffff90921691909117905560a082015160058201906111629082613c41565b5060c082015160068201805463ffffffff191663ffffffff90921691909117905560e082015160078201906111979082613c41565b5061010082810151805160088401805460208085015160408087015160608089015160808a015160a0909a015161ffff1990971698151561ff001916989098179315159099029290921763ffff00001916620100009215159290920263ff0000001916919091176301000000951515959095029490941761ffff60201b1916600160201b951515860260ff60281b191617600160281b92151592909202919091179091556101208601518051600987018054938301519483015163ffffffff9283166001600160401b0319909516949094179482169095029390931763ffffffff60401b1916600160401b939092169290920217825591820151600a8401906112a09082613c41565b5050509050507f9d9e037da80b359004ae7c185bb38ec26e586e28db82390fd43ec2664e105868338e868f8f8f8f8f8f8f6040516112e79a99989796959493929190613cfa565b60405180910390a150919b9a5050505050505050505050565b60008061130c83612be3565b90506001600160a01b0381166106755760405162461bcd60e51b815260040161074590613db3565b6001600160a01b0381166000908152600a602090815260409182902080548351818402810184019094528084526060939283018282801561139457602002820191906000526020600020905b815481526020019060010190808311611380575b50505050509050919050565b60006001600160a01b03821661140a5760405162461bcd60e51b815260206004820152602960248201527f4552433732313a2061646472657373207a65726f206973206e6f7420612076616044820152683634b21037bbb732b960b91b6064820152608401610745565b506001600160a01b031660009081526003602052604090205490565b61142e61279e565b6114386000612bfe565b565b611442613261565b6008548211156114645760405162461bcd60e51b815260040161074590613b26565b600082815260096020526040908190208151610140810190925280548290829061148d90613abc565b80601f01602080910402602001604051908101604052809291908181526020018280546114b990613abc565b80156115065780601f106114db57610100808354040283529160200191611506565b820191906000526020600020905b8154815290600101906020018083116114e957829003601f168201915b5050505050815260200160018201805461151f90613abc565b80601f016020809104026020016040519081016040528092919081815260200182805461154b90613abc565b80156115985780601f1061156d57610100808354040283529160200191611598565b820191906000526020600020905b81548152906001019060200180831161157b57829003601f168201915b505050505081526020016002820180546115b190613abc565b80601f01602080910402602001604051908101604052809291908181526020018280546115dd90613abc565b801561162a5780601f106115ff5761010080835404028352916020019161162a565b820191906000526020600020905b81548152906001019060200180831161160d57829003601f168201915b5050505050815260200160038201805461164390613abc565b80601f016020809104026020016040519081016040528092919081815260200182805461166f90613abc565b80156116bc5780601f10611691576101008083540402835291602001916116bc565b820191906000526020600020905b81548152906001019060200180831161169f57829003601f168201915b5050509183525050600482015463ffffffff1660208201526005820180546040909201916116e990613abc565b80601f016020809104026020016040519081016040528092919081815260200182805461171590613abc565b80156117625780601f1061173757610100808354040283529160200191611762565b820191906000526020600020905b81548152906001019060200180831161174557829003601f168201915b5050509183525050600682015463ffffffff16602082015260078201805460409092019161178f90613abc565b80601f01602080910402602001604051908101604052809291908181526020018280546117bb90613abc565b80156118085780601f106117dd57610100808354040283529160200191611808565b820191906000526020600020905b8154815290600101906020018083116117eb57829003601f168201915b50505091835250506040805160c081018252600884015460ff8082161515835261010082048116151560208481019190915262010000830482161515848601526301000000830482161515606080860191909152600160201b80850484161515608080880191909152600160281b909504909316151560a0860152818701949094528451928301855260098701805463ffffffff8082168652938104841692850192909252600160401b90910490911682850152600a86018054949095019491939092840191906118d890613abc565b80601f016020809104026020016040519081016040528092919081815260200182805461190490613abc565b80156119515780601f1061192657610100808354040283529160200191611951565b820191906000526020600020905b81548152906001019060200180831161193457829003601f168201915b5050509190925250505090525092915050565b803361196f82611300565b6001600160a01b0316146119955760405162461bcd60e51b815260040161074590613b72565b6008548111156119b75760405162461bcd60e51b815260040161074590613b26565b600082815260096020526040902060080154600160201b900460ff161515600114611a1e5760405162461bcd60e51b8152602060048201526017602482015276151a194812d650c81a5cc81b9bdd08185c1c1c9bdd9959604a1b6044820152606401610745565b611a288383610883565b506001600160a01b039091166000908152600b602090815260408083208054600181018255908452828420018490559282526009905220600801805461ff001916610100179055565b6007546001600160a01b031690565b6060600180546107d990613abc565b611a9a338383612c50565b5050565b346000611aaa83611300565b9050611abf611ab884611300565b3385610cbc565b6000816001600160a01b03168360405160006040518083038185875af1925050503d8060008114611b0c576040519150601f19603f3d011682016040523d82523d6000602084013e611b11565b606091505b5050905080611b325760405162461bcd60e51b815260040161074590613a8e565b50505050565b8533611b4382611300565b6001600160a01b03161480611b8f575033611b5d8261085c565b6001600160a01b0316148015611b8f575060008181526009602052604090206008015460ff6101009091041615156001145b611bab5760405162461bcd60e51b815260040161074590613af6565b600854811115611bcd5760405162461bcd60e51b815260040161074590613b26565b60008663ffffffff1611611c1a5760405162461bcd60e51b81526020600482015260146024820152730546865206d696c656167652063616e20626520360641b6044820152606401610745565b60008563ffffffff1611611c645760405162461bcd60e51b81526020600482015260116024820152705468657265206973206e6f20707269636560781b6044820152606401610745565b60008463ffffffff1611611cb75760405162461bcd60e51b815260206004820152601a602482015279151a19481c1bddd95c881a5cc81b9bdd081a5b991a58d85d195960321b6044820152606401610745565b81611cd45760405162461bcd60e51b815260040161074590613bb7565b611cdd87612d1a565b6107c1878787878787612dfd565b611cf68484846127fd565b611b3284848484612f34565b6060611d0d8261270b565b60008281526006602052604081208054611d2690613abc565b80601f0160208091040260200160405190810160405280929190818152602001828054611d5290613abc565b8015611d9f5780601f10611d7457610100808354040283529160200191611d9f565b820191906000526020600020905b815481529060010190602001808311611d8257829003601f168201915b505050505090506000611dbd60408051602081019091526000815290565b90508051600003611dcf575092915050565b815115611e01578082604051602001611de9929190613de5565b60405160208183030381529060405292505050919050565b611e0a84612f67565b949350505050565b8033611e1d82611300565b6001600160a01b03161480611e69575033611e378261085c565b6001600160a01b0316148015611e69575060008181526009602052604090206008015460ff6101009091041615156001145b611e855760405162461bcd60e51b815260040161074590613af6565b600854811115611ea75760405162461bcd60e51b815260040161074590613b26565b60008281526009602052604090819020600801805465ff0000ff00ff19166001179055517f42de0c82dcee68944531d0808772e3ecdb27934b4ca5e911f5d3aa5f84f8051c90610b4a9033908590613b59565b6001600160a01b0381166000908152600b602090815260409182902080548351818402810184019094528084526060939283018282801561139457602002820191906000526020600020908154815260200190600101908083116113805750505050509050919050565b611f6c61279e565b6001471015611fc95760405162461bcd60e51b815260206004820152602360248201527f596f75206e656564206174206c6561737420312045544820746f20776974686460448201526272617760e81b6064820152608401610745565b604051600090339047908381818185875af1925050503d806000811461200b576040519150601f19603f3d011682016040523d82523d6000602084013e612010565b606091505b50509050806120315760405162461bcd60e51b815260040161074590613a8e565b50565b6060600061204160085490565b90506000805b828163ffffffff16116121dc5763ffffffff811660009081526009602052604090206008015460ff1615158a1515148015612084575060018a1515145b806120c0575063ffffffff811660009081526009602052604090206008015460ff6101009091041615158915151480156120c057506001891515145b806120fd575063ffffffff811660009081526009602052604090206008015460ff620100009091041615158815151480156120fd57506001881515145b8061213b575063ffffffff811660009081526009602052604090206008015460ff630100000090910416151587151514801561213b57506001871515145b80612179575063ffffffff811660009081526009602052604090206008015460ff600160201b90910416151586151514801561217957506001861515145b806121b7575063ffffffff811660009081526009602052604090206008015460ff600160281b9091041615158515151480156121b757506001851515145b156121ca57816121c681613e14565b9250505b806121d481613e14565b915050612047565b5060008163ffffffff166001600160401b038111156121fd576121fd613464565b604051908082528060200260200182016040528015612226578160200160208202803683370190505b5090506000805b848163ffffffff16116123ec5763ffffffff811660009081526009602052604090206008015460ff1615158c151514801561226a575060018c1515145b806122a6575063ffffffff811660009081526009602052604090206008015460ff6101009091041615158b15151480156122a6575060018b1515145b806122e3575063ffffffff811660009081526009602052604090206008015460ff620100009091041615158a15151480156122e3575060018a1515145b80612321575063ffffffff811660009081526009602052604090206008015460ff630100000090910416151589151514801561232157506001891515145b8061235f575063ffffffff811660009081526009602052604090206008015460ff600160201b90910416151588151514801561235f57506001881515145b8061239d575063ffffffff811660009081526009602052604090206008015460ff600160281b90910416151587151514801561239d57506001871515145b156123da578063ffffffff16838363ffffffff16815181106123c1576123c1613ba1565b6020908102919091010152816123d681613e14565b9250505b806123e481613e14565b91505061222d565b50909a9950505050505050505050565b803361240782611300565b6001600160a01b031614806124535750336124218261085c565b6001600160a01b0316148015612453575060008181526009602052604090206008015460ff6101009091041615156001145b61246f5760405162461bcd60e51b815260040161074590613af6565b6008548111156124915760405162461bcd60e51b815260040161074590613b26565b60008281526009602052604090819020600801805462ff00ff191662010000179055517f60e8a429222a855335f96447eb29a2ad534c03839cee40535bae9e8b90c35fa490610b4a9033908590613b59565b80336124ee82611300565b6001600160a01b0316146125145760405162461bcd60e51b815260040161074590613b72565b6008548111156125365760405162461bcd60e51b815260040161074590613b26565b600082815260096020526040902060080154600160201b900460ff16156125915760405162461bcd60e51b815260206004820152600f60248201526e546865204b594320697320646f6e6560881b6044820152606401610745565b6000828152600960205260409020600801546301000000900460ff16156125f75760405162461bcd60e51b815260206004820152601a602482015279546865204b594320697320616c72656164792077616974696e6760301b6044820152606401610745565b60008281526009602052604090819020600801805463ff00000019166301000000179055517f37c9295f2badb14d8e2d0c130c195c55982826812bed878e9fa0c3bd804d005190610b4a9033908590613b59565b600b6020528160005260406000208181548110610cf357600080fd5b6001600160a01b03918216600090815260056020908152604080832093909416825291909152205460ff1690565b61269d61279e565b6001600160a01b0381166127025760405162461bcd60e51b815260206004820152602660248201527f4f776e61626c653a206e6577206f776e657220697320746865207a65726f206160448201526564647265737360d01b6064820152608401610745565b61203181612bfe565b61271481612fdb565b6120315760405162461bcd60e51b815260040161074590613db3565b600081815260046020526040902080546001600160a01b0319166001600160a01b038416908117909155819061276582611300565b6001600160a01b03167f8c5be1e5ebec7d5bd14f71427d1e84f3dd0314c0f7b2291e5b200ac8c7c3b92560405160405180910390a45050565b336127a7611a71565b6001600160a01b0316146114385760405162461bcd60e51b815260206004820181905260248201527f4f776e61626c653a2063616c6c6572206973206e6f7420746865206f776e65726044820152606401610745565b803361280882611300565b6001600160a01b031614806128545750336128228261085c565b6001600160a01b0316148015612854575060008181526009602052604090206008015460ff6101009091041615156001145b6128705760405162461bcd60e51b815260040161074590613af6565b6008548111156128925760405162461bcd60e51b815260040161074590613b26565b6000828152600960209081526040808320600801805464ff0000ffff191690556001600160a01b0387168352600a90915290208054839081106128d7576128d7613ba1565b600091825260208083209091018290556001600160a01b039094168152600a8452604081208054600181018255908252939020909201555050565b826001600160a01b031661292582611300565b6001600160a01b03161461294b5760405162461bcd60e51b815260040161074590613e37565b6001600160a01b0382166129ad5760405162461bcd60e51b8152602060048201526024808201527f4552433732313a207472616e7366657220746f20746865207a65726f206164646044820152637265737360e01b6064820152608401610745565b826001600160a01b03166129c082611300565b6001600160a01b0316146129e65760405162461bcd60e51b815260040161074590613e37565b600081815260046020908152604080832080546001600160a01b03199081169091556001600160a01b03878116808652600385528386208054600019019055908716808652838620805460010190558686526002909452828520805490921684179091559051849360008051602061400f83398151915291a4505050565b6001600160a01b038216612aba5760405162461bcd60e51b815260206004820181905260248201527f4552433732313a206d696e7420746f20746865207a65726f20616464726573736044820152606401610745565b612ac381612fdb565b15612ae05760405162461bcd60e51b815260040161074590613e7c565b612ae981612fdb565b15612b065760405162461bcd60e51b815260040161074590613e7c565b6001600160a01b038216600081815260036020908152604080832080546001019055848352600290915280822080546001600160a01b03191684179055518392919060008051602061400f833981519152908290a45050565b612b6882612fdb565b612bcb5760405162461bcd60e51b815260206004820152602e60248201527f45524337323155524953746f726167653a2055524920736574206f66206e6f6e60448201526d32bc34b9ba32b73a103a37b5b2b760911b6064820152608401610745565b60008281526006602052604090206109938282613c41565b6000908152600260205260409020546001600160a01b031690565b600780546001600160a01b038381166001600160a01b0319831681179093556040519116919082907f8be0079c531659141344cd1fd0a4f28419497f9722a3daafe3b4186f6b6457e090600090a35050565b816001600160a01b0316836001600160a01b031603612cad5760405162461bcd60e51b815260206004820152601960248201527822a9219b99189d1030b8383937bb32903a379031b0b63632b960391b6044820152606401610745565b6001600160a01b03838116600081815260056020908152604080832094871680845294825291829020805460ff191686151590811790915591519182527f17307eab39ab6107e8899845ad3d59bd9653f200f220920489ca2b5937696c31910160405180910390a3505050565b8033612d2582611300565b6001600160a01b03161480612d71575033612d3f8261085c565b6001600160a01b0316148015612d71575060008181526009602052604090206008015460ff6101009091041615156001145b612d8d5760405162461bcd60e51b815260040161074590613af6565b600854811115612daf5760405162461bcd60e51b815260040161074590613b26565b60008281526009602052604090819020600801805460ff19166001179055517f3430d398933c226727007f56eff4241254cdc4b3f2301b0fb5d396795bd5e6a090610b4a9033908590613b59565b8533612e0882611300565b6001600160a01b03161480612e54575033612e228261085c565b6001600160a01b0316148015612e54575060008181526009602052604090206008015460ff6101009091041615156001145b612e705760405162461bcd60e51b815260040161074590613af6565b600854811115612e925760405162461bcd60e51b815260040161074590613b26565b6000878152600960208190526040909120908101805463ffffffff878116600160401b0263ffffffff60401b198a8316600160201b026001600160401b0319909416928c16929092179290921716179055600a01612ef1838583613eb2565b507fd8a68757b0f1a481cde06cf48ee7ea1ccd5d4cf3a737c3aedda4c26e86a5081c3388604051612f23929190613b59565b60405180910390a150505050505050565b612f3f848484612912565b612f4b84848484612ff8565b611b325760405162461bcd60e51b815260040161074590613f6c565b6060612f728261270b565b6000612f8960408051602081019091526000815290565b90506000815111612fa95760405180602001604052806000815250612fd4565b80612fb3846130f9565b604051602001612fc4929190613de5565b6040516020818303038152906040525b9392505050565b600080612fe783612be3565b6001600160a01b0316141592915050565b60006001600160a01b0384163b156130ee57604051630a85bd0160e11b81526001600160a01b0385169063150b7a029061303c903390899088908890600401613fbe565b6020604051808303816000875af1925050508015613077575060408051601f3d908101601f1916820190925261307491810190613ff1565b60015b6130d4573d8080156130a5576040519150601f19603f3d011682016040523d82523d6000602084013e6130aa565b606091505b5080516000036130cc5760405162461bcd60e51b815260040161074590613f6c565b805181602001fd5b6001600160e01b031916630a85bd0160e11b149050611e0a565b506001949350505050565b606060006131068361318b565b60010190506000816001600160401b0381111561312557613125613464565b6040519080825280601f01601f19166020018201604052801561314f576020820181803683370190505b5090508181016020015b600019016f181899199a1a9b1b9c1cb0b131b232b360811b600a86061a8153600a850494508461315957509392505050565b60008072184f03e93ff9f4daa797ed6e38ed64bf6a1f0160401b83106131ca5772184f03e93ff9f4daa797ed6e38ed64bf6a1f0160401b830492506040015b6904ee2d6d415b85acef8160201b83106131f4576904ee2d6d415b85acef8160201b830492506020015b662386f26fc10000831061321257662386f26fc10000830492506010015b6305f5e100831061322a576305f5e100830492506008015b612710831061323e57612710830492506004015b60648310613250576064830492506002015b600a83106106755760010192915050565b60405180610140016040528060608152602001606081526020016060815260200160608152602001600063ffffffff16815260200160608152602001600063ffffffff168152602001606081526020016132f66040518060c001604052806000151581526020016000151581526020016000151581526020016000151581526020016000151581526020016000151581525090565b815260408051608081018252600080825260208281018290529282015260608082015291015290565b6001600160a01b0391909116815260200190565b6001600160e01b03198116811461203157600080fd5b60006020828403121561335b57600080fd5b8135612fd481613333565b60006020828403121561337857600080fd5b5035919050565b60005b8381101561339a578181015183820152602001613382565b50506000910152565b600081518084526133bb81602086016020860161337f565b601f01601f19169290920160200192915050565b602081526000612fd460208301846133a3565b80356001600160a01b03811681146133f957600080fd5b919050565b6000806040838503121561341157600080fd5b61341a836133e2565b946020939093013593505050565b60008060006060848603121561343d57600080fd5b613446846133e2565b9250613454602085016133e2565b9150604084013590509250925092565b634e487b7160e01b600052604160045260246000fd5b60006001600160401b038084111561349457613494613464565b604051601f8501601f19908116603f011681019082821181831017156134bc576134bc613464565b816040528093508581528686860111156134d557600080fd5b858560208301376000602087830101525050509392505050565b600082601f83011261350057600080fd5b612fd48383356020850161347a565b803563ffffffff811681146133f957600080fd5b600080600080600080600080610100898b03121561354057600080fd5b88356001600160401b038082111561355757600080fd5b6135638c838d016134ef565b995060208b013591508082111561357957600080fd5b6135858c838d016134ef565b985060408b013591508082111561359b57600080fd5b6135a78c838d016134ef565b975060608b01359150808211156135bd57600080fd5b6135c98c838d016134ef565b965060808b01359150808211156135df57600080fd5b6135eb8c838d016134ef565b95506135f960a08c0161350f565b945060c08b013591508082111561360f57600080fd5b5061361c8b828c016134ef565b92505061362b60e08a0161350f565b90509295985092959890939650565b60006020828403121561364c57600080fd5b612fd4826133e2565b6020808252825182820181905260009190848201906040850190845b8181101561368d57835183529284019291840191600101613671565b50909695505050505050565b600063ffffffff80835116845280602084015116602085015280604084015116604085015250606082015160806060850152611e0a60808501826133a3565b60208152600082516101e08060208501526136f76102008501836133a3565b91506020850151601f198086850301604087015261371584836133a3565b9350604087015191508086850301606087015261373284836133a3565b9350606087015191508086850301608087015261374f84836133a3565b93506080870151915061376a60a087018363ffffffff169052565b60a08701519150808685030160c087015261378584836133a3565b935060c087015191506137a060e087018363ffffffff169052565b60e087015191506101008187860301818801526137bd85846133a3565b908801518051151561012089810191909152602082015115156101408a0152604082015115156101608a0152606082015115156101808a0152608082015115156101a08a015260a09091015115156101c089015288015187820392909201848801529350905061382d8382613699565b9695505050505050565b803580151581146133f957600080fd5b6000806040838503121561385a57600080fd5b613863836133e2565b915061387160208401613837565b90509250929050565b60008060008060008060a0878903121561389357600080fd5b863595506138a36020880161350f565b94506138b16040880161350f565b93506138bf6060880161350f565b925060808701356001600160401b03808211156138db57600080fd5b818901915089601f8301126138ef57600080fd5b8135818111156138fe57600080fd5b8a602082850101111561391057600080fd5b6020830194508093505050509295509295509295565b6000806000806080858703121561393c57600080fd5b613945856133e2565b9350613953602086016133e2565b92506040850135915060608501356001600160401b0381111561397557600080fd5b8501601f8101871361398657600080fd5b6139958782356020840161347a565b91505092959194509250565b60008060008060008060c087890312156139ba57600080fd5b6139c387613837565b95506139d160208801613837565b94506139df60408801613837565b93506139ed60608801613837565b92506139fb60808801613837565b9150613a0960a08801613837565b90509295509295509295565b60008060408385031215613a2857600080fd5b613a31836133e2565b9150613871602084016133e2565b634e487b7160e01b600052601160045260246000fd5b808202811582820484141761067557610675613a3f565b600082613a8957634e487b7160e01b600052601260045260246000fd5b500490565b6020808252601490820152737472616e73666572206469646e277420776f726b60601b604082015260600190565b600181811c90821680613ad057607f821691505b602082108103613af057634e487b7160e01b600052602260045260246000fd5b50919050565b602080825260169082015275165bdd48185c99481b9bdd08185d5d1a1bdc9a5e995960521b604082015260600190565b602080825260199082015278151a1948139195081a59081a5cc81b9bdd0818dbdc9c9958dd603a1b604082015260600190565b6001600160a01b03929092168252602082015260400190565b6020808252601590820152742cb7ba9030b932903737ba103a34329037bbb732b960591b604082015260600190565b634e487b7160e01b600052603260045260246000fd5b6020808252600d908201526c24b73b30b634b21031b7b637b960991b604082015260600190565b601f82111561099357600081815260208120601f850160051c81016020861015613c055750805b601f850160051c820191505b81811015613c2457828155600101613c11565b505050505050565b600019600383901b1c191660019190911b1790565b81516001600160401b03811115613c5a57613c5a613464565b613c6e81613c688454613abc565b84613bde565b602080601f831160018114613c9d5760008415613c8b5750858301515b613c958582613c2c565b865550613c24565b600085815260208120601f198616915b82811015613ccc57888601518255948401946001909101908401613cad565b5085821015613cea5787850151600019600388901b60f8161c191681555b5050505050600190811b01905550565b6001600160a01b038b16815261014060208201819052600090613d1f8382018d6133a3565b90508a60408401528281036060840152613d39818b6133a3565b90508281036080840152613d4d818a6133a3565b905082810360a0840152613d6181896133a3565b905082810360c0840152613d7581886133a3565b905063ffffffff80871660e0850152838203610100850152613d9782876133a3565b925080851661012085015250509b9a5050505050505050505050565b602080825260189082015277115490cdcc8c4e881a5b9d985b1a59081d1bdad95b88125160421b604082015260600190565b60008351613df781846020880161337f565b835190830190613e0b81836020880161337f565b01949350505050565b600063ffffffff808316818103613e2d57613e2d613a3f565b6001019392505050565b60208082526025908201527f4552433732313a207472616e736665722066726f6d20696e636f72726563742060408201526437bbb732b960d91b606082015260800190565b6020808252601c908201527b115490cdcc8c4e881d1bdad95b88185b1c9958591e481b5a5b9d195960221b604082015260600190565b6001600160401b03831115613ec957613ec9613464565b613edd83613ed78354613abc565b83613bde565b6000601f841160018114613f0b5760008515613ef95750838201355b613f038682613c2c565b845550613f65565b600083815260209020601f19861690835b82811015613f3c5786850135825560209485019460019092019101613f1c565b5086821015613f595760001960f88860031b161c19848701351681555b505060018560011b0183555b5050505050565b60208082526032908201527f4552433732313a207472616e7366657220746f206e6f6e20455243373231526560408201527131b2b4bb32b91034b6b83632b6b2b73a32b960711b606082015260800190565b6001600160a01b038581168252841660208201526040810183905260806060820181905260009061382d908301846133a3565b60006020828403121561400357600080fd5b8151612fd48161333356feddf252ad1be2c89b69c2b068fc378daa952ba7f163c4a11628f55a4df523b3ef15382559391789f1865e10e9c8b51327a9cb0381eae89973ada229e7a78c08f3a26469706673582212208b16e072bdf5b01f7b6835ab7fe949f628ae551e78276600fa5fd2b55330b1a564736f6c63430008120033",
  "immutableReferences": {},
  "source": "// SPDX-License-Identifier: MIT\npragma solidity 0.8.18;\n\nimport \"@openzeppelin/contracts/token/ERC721/ERC721.sol\";\nimport \"@openzeppelin/contracts/token/ERC721/extensions/ERC721URIStorage.sol\";\nimport \"@openzeppelin/contracts/utils/Counters.sol\";\nimport \"@openzeppelin/contracts/access/Ownable.sol\";\n//import \"./BlockCarLib.sol\";\n\n\n/**\n * @title BlockCar\n * @author Germain Winckel\n * @notice The blockCar contract code\n * @dev The blockCar contract code\n */\ncontract BlockCar is ERC721URIStorage, Ownable {\n    /**\n    * @dev The counter from the openzeppelin contract Counters.sol\n    */\n    using Counters for Counters.Counter;\n    Counters.Counter private tokenIds;\n\n    /**\n    * @dev The Status of each NFT, this struct is in the Car struct. When mint, all values are false\n    */\n    struct Status {\n        bool isOnSale;\n        bool isDelegated;\n        bool isStolen;\n        bool isWaitingKyc;\n        bool isKycDone;\n        bool isScrapped;\n    }\n\n    /**\n    * @dev Others informations we need for sell the car\n    */\n    struct InfosForSale {\n      \tuint32 mileage;\n      \tuint32 price;\n      \tuint32 localisation;\n      \tstring contactDetails;\n    }\n\n    /**\n    * @dev A complex type that all the statics informations of a NFT. \n\t* linkDocument contains all the link to the differents documents, the separtoir is ;\n    */\n\tstruct Car{\n\t\tstring vin;\n\t\tstring brand;\n\t\tstring model;\n      \tstring color;\n      \tuint32 power; //kw\n      \tstring registrationCountry;\n      \tuint32 registrationDate;    // dd/mm/yyyy\n      \tstring linkDocument;        //only value which can change\n      \tStatus status;\n        InfosForSale infosForSale;\n\t}\n    \n\t/// @dev Mapping the NFT ID with the car informations\n    mapping(uint256 => Car) nftCarInfos;\n\n    /// @dev Mapping the NFT ID with the owner\n    mapping(address => uint256[]) public nftIdAndOwner;  \n\n    /// @dev Mapping the NFT ID with the delegator\n    mapping(address => uint256[]) public nftIdAndDelegator;  \n\n    /// @dev Mapping the NFT ID with informations for sale\n    //mapping(uint256 => address) delegatorList;\n\n\t/// @dev An event when a user did the KYC for a car\n    event KycIsDone (uint256 nftId);\n\n    /// @dev An event when a user did is waiting for the KYC\n    event KycIsWaiting (address _address, uint256 nftId);\n\t\n\t/// @dev An event that registers when a user did the KYC for a car\n    event Minted (address userAddress, string tokenURI, uint256 nftId, string vin, string brand, string model, string color, uint32 power, string registrationCountry, uint32 registrationDate);\n\n    /// @dev An event when a car is for sale\n    event CarForSale (address _address, uint256 nftId);\n\n    /// @dev An event when a the car sell is delegated          // not sure we need this event\n    //event CarIsDelegated (address _addressOwner, address delegatedAddress, uint256 nftId);\n\n    /// @dev An event when a the car sell saled                 // not sure we need this event\n    //event CarIsSaled (address _oldAddressOwner, address _newAddressOwner, uint256 nftId);\n\n    /// @dev An event when the car is Scrapped\n    event CarIsScrapped (address _address, uint256 nftId);\n\n    /// @dev An event when the car is Stolen\n    event CarIsStolen (address _address, uint256 nftId);\n\n    /// @dev An event when the car informations are updated for sale\n    event CarInfosIsUpdatedForSale (address _address, uint256 nftId);\n\n    /// @dev An event when the car informations are updated for sale\n    event CarStatusReinitForSale (address _address, uint256 nftId);\n\n    /// @dev An event when the car informations are updated for sale\n    event StopDelegation (address _address, uint256 nftId);\n\n    /// @dev An event when a deposit is received\n    event LogDepositReceived (address _address);\n\n    constructor() ERC721 (\"BlockCar\", \"BLC\") {\n    }\n\n\t/**\n     * @dev To mint an NFT\n\t * @param _tokenURI : Link to jdon/image\n\t * @param _vin : Vehicle Identification Number\n\t * @param _brand : Brand of the car\n\t * @param _model : Model of the car\n\t * @param _color : color of the car\n\t * @param _power : Power of the car in Kw\n\t * @param _registrationCountry : Reistration country\n\t * @param _registrationDate : Regisytration date in ddmmyyyy\n     * @return newItemId mThe Id of the NFT \n     */\n    function mintCar(string memory _tokenURI, string memory _vin, string memory _brand, string memory _model, string memory _color, uint32 _power, string memory _registrationCountry, uint32 _registrationDate) public returns (uint256) {\n        require(msg.sender != address(0), \"Invalid address\");\n        require(bytes(_tokenURI).length > 0, \"Invalid token URI\");\n        require(bytes(_vin).length > 0, \"Invalid VIN\");\n        require(bytes(_brand).length > 0, \"Invalid brand\");\n        require(bytes(_model).length > 0, \"Invalid mod0el\");\n        require(bytes(_color).length > 0, \"Invalid color\");\n        require(_power > 0, \"Invalid power\");\n        require(bytes(_registrationCountry).length > 0, \"Invalid registration country\");\n        require(_registrationDate > 0, \"Invalid registration date\");\n\n        tokenIds.increment();\n        uint256 newItemId = tokenIds.current();\n        _mint(msg.sender, newItemId);\n        _setTokenURI(newItemId, _tokenURI);\n\n        nftIdAndOwner[msg.sender].push(newItemId);\n        \n        Status memory statusIni = Status(false,false,false,false,false,false);\n        InfosForSale memory infosForSaleIni = InfosForSale(0,0,0,\"\");\n\t\tCar memory car = Car(_vin, _brand, _model, _color, _power, _registrationCountry, _registrationDate, \"\",statusIni, infosForSaleIni);\n\t\tnftCarInfos[newItemId] = car;\n\t\temit Minted (msg.sender, _tokenURI, newItemId, _vin, _brand, _model, _color, _power, _registrationCountry, _registrationDate);\n        return newItemId;\n    }\n\n    function getNftIdsByAddress(address _owner) external view returns (uint256[] memory) {\n        return nftIdAndOwner[_owner];\n    }\n\n    function getNftIdsByDelegatorAddress(address _owner) external view returns (uint256[] memory) {\n        return nftIdAndDelegator[_owner];\n    }\n    \n        \n        \n\n    function getNftIdsByStatus(bool _isOnSale, bool _isDelegated, bool _isStolen,bool _isWaitingKyc,bool _isKycDone,bool _isScrapped) external view returns (uint256[] memory) {\n        uint256 itemId = tokenIds.current();\n        uint32 count;\n\n\n       // First, we count the number of cars that match the specified status\n        for (uint32 i = 0; i <= itemId; i++) {\n            if ((nftCarInfos[i].status.isOnSale == _isOnSale && _isOnSale==true) ||\n                (nftCarInfos[i].status.isDelegated == _isDelegated && _isDelegated==true) ||\n                (nftCarInfos[i].status.isStolen == _isStolen && _isStolen==true) ||\n                (nftCarInfos[i].status.isWaitingKyc == _isWaitingKyc && _isWaitingKyc==true) ||\n                (nftCarInfos[i].status.isKycDone == _isKycDone && _isKycDone==true) ||\n                (nftCarInfos[i].status.isScrapped == _isScrapped && _isScrapped==true)) {\n                count++;\n            }\n        }\n\n        uint256[] memory Ids = new uint256[](count);\n        uint32 index = 0;\n\n        for (uint32 i = 0; i <= itemId; i++) {\n            if ((nftCarInfos[i].status.isOnSale == _isOnSale && _isOnSale==true) ||\n                (nftCarInfos[i].status.isDelegated == _isDelegated && _isDelegated==true) ||\n                (nftCarInfos[i].status.isStolen == _isStolen && _isStolen==true) ||\n                (nftCarInfos[i].status.isWaitingKyc == _isWaitingKyc && _isWaitingKyc==true) ||\n                (nftCarInfos[i].status.isKycDone == _isKycDone && _isKycDone==true) ||\n                (nftCarInfos[i].status.isScrapped == _isScrapped && _isScrapped==true)) {\n                Ids[index] = i;\n                index++;\n            }\n        }\n\n\n        return Ids;\n    }\n\n    /**\n    * @dev Modifier to check if the address is owner or the delegator of the NFT\n    * @param _tokenIds The Id of the NFT \n    */\n    modifier isNftOwnerOrDelegator(uint256 _tokenIds) {\n        require(ownerOf(_tokenIds)==msg.sender || (getApproved(_tokenIds)==msg.sender &&  nftCarInfos[_tokenIds].status.isDelegated == true) , 'You are not authorized');\n        require(_tokenIds <= tokenIds.current(), 'The NFT id is not correct');\n        _;\n    }\n\n        /**\n    * @dev Modifier to check if the address is owner of the NFT\n    * @param _tokenIds The Id of the NFT \n    */\n    modifier isNftOwner(uint256 _tokenIds) {\n        require(ownerOf(_tokenIds)==msg.sender, 'You are not the owner');\n        require(_tokenIds <= tokenIds.current(), 'The NFT id is not correct');\n        _;\n    }\n\n    /**\n    * @dev Change the status of isKycDone to true\n    * @param _tokenIds The Id of the NFT \n    */\n    function kycIsApproved (uint256 _tokenIds) external onlyOwner {\n        require(nftCarInfos[_tokenIds].status.isKycDone == false, 'KYC is already done');\n\t\tnftCarInfos[_tokenIds].status.isWaitingKyc = false;\n\t\tnftCarInfos[_tokenIds].status.isKycDone = true;\n\t\temit KycIsDone(_tokenIds);\n    }\n\n    /**\n    * @dev Get the NFT informations\n    * @param _tokenIds The Id of the NFT \n    */\n    function getCarNft (uint256 _tokenIds) external view returns (Car memory) {\n        require(_tokenIds <= tokenIds.current(), 'The NFT id is not correct');\n        return nftCarInfos[_tokenIds];\n    }\n\n    /**\n    * @dev Change boolean 'isOnSale' to true, is car is for sale\n    * @param _tokenIds The Id of the NFT \n    */\n    function carIsForSale (uint256 _tokenIds) internal isNftOwnerOrDelegator (_tokenIds) {\n        nftCarInfos[_tokenIds].status.isOnSale = true;\n        emit CarForSale (msg.sender, _tokenIds);\n    }\n\n    /**\n    * @dev Change boolean 'isOnSale' to true, this car is for sale\n    * @param _tokenIds The Id of the NFT \n    * @param _mileage the mileage of the car\n    * @param _price The price of the car\n    * @param _localisation the localisation of the car\n    * @param _contactDetails The details of the contact\n    */\n    function setInformationsForSale (uint256 _tokenIds, uint32 _mileage, uint32 _price, uint32 _localisation, string calldata _contactDetails) internal isNftOwnerOrDelegator (_tokenIds) {\n        nftCarInfos[_tokenIds].infosForSale.mileage = _mileage;\n        nftCarInfos[_tokenIds].infosForSale.price = _price;\n        nftCarInfos[_tokenIds].infosForSale.localisation = _localisation;\n        nftCarInfos[_tokenIds].infosForSale.contactDetails = _contactDetails;\n        emit CarInfosIsUpdatedForSale (msg.sender, _tokenIds);\n    }\n\n    function carIsForSaleAndSetInformationsForSale (uint256 _tokenIds, uint32 _mileage, uint32 _price, uint32 _localisation, string calldata _contactDetails) external isNftOwnerOrDelegator (_tokenIds) {\n        require(_mileage > 0, \"The mileage can be 0\");\n        require(_price > 0, \"There is no price\");\n        require(_localisation > 0, \"The power is not indicated\");\n        require(bytes(_contactDetails).length > 0, \"Invalid color\");\n        carIsForSale(_tokenIds);\n        setInformationsForSale(_tokenIds, _mileage, _price, _localisation, _contactDetails);\n    }\n\n    /**\n    * @dev Change boolean 'isStolen' to true, this car is stolen\n    * @param _tokenIds The Id of the NFT \n    */\n    function carIsStolen (uint256 _tokenIds) external isNftOwnerOrDelegator (_tokenIds) {\n        nftCarInfos[_tokenIds].status.isStolen = true;\n        nftCarInfos[_tokenIds].status.isOnSale = false;\n        emit CarIsStolen (msg.sender, _tokenIds);\n    }\n\n    /**\n    * @dev Change boolean 'isScrapped' to true, this car is Scrapped\n    * @param _tokenIds The Id of the NFT \n    */\n    function carIsScrapped (uint256 _tokenIds) external isNftOwnerOrDelegator (_tokenIds) {\n        nftCarInfos[_tokenIds].status.isScrapped = true;\n        nftCarInfos[_tokenIds].status.isOnSale = false;\n        emit CarIsScrapped(msg.sender, _tokenIds);\n    }\n\n        /**\n    * @dev Change boolean 'isScrapped' to true, this car is Scrapped\n    * @param _tokenIds The Id of the NFT \n    */\n    function reinitStatusForSelling (uint256 _tokenIds) external isNftOwnerOrDelegator (_tokenIds) {\n        nftCarInfos[_tokenIds].status.isScrapped = false;\n        nftCarInfos[_tokenIds].status.isStolen = false;\n        nftCarInfos[_tokenIds].status.isOnSale = true;\n        emit CarStatusReinitForSale(msg.sender, _tokenIds);\n    }\n\n    /**\n    * @dev Change boolean 'isDelegated' to true, this car is Delegated\n    * @param _tokenIds The Id of the NFT \n    */\n    function delegeteCar (address delegatorAddress, uint256 _tokenIds) external isNftOwner (_tokenIds) {\n        require(nftCarInfos[_tokenIds].status.isKycDone == true, \"The KYC is not approved\");\n        approve(delegatorAddress, _tokenIds);\n        nftIdAndDelegator[delegatorAddress].push(_tokenIds);\n        nftCarInfos[_tokenIds].status.isDelegated = true;\n        //emit CarIsDelegated(msg.sender, delegatorAddress, _tokenIds);\n    }\n\n    /**\n    * @dev Change boolean 'isDelegated' to false, this car is not delegated anymore\n    * @param _tokenIds The Id of the NFT \n    */\n    function stopDelegation (uint256 _tokenIds) external isNftOwner (_tokenIds) {\n        require(nftCarInfos[_tokenIds].status.isDelegated == true, \"The NFT is not delegated\");\n        nftCarInfos[_tokenIds].status.isDelegated = false;\n        delete (nftIdAndDelegator[getApproved(_tokenIds)][_tokenIds]);\n        emit StopDelegation(msg.sender, _tokenIds);\n    }\n\n    /**\n    * @dev Change boolean 'isWaitingKyc' to false, this car is not delegated anymore\n    * @param _tokenIds The Id of the NFT \n    */\n    function askKyc (uint256 _tokenIds) external isNftOwner (_tokenIds) {\n        require(nftCarInfos[_tokenIds].status.isKycDone == false, \"The KYC is done\");\n        require(nftCarInfos[_tokenIds].status.isWaitingKyc == false, \"The KYC is already waiting\");\n        nftCarInfos[_tokenIds].status.isWaitingKyc = true;\n        emit KycIsWaiting(msg.sender, _tokenIds);\n    }\n\n    function testingAndTransfer (address _from, address _to, uint256 _tokenIds) internal isNftOwnerOrDelegator (_tokenIds)  {\n        nftCarInfos[_tokenIds].status.isKycDone = false;\n        nftCarInfos[_tokenIds].status.isDelegated = false;\n        nftCarInfos[_tokenIds].status.isOnSale = false;\n        delete (nftIdAndOwner[_from][_tokenIds]);\n        nftIdAndOwner[_to].push(_tokenIds);\n\n    }\n\n    function addDocumentLink(string memory _newLink, uint256 _tokenIds) internal isNftOwnerOrDelegator (_tokenIds)  {\n        string memory currentLink = nftCarInfos[_tokenIds].linkDocument;\n        if (bytes(currentLink).length == 0) {\n            nftCarInfos[_tokenIds].linkDocument = _newLink;\n        } else {\n            nftCarInfos[_tokenIds].linkDocument = string(abi.encodePacked(currentLink, \";\", _newLink));\n        }\n    }\n\n    /**\n     * @dev See {IERC721-transferFrom}.\n     */\n    function transferFrom(\n        address from,\n        address to,\n        uint256 tokenId\n    ) public virtual override {\n        testingAndTransfer(from, to, tokenId);\n        _transfer(from, to, tokenId);\n    }\n\n    /**\n     * @dev See {IERC721-safeTransferFrom}.\n     */\n    function safeTransferFrom(\n        address from,\n        address to,\n        uint256 tokenId\n    ) public virtual override {\n        safeTransferFrom(from, to, tokenId, \"\");\n    }\n\n    /**\n     * @dev See {IERC721-safeTransferFrom}.\n     */\n    function safeTransferFrom(\n        address from,\n        address to,\n        uint256 tokenId,\n        bytes memory data\n    ) public virtual override {\n        testingAndTransfer(from, to, tokenId);\n        _safeTransfer(from, to, tokenId, data);\n    }\n\n    function sellNftAndTransferValueToOwner(uint256 _tokenIds) external payable  {\n        uint256 valueSend               = msg.value;\n        address ownerAddress            = ownerOf(_tokenIds);\n        safeTransferFrom(ownerOf(_tokenIds),msg.sender,_tokenIds);\n        (bool sent, )                   = payable(ownerAddress).call{value: valueSend}(\"\");\n        require(sent, unicode\"transfer didn't work\");\n    }\n\n    function sellNftAndTransferValueToOwnerAndDelegator(uint256 _tokenIds) external payable  {\n        uint256 valueSendForOwner       = (msg.value*9)/10;\n        uint256 valueSendForDelegator   = msg.value/10;\n        address ownerAddress            = ownerOf(_tokenIds);\n        address delegatorAddress        = getApproved(_tokenIds);\n\n        safeTransferFrom(ownerOf(_tokenIds),msg.sender,_tokenIds);\n\n        (bool sent1, )                   = payable(ownerAddress).call{value: valueSendForOwner}(\"\");\n        require(sent1, unicode\"transfer didn't work\");\n        \n        (bool sent2, )                   = payable(delegatorAddress).call{value: valueSendForDelegator}(\"\");\n        require(sent2, unicode\"transfer didn't work\");\n    \n    }\n\n\n    fallback() external payable { \n        require(msg.data.length == 0);\n        emit LogDepositReceived(msg.sender); \n    }\n \n    receive() external payable { \n        emit LogDepositReceived(msg.sender); \n    }\n\n    function withdrawal() public onlyOwner {\n        require(address(this).balance >= 1, \"You need at least 1 ETH to withdraw\");\n        (bool sent, )                   = payable(msg.sender).call{value: address(this).balance}(\"\");\n        require(sent, unicode\"transfer didn't work\");\n    }\n    //add others documents\n}\n",
  "sourcePath": "/home/germain/Projet4/truffle/contracts/BlockCar.sol",
  "compiler": {
    "name": "solc",
    "version": "0.8.18+commit.87f61d96.Emscripten.clang"
  },
  "schemaVersion": "3.4.13",
  "updatedAt": "2023-04-03T15:09:40.511Z",
  "networkType": "ethereum",
  "devdoc": {
    "author": "Germain Winckel",
    "details": "The blockCar contract code",
    "events": {
      "Approval(address,address,uint256)": {
        "details": "Emitted when `owner` enables `approved` to manage the `tokenId` token."
      },
      "ApprovalForAll(address,address,bool)": {
        "details": "Emitted when `owner` enables or disables (`approved`) `operator` to manage all of its assets."
      },
      "CarForSale(address,uint256)": {
        "details": "An event when a car is for sale"
      },
      "CarInfosIsUpdatedForSale(address,uint256)": {
        "details": "An event when the car informations are updated for sale"
      },
      "CarIsScrapped(address,uint256)": {
        "details": "An event when the car is Scrapped"
      },
      "CarIsStolen(address,uint256)": {
        "details": "An event when the car is Stolen"
      },
      "CarStatusReinitForSale(address,uint256)": {
        "details": "An event when the car informations are updated for sale"
      },
      "KycIsDone(uint256)": {
        "details": "An event when a user did the KYC for a car"
      },
      "KycIsWaiting(address,uint256)": {
        "details": "An event when a user did is waiting for the KYC"
      },
      "LogDepositReceived(address)": {
        "details": "An event when a deposit is received"
      },
      "Minted(address,string,uint256,string,string,string,string,uint32,string,uint32)": {
        "details": "An event that registers when a user did the KYC for a car"
      },
      "StopDelegation(address,uint256)": {
        "details": "An event when the car informations are updated for sale"
      },
      "Transfer(address,address,uint256)": {
        "details": "Emitted when `tokenId` token is transferred from `from` to `to`."
      }
    },
    "kind": "dev",
    "methods": {
      "approve(address,uint256)": {
        "details": "See {IERC721-approve}."
      },
      "askKyc(uint256)": {
        "details": "Change boolean 'isWaitingKyc' to false, this car is not delegated anymore",
        "params": {
          "_tokenIds": "The Id of the NFT "
        }
      },
      "balanceOf(address)": {
        "details": "See {IERC721-balanceOf}."
      },
      "carIsScrapped(uint256)": {
        "details": "Change boolean 'isScrapped' to true, this car is Scrapped",
        "params": {
          "_tokenIds": "The Id of the NFT "
        }
      },
      "carIsStolen(uint256)": {
        "details": "Change boolean 'isStolen' to true, this car is stolen",
        "params": {
          "_tokenIds": "The Id of the NFT "
        }
      },
      "delegeteCar(address,uint256)": {
        "details": "Change boolean 'isDelegated' to true, this car is Delegated",
        "params": {
          "_tokenIds": "The Id of the NFT "
        }
      },
      "getApproved(uint256)": {
        "details": "See {IERC721-getApproved}."
      },
      "getCarNft(uint256)": {
        "details": "Get the NFT informations",
        "params": {
          "_tokenIds": "The Id of the NFT "
        }
      },
      "isApprovedForAll(address,address)": {
        "details": "See {IERC721-isApprovedForAll}."
      },
      "kycIsApproved(uint256)": {
        "details": "Change the status of isKycDone to true",
        "params": {
          "_tokenIds": "The Id of the NFT "
        }
      },
      "mintCar(string,string,string,string,string,uint32,string,uint32)": {
        "details": "To mint an NFT",
        "params": {
          "_brand": ": Brand of the car",
          "_color": ": color of the car",
          "_model": ": Model of the car",
          "_power": ": Power of the car in Kw",
          "_registrationCountry": ": Reistration country",
          "_registrationDate": ": Regisytration date in ddmmyyyy",
          "_tokenURI": ": Link to jdon/image",
          "_vin": ": Vehicle Identification Number"
        },
        "returns": {
          "_0": "newItemId mThe Id of the NFT "
        }
      },
      "name()": {
        "details": "See {IERC721Metadata-name}."
      },
      "owner()": {
        "details": "Returns the address of the current owner."
      },
      "ownerOf(uint256)": {
        "details": "See {IERC721-ownerOf}."
      },
      "reinitStatusForSelling(uint256)": {
        "details": "Change boolean 'isScrapped' to true, this car is Scrapped",
        "params": {
          "_tokenIds": "The Id of the NFT "
        }
      },
      "renounceOwnership()": {
        "details": "Leaves the contract without owner. It will not be possible to call `onlyOwner` functions anymore. Can only be called by the current owner. NOTE: Renouncing ownership will leave the contract without an owner, thereby removing any functionality that is only available to the owner."
      },
      "safeTransferFrom(address,address,uint256)": {
        "details": "See {IERC721-safeTransferFrom}."
      },
      "safeTransferFrom(address,address,uint256,bytes)": {
        "details": "See {IERC721-safeTransferFrom}."
      },
      "setApprovalForAll(address,bool)": {
        "details": "See {IERC721-setApprovalForAll}."
      },
      "stopDelegation(uint256)": {
        "details": "Change boolean 'isDelegated' to false, this car is not delegated anymore",
        "params": {
          "_tokenIds": "The Id of the NFT "
        }
      },
      "supportsInterface(bytes4)": {
        "details": "See {IERC165-supportsInterface}."
      },
      "symbol()": {
        "details": "See {IERC721Metadata-symbol}."
      },
      "tokenURI(uint256)": {
        "details": "See {IERC721Metadata-tokenURI}."
      },
      "transferFrom(address,address,uint256)": {
        "details": "See {IERC721-transferFrom}."
      },
      "transferOwnership(address)": {
        "details": "Transfers ownership of the contract to a new account (`newOwner`). Can only be called by the current owner."
      }
    },
    "stateVariables": {
      "nftCarInfos": {
        "details": "Mapping the NFT ID with the car informations"
      },
      "nftIdAndDelegator": {
        "details": "Mapping the NFT ID with the delegator"
      },
      "nftIdAndOwner": {
        "details": "Mapping the NFT ID with the owner"
      }
    },
    "title": "BlockCar",
    "version": 1
  },
  "userdoc": {
    "kind": "user",
    "methods": {},
    "notice": "The blockCar contract code",
    "version": 1
  }
}