{
  "contractName": "BlockCar",
  "abi": [
    {
      "inputs": [],
      "stateMutability": "nonpayable",
      "type": "constructor"
    },
    {
      "anonymous": false,
      "inputs": [
        {
          "indexed": true,
          "internalType": "address",
          "name": "owner",
          "type": "address"
        },
        {
          "indexed": true,
          "internalType": "address",
          "name": "approved",
          "type": "address"
        },
        {
          "indexed": true,
          "internalType": "uint256",
          "name": "tokenId",
          "type": "uint256"
        }
      ],
      "name": "Approval",
      "type": "event"
    },
    {
      "anonymous": false,
      "inputs": [
        {
          "indexed": true,
          "internalType": "address",
          "name": "owner",
          "type": "address"
        },
        {
          "indexed": true,
          "internalType": "address",
          "name": "operator",
          "type": "address"
        },
        {
          "indexed": false,
          "internalType": "bool",
          "name": "approved",
          "type": "bool"
        }
      ],
      "name": "ApprovalForAll",
      "type": "event"
    },
    {
      "anonymous": false,
      "inputs": [
        {
          "indexed": false,
          "internalType": "string",
          "name": "status",
          "type": "string"
        },
        {
          "indexed": false,
          "internalType": "address",
          "name": "_address",
          "type": "address"
        },
        {
          "indexed": true,
          "internalType": "uint256",
          "name": "nftId",
          "type": "uint256"
        },
        {
          "indexed": false,
          "internalType": "uint256",
          "name": "timestamp",
          "type": "uint256"
        }
      ],
      "name": "ChangingStatus",
      "type": "event"
    },
    {
      "anonymous": false,
      "inputs": [
        {
          "indexed": false,
          "internalType": "address",
          "name": "_address",
          "type": "address"
        }
      ],
      "name": "LogDepositReceived",
      "type": "event"
    },
    {
      "anonymous": false,
      "inputs": [
        {
          "indexed": false,
          "internalType": "address",
          "name": "userAddress",
          "type": "address"
        },
        {
          "indexed": false,
          "internalType": "string",
          "name": "tokenURI",
          "type": "string"
        },
        {
          "indexed": false,
          "internalType": "uint256",
          "name": "nftId",
          "type": "uint256"
        },
        {
          "indexed": false,
          "internalType": "string",
          "name": "vin",
          "type": "string"
        },
        {
          "indexed": false,
          "internalType": "string",
          "name": "brand",
          "type": "string"
        },
        {
          "indexed": false,
          "internalType": "string",
          "name": "model",
          "type": "string"
        },
        {
          "indexed": false,
          "internalType": "string",
          "name": "color",
          "type": "string"
        },
        {
          "indexed": false,
          "internalType": "uint32",
          "name": "power",
          "type": "uint32"
        },
        {
          "indexed": false,
          "internalType": "string",
          "name": "registrationCountry",
          "type": "string"
        },
        {
          "indexed": false,
          "internalType": "uint32",
          "name": "registrationDate",
          "type": "uint32"
        }
      ],
      "name": "Minted",
      "type": "event"
    },
    {
      "anonymous": false,
      "inputs": [
        {
          "indexed": true,
          "internalType": "address",
          "name": "previousOwner",
          "type": "address"
        },
        {
          "indexed": true,
          "internalType": "address",
          "name": "newOwner",
          "type": "address"
        }
      ],
      "name": "OwnershipTransferred",
      "type": "event"
    },
    {
      "anonymous": false,
      "inputs": [
        {
          "indexed": true,
          "internalType": "address",
          "name": "from",
          "type": "address"
        },
        {
          "indexed": true,
          "internalType": "address",
          "name": "to",
          "type": "address"
        },
        {
          "indexed": true,
          "internalType": "uint256",
          "name": "tokenId",
          "type": "uint256"
        }
      ],
      "name": "Transfer",
      "type": "event"
    },
    {
      "stateMutability": "payable",
      "type": "fallback",
      "payable": true
    },
    {
      "inputs": [
        {
          "internalType": "address",
          "name": "to",
          "type": "address"
        },
        {
          "internalType": "uint256",
          "name": "tokenId",
          "type": "uint256"
        }
      ],
      "name": "approve",
      "outputs": [],
      "stateMutability": "nonpayable",
      "type": "function"
    },
    {
      "inputs": [
        {
          "internalType": "address",
          "name": "owner",
          "type": "address"
        }
      ],
      "name": "balanceOf",
      "outputs": [
        {
          "internalType": "uint256",
          "name": "",
          "type": "uint256"
        }
      ],
      "stateMutability": "view",
      "type": "function",
      "constant": true
    },
    {
      "inputs": [
        {
          "internalType": "uint256",
          "name": "tokenId",
          "type": "uint256"
        }
      ],
      "name": "getApproved",
      "outputs": [
        {
          "internalType": "address",
          "name": "",
          "type": "address"
        }
      ],
      "stateMutability": "view",
      "type": "function",
      "constant": true
    },
    {
      "inputs": [
        {
          "internalType": "address",
          "name": "owner",
          "type": "address"
        },
        {
          "internalType": "address",
          "name": "operator",
          "type": "address"
        }
      ],
      "name": "isApprovedForAll",
      "outputs": [
        {
          "internalType": "bool",
          "name": "",
          "type": "bool"
        }
      ],
      "stateMutability": "view",
      "type": "function",
      "constant": true
    },
    {
      "inputs": [],
      "name": "name",
      "outputs": [
        {
          "internalType": "string",
          "name": "",
          "type": "string"
        }
      ],
      "stateMutability": "view",
      "type": "function",
      "constant": true
    },
    {
      "inputs": [
        {
          "internalType": "address",
          "name": "",
          "type": "address"
        },
        {
          "internalType": "uint256",
          "name": "",
          "type": "uint256"
        }
      ],
      "name": "nftIdAndDelegator",
      "outputs": [
        {
          "internalType": "uint256",
          "name": "",
          "type": "uint256"
        }
      ],
      "stateMutability": "view",
      "type": "function",
      "constant": true
    },
    {
      "inputs": [
        {
          "internalType": "address",
          "name": "",
          "type": "address"
        },
        {
          "internalType": "uint256",
          "name": "",
          "type": "uint256"
        }
      ],
      "name": "nftIdAndOwner",
      "outputs": [
        {
          "internalType": "uint256",
          "name": "",
          "type": "uint256"
        }
      ],
      "stateMutability": "view",
      "type": "function",
      "constant": true
    },
    {
      "inputs": [],
      "name": "owner",
      "outputs": [
        {
          "internalType": "address",
          "name": "",
          "type": "address"
        }
      ],
      "stateMutability": "view",
      "type": "function",
      "constant": true
    },
    {
      "inputs": [
        {
          "internalType": "uint256",
          "name": "tokenId",
          "type": "uint256"
        }
      ],
      "name": "ownerOf",
      "outputs": [
        {
          "internalType": "address",
          "name": "",
          "type": "address"
        }
      ],
      "stateMutability": "view",
      "type": "function",
      "constant": true
    },
    {
      "inputs": [],
      "name": "renounceOwnership",
      "outputs": [],
      "stateMutability": "nonpayable",
      "type": "function"
    },
    {
      "inputs": [
        {
          "internalType": "address",
          "name": "operator",
          "type": "address"
        },
        {
          "internalType": "bool",
          "name": "approved",
          "type": "bool"
        }
      ],
      "name": "setApprovalForAll",
      "outputs": [],
      "stateMutability": "nonpayable",
      "type": "function"
    },
    {
      "inputs": [
        {
          "internalType": "bytes4",
          "name": "interfaceId",
          "type": "bytes4"
        }
      ],
      "name": "supportsInterface",
      "outputs": [
        {
          "internalType": "bool",
          "name": "",
          "type": "bool"
        }
      ],
      "stateMutability": "view",
      "type": "function",
      "constant": true
    },
    {
      "inputs": [],
      "name": "symbol",
      "outputs": [
        {
          "internalType": "string",
          "name": "",
          "type": "string"
        }
      ],
      "stateMutability": "view",
      "type": "function",
      "constant": true
    },
    {
      "inputs": [
        {
          "internalType": "uint256",
          "name": "tokenId",
          "type": "uint256"
        }
      ],
      "name": "tokenURI",
      "outputs": [
        {
          "internalType": "string",
          "name": "",
          "type": "string"
        }
      ],
      "stateMutability": "view",
      "type": "function",
      "constant": true
    },
    {
      "inputs": [
        {
          "internalType": "address",
          "name": "newOwner",
          "type": "address"
        }
      ],
      "name": "transferOwnership",
      "outputs": [],
      "stateMutability": "nonpayable",
      "type": "function"
    },
    {
      "stateMutability": "payable",
      "type": "receive",
      "payable": true
    },
    {
      "inputs": [
        {
          "internalType": "string",
          "name": "_tokenURI",
          "type": "string"
        },
        {
          "internalType": "string",
          "name": "_vin",
          "type": "string"
        },
        {
          "internalType": "string",
          "name": "_brand",
          "type": "string"
        },
        {
          "internalType": "string",
          "name": "_model",
          "type": "string"
        },
        {
          "internalType": "string",
          "name": "_color",
          "type": "string"
        },
        {
          "internalType": "uint32",
          "name": "_power",
          "type": "uint32"
        },
        {
          "internalType": "string",
          "name": "_registrationCountry",
          "type": "string"
        },
        {
          "internalType": "uint32",
          "name": "_registrationDate",
          "type": "uint32"
        }
      ],
      "name": "mintCar",
      "outputs": [
        {
          "internalType": "uint256",
          "name": "",
          "type": "uint256"
        }
      ],
      "stateMutability": "nonpayable",
      "type": "function"
    },
    {
      "inputs": [
        {
          "internalType": "address",
          "name": "_owner",
          "type": "address"
        }
      ],
      "name": "getNftIdsByAddress",
      "outputs": [
        {
          "internalType": "uint256[]",
          "name": "",
          "type": "uint256[]"
        }
      ],
      "stateMutability": "view",
      "type": "function",
      "constant": true
    },
    {
      "inputs": [
        {
          "internalType": "address",
          "name": "_owner",
          "type": "address"
        }
      ],
      "name": "getNftIdsByDelegatorAddress",
      "outputs": [
        {
          "internalType": "uint256[]",
          "name": "",
          "type": "uint256[]"
        }
      ],
      "stateMutability": "view",
      "type": "function",
      "constant": true
    },
    {
      "inputs": [],
      "name": "getNftIdsByOnSaleAndKycDone",
      "outputs": [
        {
          "internalType": "uint256[]",
          "name": "",
          "type": "uint256[]"
        }
      ],
      "stateMutability": "view",
      "type": "function",
      "constant": true
    },
    {
      "inputs": [
        {
          "internalType": "uint256",
          "name": "_tokenIds",
          "type": "uint256"
        }
      ],
      "name": "kycIsApproved",
      "outputs": [],
      "stateMutability": "nonpayable",
      "type": "function"
    },
    {
      "inputs": [
        {
          "internalType": "uint256",
          "name": "_tokenIds",
          "type": "uint256"
        }
      ],
      "name": "getCarNft",
      "outputs": [
        {
          "components": [
            {
              "internalType": "string",
              "name": "vin",
              "type": "string"
            },
            {
              "internalType": "string",
              "name": "brand",
              "type": "string"
            },
            {
              "internalType": "string",
              "name": "model",
              "type": "string"
            },
            {
              "internalType": "string",
              "name": "color",
              "type": "string"
            },
            {
              "internalType": "uint32",
              "name": "power",
              "type": "uint32"
            },
            {
              "internalType": "string",
              "name": "registrationCountry",
              "type": "string"
            },
            {
              "internalType": "uint32",
              "name": "registrationDate",
              "type": "uint32"
            },
            {
              "internalType": "string",
              "name": "linkDocument",
              "type": "string"
            },
            {
              "components": [
                {
                  "internalType": "bool",
                  "name": "isOnSale",
                  "type": "bool"
                },
                {
                  "internalType": "bool",
                  "name": "isDelegated",
                  "type": "bool"
                },
                {
                  "internalType": "bool",
                  "name": "isStolen",
                  "type": "bool"
                },
                {
                  "internalType": "bool",
                  "name": "isWaitingKyc",
                  "type": "bool"
                },
                {
                  "internalType": "bool",
                  "name": "isKycDone",
                  "type": "bool"
                },
                {
                  "internalType": "bool",
                  "name": "isScrapped",
                  "type": "bool"
                }
              ],
              "internalType": "struct BlockCar.Status",
              "name": "status",
              "type": "tuple"
            },
            {
              "components": [
                {
                  "internalType": "uint32",
                  "name": "mileage",
                  "type": "uint32"
                },
                {
                  "internalType": "uint32",
                  "name": "price",
                  "type": "uint32"
                },
                {
                  "internalType": "string",
                  "name": "country",
                  "type": "string"
                },
                {
                  "internalType": "string",
                  "name": "localisation",
                  "type": "string"
                },
                {
                  "internalType": "string",
                  "name": "contactDetails",
                  "type": "string"
                }
              ],
              "internalType": "struct BlockCar.InfosForSale",
              "name": "infosForSale",
              "type": "tuple"
            }
          ],
          "internalType": "struct BlockCar.Car",
          "name": "",
          "type": "tuple"
        }
      ],
      "stateMutability": "view",
      "type": "function",
      "constant": true
    },
    {
      "inputs": [
        {
          "internalType": "uint256",
          "name": "_tokenIds",
          "type": "uint256"
        },
        {
          "internalType": "uint32",
          "name": "_mileage",
          "type": "uint32"
        },
        {
          "internalType": "uint32",
          "name": "_price",
          "type": "uint32"
        },
        {
          "internalType": "string",
          "name": "_country",
          "type": "string"
        },
        {
          "internalType": "string",
          "name": "_localisation",
          "type": "string"
        },
        {
          "internalType": "string",
          "name": "_contactDetails",
          "type": "string"
        }
      ],
      "name": "carIsForSaleAndSetInformationsForSale",
      "outputs": [],
      "stateMutability": "nonpayable",
      "type": "function"
    },
    {
      "inputs": [
        {
          "internalType": "uint256",
          "name": "_tokenIds",
          "type": "uint256"
        }
      ],
      "name": "carIsStolen",
      "outputs": [],
      "stateMutability": "nonpayable",
      "type": "function"
    },
    {
      "inputs": [
        {
          "internalType": "uint256",
          "name": "_tokenIds",
          "type": "uint256"
        }
      ],
      "name": "carIsScrapped",
      "outputs": [],
      "stateMutability": "nonpayable",
      "type": "function"
    },
    {
      "inputs": [
        {
          "internalType": "uint256",
          "name": "_tokenIds",
          "type": "uint256"
        }
      ],
      "name": "stopSale",
      "outputs": [],
      "stateMutability": "nonpayable",
      "type": "function"
    },
    {
      "inputs": [
        {
          "internalType": "uint256",
          "name": "_tokenIds",
          "type": "uint256"
        }
      ],
      "name": "carFound",
      "outputs": [],
      "stateMutability": "nonpayable",
      "type": "function"
    },
    {
      "inputs": [
        {
          "internalType": "address",
          "name": "delegatorAddress",
          "type": "address"
        },
        {
          "internalType": "uint256",
          "name": "_tokenIds",
          "type": "uint256"
        }
      ],
      "name": "delegeteCar",
      "outputs": [],
      "stateMutability": "nonpayable",
      "type": "function"
    },
    {
      "inputs": [
        {
          "internalType": "uint256",
          "name": "_tokenIds",
          "type": "uint256"
        }
      ],
      "name": "stopDelegation",
      "outputs": [],
      "stateMutability": "nonpayable",
      "type": "function"
    },
    {
      "inputs": [
        {
          "internalType": "uint256",
          "name": "_tokenIds",
          "type": "uint256"
        }
      ],
      "name": "askKyc",
      "outputs": [],
      "stateMutability": "nonpayable",
      "type": "function"
    },
    {
      "inputs": [
        {
          "internalType": "string",
          "name": "_newLink",
          "type": "string"
        },
        {
          "internalType": "uint256",
          "name": "_tokenId",
          "type": "uint256"
        }
      ],
      "name": "addDocumentLink",
      "outputs": [],
      "stateMutability": "nonpayable",
      "type": "function"
    },
    {
      "inputs": [
        {
          "internalType": "address",
          "name": "from",
          "type": "address"
        },
        {
          "internalType": "address",
          "name": "to",
          "type": "address"
        },
        {
          "internalType": "uint256",
          "name": "tokenId",
          "type": "uint256"
        }
      ],
      "name": "transferFrom",
      "outputs": [],
      "stateMutability": "nonpayable",
      "type": "function"
    },
    {
      "inputs": [
        {
          "internalType": "address",
          "name": "from",
          "type": "address"
        },
        {
          "internalType": "address",
          "name": "to",
          "type": "address"
        },
        {
          "internalType": "uint256",
          "name": "tokenId",
          "type": "uint256"
        }
      ],
      "name": "safeTransferFrom",
      "outputs": [],
      "stateMutability": "nonpayable",
      "type": "function"
    },
    {
      "inputs": [
        {
          "internalType": "address",
          "name": "from",
          "type": "address"
        },
        {
          "internalType": "address",
          "name": "to",
          "type": "address"
        },
        {
          "internalType": "uint256",
          "name": "tokenId",
          "type": "uint256"
        },
        {
          "internalType": "bytes",
          "name": "data",
          "type": "bytes"
        }
      ],
      "name": "safeTransferFrom",
      "outputs": [],
      "stateMutability": "nonpayable",
      "type": "function"
    },
    {
      "inputs": [
        {
          "internalType": "uint256",
          "name": "_tokenId",
          "type": "uint256"
        }
      ],
      "name": "sellNftAndTransferValueToOwner",
      "outputs": [],
      "stateMutability": "payable",
      "type": "function",
      "payable": true
    },
    {
      "inputs": [],
      "name": "withdrawal",
      "outputs": [],
      "stateMutability": "nonpayable",
      "type": "function"
    }
  ],
  "bytecode": "0x60806040523480156200001157600080fd5b5060405180604001604052806008815260200167213637b1b5a1b0b960c11b81525060405180604001604052806003815260200162424c4360e81b81525081600090816200006091906200018d565b5060016200006f82826200018d565b5050506200008c620000866200009260201b60201c565b62000096565b62000259565b3390565b600780546001600160a01b038381166001600160a01b0319831681179093556040519116919082907f8be0079c531659141344cd1fd0a4f28419497f9722a3daafe3b4186f6b6457e090600090a35050565b634e487b7160e01b600052604160045260246000fd5b600181811c908216806200011357607f821691505b6020821081036200013457634e487b7160e01b600052602260045260246000fd5b50919050565b601f8211156200018857600081815260208120601f850160051c81016020861015620001635750805b601f850160051c820191505b8181101562000184578281556001016200016f565b5050505b505050565b81516001600160401b03811115620001a957620001a9620000e8565b620001c181620001ba8454620000fe565b846200013a565b602080601f831160018114620001f95760008415620001e05750858301515b600019600386901b1c1916600185901b17855562000184565b600085815260208120601f198616915b828110156200022a5788860151825594840194600190910190840162000209565b5085821015620002495787850151600019600388901b60f8161c191681555b5050505050600190811b01905550565b61454980620002696000396000f3fe6080604052600436106101985760003560e01c806301ffc9a7146101ec57806306fdde0314610221578063081812fc14610243578063095ea7b31461027057806310c1123214610292578063138391cf146102b257806317077f34146102d257806323b872dd146102f25780632bb02add1461031257806342842e0e146103325780635e99032c1461035257806362232d60146103805780636352211e146103a05780636dfdd3d1146103c057806370a08231146103ed578063715018a61461040d578063843cdb25146104225780638654ffae1461044f5780638da5cb5b1461046f57806395d89b4114610484578063a22cb46514610499578063aeee67c6146104b9578063b1dcf54b146104d9578063b88d4fde146104ec578063c3eb1cb01461050c578063c87b56dd1461052c578063d4d50cf51461054c578063d4e932921461056c578063dd79753014610581578063e4003a8b146105a1578063e556e7f4146105c1578063e83a2032146105e1578063e985e9c5146105f6578063f2fde38b14610616578063f8dd1f7614610636576101c4565b366101c4576000805160206144f4833981519152336040516101ba91906136c5565b60405180910390a1005b36156101cf57600080fd5b6000805160206144f4833981519152336040516101ba91906136c5565b3480156101f857600080fd5b5061020c6102073660046136ef565b610656565b60405190151581526020015b60405180910390f35b34801561022d57600080fd5b506102366106a8565b604051610218919061375c565b34801561024f57600080fd5b5061026361025e36600461376f565b61073a565b60405161021891906136c5565b34801561027c57600080fd5b5061029061028b3660046137a4565b610761565b005b34801561029e57600080fd5b506102906102ad366004613879565b61087b565b3480156102be57600080fd5b506102906102cd36600461376f565b610a6c565b3480156102de57600080fd5b506102906102ed36600461376f565b610afd565b3480156102fe57600080fd5b5061029061030d3660046138bd565b610c1b565b34801561031e57600080fd5b5061029061032d36600461376f565b610c5e565b34801561033e57600080fd5b5061029061034d3660046138bd565b610e3d565b34801561035e57600080fd5b5061037261036d3660046137a4565b610e58565b604051908152602001610218565b34801561038c57600080fd5b5061037261039b36600461390d565b610e89565b3480156103ac57600080fd5b506102636103bb36600461376f565b61138b565b3480156103cc57600080fd5b506103e06103db366004613a24565b6113bf565b6040516102189190613a3f565b3480156103f957600080fd5b50610372610408366004613a24565b61142b565b34801561041957600080fd5b506102906114b1565b34801561042e57600080fd5b5061044261043d36600461376f565b6114c5565b6040516102189190613af2565b34801561045b57600080fd5b5061029061046a3660046137a4565b611b1c565b34801561047b57600080fd5b50610263611c71565b34801561049057600080fd5b50610236611c80565b3480156104a557600080fd5b506102906104b4366004613c51565b611c8f565b3480156104c557600080fd5b506102906104d4366004613cd5565b611c9e565b6102906104e736600461376f565b611dfc565b3480156104f857600080fd5b50610290610507366004613d9b565b611ee4565b34801561051857600080fd5b5061029061052736600461376f565b611f1b565b34801561053857600080fd5b5061023661054736600461376f565b612015565b34801561055857600080fd5b506103e0610567366004613a24565b612125565b34801561057857600080fd5b5061029061218f565b34801561058d57600080fd5b5061029061059c36600461376f565b61225f565b3480156105ad57600080fd5b506102906105bc36600461376f565b61236b565b3480156105cd57600080fd5b506103726105dc3660046137a4565b6124f7565b3480156105ed57600080fd5b506103e0612513565b34801561060257600080fd5b5061020c610611366004613e16565b6126b1565b34801561062257600080fd5b50610290610631366004613a24565b6126df565b34801561064257600080fd5b5061029061065136600461376f565b612755565b60006001600160e01b031982166380ac58cd60e01b148061068757506001600160e01b03198216635b5e139f60e01b145b806106a257506301ffc9a760e01b6001600160e01b03198316145b92915050565b6060600080546106b790613e49565b80601f01602080910402602001604051908101604052809291908181526020018280546106e390613e49565b80156107305780601f1061070557610100808354040283529160200191610730565b820191906000526020600020905b81548152906001019060200180831161071357829003601f168201915b5050505050905090565b60006107458261285b565b506000908152600460205260409020546001600160a01b031690565b600061076c8261138b565b9050806001600160a01b0316836001600160a01b0316036107de5760405162461bcd60e51b815260206004820152602160248201527f4552433732313a20617070726f76616c20746f2063757272656e74206f776e656044820152603960f91b60648201526084015b60405180910390fd5b336001600160a01b03821614806107fa57506107fa81336126b1565b61086c5760405162461bcd60e51b815260206004820152603d60248201527f4552433732313a20617070726f76652063616c6c6572206973206e6f7420746f60448201527f6b656e206f776e6572206f7220617070726f76656420666f7220616c6c00000060648201526084016107d5565b6108768383612880565b505050565b80336108868261138b565b6001600160a01b031614806108d25750336108a08261073a565b6001600160a01b03161480156108d2575060008181526009602052604090206008015460ff6101009091041615156001145b6108ee5760405162461bcd60e51b81526004016107d590613e83565b6008548111156109105760405162461bcd60e51b81526004016107d590613eaf565b6000828152600960205260408120600701805461092c90613e49565b80601f016020809104026020016040519081016040528092919081815260200182805461095890613e49565b80156109a55780601f1061097a576101008083540402835291602001916109a5565b820191906000526020600020905b81548152906001019060200180831161098857829003601f168201915b5050505050905080516000036109d65760008381526009602052604090206007016109d08582613f38565b50610a14565b80846040516020016109e9929190613ff1565b60408051601f19818403018152918152600085815260096020522060070190610a129082613f38565b505b604080516060808252600e908201526d111bd8dd5b595b9d08185919195960921b6080820152336020820152429181019190915283906000805160206144b48339815191529060a0015b60405180910390a250505050565b610a746128ee565b600081815260096020526040902060080154600160201b900460ff1615610aad5760405162461bcd60e51b81526004016107d590614048565b60008181526009602052604090819020600801805464ffff0000001916600160201b1790555181906000805160206144b483398151915290610af2903390429061405a565b60405180910390a250565b8033610b088261138b565b6001600160a01b03161480610b54575033610b228261073a565b6001600160a01b0316148015610b54575060008181526009602052604090206008015460ff6101009091041615156001145b610b705760405162461bcd60e51b81526004016107d590613e83565b600854811115610b925760405162461bcd60e51b81526004016107d590613eaf565b60008281526009602052604090819020600801805465ff00000000ff1916600160281b1790555182906000805160206144b483398151915290610c0f90339042906060808252600c908201526b10d85c881cd8dc985c1c195960a21b60808201526001600160a01b03929092166020830152604082015260a00190565b60405180910390a25050565b610c2683838361294d565b610c31838383612a01565b806000805160206144b48339815191523342604051610c51929190614085565b60405180910390a2505050565b8033610c698261138b565b6001600160a01b03161480610cb5575033610c838261073a565b6001600160a01b0316148015610cb5575060008181526009602052604090206008015460ff6101009091041615156001145b610cd15760405162461bcd60e51b81526004016107d590613e83565b600854811115610cf35760405162461bcd60e51b81526004016107d590613eaf565b60008281526009602052604090206008015460ff610100909104161515600114610d5a5760405162461bcd60e51b8152602060048201526018602482015277151a1948139195081a5cc81b9bdd0819195b1959d85d195960421b60448201526064016107d5565b6000610d658361073a565b6000848152600960209081526040808320600801805461ff00191690556001600160a01b0384168352600b909152902054909150600103610de2576001600160a01b0381166000908152600b60205260409020805480610dc757610dc76140bd565b60019003818190600052602060002001600090559055610dec565b610dec8184612b53565b6040805160608082526011908201527011195b1959d85d1a5bdb881cdd1bdc1959607a1b6080820152336020820152429181019190915283906000805160206144b48339815191529060a001610c51565b61087683838360405180602001604052806000815250611ee4565b600a6020528160005260406000208181548110610e7457600080fd5b90600052602060002001600091509150505481565b600033610ea85760405162461bcd60e51b81526004016107d5906140d3565b6000895111610ec95760405162461bcd60e51b81526004016107d5906140d3565b6000885111610eea5760405162461bcd60e51b81526004016107d5906140d3565b6000875111610f0b5760405162461bcd60e51b81526004016107d5906140d3565b6000865111610f2c5760405162461bcd60e51b81526004016107d5906140d3565b6000855111610f4d5760405162461bcd60e51b81526004016107d5906140d3565b60008463ffffffff1611610f735760405162461bcd60e51b81526004016107d5906140d3565b6000835111610f945760405162461bcd60e51b81526004016107d5906140d3565b60008263ffffffff1611610fba5760405162461bcd60e51b81526004016107d5906140d3565b610fc8600880546001019055565b6000610fd360085490565b9050610fdf3382612ca7565b610fe9818b612da2565b600a6000336001600160a01b03166001600160a01b0316815260200190815260200160002081908060018154018082558091505060019003906000526020600020016000909190919091505560006040518060c0016040528060001515815260200160001515815260200160001515815260200160001515815260200160001515815260200160001515815250905060006040518060a00160405280600063ffffffff168152602001600063ffffffff16815260200160405180602001604052806000815250815260200160405180602001604052806000815250815260200160405180602001604052806000815250815250905060006040518061014001604052808d81526020018c81526020018b81526020018a81526020018963ffffffff1681526020018881526020018763ffffffff1681526020016040518060200160405280600081525081526020018481526020018381525090508060096000868152602001908152602001600020600082015181600001908161116c9190613f38565b50602082015160018201906111819082613f38565b50604082015160028201906111969082613f38565b50606082015160038201906111ab9082613f38565b50608082015160048201805463ffffffff191663ffffffff90921691909117905560a082015160058201906111e09082613f38565b5060c082015160068201805463ffffffff191663ffffffff90921691909117905560e082015160078201906112159082613f38565b506101008281015180516008840180546020808501516040808701516060880151608089015160a09099015161ffff1990961697151561ff001916979097179215159098029190911763ffff00001916620100009715159790970263ff0000001916969096176301000000941515949094029390931761ffff60201b1916600160201b941515850260ff60281b191617600160281b9115159190910217905561012085015180516009860180549383015163ffffffff9283166001600160401b0319909516949094179190931690930292909217815591810151909190600a8401906113019082613f38565b50606082015160028201906113169082613f38565b506080820151600382019061132b9082613f38565b5050509050507f9d9e037da80b359004ae7c185bb38ec26e586e28db82390fd43ec2664e105868338e868f8f8f8f8f8f8f6040516113729a999897969594939291906140f2565b60405180910390a150919b9a5050505050505050505050565b60008061139783612e26565b90506001600160a01b0381166106a25760405162461bcd60e51b81526004016107d5906141ab565b6001600160a01b0381166000908152600a602090815260409182902080548351818402810184019094528084526060939283018282801561141f57602002820191906000526020600020905b81548152602001906001019080831161140b575b50505050509050919050565b60006001600160a01b0382166114955760405162461bcd60e51b815260206004820152602960248201527f4552433732313a2061646472657373207a65726f206973206e6f7420612076616044820152683634b21037bbb732b960b91b60648201526084016107d5565b506001600160a01b031660009081526003602052604090205490565b6114b96128ee565b6114c36000612e41565b565b6114cd6135e8565b60085482111561150e5760405162461bcd60e51b815260206004820152600c60248201526b1259081a5b98dbdc9c9958dd60a21b60448201526064016107d5565b600082815260096020526040908190208151610140810190925280548290829061153790613e49565b80601f016020809104026020016040519081016040528092919081815260200182805461156390613e49565b80156115b05780601f10611585576101008083540402835291602001916115b0565b820191906000526020600020905b81548152906001019060200180831161159357829003601f168201915b505050505081526020016001820180546115c990613e49565b80601f01602080910402602001604051908101604052809291908181526020018280546115f590613e49565b80156116425780601f1061161757610100808354040283529160200191611642565b820191906000526020600020905b81548152906001019060200180831161162557829003601f168201915b5050505050815260200160028201805461165b90613e49565b80601f016020809104026020016040519081016040528092919081815260200182805461168790613e49565b80156116d45780601f106116a9576101008083540402835291602001916116d4565b820191906000526020600020905b8154815290600101906020018083116116b757829003601f168201915b505050505081526020016003820180546116ed90613e49565b80601f016020809104026020016040519081016040528092919081815260200182805461171990613e49565b80156117665780601f1061173b57610100808354040283529160200191611766565b820191906000526020600020905b81548152906001019060200180831161174957829003601f168201915b5050509183525050600482015463ffffffff16602082015260058201805460409092019161179390613e49565b80601f01602080910402602001604051908101604052809291908181526020018280546117bf90613e49565b801561180c5780601f106117e15761010080835404028352916020019161180c565b820191906000526020600020905b8154815290600101906020018083116117ef57829003601f168201915b5050509183525050600682015463ffffffff16602082015260078201805460409092019161183990613e49565b80601f016020809104026020016040519081016040528092919081815260200182805461186590613e49565b80156118b25780601f10611887576101008083540402835291602001916118b2565b820191906000526020600020905b81548152906001019060200180831161189557829003601f168201915b50505091835250506040805160c081018252600884015460ff80821615158352610100820481161515602084810191909152620100008304821615158486015263010000008304821615156060850152600160201b808404831615156080860152600160281b909304909116151560a080850191909152818601939093528351928301845260098601805463ffffffff808216865293900490921690830152600a8501805494840194929391929184019161196c90613e49565b80601f016020809104026020016040519081016040528092919081815260200182805461199890613e49565b80156119e55780601f106119ba576101008083540402835291602001916119e5565b820191906000526020600020905b8154815290600101906020018083116119c857829003601f168201915b505050505081526020016002820180546119fe90613e49565b80601f0160208091040260200160405190810160405280929190818152602001828054611a2a90613e49565b8015611a775780601f10611a4c57610100808354040283529160200191611a77565b820191906000526020600020905b815481529060010190602001808311611a5a57829003601f168201915b50505050508152602001600382018054611a9090613e49565b80601f0160208091040260200160405190810160405280929190818152602001828054611abc90613e49565b8015611b095780601f10611ade57610100808354040283529160200191611b09565b820191906000526020600020905b815481529060010190602001808311611aec57829003601f168201915b5050509190925250505090525092915050565b8033611b278261138b565b6001600160a01b031614611b4d5760405162461bcd60e51b81526004016107d5906141dd565b600854811115611b6f5760405162461bcd60e51b81526004016107d590613eaf565b600082815260096020526040902060080154600160201b900460ff161515600114611bd65760405162461bcd60e51b8152602060048201526017602482015276151a194812d650c81a5cc81b9bdd08185c1c1c9bdd9959604a1b60448201526064016107d5565b611be08383610761565b6001600160a01b0383166000818152600b602090815260408083208054600181018255908452828420018690558583526009825291829020600801805461ff00191661010017905581516060808252600d908201526c10d85c8819195b1959d85d1959609a1b608082015290810192909252429082015282906000805160206144b48339815191529060a001610c51565b6007546001600160a01b031690565b6060600180546106b790613e49565b611c9a338383612e93565b5050565b8833611ca98261138b565b6001600160a01b03161480611cf5575033611cc38261073a565b6001600160a01b0316148015611cf5575060008181526009602052604090206008015460ff6101009091041615156001145b611d115760405162461bcd60e51b81526004016107d590613e83565b600854811115611d335760405162461bcd60e51b81526004016107d590613eaf565b60008963ffffffff1611611d595760405162461bcd60e51b81526004016107d5906140d3565b60008863ffffffff1611611d7f5760405162461bcd60e51b81526004016107d5906140d3565b85611d9c5760405162461bcd60e51b81526004016107d5906140d3565b83611db95760405162461bcd60e51b81526004016107d5906140d3565b81611dd65760405162461bcd60e51b81526004016107d5906140d3565b611ddf8a612f5d565b611df08a8a8a8a8a8a8a8a8a613067565b50505050505050505050565b346000611e088361138b565b9050611e1d611e168461138b565b3385610e3d565b6000816001600160a01b03168360405160006040518083038185875af1925050503d8060008114611e6a576040519150601f19603f3d011682016040523d82523d6000602084013e611e6f565b606091505b5050905080611e905760405162461bcd60e51b81526004016107d590614204565b604080516060808252601490820152731d1c985b9cd9995c881dda5d1a08185b5bdd5b9d60621b6080820152336020820152429181019190915284906000805160206144b48339815191529060a001610a5e565b611eef84848461294d565b611efb84848484613188565b816000805160206144b48339815191523342604051610a5e929190614085565b8033611f268261138b565b6001600160a01b03161480611f72575033611f408261073a565b6001600160a01b0316148015611f72575060008181526009602052604090206008015460ff6101009091041615156001145b611f8e5760405162461bcd60e51b81526004016107d590613e83565b600854811115611fb05760405162461bcd60e51b81526004016107d590613eaf565b600082815260096020818152604092839020600801805462ff000019169055825160608082528101929092526810d85c88199bdd5b9960ba1b60808301523390820152429181019190915282906000805160206144b48339815191529060a001610c0f565b60606120208261285b565b6000828152600660205260408120805461203990613e49565b80601f016020809104026020016040519081016040528092919081815260200182805461206590613e49565b80156120b25780601f10612087576101008083540402835291602001916120b2565b820191906000526020600020905b81548152906001019060200180831161209557829003601f168201915b5050505050905060006120d060408051602081019091526000815290565b905080516000036120e2575092915050565b8151156121145780826040516020016120fc929190614232565b60405160208183030381529060405292505050919050565b61211d846131bb565b949350505050565b6001600160a01b0381166000908152600b602090815260409182902080548351818402810184019094528084526060939283018282801561141f576020028201919060005260206000209081548152602001906001019080831161140b5750505050509050919050565b6121976128ee565b60014710156121f45760405162461bcd60e51b815260206004820152602360248201527f596f75206e656564206174206c6561737420312045544820746f20776974686460448201526272617760e81b60648201526084016107d5565b604051600090339047908381818185875af1925050503d8060008114612236576040519150601f19603f3d011682016040523d82523d6000602084013e61223b565b606091505b505090508061225c5760405162461bcd60e51b81526004016107d590614204565b50565b803361226a8261138b565b6001600160a01b031614806122b65750336122848261073a565b6001600160a01b03161480156122b6575060008181526009602052604090206008015460ff6101009091041615156001145b6122d25760405162461bcd60e51b81526004016107d590613e83565b6008548111156122f45760405162461bcd60e51b81526004016107d590613eaf565b60008281526009602052604090819020600801805462ff00ff1916620100001790555182906000805160206144b483398151915290610c0f90339042906060808252600a908201526921b0b91039ba37b632b760b11b60808201526001600160a01b03929092166020830152604082015260a00190565b80336123768261138b565b6001600160a01b03161461239c5760405162461bcd60e51b81526004016107d5906141dd565b6008548111156123be5760405162461bcd60e51b81526004016107d590613eaf565b600082815260096020526040902060080154600160201b900460ff16156124195760405162461bcd60e51b815260206004820152600f60248201526e546865204b594320697320646f6e6560881b60448201526064016107d5565b6000828152600960205260409020600801546301000000900460ff161561247f5760405162461bcd60e51b815260206004820152601a602482015279546865204b594320697320616c72656164792077616974696e6760301b60448201526064016107d5565b60008281526009602052604090819020600801805463ff000000191663010000001790555182906000805160206144b483398151915290610c0f903390429060608082526009908201526812d650c8185cdad95960ba1b60808201526001600160a01b03929092166020830152604082015260a00190565b600b6020528160005260406000208181548110610e7457600080fd5b6060600061252060085490565b90506000805b828163ffffffff16116125a95763ffffffff811660009081526009602052604090206008015460ff1615156001148015612584575063ffffffff8116600090815260096020526040902060080154600160201b900460ff1615156001145b15612597578161259381614277565b9250505b806125a181614277565b915050612526565b5060008163ffffffff166001600160401b038111156125ca576125ca6137ce565b6040519080825280602002602001820160405280156125f3578160200160208202803683370190505b5090506000805b848163ffffffff16116126a75763ffffffff811660009081526009602052604090206008015460ff1615156001148015612658575063ffffffff8116600090815260096020526040902060080154600160201b900460ff1615156001145b15612695578063ffffffff16838363ffffffff168151811061267c5761267c61429a565b60209081029190910101528161269181614277565b9250505b8061269f81614277565b9150506125fa565b5090949350505050565b6001600160a01b03918216600090815260056020908152604080832093909416825291909152205460ff1690565b6126e76128ee565b6001600160a01b03811661274c5760405162461bcd60e51b815260206004820152602660248201527f4f776e61626c653a206e6577206f776e657220697320746865207a65726f206160448201526564647265737360d01b60648201526084016107d5565b61225c81612e41565b80336127608261138b565b6001600160a01b031614806127ac57503361277a8261073a565b6001600160a01b03161480156127ac575060008181526009602052604090206008015460ff6101009091041615156001145b6127c85760405162461bcd60e51b81526004016107d590613e83565b6008548111156127ea5760405162461bcd60e51b81526004016107d590613eaf565b60008281526009602052604090819020600801805460ff191690555182906000805160206144b483398151915290610c0f90339042906060808252600b908201526a14d85b19481cdd1bdc195960aa1b60808201526001600160a01b03929092166020830152604082015260a00190565b6128648161322f565b61225c5760405162461bcd60e51b81526004016107d5906141ab565b600081815260046020526040902080546001600160a01b0319166001600160a01b03841690811790915581906128b58261138b565b6001600160a01b03167f8c5be1e5ebec7d5bd14f71427d1e84f3dd0314c0f7b2291e5b200ac8c7c3b92560405160405180910390a45050565b336128f7611c71565b6001600160a01b0316146114c35760405162461bcd60e51b815260206004820181905260248201527f4f776e61626c653a2063616c6c6572206973206e6f7420746865206f776e657260448201526064016107d5565b6000818152600960209081526040808320600801805464ff0000ffff191690556001600160a01b0386168352600a9091529020546001036129ca576001600160a01b0383166000908152600a602052604090208054806129af576129af6140bd565b600190038181906000526020600020016000905590556129d4565b6129d4838261324c565b6001600160a01b039091166000908152600a60209081526040822080546001810182559083529120015550565b826001600160a01b0316612a148261138b565b6001600160a01b031614612a3a5760405162461bcd60e51b81526004016107d5906142b0565b6001600160a01b038216612a9c5760405162461bcd60e51b8152602060048201526024808201527f4552433732313a207472616e7366657220746f20746865207a65726f206164646044820152637265737360e01b60648201526084016107d5565b826001600160a01b0316612aaf8261138b565b6001600160a01b031614612ad55760405162461bcd60e51b81526004016107d5906142b0565b600081815260046020908152604080832080546001600160a01b03199081169091556001600160a01b0387811680865260038552838620805460001901905590871680865283862080546001019055868652600290945282852080549092168417909155905184936000805160206144d483398151915291a4505050565b6001600160a01b0382166000908152600b6020526040812054905b6001600160a01b0384166000908152600b6020526040902054811015612ca1576001600160a01b0384166000908152600b60205260409020805484919083908110612bbb57612bbb61429a565b906000526020600020015403612c8f576001600160a01b0384166000908152600b60205260409020612bee6001846142f5565b81548110612bfe57612bfe61429a565b9060005260206000200154600b6000866001600160a01b03166001600160a01b031681526020019081526020016000208281548110612c3f57612c3f61429a565b60009182526020808320909101929092556001600160a01b0386168152600b90915260409020805480612c7457612c746140bd565b60019003818190600052602060002001600090559055612ca1565b80612c9981614308565b915050612b6e565b50505050565b6001600160a01b038216612cfd5760405162461bcd60e51b815260206004820181905260248201527f4552433732313a206d696e7420746f20746865207a65726f206164647265737360448201526064016107d5565b612d068161322f565b15612d235760405162461bcd60e51b81526004016107d590614321565b612d2c8161322f565b15612d495760405162461bcd60e51b81526004016107d590614321565b6001600160a01b038216600081815260036020908152604080832080546001019055848352600290915280822080546001600160a01b0319168417905551839291906000805160206144d4833981519152908290a45050565b612dab8261322f565b612e0e5760405162461bcd60e51b815260206004820152602e60248201527f45524337323155524953746f726167653a2055524920736574206f66206e6f6e60448201526d32bc34b9ba32b73a103a37b5b2b760911b60648201526084016107d5565b60008281526006602052604090206108768282613f38565b6000908152600260205260409020546001600160a01b031690565b600780546001600160a01b038381166001600160a01b0319831681179093556040519116919082907f8be0079c531659141344cd1fd0a4f28419497f9722a3daafe3b4186f6b6457e090600090a35050565b816001600160a01b0316836001600160a01b031603612ef05760405162461bcd60e51b815260206004820152601960248201527822a9219b99189d1030b8383937bb32903a379031b0b63632b960391b60448201526064016107d5565b6001600160a01b03838116600081815260056020908152604080832094871680845294825291829020805460ff191686151590811790915591519182527f17307eab39ab6107e8899845ad3d59bd9653f200f220920489ca2b5937696c31910160405180910390a3505050565b8033612f688261138b565b6001600160a01b03161480612fb4575033612f828261073a565b6001600160a01b0316148015612fb4575060008181526009602052604090206008015460ff6101009091041615156001145b612fd05760405162461bcd60e51b81526004016107d590613e83565b600854811115612ff25760405162461bcd60e51b81526004016107d590613eaf565b60008281526009602052604090819020600801805460ff191660011790555182906000805160206144b483398151915290610c0f90339042906060808252600c908201526b43617220666f722073616c6560a01b60808201526001600160a01b03929092166020830152604082015260a00190565b88336130728261138b565b6001600160a01b031614806130be57503361308c8261073a565b6001600160a01b03161480156130be575060008181526009602052604090206008015460ff6101009091041615156001145b6130da5760405162461bcd60e51b81526004016107d590613e83565b6008548111156130fc5760405162461bcd60e51b81526004016107d590613eaf565b60008a8152600960208190526040909120908101805463ffffffff8b8116600160201b026001600160401b0319909216908d1617179055600a01613141878983614357565b5060008a8152600960205260409020600b0161315e858783614357565b5060008a8152600960205260409020600c0161317b838583614357565b5050505050505050505050565b613193848484612a01565b61319f8484848461337f565b612ca15760405162461bcd60e51b81526004016107d590614411565b60606131c68261285b565b60006131dd60408051602081019091526000815290565b905060008151116131fd5760405180602001604052806000815250613228565b8061320784613480565b604051602001613218929190614232565b6040516020818303038152906040525b9392505050565b60008061323b83612e26565b6001600160a01b0316141592915050565b6001600160a01b0382166000908152600a6020526040812054905b6001600160a01b0384166000908152600a6020526040902054811015612ca1576001600160a01b0384166000908152600a602052604090208054849190839081106132b4576132b461429a565b90600052602060002001540361336d576001600160a01b0384166000908152600a602052604090206132e76001846142f5565b815481106132f7576132f761429a565b9060005260206000200154600a6000866001600160a01b03166001600160a01b0316815260200190815260200160002082815481106133385761333861429a565b60009182526020808320909101929092556001600160a01b0386168152600a90915260409020805480612c7457612c746140bd565b8061337781614308565b915050613267565b60006001600160a01b0384163b1561347557604051630a85bd0160e11b81526001600160a01b0385169063150b7a02906133c3903390899088908890600401614463565b6020604051808303816000875af19250505080156133fe575060408051601f3d908101601f191682019092526133fb91810190614496565b60015b61345b573d80801561342c576040519150601f19603f3d011682016040523d82523d6000602084013e613431565b606091505b5080516000036134535760405162461bcd60e51b81526004016107d590614411565b805181602001fd5b6001600160e01b031916630a85bd0160e11b14905061211d565b506001949350505050565b6060600061348d83613512565b60010190506000816001600160401b038111156134ac576134ac6137ce565b6040519080825280601f01601f1916602001820160405280156134d6576020820181803683370190505b5090508181016020015b600019016f181899199a1a9b1b9c1cb0b131b232b360811b600a86061a8153600a85049450846134e057509392505050565b60008072184f03e93ff9f4daa797ed6e38ed64bf6a1f0160401b83106135515772184f03e93ff9f4daa797ed6e38ed64bf6a1f0160401b830492506040015b6904ee2d6d415b85acef8160201b831061357b576904ee2d6d415b85acef8160201b830492506020015b662386f26fc10000831061359957662386f26fc10000830492506010015b6305f5e10083106135b1576305f5e100830492506008015b61271083106135c557612710830492506004015b606483106135d7576064830492506002015b600a83106106a25760010192915050565b60405180610140016040528060608152602001606081526020016060815260200160608152602001600063ffffffff16815260200160608152602001600063ffffffff1681526020016060815260200161367d6040518060c001604052806000151581526020016000151581526020016000151581526020016000151581526020016000151581526020016000151581525090565b81526020016136c06040518060a00160405280600063ffffffff168152602001600063ffffffff1681526020016060815260200160608152602001606081525090565b905290565b6001600160a01b0391909116815260200190565b6001600160e01b03198116811461225c57600080fd5b60006020828403121561370157600080fd5b8135613228816136d9565b60005b8381101561372757818101518382015260200161370f565b50506000910152565b6000815180845261374881602086016020860161370c565b601f01601f19169290920160200192915050565b6020815260006132286020830184613730565b60006020828403121561378157600080fd5b5035919050565b80356001600160a01b038116811461379f57600080fd5b919050565b600080604083850312156137b757600080fd5b6137c083613788565b946020939093013593505050565b634e487b7160e01b600052604160045260246000fd5b60006001600160401b03808411156137fe576137fe6137ce565b604051601f8501601f19908116603f01168101908282118183101715613826576138266137ce565b8160405280935085815286868601111561383f57600080fd5b858560208301376000602087830101525050509392505050565b600082601f83011261386a57600080fd5b613228838335602085016137e4565b6000806040838503121561388c57600080fd5b82356001600160401b038111156138a257600080fd5b6138ae85828601613859565b95602094909401359450505050565b6000806000606084860312156138d257600080fd5b6138db84613788565b92506138e960208501613788565b9150604084013590509250925092565b803563ffffffff8116811461379f57600080fd5b600080600080600080600080610100898b03121561392a57600080fd5b88356001600160401b038082111561394157600080fd5b61394d8c838d01613859565b995060208b013591508082111561396357600080fd5b61396f8c838d01613859565b985060408b013591508082111561398557600080fd5b6139918c838d01613859565b975060608b01359150808211156139a757600080fd5b6139b38c838d01613859565b965060808b01359150808211156139c957600080fd5b6139d58c838d01613859565b95506139e360a08c016138f9565b945060c08b01359150808211156139f957600080fd5b50613a068b828c01613859565b925050613a1560e08a016138f9565b90509295985092959890939650565b600060208284031215613a3657600080fd5b61322882613788565b6020808252825182820181905260009190848201906040850190845b81811015613a7757835183529284019291840191600101613a5b565b50909695505050505050565b600063ffffffff80835116845280602084015116602085015250604082015160a06040850152613ab660a0850182613730565b905060608301518482036060860152613acf8282613730565b91505060808301518482036080860152613ae98282613730565b95945050505050565b60208152600082516101e0806020850152613b11610200850183613730565b91506020850151601f1980868503016040870152613b2f8483613730565b93506040870151915080868503016060870152613b4c8483613730565b93506060870151915080868503016080870152613b698483613730565b935060808701519150613b8460a087018363ffffffff169052565b60a08701519150808685030160c0870152613b9f8483613730565b935060c08701519150613bba60e087018363ffffffff169052565b60e08701519150610100818786030181880152613bd78584613730565b908801518051151561012089810191909152602082015115156101408a0152604082015115156101608a0152606082015115156101808a0152608082015115156101a08a015260a09091015115156101c0890152880151878203929092018488015293509050613c478382613a83565b9695505050505050565b60008060408385031215613c6457600080fd5b613c6d83613788565b915060208301358015158114613c8257600080fd5b809150509250929050565b60008083601f840112613c9f57600080fd5b5081356001600160401b03811115613cb657600080fd5b602083019150836020828501011115613cce57600080fd5b9250929050565b600080600080600080600080600060c08a8c031215613cf357600080fd5b89359850613d0360208b016138f9565b9750613d1160408b016138f9565b965060608a01356001600160401b0380821115613d2d57600080fd5b613d398d838e01613c8d565b909850965060808c0135915080821115613d5257600080fd5b613d5e8d838e01613c8d565b909650945060a08c0135915080821115613d7757600080fd5b50613d848c828d01613c8d565b915080935050809150509295985092959850929598565b60008060008060808587031215613db157600080fd5b613dba85613788565b9350613dc860208601613788565b92506040850135915060608501356001600160401b03811115613dea57600080fd5b8501601f81018713613dfb57600080fd5b613e0a878235602084016137e4565b91505092959194509250565b60008060408385031215613e2957600080fd5b613e3283613788565b9150613e4060208401613788565b90509250929050565b600181811c90821680613e5d57607f821691505b602082108103613e7d57634e487b7160e01b600052602260045260246000fd5b50919050565b602080825260129082015271165bdd481b9bdd08185d5d1a1bdc9a5e995960721b604082015260600190565b6020808252600c908201526b1a59081a5b98dbdc9c9958dd60a21b604082015260600190565b601f82111561087657600081815260208120601f850160051c81016020861015613efc5750805b601f850160051c820191505b81811015613f1b57828155600101613f08565b505050505050565b600019600383901b1c191660019190911b1790565b81516001600160401b03811115613f5157613f516137ce565b613f6581613f5f8454613e49565b84613ed5565b602080601f831160018114613f945760008415613f825750858301515b613f8c8582613f23565b865550613f1b565b600085815260208120601f198616915b82811015613fc357888601518255948401946001909101908401613fa4565b5085821015613fe15787850151600019600388901b60f8161c191681555b5050505050600190811b01905550565b6000835161400381846020880161370c565b603b60f81b908301908152835161402181600184016020880161370c565b01600101949350505050565b60088152674b594320646f6e6560c01b602082015260400190565b6020815260006106a26020830161402d565b60608152600061406c6060830161402d565b6001600160a01b03949094166020830152506040015290565b6060808252600890820152673a3930b739b332b960c11b60808201526001600160a01b03929092166020830152604082015260a00190565b634e487b7160e01b600052603160045260246000fd5b602080825260059082015264456d70747960d81b604082015260600190565b6001600160a01b038b168152610140602082018190526000906141178382018d613730565b90508a60408401528281036060840152614131818b613730565b90508281036080840152614145818a613730565b905082810360a08401526141598189613730565b905082810360c084015261416d8188613730565b905063ffffffff80871660e085015283820361010085015261418f8287613730565b925080851661012085015250509b9a5050505050505050505050565b602080825260189082015277115490cdcc8c4e881a5b9d985b1a59081d1bdad95b88125160421b604082015260600190565b6020808252600d908201526c2cb7ba903737ba1037bbb732b960991b604082015260600190565b6020808252601490820152737472616e73666572206469646e277420776f726b60601b604082015260600190565b6000835161424481846020880161370c565b83519083019061425881836020880161370c565b01949350505050565b634e487b7160e01b600052601160045260246000fd5b600063ffffffff80831681810361429057614290614261565b6001019392505050565b634e487b7160e01b600052603260045260246000fd5b60208082526025908201527f4552433732313a207472616e736665722066726f6d20696e636f72726563742060408201526437bbb732b960d91b606082015260800190565b818103818111156106a2576106a2614261565b60006001820161431a5761431a614261565b5060010190565b6020808252601c908201527b115490cdcc8c4e881d1bdad95b88185b1c9958591e481b5a5b9d195960221b604082015260600190565b6001600160401b0383111561436e5761436e6137ce565b6143828361437c8354613e49565b83613ed5565b6000601f8411600181146143b0576000851561439e5750838201355b6143a88682613f23565b84555061440a565b600083815260209020601f19861690835b828110156143e157868501358255602094850194600190920191016143c1565b50868210156143fe5760001960f88860031b161c19848701351681555b505060018560011b0183555b5050505050565b60208082526032908201527f4552433732313a207472616e7366657220746f206e6f6e20455243373231526560408201527131b2b4bb32b91034b6b83632b6b2b73a32b960711b606082015260800190565b6001600160a01b0385811682528416602082015260408101839052608060608201819052600090613c4790830184613730565b6000602082840312156144a857600080fd5b8151613228816136d956feeb41bb939756ad181f097f7e48b18e54ec12e25331e6d6855ca98fca7003c5deddf252ad1be2c89b69c2b068fc378daa952ba7f163c4a11628f55a4df523b3ef15382559391789f1865e10e9c8b51327a9cb0381eae89973ada229e7a78c08f3a2646970667358221220b610b96900c26957fae74b2a79f9b6d0ce40fb765e8e976205916d0962976e2e64736f6c63430008120033",
  "immutableReferences": {},
  "source": "// SPDX-License-Identifier: MIT\npragma solidity 0.8.18;\n\nimport \"@openzeppelin/contracts/token/ERC721/ERC721.sol\";\nimport \"@openzeppelin/contracts/token/ERC721/extensions/ERC721URIStorage.sol\";\nimport \"@openzeppelin/contracts/utils/Counters.sol\";\nimport \"@openzeppelin/contracts/access/Ownable.sol\";\n\n\n/**\n * @title BlockCar\n * @author Germain Winckel\n * @notice The blockCar contract code\n * @dev The blockCar contract code\n */\ncontract BlockCar is ERC721URIStorage, Ownable {\n    /**\n    * @dev The counter from the openzeppelin contract Counters.sol\n    */\n    using Counters for Counters.Counter;\n    Counters.Counter private tokenIds;\n\n    /**\n    * @dev The Status of each NFT, this struct is in the Car struct. When mint, all values are false\n    */\n    struct Status {\n        bool isOnSale;\n        bool isDelegated;\n        bool isStolen;\n        bool isWaitingKyc;\n        bool isKycDone;\n        bool isScrapped;\n    }\n\n    /**\n    * @dev Others informations we need for sell the car\n    */\n    struct InfosForSale {\n      \tuint32 mileage;\n      \tuint32 price;\n      \tstring country;\n      \tstring localisation;\n      \tstring contactDetails;\n    }\n\n    /**\n    * @dev A complex type that all the statics informations of a NFT. \n\t* linkDocument contains all the link to the differents documents, the separtoir is ;\n    */\n\tstruct Car{\n\t\tstring vin;\n\t\tstring brand;\n\t\tstring model;\n      \tstring color;\n      \tuint32 power; //kw\n      \tstring registrationCountry;\n      \tuint32 registrationDate;    // dd/mm/yyyy\n      \tstring linkDocument;        //only value which can change\n      \tStatus status;\n        InfosForSale infosForSale;\n\t}\n    \n\t/// @dev Mapping the NFT ID with the car informations\n    mapping(uint256 => Car) nftCarInfos;\n\n    /// @dev Mapping the NFT ID with the owner\n    mapping(address => uint256[]) public nftIdAndOwner;  \n\n    /// @dev Mapping the NFT ID with the delegator\n    mapping(address => uint256[]) public nftIdAndDelegator;  \n\t\n\t/// @dev An event that registers when a user did the KYC for a car\n    event Minted (address userAddress, string tokenURI, uint256 nftId, string vin, string brand, string model, string color, uint32 power, string registrationCountry, uint32 registrationDate);\n\n    /// @dev An event when a car is for sale\n    event ChangingStatus (string status, address _address, uint256 indexed nftId, uint256 timestamp);\n\n    /// @dev An event when a deposit is received\n    event LogDepositReceived (address _address);\n\n    constructor() ERC721 (\"BlockCar\", \"BLC\") {\n    }\n\n\t/**\n     * @dev To mint an NFT\n\t * @param _tokenURI : Link to jdon/image\n\t * @param _vin : Vehicle Identification Number\n\t * @param _brand : Brand of the car\n\t * @param _model : Model of the car\n\t * @param _color : color of the car\n\t * @param _power : Power of the car in Kw\n\t * @param _registrationCountry : Reistration country\n\t * @param _registrationDate : Regisytration date in ddmmyyyy\n     * @return newItemId mThe Id of the NFT \n     */\n    function mintCar(string memory _tokenURI, string memory _vin, string memory _brand, string memory _model, string memory _color, uint32 _power, string memory _registrationCountry, uint32 _registrationDate) public returns (uint256) {\n        require(msg.sender != address(0), \"Empty\");\n        require(bytes(_tokenURI).length > 0, \"Empty\");\n        require(bytes(_vin).length > 0, \"Empty\");\n        require(bytes(_brand).length > 0, \"Empty\");\n        require(bytes(_model).length > 0, \"Empty\");\n        require(bytes(_color).length > 0, \"Empty\");\n        require(_power > 0, \"Empty\");\n        require(bytes(_registrationCountry).length > 0, \"Empty\");\n        require(_registrationDate > 0, \"Empty\");\n\n        tokenIds.increment();\n        uint256 newItemId = tokenIds.current();\n        _mint(msg.sender, newItemId);\n        _setTokenURI(newItemId, _tokenURI);\n\n        nftIdAndOwner[msg.sender].push(newItemId);\n        \n        Status memory statusIni = Status(false,false,false,false,false,false);\n        InfosForSale memory infosForSaleIni = InfosForSale(0,0,\"\",\"\",\"\");\n\t\tCar memory car = Car(_vin, _brand, _model, _color, _power, _registrationCountry, _registrationDate, \"\",statusIni, infosForSaleIni);\n\t\tnftCarInfos[newItemId] = car;\n\t\temit Minted (msg.sender, _tokenURI, newItemId, _vin, _brand, _model, _color, _power, _registrationCountry, _registrationDate);\n        return newItemId;\n    }\n\n    function getNftIdsByAddress(address _owner) external view returns (uint256[] memory) {\n        return nftIdAndOwner[_owner];\n    }\n\n    function getNftIdsByDelegatorAddress(address _owner) external view returns (uint256[] memory) {\n        return nftIdAndDelegator[_owner];\n    }    \n\n    function getNftIdsByOnSaleAndKycDone() external view returns (uint256[] memory) {\n        uint256 itemId = tokenIds.current();\n        uint32 count;\n\n       // First, we count the number of cars that match the specified status\n        for (uint32 i = 0; i <= itemId; i++) {\n            if ((nftCarInfos[i].status.isOnSale == true) &&\n                (nftCarInfos[i].status.isKycDone == true)) {\n                count++;\n            }\n        }\n\n        uint256[] memory Ids = new uint256[](count);\n        uint32 index = 0;\n\n        for (uint32 i = 0; i <= itemId; i++) {\n            if ((nftCarInfos[i].status.isOnSale == true) &&\n                (nftCarInfos[i].status.isKycDone == true)) {\n                Ids[index] = i;\n                index++;\n            }\n        }\n        return Ids;\n    }\n\n    /**\n    * @dev Modifier to check if the address is owner or the delegator of the NFT\n    * @param _tokenIds The Id of the NFT \n    */\n    modifier isNftOwnerOrDelegator(uint256 _tokenIds) {\n        require(ownerOf(_tokenIds)==msg.sender || (getApproved(_tokenIds)==msg.sender &&  nftCarInfos[_tokenIds].status.isDelegated == true) , 'You not authorized');\n        require(_tokenIds <= tokenIds.current(), 'id incorrect');\n        _;\n    }\n\n        /**\n    * @dev Modifier to check if the address is owner of the NFT\n    * @param _tokenIds The Id of the NFT \n    */\n    modifier isNftOwner(uint256 _tokenIds) {\n        require(ownerOf(_tokenIds)==msg.sender, 'You not owner');\n        require(_tokenIds <= tokenIds.current(), 'id incorrect');\n        _;\n    }\n\n    /**\n    * @dev Change the status of isKycDone to true\n    * @param _tokenIds The Id of the NFT \n    */\n    function kycIsApproved (uint256 _tokenIds) external onlyOwner {\n        require(nftCarInfos[_tokenIds].status.isKycDone == false, 'KYC done');\n\t\tnftCarInfos[_tokenIds].status.isWaitingKyc = false;\n\t\tnftCarInfos[_tokenIds].status.isKycDone = true;\n        emit ChangingStatus(\"KYC done\",msg.sender , _tokenIds, block.timestamp);\n    }\n\n    /**\n    * @dev Get the NFT informations\n    * @param _tokenIds The Id of the NFT \n    */\n    function getCarNft (uint256 _tokenIds) external view returns (Car memory) {\n        require(_tokenIds <= tokenIds.current(), 'Id incorrect');\n        return nftCarInfos[_tokenIds];\n    }\n\n    /**\n    * @dev Change boolean 'isOnSale' to true, is car is for sale\n    * @param _tokenIds The Id of the NFT \n    */\n    function carIsForSale (uint256 _tokenIds) internal isNftOwnerOrDelegator (_tokenIds) {\n        nftCarInfos[_tokenIds].status.isOnSale = true;\n        emit ChangingStatus(\"Car for sale\",msg.sender, _tokenIds, block.timestamp);\n    }\n\n    /**\n    * @dev Change boolean 'isOnSale' to true, this car is for sale\n    * @param _tokenIds The Id of the NFT \n    * @param _mileage the mileage of the car\n    * @param _price The price of the car\n    * @param _localisation the localisation of the car\n    * @param _contactDetails The details of the contact\n    */\n    function setInformationsForSale (uint256 _tokenIds, uint32 _mileage, uint32 _price, string calldata _country, string calldata _localisation, string calldata _contactDetails) internal isNftOwnerOrDelegator (_tokenIds) {\n        nftCarInfos[_tokenIds].infosForSale.mileage = _mileage;\n        nftCarInfos[_tokenIds].infosForSale.price = _price;\n        nftCarInfos[_tokenIds].infosForSale.country = _country;\n        nftCarInfos[_tokenIds].infosForSale.localisation = _localisation;\n        nftCarInfos[_tokenIds].infosForSale.contactDetails = _contactDetails;\n    }\n\n    function carIsForSaleAndSetInformationsForSale (uint256 _tokenIds, uint32 _mileage, uint32 _price, string calldata _country, string calldata _localisation, string calldata _contactDetails) external isNftOwnerOrDelegator (_tokenIds) {\n        require(_mileage > 0, \"Empty\");\n        require(_price > 0, \"Empty\");\n        require(bytes(_country).length > 0, \"Empty\");\n        require(bytes(_localisation).length > 0, \"Empty\");\n        require(bytes(_contactDetails).length > 0, \"Empty\");\n        carIsForSale(_tokenIds);\n        setInformationsForSale(_tokenIds, _mileage, _price, _country, _localisation, _contactDetails);\n    }\n\n    /**\n    * @dev Change boolean 'isStolen' to true, this car is stolen\n    * @param _tokenIds The Id of the NFT \n    */\n    function carIsStolen (uint256 _tokenIds) external isNftOwnerOrDelegator (_tokenIds) {\n        nftCarInfos[_tokenIds].status.isStolen = true;\n        nftCarInfos[_tokenIds].status.isOnSale = false;\n        emit ChangingStatus(\"Car stolen\",msg.sender, _tokenIds, block.timestamp);\n    }\n\n    /**\n    * @dev Change boolean 'isScrapped' to true, this car is Scrapped\n    * @param _tokenIds The Id of the NFT \n    */\n    function carIsScrapped (uint256 _tokenIds) external isNftOwnerOrDelegator (_tokenIds) {\n        nftCarInfos[_tokenIds].status.isScrapped = true;\n        nftCarInfos[_tokenIds].status.isOnSale = false;\n        emit ChangingStatus(\"Car scrapped\",msg.sender, _tokenIds, block.timestamp);\n    }\n\n    /**\n    * @dev Change boolean 'isScrapped' to true, this car is Scrapped\n    * @param _tokenIds The Id of the NFT \n    */\n    function stopSale (uint256 _tokenIds) external isNftOwnerOrDelegator (_tokenIds) {\n        nftCarInfos[_tokenIds].status.isOnSale = false;\n        emit ChangingStatus(\"Sale stoped\",msg.sender, _tokenIds, block.timestamp);\n    }\n\n    /**\n    * @dev Change boolean 'isScrapped' to true, this car is Scrapped\n    * @param _tokenIds The Id of the NFT \n    */\n    function carFound (uint256 _tokenIds) external isNftOwnerOrDelegator (_tokenIds) {\n        nftCarInfos[_tokenIds].status.isStolen = false;\n        emit ChangingStatus(\"Car found\",msg.sender, _tokenIds, block.timestamp);\n    }\n\n    /**\n    * @dev Change boolean 'isDelegated' to true, this car is Delegated\n    * @param _tokenIds The Id of the NFT \n    */\n    function delegeteCar (address delegatorAddress, uint256 _tokenIds) external isNftOwner (_tokenIds) {\n        require(nftCarInfos[_tokenIds].status.isKycDone == true, \"The KYC is not approved\");\n        approve(delegatorAddress, _tokenIds);\n        nftIdAndDelegator[delegatorAddress].push(_tokenIds);\n        nftCarInfos[_tokenIds].status.isDelegated = true;\n        emit ChangingStatus(\"Car delegated\", delegatorAddress, _tokenIds, block.timestamp);\n    }\n\n    /**\n    * @dev Change boolean 'isDelegated' to false, this car is not delegated anymore\n    * @param _tokenIds The Id of the NFT \n    */\n    function stopDelegation (uint256 _tokenIds) external isNftOwnerOrDelegator (_tokenIds) {\n        require(nftCarInfos[_tokenIds].status.isDelegated == true, \"The NFT is not delegated\");\n\n        address delegatorAdress = getApproved(_tokenIds);\n\n        nftCarInfos[_tokenIds].status.isDelegated = false;\n\n        if (nftIdAndDelegator[delegatorAdress].length == 1) {\n            nftIdAndDelegator[delegatorAdress].pop();\n        } else {\n            removeTokenIdDelegator(delegatorAdress, _tokenIds);\n        }\n\n        emit ChangingStatus(\"Delegation stoped\",msg.sender, _tokenIds, block.timestamp);\n    }\n\n    function removeTokenIdDelegator(address _addressToDel, uint256 _tokenIds) internal {\n        uint256 length = nftIdAndDelegator[_addressToDel].length;\n        for (uint256 i = 0; i < nftIdAndDelegator[_addressToDel].length; i++) {\n            if (nftIdAndDelegator[_addressToDel][i] == _tokenIds) {\n                // Remplace l'lment  supprimer par le dernier lment du tableau\n                nftIdAndDelegator[_addressToDel][i] = nftIdAndDelegator[_addressToDel][length - 1];\n                \n                // Rduit la longueur du tableau de 1\n                nftIdAndDelegator[_addressToDel].pop();\n                break;\n            }\n        }\n    }\n\n    /**\n    * @dev Change boolean 'isWaitingKyc' to false, this car is not delegated anymore\n    * @param _tokenIds The Id of the NFT \n    */\n    function askKyc (uint256 _tokenIds) external isNftOwner (_tokenIds) {\n        require(nftCarInfos[_tokenIds].status.isKycDone == false, \"The KYC is done\");\n        require(nftCarInfos[_tokenIds].status.isWaitingKyc == false, \"The KYC is already waiting\");\n        nftCarInfos[_tokenIds].status.isWaitingKyc = true;\n        emit ChangingStatus(\"KYC asked\",msg.sender, _tokenIds, block.timestamp);\n    }\n\n    function removeTokenIdNftOwner(address _addressToDel, uint256 _tokenIds) internal {\n        uint256 length = nftIdAndOwner[_addressToDel].length;\n        for (uint256 i = 0; i < nftIdAndOwner[_addressToDel].length; i++) {\n            if (nftIdAndOwner[_addressToDel][i] == _tokenIds) {\n                // Remplace l'lment  supprimer par le dernier lment du tableau\n                nftIdAndOwner[_addressToDel][i] = nftIdAndOwner[_addressToDel][length - 1];\n                \n                // Rduit la longueur du tableau de 1\n                nftIdAndOwner[_addressToDel].pop();\n                break;\n            }\n        }\n    }\n\n    function addDocumentLink(string memory _newLink, uint256 _tokenId) external isNftOwnerOrDelegator (_tokenId)  {\n        string memory currentLink = nftCarInfos[_tokenId].linkDocument;\n        if (bytes(currentLink).length == 0) {\n            nftCarInfos[_tokenId].linkDocument = _newLink;\n        } else {\n            nftCarInfos[_tokenId].linkDocument = string(abi.encodePacked(currentLink, \";\", _newLink));\n        }\n        emit ChangingStatus(\"Document added\",msg.sender, _tokenId, block.timestamp);\n    }\n\n    function testingAndTransfer (address _from, address _to, uint256 _tokenIds) internal {\n        nftCarInfos[_tokenIds].status.isKycDone = false;\n        nftCarInfos[_tokenIds].status.isDelegated = false;\n        nftCarInfos[_tokenIds].status.isOnSale = false;\n\n        if (nftIdAndOwner[_from].length == 1) {\n            nftIdAndOwner[_from].pop();\n        } else {\n            removeTokenIdNftOwner(_from, _tokenIds);\n        }\n        nftIdAndOwner[_to].push(_tokenIds);\n    }\n\n    /**\n     * @dev See {IERC721-transferFrom}.\n     */\n    function transferFrom(\n        address from,\n        address to,\n        uint256 tokenId\n    ) public virtual override {\n        testingAndTransfer(from, to, tokenId);\n        _transfer(from, to, tokenId);\n        emit ChangingStatus(\"transfer\",msg.sender, tokenId, block.timestamp);\n    }\n\n    /**\n     * @dev See {IERC721-safeTransferFrom}.\n     */\n    function safeTransferFrom(\n        address from,\n        address to,\n        uint256 tokenId\n    ) public virtual override {\n        safeTransferFrom(from, to, tokenId, \"\");\n    }\n\n    /**\n     * @dev See {IERC721-safeTransferFrom}.\n     */\n    function safeTransferFrom(\n        address from,\n        address to,\n        uint256 tokenId,\n        bytes memory data\n    ) public virtual override {\n        testingAndTransfer(from, to, tokenId);\n        _safeTransfer(from, to, tokenId, data);\n        emit ChangingStatus(\"transfer\",msg.sender, tokenId, block.timestamp);\n    }\n\n    function sellNftAndTransferValueToOwner(uint256 _tokenId) external payable  {\n        uint256 valueSend               = msg.value;\n        address ownerAddress            = ownerOf(_tokenId);\n        safeTransferFrom(ownerOf(_tokenId),msg.sender,_tokenId);\n        (bool sent, )                   = payable(ownerAddress).call{value: valueSend}(\"\");\n        require(sent, unicode\"transfer didn't work\");\n        emit ChangingStatus(\"transfer with amount\",msg.sender, _tokenId, block.timestamp);\n    }\n\n    fallback() external payable { \n        require(msg.data.length == 0);\n        emit LogDepositReceived(msg.sender); \n    }\n \n    receive() external payable { \n        emit LogDepositReceived(msg.sender); \n    }\n\n    function withdrawal() public onlyOwner {\n        require(address(this).balance >= 1, \"You need at least 1 ETH to withdraw\");\n        (bool sent, )                   = payable(msg.sender).call{value: address(this).balance}(\"\");\n        require(sent, unicode\"transfer didn't work\");\n    }\n}\n",
  "sourcePath": "/home/germain/Projet4/truffle/contracts/BlockCar.sol",
  "compiler": {
    "name": "solc",
    "version": "0.8.18+commit.87f61d96.Emscripten.clang"
  },
  "schemaVersion": "3.4.13",
  "updatedAt": "2023-04-07T11:37:02.521Z",
  "networkType": "ethereum",
  "devdoc": {
    "author": "Germain Winckel",
    "details": "The blockCar contract code",
    "events": {
      "Approval(address,address,uint256)": {
        "details": "Emitted when `owner` enables `approved` to manage the `tokenId` token."
      },
      "ApprovalForAll(address,address,bool)": {
        "details": "Emitted when `owner` enables or disables (`approved`) `operator` to manage all of its assets."
      },
      "ChangingStatus(string,address,uint256,uint256)": {
        "details": "An event when a car is for sale"
      },
      "LogDepositReceived(address)": {
        "details": "An event when a deposit is received"
      },
      "Minted(address,string,uint256,string,string,string,string,uint32,string,uint32)": {
        "details": "An event that registers when a user did the KYC for a car"
      },
      "Transfer(address,address,uint256)": {
        "details": "Emitted when `tokenId` token is transferred from `from` to `to`."
      }
    },
    "kind": "dev",
    "methods": {
      "approve(address,uint256)": {
        "details": "See {IERC721-approve}."
      },
      "askKyc(uint256)": {
        "details": "Change boolean 'isWaitingKyc' to false, this car is not delegated anymore",
        "params": {
          "_tokenIds": "The Id of the NFT "
        }
      },
      "balanceOf(address)": {
        "details": "See {IERC721-balanceOf}."
      },
      "carFound(uint256)": {
        "details": "Change boolean 'isScrapped' to true, this car is Scrapped",
        "params": {
          "_tokenIds": "The Id of the NFT "
        }
      },
      "carIsScrapped(uint256)": {
        "details": "Change boolean 'isScrapped' to true, this car is Scrapped",
        "params": {
          "_tokenIds": "The Id of the NFT "
        }
      },
      "carIsStolen(uint256)": {
        "details": "Change boolean 'isStolen' to true, this car is stolen",
        "params": {
          "_tokenIds": "The Id of the NFT "
        }
      },
      "delegeteCar(address,uint256)": {
        "details": "Change boolean 'isDelegated' to true, this car is Delegated",
        "params": {
          "_tokenIds": "The Id of the NFT "
        }
      },
      "getApproved(uint256)": {
        "details": "See {IERC721-getApproved}."
      },
      "getCarNft(uint256)": {
        "details": "Get the NFT informations",
        "params": {
          "_tokenIds": "The Id of the NFT "
        }
      },
      "isApprovedForAll(address,address)": {
        "details": "See {IERC721-isApprovedForAll}."
      },
      "kycIsApproved(uint256)": {
        "details": "Change the status of isKycDone to true",
        "params": {
          "_tokenIds": "The Id of the NFT "
        }
      },
      "mintCar(string,string,string,string,string,uint32,string,uint32)": {
        "details": "To mint an NFT",
        "params": {
          "_brand": ": Brand of the car",
          "_color": ": color of the car",
          "_model": ": Model of the car",
          "_power": ": Power of the car in Kw",
          "_registrationCountry": ": Reistration country",
          "_registrationDate": ": Regisytration date in ddmmyyyy",
          "_tokenURI": ": Link to jdon/image",
          "_vin": ": Vehicle Identification Number"
        },
        "returns": {
          "_0": "newItemId mThe Id of the NFT "
        }
      },
      "name()": {
        "details": "See {IERC721Metadata-name}."
      },
      "owner()": {
        "details": "Returns the address of the current owner."
      },
      "ownerOf(uint256)": {
        "details": "See {IERC721-ownerOf}."
      },
      "renounceOwnership()": {
        "details": "Leaves the contract without owner. It will not be possible to call `onlyOwner` functions anymore. Can only be called by the current owner. NOTE: Renouncing ownership will leave the contract without an owner, thereby removing any functionality that is only available to the owner."
      },
      "safeTransferFrom(address,address,uint256)": {
        "details": "See {IERC721-safeTransferFrom}."
      },
      "safeTransferFrom(address,address,uint256,bytes)": {
        "details": "See {IERC721-safeTransferFrom}."
      },
      "setApprovalForAll(address,bool)": {
        "details": "See {IERC721-setApprovalForAll}."
      },
      "stopDelegation(uint256)": {
        "details": "Change boolean 'isDelegated' to false, this car is not delegated anymore",
        "params": {
          "_tokenIds": "The Id of the NFT "
        }
      },
      "stopSale(uint256)": {
        "details": "Change boolean 'isScrapped' to true, this car is Scrapped",
        "params": {
          "_tokenIds": "The Id of the NFT "
        }
      },
      "supportsInterface(bytes4)": {
        "details": "See {IERC165-supportsInterface}."
      },
      "symbol()": {
        "details": "See {IERC721Metadata-symbol}."
      },
      "tokenURI(uint256)": {
        "details": "See {IERC721Metadata-tokenURI}."
      },
      "transferFrom(address,address,uint256)": {
        "details": "See {IERC721-transferFrom}."
      },
      "transferOwnership(address)": {
        "details": "Transfers ownership of the contract to a new account (`newOwner`). Can only be called by the current owner."
      }
    },
    "stateVariables": {
      "nftCarInfos": {
        "details": "Mapping the NFT ID with the car informations"
      },
      "nftIdAndDelegator": {
        "details": "Mapping the NFT ID with the delegator"
      },
      "nftIdAndOwner": {
        "details": "Mapping the NFT ID with the owner"
      }
    },
    "title": "BlockCar",
    "version": 1
  },
  "userdoc": {
    "kind": "user",
    "methods": {},
    "notice": "The blockCar contract code",
    "version": 1
  }
}