{
  "contractName": "BlockCar",
  "abi": [
    {
      "inputs": [],
      "stateMutability": "nonpayable",
      "type": "constructor"
    },
    {
      "anonymous": false,
      "inputs": [
        {
          "indexed": true,
          "internalType": "address",
          "name": "owner",
          "type": "address"
        },
        {
          "indexed": true,
          "internalType": "address",
          "name": "approved",
          "type": "address"
        },
        {
          "indexed": true,
          "internalType": "uint256",
          "name": "tokenId",
          "type": "uint256"
        }
      ],
      "name": "Approval",
      "type": "event"
    },
    {
      "anonymous": false,
      "inputs": [
        {
          "indexed": true,
          "internalType": "address",
          "name": "owner",
          "type": "address"
        },
        {
          "indexed": true,
          "internalType": "address",
          "name": "operator",
          "type": "address"
        },
        {
          "indexed": false,
          "internalType": "bool",
          "name": "approved",
          "type": "bool"
        }
      ],
      "name": "ApprovalForAll",
      "type": "event"
    },
    {
      "anonymous": false,
      "inputs": [
        {
          "indexed": false,
          "internalType": "string",
          "name": "status",
          "type": "string"
        },
        {
          "indexed": false,
          "internalType": "address",
          "name": "_address",
          "type": "address"
        },
        {
          "indexed": true,
          "internalType": "uint256",
          "name": "nftId",
          "type": "uint256"
        },
        {
          "indexed": false,
          "internalType": "uint256",
          "name": "timestamp",
          "type": "uint256"
        }
      ],
      "name": "ChangingStatus",
      "type": "event"
    },
    {
      "anonymous": false,
      "inputs": [
        {
          "indexed": false,
          "internalType": "address",
          "name": "_address",
          "type": "address"
        }
      ],
      "name": "LogDepositReceived",
      "type": "event"
    },
    {
      "anonymous": false,
      "inputs": [
        {
          "indexed": false,
          "internalType": "address",
          "name": "userAddress",
          "type": "address"
        },
        {
          "indexed": false,
          "internalType": "string",
          "name": "tokenURI",
          "type": "string"
        },
        {
          "indexed": false,
          "internalType": "uint256",
          "name": "nftId",
          "type": "uint256"
        },
        {
          "indexed": false,
          "internalType": "string",
          "name": "vin",
          "type": "string"
        },
        {
          "indexed": false,
          "internalType": "string",
          "name": "brand",
          "type": "string"
        },
        {
          "indexed": false,
          "internalType": "string",
          "name": "model",
          "type": "string"
        },
        {
          "indexed": false,
          "internalType": "string",
          "name": "color",
          "type": "string"
        },
        {
          "indexed": false,
          "internalType": "uint32",
          "name": "power",
          "type": "uint32"
        },
        {
          "indexed": false,
          "internalType": "string",
          "name": "registrationCountry",
          "type": "string"
        },
        {
          "indexed": false,
          "internalType": "uint32",
          "name": "registrationDate",
          "type": "uint32"
        }
      ],
      "name": "Minted",
      "type": "event"
    },
    {
      "anonymous": false,
      "inputs": [
        {
          "indexed": true,
          "internalType": "address",
          "name": "previousOwner",
          "type": "address"
        },
        {
          "indexed": true,
          "internalType": "address",
          "name": "newOwner",
          "type": "address"
        }
      ],
      "name": "OwnershipTransferred",
      "type": "event"
    },
    {
      "anonymous": false,
      "inputs": [
        {
          "indexed": true,
          "internalType": "address",
          "name": "from",
          "type": "address"
        },
        {
          "indexed": true,
          "internalType": "address",
          "name": "to",
          "type": "address"
        },
        {
          "indexed": true,
          "internalType": "uint256",
          "name": "tokenId",
          "type": "uint256"
        }
      ],
      "name": "Transfer",
      "type": "event"
    },
    {
      "inputs": [
        {
          "internalType": "address",
          "name": "to",
          "type": "address"
        },
        {
          "internalType": "uint256",
          "name": "tokenId",
          "type": "uint256"
        }
      ],
      "name": "approve",
      "outputs": [],
      "stateMutability": "nonpayable",
      "type": "function"
    },
    {
      "inputs": [
        {
          "internalType": "address",
          "name": "owner",
          "type": "address"
        }
      ],
      "name": "balanceOf",
      "outputs": [
        {
          "internalType": "uint256",
          "name": "",
          "type": "uint256"
        }
      ],
      "stateMutability": "view",
      "type": "function",
      "constant": true
    },
    {
      "inputs": [
        {
          "internalType": "uint256",
          "name": "tokenId",
          "type": "uint256"
        }
      ],
      "name": "getApproved",
      "outputs": [
        {
          "internalType": "address",
          "name": "",
          "type": "address"
        }
      ],
      "stateMutability": "view",
      "type": "function",
      "constant": true
    },
    {
      "inputs": [
        {
          "internalType": "address",
          "name": "owner",
          "type": "address"
        },
        {
          "internalType": "address",
          "name": "operator",
          "type": "address"
        }
      ],
      "name": "isApprovedForAll",
      "outputs": [
        {
          "internalType": "bool",
          "name": "",
          "type": "bool"
        }
      ],
      "stateMutability": "view",
      "type": "function",
      "constant": true
    },
    {
      "inputs": [],
      "name": "name",
      "outputs": [
        {
          "internalType": "string",
          "name": "",
          "type": "string"
        }
      ],
      "stateMutability": "view",
      "type": "function",
      "constant": true
    },
    {
      "inputs": [
        {
          "internalType": "address",
          "name": "",
          "type": "address"
        },
        {
          "internalType": "uint256",
          "name": "",
          "type": "uint256"
        }
      ],
      "name": "nftIdAndDelegator",
      "outputs": [
        {
          "internalType": "uint256",
          "name": "",
          "type": "uint256"
        }
      ],
      "stateMutability": "view",
      "type": "function",
      "constant": true
    },
    {
      "inputs": [
        {
          "internalType": "address",
          "name": "",
          "type": "address"
        },
        {
          "internalType": "uint256",
          "name": "",
          "type": "uint256"
        }
      ],
      "name": "nftIdAndOwner",
      "outputs": [
        {
          "internalType": "uint256",
          "name": "",
          "type": "uint256"
        }
      ],
      "stateMutability": "view",
      "type": "function",
      "constant": true
    },
    {
      "inputs": [],
      "name": "owner",
      "outputs": [
        {
          "internalType": "address",
          "name": "",
          "type": "address"
        }
      ],
      "stateMutability": "view",
      "type": "function",
      "constant": true
    },
    {
      "inputs": [
        {
          "internalType": "uint256",
          "name": "tokenId",
          "type": "uint256"
        }
      ],
      "name": "ownerOf",
      "outputs": [
        {
          "internalType": "address",
          "name": "",
          "type": "address"
        }
      ],
      "stateMutability": "view",
      "type": "function",
      "constant": true
    },
    {
      "inputs": [],
      "name": "renounceOwnership",
      "outputs": [],
      "stateMutability": "nonpayable",
      "type": "function"
    },
    {
      "inputs": [
        {
          "internalType": "address",
          "name": "operator",
          "type": "address"
        },
        {
          "internalType": "bool",
          "name": "approved",
          "type": "bool"
        }
      ],
      "name": "setApprovalForAll",
      "outputs": [],
      "stateMutability": "nonpayable",
      "type": "function"
    },
    {
      "inputs": [
        {
          "internalType": "bytes4",
          "name": "interfaceId",
          "type": "bytes4"
        }
      ],
      "name": "supportsInterface",
      "outputs": [
        {
          "internalType": "bool",
          "name": "",
          "type": "bool"
        }
      ],
      "stateMutability": "view",
      "type": "function",
      "constant": true
    },
    {
      "inputs": [],
      "name": "symbol",
      "outputs": [
        {
          "internalType": "string",
          "name": "",
          "type": "string"
        }
      ],
      "stateMutability": "view",
      "type": "function",
      "constant": true
    },
    {
      "inputs": [
        {
          "internalType": "uint256",
          "name": "tokenId",
          "type": "uint256"
        }
      ],
      "name": "tokenURI",
      "outputs": [
        {
          "internalType": "string",
          "name": "",
          "type": "string"
        }
      ],
      "stateMutability": "view",
      "type": "function",
      "constant": true
    },
    {
      "inputs": [
        {
          "internalType": "address",
          "name": "newOwner",
          "type": "address"
        }
      ],
      "name": "transferOwnership",
      "outputs": [],
      "stateMutability": "nonpayable",
      "type": "function"
    },
    {
      "inputs": [
        {
          "internalType": "string",
          "name": "_tokenURI",
          "type": "string"
        },
        {
          "internalType": "string",
          "name": "_vin",
          "type": "string"
        },
        {
          "internalType": "string",
          "name": "_brand",
          "type": "string"
        },
        {
          "internalType": "string",
          "name": "_model",
          "type": "string"
        },
        {
          "internalType": "string",
          "name": "_color",
          "type": "string"
        },
        {
          "internalType": "uint32",
          "name": "_power",
          "type": "uint32"
        },
        {
          "internalType": "string",
          "name": "_registrationCountry",
          "type": "string"
        },
        {
          "internalType": "uint32",
          "name": "_registrationDate",
          "type": "uint32"
        }
      ],
      "name": "mintCar",
      "outputs": [
        {
          "internalType": "uint256",
          "name": "",
          "type": "uint256"
        }
      ],
      "stateMutability": "nonpayable",
      "type": "function"
    },
    {
      "inputs": [],
      "name": "getCurrentId",
      "outputs": [
        {
          "internalType": "uint256",
          "name": "",
          "type": "uint256"
        }
      ],
      "stateMutability": "view",
      "type": "function",
      "constant": true
    },
    {
      "inputs": [
        {
          "internalType": "address",
          "name": "_owner",
          "type": "address"
        }
      ],
      "name": "getNftIdsByAddress",
      "outputs": [
        {
          "internalType": "uint256[]",
          "name": "",
          "type": "uint256[]"
        }
      ],
      "stateMutability": "view",
      "type": "function",
      "constant": true
    },
    {
      "inputs": [
        {
          "internalType": "address",
          "name": "_owner",
          "type": "address"
        }
      ],
      "name": "getNftIdsByDelegatorAddress",
      "outputs": [
        {
          "internalType": "uint256[]",
          "name": "",
          "type": "uint256[]"
        }
      ],
      "stateMutability": "view",
      "type": "function",
      "constant": true
    },
    {
      "inputs": [],
      "name": "getNftIdsByOnSale",
      "outputs": [
        {
          "internalType": "uint256[]",
          "name": "",
          "type": "uint256[]"
        }
      ],
      "stateMutability": "view",
      "type": "function",
      "constant": true
    },
    {
      "inputs": [
        {
          "internalType": "uint256",
          "name": "_tokenId",
          "type": "uint256"
        }
      ],
      "name": "getCarNft",
      "outputs": [
        {
          "components": [
            {
              "internalType": "string",
              "name": "vin",
              "type": "string"
            },
            {
              "internalType": "string",
              "name": "brand",
              "type": "string"
            },
            {
              "internalType": "string",
              "name": "model",
              "type": "string"
            },
            {
              "internalType": "string",
              "name": "color",
              "type": "string"
            },
            {
              "internalType": "uint32",
              "name": "power",
              "type": "uint32"
            },
            {
              "internalType": "string",
              "name": "registrationCountry",
              "type": "string"
            },
            {
              "internalType": "uint32",
              "name": "registrationDate",
              "type": "uint32"
            },
            {
              "internalType": "string",
              "name": "linkDocument",
              "type": "string"
            },
            {
              "components": [
                {
                  "internalType": "bool",
                  "name": "isOnSale",
                  "type": "bool"
                },
                {
                  "internalType": "bool",
                  "name": "isDelegated",
                  "type": "bool"
                },
                {
                  "internalType": "bool",
                  "name": "isStolen",
                  "type": "bool"
                },
                {
                  "internalType": "bool",
                  "name": "isWaitingKyc",
                  "type": "bool"
                },
                {
                  "internalType": "bool",
                  "name": "isKycDone",
                  "type": "bool"
                },
                {
                  "internalType": "bool",
                  "name": "isScrapped",
                  "type": "bool"
                }
              ],
              "internalType": "struct BlockCar.Status",
              "name": "status",
              "type": "tuple"
            },
            {
              "components": [
                {
                  "internalType": "uint32",
                  "name": "mileage",
                  "type": "uint32"
                },
                {
                  "internalType": "uint256",
                  "name": "price",
                  "type": "uint256"
                },
                {
                  "internalType": "string",
                  "name": "country",
                  "type": "string"
                },
                {
                  "internalType": "string",
                  "name": "localisation",
                  "type": "string"
                },
                {
                  "internalType": "string",
                  "name": "contactDetails",
                  "type": "string"
                }
              ],
              "internalType": "struct BlockCar.InfosForSale",
              "name": "infosForSale",
              "type": "tuple"
            }
          ],
          "internalType": "struct BlockCar.Car",
          "name": "",
          "type": "tuple"
        }
      ],
      "stateMutability": "view",
      "type": "function",
      "constant": true
    },
    {
      "inputs": [
        {
          "internalType": "uint256",
          "name": "_tokenId",
          "type": "uint256"
        }
      ],
      "name": "askKyc",
      "outputs": [],
      "stateMutability": "nonpayable",
      "type": "function"
    },
    {
      "inputs": [
        {
          "internalType": "uint256",
          "name": "_tokenId",
          "type": "uint256"
        }
      ],
      "name": "kycIsApproved",
      "outputs": [],
      "stateMutability": "nonpayable",
      "type": "function"
    },
    {
      "inputs": [
        {
          "internalType": "uint256",
          "name": "_tokenId",
          "type": "uint256"
        },
        {
          "internalType": "uint32",
          "name": "_mileage",
          "type": "uint32"
        },
        {
          "internalType": "uint32",
          "name": "_price",
          "type": "uint32"
        },
        {
          "internalType": "string",
          "name": "_country",
          "type": "string"
        },
        {
          "internalType": "string",
          "name": "_localisation",
          "type": "string"
        },
        {
          "internalType": "string",
          "name": "_contactDetails",
          "type": "string"
        }
      ],
      "name": "carIsForSale",
      "outputs": [],
      "stateMutability": "nonpayable",
      "type": "function"
    },
    {
      "inputs": [
        {
          "internalType": "uint256",
          "name": "_tokenId",
          "type": "uint256"
        }
      ],
      "name": "stopSale",
      "outputs": [],
      "stateMutability": "nonpayable",
      "type": "function"
    },
    {
      "inputs": [
        {
          "internalType": "uint256",
          "name": "_tokenId",
          "type": "uint256"
        }
      ],
      "name": "carIsStolen",
      "outputs": [],
      "stateMutability": "nonpayable",
      "type": "function"
    },
    {
      "inputs": [
        {
          "internalType": "uint256",
          "name": "_tokenId",
          "type": "uint256"
        }
      ],
      "name": "carFound",
      "outputs": [],
      "stateMutability": "nonpayable",
      "type": "function"
    },
    {
      "inputs": [
        {
          "internalType": "uint256",
          "name": "_tokenId",
          "type": "uint256"
        }
      ],
      "name": "carIsScrapped",
      "outputs": [],
      "stateMutability": "nonpayable",
      "type": "function"
    },
    {
      "inputs": [
        {
          "internalType": "address",
          "name": "delegatorAddress",
          "type": "address"
        },
        {
          "internalType": "uint256",
          "name": "_tokenId",
          "type": "uint256"
        }
      ],
      "name": "delegeteCar",
      "outputs": [],
      "stateMutability": "nonpayable",
      "type": "function"
    },
    {
      "inputs": [
        {
          "internalType": "uint256",
          "name": "_tokenId",
          "type": "uint256"
        }
      ],
      "name": "stopDelegation",
      "outputs": [],
      "stateMutability": "nonpayable",
      "type": "function"
    },
    {
      "inputs": [
        {
          "internalType": "string",
          "name": "_newLink",
          "type": "string"
        },
        {
          "internalType": "uint256",
          "name": "_tokenId",
          "type": "uint256"
        }
      ],
      "name": "addDocumentLink",
      "outputs": [],
      "stateMutability": "nonpayable",
      "type": "function"
    },
    {
      "inputs": [
        {
          "internalType": "address",
          "name": "from",
          "type": "address"
        },
        {
          "internalType": "address",
          "name": "to",
          "type": "address"
        },
        {
          "internalType": "uint256",
          "name": "tokenId",
          "type": "uint256"
        }
      ],
      "name": "transferFrom",
      "outputs": [],
      "stateMutability": "nonpayable",
      "type": "function"
    },
    {
      "inputs": [
        {
          "internalType": "address",
          "name": "from",
          "type": "address"
        },
        {
          "internalType": "address",
          "name": "to",
          "type": "address"
        },
        {
          "internalType": "uint256",
          "name": "tokenId",
          "type": "uint256"
        }
      ],
      "name": "safeTransferFrom",
      "outputs": [],
      "stateMutability": "nonpayable",
      "type": "function"
    },
    {
      "inputs": [
        {
          "internalType": "address",
          "name": "from",
          "type": "address"
        },
        {
          "internalType": "address",
          "name": "to",
          "type": "address"
        },
        {
          "internalType": "uint256",
          "name": "tokenId",
          "type": "uint256"
        },
        {
          "internalType": "bytes",
          "name": "data",
          "type": "bytes"
        }
      ],
      "name": "safeTransferFrom",
      "outputs": [],
      "stateMutability": "nonpayable",
      "type": "function"
    },
    {
      "inputs": [
        {
          "internalType": "uint256",
          "name": "_tokenId",
          "type": "uint256"
        }
      ],
      "name": "buyNftAndTransferValue",
      "outputs": [],
      "stateMutability": "payable",
      "type": "function",
      "payable": true
    }
  ],
  "bytecode": "0x60806040523480156200001157600080fd5b5060405180604001604052806008815260200167213637b1b5a1b0b960c11b81525060405180604001604052806003815260200162424c4360e81b81525081600090816200006091906200018d565b5060016200006f82826200018d565b5050506200008c620000866200009260201b60201c565b62000096565b62000259565b3390565b600780546001600160a01b038381166001600160a01b0319831681179093556040519116919082907f8be0079c531659141344cd1fd0a4f28419497f9722a3daafe3b4186f6b6457e090600090a35050565b634e487b7160e01b600052604160045260246000fd5b600181811c908216806200011357607f821691505b6020821081036200013457634e487b7160e01b600052602260045260246000fd5b50919050565b601f8211156200018857600081815260208120601f850160051c81016020861015620001635750805b601f850160051c820191505b8181101562000184578281556001016200016f565b5050505b505050565b81516001600160401b03811115620001a957620001a9620000e8565b620001c181620001ba8454620000fe565b846200013a565b602080601f831160018114620001f95760008415620001e05750858301515b600019600386901b1c1916600185901b17855562000184565b600085815260208120601f198616915b828110156200022a5788860151825594840194600190910190840162000209565b5085821015620002495787850151600019600388901b60f8161c191681555b5050505050600190811b01905550565b61462080620002696000396000f3fe6080604052600436106101945760003560e01c806301ffc9a71461019957806306fdde03146101ce578063081812fc146101f0578063095ea7b31461022857806310c112321461024a578063138391cf1461026a57806317077f341461028a57806323b872dd146102aa5780632bb02add146102ca57806342842e0e146102ea5780635e99032c1461030a57806362232d60146103385780636352211e146103585780636c143862146103785780636dfdd3d11461038d57806370a08231146103ba578063715018a6146103da578063843cdb25146103ef5780638654ffae1461041c5780638da5cb5b1461043c57806395d89b4114610451578063a22cb46514610466578063b88d4fde14610486578063c3eb1cb0146104a6578063c87b56dd146104c6578063d4d50cf5146104e6578063d6118ae014610506578063dd79753014610519578063e4003a8b14610539578063e556e7f414610559578063e985e9c514610579578063f038d95c14610599578063f2fde38b146105b9578063f8dd1f76146105d9578063fbfa2568146105f9575b600080fd5b3480156101a557600080fd5b506101b96101b43660046137a1565b61060e565b60405190151581526020015b60405180910390f35b3480156101da57600080fd5b506101e3610660565b6040516101c5919061380e565b3480156101fc57600080fd5b5061021061020b366004613821565b6106f2565b6040516001600160a01b0390911681526020016101c5565b34801561023457600080fd5b50610248610243366004613856565b610719565b005b34801561025657600080fd5b5061024861026536600461392b565b610833565b34801561027657600080fd5b50610248610285366004613821565b610a88565b34801561029657600080fd5b506102486102a5366004613821565b610b19565b3480156102b657600080fd5b506102486102c536600461396f565b610c7a565b3480156102d657600080fd5b506102486102e5366004613821565b610ce3565b3480156102f657600080fd5b5061024861030536600461396f565b610e75565b34801561031657600080fd5b5061032a610325366004613856565b610e90565b6040519081526020016101c5565b34801561034457600080fd5b5061032a6103533660046139bf565b610ec1565b34801561036457600080fd5b50610210610373366004613821565b6113b6565b34801561038457600080fd5b5061032a6113ea565b34801561039957600080fd5b506103ad6103a8366004613ad6565b6113fa565b6040516101c59190613af1565b3480156103c657600080fd5b5061032a6103d5366004613ad6565b611466565b3480156103e657600080fd5b506102486114ec565b3480156103fb57600080fd5b5061040f61040a366004613821565b611500565b6040516101c59190613ba0565b34801561042857600080fd5b50610248610437366004613856565b611b35565b34801561044857600080fd5b50610210611c66565b34801561045d57600080fd5b506101e3611c75565b34801561047257600080fd5b50610248610481366004613cff565b611c84565b34801561049257600080fd5b506102486104a1366004613d3b565b611c93565b3480156104b257600080fd5b506102486104c1366004613821565b611cf0565b3480156104d257600080fd5b506101e36104e1366004613821565b611e2d565b3480156104f257600080fd5b506103ad610501366004613ad6565b611f3d565b610248610514366004613821565b611fa7565b34801561052557600080fd5b50610248610534366004613821565b612173565b34801561054557600080fd5b50610248610554366004613821565b6122c2565b34801561056557600080fd5b5061032a610574366004613856565b612449565b34801561058557600080fd5b506101b9610594366004613db6565b612465565b3480156105a557600080fd5b506102486105b4366004613e31565b612493565b3480156105c557600080fd5b506102486105d4366004613ad6565b612713565b3480156105e557600080fd5b506102486105f4366004613821565b61278c565b34801561060557600080fd5b506103ad6128d5565b60006001600160e01b031982166380ac58cd60e01b148061063f57506001600160e01b03198216635b5e139f60e01b145b8061065a57506301ffc9a760e01b6001600160e01b03198316145b92915050565b60606000805461066f90613ef7565b80601f016020809104026020016040519081016040528092919081815260200182805461069b90613ef7565b80156106e85780601f106106bd576101008083540402835291602001916106e8565b820191906000526020600020905b8154815290600101906020018083116106cb57829003601f168201915b5050505050905090565b60006106fd82612a11565b506000908152600460205260409020546001600160a01b031690565b6000610724826113b6565b9050806001600160a01b0316836001600160a01b0316036107965760405162461bcd60e51b815260206004820152602160248201527f4552433732313a20617070726f76616c20746f2063757272656e74206f776e656044820152603960f91b60648201526084015b60405180910390fd5b336001600160a01b03821614806107b257506107b28133612465565b6108245760405162461bcd60e51b815260206004820152603d60248201527f4552433732313a20617070726f76652063616c6c6572206973206e6f7420746f60448201527f6b656e206f776e6572206f7220617070726f76656420666f7220616c6c000000606482015260840161078d565b61082e8383612a36565b505050565b8061083d60085490565b81111561085c5760405162461bcd60e51b815260040161078d90613f31565b600081815260096020526040902060080154600160201b900460ff1615156001146108995760405162461bcd60e51b815260040161078d90613f57565b336108a3826113b6565b6001600160a01b031614806108ef5750336108bd826106f2565b6001600160a01b03161480156108ef575060008181526009602052604090206008015460ff6101009091041615156001145b61090b5760405162461bcd60e51b815260040161078d90613f81565b600083511161092c5760405162461bcd60e51b815260040161078d90613fad565b6000828152600960205260408120600701805461094890613ef7565b80601f016020809104026020016040519081016040528092919081815260200182805461097490613ef7565b80156109c15780601f10610996576101008083540402835291602001916109c1565b820191906000526020600020905b8154815290600101906020018083116109a457829003601f168201915b5050505050905080516000036109f25760008381526009602052604090206007016109ec858261402f565b50610a30565b8084604051602001610a059291906140e8565b60408051601f19818403018152918152600085815260096020522060070190610a2e908261402f565b505b604080516060808252600e908201526d111bd8dd5b595b9d08185919195960921b6080820152336020820152429181019190915283906000805160206145ab8339815191529060a0015b60405180910390a250505050565b610a90612aa4565b600081815260096020526040902060080154600160201b900460ff1615610ac95760405162461bcd60e51b815260040161078d9061413f565b60008181526009602052604090819020600801805464ffff0000001916600160201b1790555181906000805160206145ab83398151915290610b0e9033904290614151565b60405180910390a250565b80610b2360085490565b811115610b425760405162461bcd60e51b815260040161078d90613f31565b600081815260096020526040902060080154600160201b900460ff161515600114610b7f5760405162461bcd60e51b815260040161078d90613f57565b33610b89826113b6565b6001600160a01b03161480610bd5575033610ba3826106f2565b6001600160a01b0316148015610bd5575060008181526009602052604090206008015460ff6101009091041615156001145b610bf15760405162461bcd60e51b815260040161078d90613f81565b60008281526009602052604090819020600801805465ff00000000ff1916600160281b1790555182906000805160206145ab83398151915290610c6e90339042906060808252600c908201526b10d85c881cd8dc985c1c195960a21b60808201526001600160a01b03929092166020830152604082015260a00190565b60405180910390a25050565b610c843382612b03565b610ca05760405162461bcd60e51b815260040161078d9061417c565b610cab838383612b61565b610cb6838383612da4565b806000805160206145ab8339815191523342604051610cd69291906141c9565b60405180910390a2505050565b80610ced60085490565b811115610d0c5760405162461bcd60e51b815260040161078d90613f31565b600081815260096020526040902060080154600160201b900460ff161515600114610d495760405162461bcd60e51b815260040161078d90613f57565b33610d53826113b6565b6001600160a01b03161480610d9f575033610d6d826106f2565b6001600160a01b0316148015610d9f575060008181526009602052604090206008015460ff6101009091041615156001145b610dbb5760405162461bcd60e51b815260040161078d90613f81565b60008281526009602052604090206008015460ff610100909104161515600114610e1b5760405162461bcd60e51b8152602060048201526011602482015270139195081b9bdd0819195b1959d85d1959607a1b604482015260640161078d565b610e2482612ef6565b6040805160608082526011908201527011195b1959d85d1a5bdb881cdd1bdc1959607a1b6080820152336020820152429181019190915282906000805160206145ab8339815191529060a001610c6e565b61082e83838360405180602001604052806000815250611c93565b600a6020528160005260406000208181548110610eac57600080fd5b90600052602060002001600091509150505481565b600033610ee05760405162461bcd60e51b815260040161078d90613fad565b6000895111610f015760405162461bcd60e51b815260040161078d90613fad565b6000885111610f225760405162461bcd60e51b815260040161078d90613fad565b6000875111610f435760405162461bcd60e51b815260040161078d90613fad565b6000865111610f645760405162461bcd60e51b815260040161078d90613fad565b6000855111610f855760405162461bcd60e51b815260040161078d90613fad565b60008463ffffffff1611610fab5760405162461bcd60e51b815260040161078d90613fad565b6000835111610fcc5760405162461bcd60e51b815260040161078d90613fad565b60008263ffffffff1611610ff25760405162461bcd60e51b815260040161078d90613fad565b611000600880546001019055565b600061100b60085490565b905061101733826130d1565b611021818b6131cc565b600a6000336001600160a01b03166001600160a01b0316815260200190815260200160002081908060018154018082558091505060019003906000526020600020016000909190919091505560006040518060c0016040528060001515815260200160001515815260200160001515815260200160001515815260200160001515815260200160001515815250905060006040518060a00160405280600063ffffffff1681526020016000815260200160405180602001604052806000815250815260200160405180602001604052806000815250815260200160405180602001604052806000815250815250905060006040518061014001604052808d81526020018c81526020018b81526020018a81526020018963ffffffff1681526020018881526020018763ffffffff1681526020016040518060200160405280600081525081526020018481526020018381525090508060096000868152602001908152602001600020600082015181600001908161119e919061402f565b50602082015160018201906111b3908261402f565b50604082015160028201906111c8908261402f565b50606082015160038201906111dd908261402f565b50608082015160048201805463ffffffff191663ffffffff90921691909117905560a08201516005820190611212908261402f565b5060c082015160068201805463ffffffff191663ffffffff90921691909117905560e08201516007820190611247908261402f565b506101008281015180516008840180546020808501516040808701516060880151608089015160a0909901511515600160281b0260ff60281b19991515600160201b029990991661ffff60201b1991151563010000000263ff0000001993151562010000029390931663ffff000019951515909b0261ff00199915159990991661ffff199097169690961797909717929092169790971717939093161792909217909155610120840151805160098501805463ffffffff90921663ffffffff1990921691909117815591810151600a85015591820151600b84019061132c908261402f565b5060608201516003820190611341908261402f565b5060808201516004820190611356908261402f565b5050509050507f9d9e037da80b359004ae7c185bb38ec26e586e28db82390fd43ec2664e105868338e868f8f8f8f8f8f8f60405161139d9a99989796959493929190614201565b60405180910390a150919b9a5050505050505050505050565b6000806113c283613250565b90506001600160a01b03811661065a5760405162461bcd60e51b815260040161078d906142ba565b60006113f560085490565b905090565b6001600160a01b0381166000908152600a602090815260409182902080548351818402810184019094528084526060939283018282801561145a57602002820191906000526020600020905b815481526020019060010190808311611446575b50505050509050919050565b60006001600160a01b0382166114d05760405162461bcd60e51b815260206004820152602960248201527f4552433732313a2061646472657373207a65726f206973206e6f7420612076616044820152683634b21037bbb732b960b91b606482015260840161078d565b506001600160a01b031660009081526003602052604090205490565b6114f4612aa4565b6114fe600061326b565b565b6115086136b4565b60085482111561152a5760405162461bcd60e51b815260040161078d90613f31565b600082815260096020526040908190208151610140810190925280548290829061155390613ef7565b80601f016020809104026020016040519081016040528092919081815260200182805461157f90613ef7565b80156115cc5780601f106115a1576101008083540402835291602001916115cc565b820191906000526020600020905b8154815290600101906020018083116115af57829003601f168201915b505050505081526020016001820180546115e590613ef7565b80601f016020809104026020016040519081016040528092919081815260200182805461161190613ef7565b801561165e5780601f106116335761010080835404028352916020019161165e565b820191906000526020600020905b81548152906001019060200180831161164157829003601f168201915b5050505050815260200160028201805461167790613ef7565b80601f01602080910402602001604051908101604052809291908181526020018280546116a390613ef7565b80156116f05780601f106116c5576101008083540402835291602001916116f0565b820191906000526020600020905b8154815290600101906020018083116116d357829003601f168201915b5050505050815260200160038201805461170990613ef7565b80601f016020809104026020016040519081016040528092919081815260200182805461173590613ef7565b80156117825780601f1061175757610100808354040283529160200191611782565b820191906000526020600020905b81548152906001019060200180831161176557829003601f168201915b5050509183525050600482015463ffffffff1660208201526005820180546040909201916117af90613ef7565b80601f01602080910402602001604051908101604052809291908181526020018280546117db90613ef7565b80156118285780601f106117fd57610100808354040283529160200191611828565b820191906000526020600020905b81548152906001019060200180831161180b57829003601f168201915b5050509183525050600682015463ffffffff16602082015260078201805460409092019161185590613ef7565b80601f016020809104026020016040519081016040528092919081815260200182805461188190613ef7565b80156118ce5780601f106118a3576101008083540402835291602001916118ce565b820191906000526020600020905b8154815290600101906020018083116118b157829003601f168201915b50505091835250506040805160c081018252600884015460ff80821615158352610100820481161515602084810191909152620100008304821615158486015263010000008304821615156060850152600160201b8304821615156080850152600160281b90920416151560a080840191909152818501929092528251918201835260098501805463ffffffff168352600a86015491830191909152600b8501805494840194929391929184019161198590613ef7565b80601f01602080910402602001604051908101604052809291908181526020018280546119b190613ef7565b80156119fe5780601f106119d3576101008083540402835291602001916119fe565b820191906000526020600020905b8154815290600101906020018083116119e157829003601f168201915b50505050508152602001600382018054611a1790613ef7565b80601f0160208091040260200160405190810160405280929190818152602001828054611a4390613ef7565b8015611a905780601f10611a6557610100808354040283529160200191611a90565b820191906000526020600020905b815481529060010190602001808311611a7357829003601f168201915b50505050508152602001600482018054611aa990613ef7565b80601f0160208091040260200160405190810160405280929190818152602001828054611ad590613ef7565b8015611b225780601f10611af757610100808354040283529160200191611b22565b820191906000526020600020905b815481529060010190602001808311611b0557829003601f168201915b5050509190925250505090525092915050565b80611b3f60085490565b811115611b5e5760405162461bcd60e51b815260040161078d90613f31565b33611b68826113b6565b6001600160a01b031614611b8e5760405162461bcd60e51b815260040161078d906142ec565b600082815260096020526040902060080154600160201b900460ff161515600114611bcb5760405162461bcd60e51b815260040161078d90613f57565b611bd58383610719565b6001600160a01b0383166000818152600b602090815260408083208054600181018255908452828420018690558583526009825291829020600801805461ff00191661010017905581516060808252600d908201526c10d85c8819195b1959d85d1959609a1b608082015290810192909252429082015282906000805160206145ab8339815191529060a001610cd6565b6007546001600160a01b031690565b60606001805461066f90613ef7565b611c8f3383836132bd565b5050565b611c9d3383612b03565b611cb95760405162461bcd60e51b815260040161078d9061417c565b611cc4848484612b61565b611cd084848484613387565b816000805160206145ab8339815191523342604051610a7a9291906141c9565b80611cfa60085490565b811115611d195760405162461bcd60e51b815260040161078d90613f31565b600081815260096020526040902060080154600160201b900460ff161515600114611d565760405162461bcd60e51b815260040161078d90613f57565b33611d60826113b6565b6001600160a01b03161480611dac575033611d7a826106f2565b6001600160a01b0316148015611dac575060008181526009602052604090206008015460ff6101009091041615156001145b611dc85760405162461bcd60e51b815260040161078d90613f81565b600082815260096020818152604092839020600801805462ff000019169055825160608082528101929092526810d85c88199bdd5b9960ba1b60808301523390820152429181019190915282906000805160206145ab8339815191529060a001610c6e565b6060611e3882612a11565b60008281526006602052604081208054611e5190613ef7565b80601f0160208091040260200160405190810160405280929190818152602001828054611e7d90613ef7565b8015611eca5780601f10611e9f57610100808354040283529160200191611eca565b820191906000526020600020905b815481529060010190602001808311611ead57829003601f168201915b505050505090506000611ee860408051602081019091526000815290565b90508051600003611efa575092915050565b815115611f2c578082604051602001611f14929190614313565b60405160208183030381529060405292505050919050565b611f35846133ba565b949350505050565b6001600160a01b0381166000908152600b602090815260409182902080548351818402810184019094528084526060939283018282801561145a57602002820191906000526020600020908154815260200190600101908083116114465750505050509050919050565b60008181526009602052604090206008015460ff161515600114611fff5760405162461bcd60e51b815260206004820152600f60248201526e4e4654206e6f7420696e2073616c6560881b604482015260640161078d565b6000818152600960205260409020600a01543410156120525760405162461bcd60e51b815260206004820152600f60248201526e105b5bdd5b9d081b9bdd0819dbdbd9608a1b604482015260640161078d565b34600061205e836113b6565b905061206b813385612b61565b61208681338560405180602001604052806000815250613387565b6000816001600160a01b03168360405160006040518083038185875af1925050503d80600081146120d3576040519150601f19603f3d011682016040523d82523d6000602084013e6120d8565b606091505b50509050806121205760405162461bcd60e51b81526020600482015260146024820152737472616e73666572206469646e277420776f726b60601b604482015260640161078d565b604080516060808252601390820152727472616e7366657220776974682076616c756560681b6080820152336020820152429181019190915284906000805160206145ab8339815191529060a001610a7a565b8061217d60085490565b81111561219c5760405162461bcd60e51b815260040161078d90613f31565b600081815260096020526040902060080154600160201b900460ff1615156001146121d95760405162461bcd60e51b815260040161078d90613f57565b336121e3826113b6565b6001600160a01b0316148061222f5750336121fd826106f2565b6001600160a01b031614801561222f575060008181526009602052604090206008015460ff6101009091041615156001145b61224b5760405162461bcd60e51b815260040161078d90613f81565b60008281526009602052604090819020600801805462ff00ff1916620100001790555182906000805160206145ab83398151915290610c6e90339042906060808252600a908201526921b0b91039ba37b632b760b11b60808201526001600160a01b03929092166020830152604082015260a00190565b806122cc60085490565b8111156122eb5760405162461bcd60e51b815260040161078d90613f31565b336122f5826113b6565b6001600160a01b03161461231b5760405162461bcd60e51b815260040161078d906142ec565b600082815260096020526040902060080154600160201b900460ff16156123725760405162461bcd60e51b815260206004820152600b60248201526a4b594320697320646f6e6560a81b604482015260640161078d565b6000828152600960205260409020600801546301000000900460ff16156123d15760405162461bcd60e51b81526020600482015260136024820152724b594320616c72656164792077616974696e6760681b604482015260640161078d565b60008281526009602052604090819020600801805463ff000000191663010000001790555182906000805160206145ab83398151915290610c6e903390429060608082526009908201526812d650c8185cdad95960ba1b60808201526001600160a01b03929092166020830152604082015260a00190565b600b6020528160005260406000208181548110610eac57600080fd5b6001600160a01b03918216600090815260056020908152604080832093909416825291909152205460ff1690565b8861249d60085490565b8111156124bc5760405162461bcd60e51b815260040161078d90613f31565b600081815260096020526040902060080154600160201b900460ff1615156001146124f95760405162461bcd60e51b815260040161078d90613f57565b33612503826113b6565b6001600160a01b0316148061254f57503361251d826106f2565b6001600160a01b031614801561254f575060008181526009602052604090206008015460ff6101009091041615156001145b61256b5760405162461bcd60e51b815260040161078d90613f81565b60008963ffffffff16116125915760405162461bcd60e51b815260040161078d90613fad565b60008863ffffffff16116125b75760405162461bcd60e51b815260040161078d90613fad565b856125d45760405162461bcd60e51b815260040161078d90613fad565b836125f15760405162461bcd60e51b815260040161078d90613fad565b8161260e5760405162461bcd60e51b815260040161078d90613fad565b60008a8152600960208190526040909120908101805463ffffffff191663ffffffff8c8116919091179091558916600a820155600b0161264f878983614342565b5060008a8152600960205260409020600c0161266c858783614342565b5060008a8152600960205260409020600d01612689838583614342565b5060008a81526009602052604090819020600801805460ff19166001179055518a906000805160206145ab833981519152906126ff90339042906060808252600c908201526b43617220666f722073616c6560a01b60808201526001600160a01b03929092166020830152604082015260a00190565b60405180910390a250505050505050505050565b61271b612aa4565b6001600160a01b0381166127805760405162461bcd60e51b815260206004820152602660248201527f4f776e61626c653a206e6577206f776e657220697320746865207a65726f206160448201526564647265737360d01b606482015260840161078d565b6127898161326b565b50565b8061279660085490565b8111156127b55760405162461bcd60e51b815260040161078d90613f31565b600081815260096020526040902060080154600160201b900460ff1615156001146127f25760405162461bcd60e51b815260040161078d90613f57565b336127fc826113b6565b6001600160a01b03161480612848575033612816826106f2565b6001600160a01b0316148015612848575060008181526009602052604090206008015460ff6101009091041615156001145b6128645760405162461bcd60e51b815260040161078d90613f81565b60008281526009602052604090819020600801805460ff191690555182906000805160206145ab83398151915290610c6e90339042906060808252600b908201526a14d85b19481cdd1bdc195960aa1b60808201526001600160a01b03929092166020830152604082015260a00190565b606060006128e260085490565b90506000805b828163ffffffff161161293a5763ffffffff811660009081526009602052604090206008015460ff161515600103612928578161292481614412565b9250505b8061293281614412565b9150506128e8565b5060008163ffffffff166001600160401b0381111561295b5761295b613880565b604051908082528060200260200182016040528015612984578160200160208202803683370190505b5090506000805b848163ffffffff1611612a075763ffffffff811660009081526009602052604090206008015460ff1615156001036129f5578063ffffffff16838363ffffffff16815181106129dc576129dc614435565b6020908102919091010152816129f181614412565b9250505b806129ff81614412565b91505061298b565b5090949350505050565b612a1a8161342e565b6127895760405162461bcd60e51b815260040161078d906142ba565b600081815260046020526040902080546001600160a01b0319166001600160a01b0384169081179091558190612a6b826113b6565b6001600160a01b03167f8c5be1e5ebec7d5bd14f71427d1e84f3dd0314c0f7b2291e5b200ac8c7c3b92560405160405180910390a45050565b33612aad611c66565b6001600160a01b0316146114fe5760405162461bcd60e51b815260206004820181905260248201527f4f776e61626c653a2063616c6c6572206973206e6f7420746865206f776e6572604482015260640161078d565b600080612b0f836113b6565b9050806001600160a01b0316846001600160a01b03161480612b365750612b368185612465565b80611f355750836001600160a01b0316612b4f846106f2565b6001600160a01b031614949350505050565b600081815260096020526040902060080154600160201b900460ff161515600114612b9e5760405162461bcd60e51b815260040161078d90613f57565b6000818152600960205260409020600801805464ff0000ffff19169055612bc481612ef6565b6001600160a01b0383166000908152600a6020526040902054600103612c26576001600160a01b0383166000908152600a60205260409020805480612c0b57612c0b61444b565b60019003818190600052602060002001600090559055612d77565b6001600160a01b0383166000908152600a6020526040812054905b6001600160a01b0385166000908152600a6020526040902054811015612d74576001600160a01b0385166000908152600a60205260409020805484919083908110612c8e57612c8e614435565b906000526020600020015403612d62576001600160a01b0385166000908152600a60205260409020612cc1600184614461565b81548110612cd157612cd1614435565b9060005260206000200154600a6000876001600160a01b03166001600160a01b031681526020019081526020016000208281548110612d1257612d12614435565b60009182526020808320909101929092556001600160a01b0387168152600a90915260409020805480612d4757612d4761444b565b60019003818190600052602060002001600090559055612d74565b80612d6c81614474565b915050612c41565b50505b6001600160a01b039091166000908152600a60209081526040822080546001810182559083529120015550565b826001600160a01b0316612db7826113b6565b6001600160a01b031614612ddd5760405162461bcd60e51b815260040161078d9061448d565b6001600160a01b038216612e3f5760405162461bcd60e51b8152602060048201526024808201527f4552433732313a207472616e7366657220746f20746865207a65726f206164646044820152637265737360e01b606482015260840161078d565b826001600160a01b0316612e52826113b6565b6001600160a01b031614612e785760405162461bcd60e51b815260040161078d9061448d565b600081815260046020908152604080832080546001600160a01b03199081169091556001600160a01b0387811680865260038552838620805460001901905590871680865283862080546001019055868652600290945282852080549092168417909155905184936000805160206145cb83398151915291a4505050565b6000612f01826106f2565b6000838152600960209081526040808320600801805461ff00191690556001600160a01b0384168352600b909152902054909150600103612f7d576001600160a01b0381166000908152600b60205260409020805480612f6357612f6361444b565b600190038181906000526020600020016000905590555050565b6001600160a01b0381166000908152600b6020526040812054905b6001600160a01b0383166000908152600b60205260409020548110156130cb576001600160a01b0383166000908152600b60205260409020805485919083908110612fe557612fe5614435565b9060005260206000200154036130b9576001600160a01b0383166000908152600b60205260409020613018600184614461565b8154811061302857613028614435565b9060005260206000200154600b6000856001600160a01b03166001600160a01b03168152602001908152602001600020828154811061306957613069614435565b60009182526020808320909101929092556001600160a01b0385168152600b9091526040902080548061309e5761309e61444b565b600190038181906000526020600020016000905590556130cb565b806130c381614474565b915050612f98565b50505050565b6001600160a01b0382166131275760405162461bcd60e51b815260206004820181905260248201527f4552433732313a206d696e7420746f20746865207a65726f2061646472657373604482015260640161078d565b6131308161342e565b1561314d5760405162461bcd60e51b815260040161078d906144d2565b6131568161342e565b156131735760405162461bcd60e51b815260040161078d906144d2565b6001600160a01b038216600081815260036020908152604080832080546001019055848352600290915280822080546001600160a01b0319168417905551839291906000805160206145cb833981519152908290a45050565b6131d58261342e565b6132385760405162461bcd60e51b815260206004820152602e60248201527f45524337323155524953746f726167653a2055524920736574206f66206e6f6e60448201526d32bc34b9ba32b73a103a37b5b2b760911b606482015260840161078d565b600082815260066020526040902061082e828261402f565b6000908152600260205260409020546001600160a01b031690565b600780546001600160a01b038381166001600160a01b0319831681179093556040519116919082907f8be0079c531659141344cd1fd0a4f28419497f9722a3daafe3b4186f6b6457e090600090a35050565b816001600160a01b0316836001600160a01b03160361331a5760405162461bcd60e51b815260206004820152601960248201527822a9219b99189d1030b8383937bb32903a379031b0b63632b960391b604482015260640161078d565b6001600160a01b03838116600081815260056020908152604080832094871680845294825291829020805460ff191686151590811790915591519182527f17307eab39ab6107e8899845ad3d59bd9653f200f220920489ca2b5937696c31910160405180910390a3505050565b613392848484612da4565b61339e8484848461344b565b6130cb5760405162461bcd60e51b815260040161078d90614508565b60606133c582612a11565b60006133dc60408051602081019091526000815290565b905060008151116133fc5760405180602001604052806000815250613427565b806134068461354c565b604051602001613417929190614313565b6040516020818303038152906040525b9392505050565b60008061343a83613250565b6001600160a01b0316141592915050565b60006001600160a01b0384163b1561354157604051630a85bd0160e11b81526001600160a01b0385169063150b7a029061348f90339089908890889060040161455a565b6020604051808303816000875af19250505080156134ca575060408051601f3d908101601f191682019092526134c79181019061458d565b60015b613527573d8080156134f8576040519150601f19603f3d011682016040523d82523d6000602084013e6134fd565b606091505b50805160000361351f5760405162461bcd60e51b815260040161078d90614508565b805181602001fd5b6001600160e01b031916630a85bd0160e11b149050611f35565b506001949350505050565b60606000613559836135de565b60010190506000816001600160401b0381111561357857613578613880565b6040519080825280601f01601f1916602001820160405280156135a2576020820181803683370190505b5090508181016020015b600019016f181899199a1a9b1b9c1cb0b131b232b360811b600a86061a8153600a85049450846135ac57509392505050565b60008072184f03e93ff9f4daa797ed6e38ed64bf6a1f0160401b831061361d5772184f03e93ff9f4daa797ed6e38ed64bf6a1f0160401b830492506040015b6904ee2d6d415b85acef8160201b8310613647576904ee2d6d415b85acef8160201b830492506020015b662386f26fc10000831061366557662386f26fc10000830492506010015b6305f5e100831061367d576305f5e100830492506008015b612710831061369157612710830492506004015b606483106136a3576064830492506002015b600a831061065a5760010192915050565b60405180610140016040528060608152602001606081526020016060815260200160608152602001600063ffffffff16815260200160608152602001600063ffffffff168152602001606081526020016137496040518060c001604052806000151581526020016000151581526020016000151581526020016000151581526020016000151581526020016000151581525090565b81526020016137866040518060a00160405280600063ffffffff168152602001600081526020016060815260200160608152602001606081525090565b905290565b6001600160e01b03198116811461278957600080fd5b6000602082840312156137b357600080fd5b81356134278161378b565b60005b838110156137d95781810151838201526020016137c1565b50506000910152565b600081518084526137fa8160208601602086016137be565b601f01601f19169290920160200192915050565b60208152600061342760208301846137e2565b60006020828403121561383357600080fd5b5035919050565b80356001600160a01b038116811461385157600080fd5b919050565b6000806040838503121561386957600080fd5b6138728361383a565b946020939093013593505050565b634e487b7160e01b600052604160045260246000fd5b60006001600160401b03808411156138b0576138b0613880565b604051601f8501601f19908116603f011681019082821181831017156138d8576138d8613880565b816040528093508581528686860111156138f157600080fd5b858560208301376000602087830101525050509392505050565b600082601f83011261391c57600080fd5b61342783833560208501613896565b6000806040838503121561393e57600080fd5b82356001600160401b0381111561395457600080fd5b6139608582860161390b565b95602094909401359450505050565b60008060006060848603121561398457600080fd5b61398d8461383a565b925061399b6020850161383a565b9150604084013590509250925092565b803563ffffffff8116811461385157600080fd5b600080600080600080600080610100898b0312156139dc57600080fd5b88356001600160401b03808211156139f357600080fd5b6139ff8c838d0161390b565b995060208b0135915080821115613a1557600080fd5b613a218c838d0161390b565b985060408b0135915080821115613a3757600080fd5b613a438c838d0161390b565b975060608b0135915080821115613a5957600080fd5b613a658c838d0161390b565b965060808b0135915080821115613a7b57600080fd5b613a878c838d0161390b565b9550613a9560a08c016139ab565b945060c08b0135915080821115613aab57600080fd5b50613ab88b828c0161390b565b925050613ac760e08a016139ab565b90509295985092959890939650565b600060208284031215613ae857600080fd5b6134278261383a565b6020808252825182820181905260009190848201906040850190845b81811015613b2957835183529284019291840191600101613b0d565b50909695505050505050565b63ffffffff8151168252602081015160208301526000604082015160a06040850152613b6460a08501826137e2565b905060608301518482036060860152613b7d82826137e2565b91505060808301518482036080860152613b9782826137e2565b95945050505050565b60208152600082516101e0806020850152613bbf6102008501836137e2565b91506020850151601f1980868503016040870152613bdd84836137e2565b93506040870151915080868503016060870152613bfa84836137e2565b93506060870151915080868503016080870152613c1784836137e2565b935060808701519150613c3260a087018363ffffffff169052565b60a08701519150808685030160c0870152613c4d84836137e2565b935060c08701519150613c6860e087018363ffffffff169052565b60e08701519150610100818786030181880152613c8585846137e2565b908801518051151561012089810191909152602082015115156101408a0152604082015115156101608a0152606082015115156101808a0152608082015115156101a08a015260a09091015115156101c0890152880151878203929092018488015293509050613cf58382613b35565b9695505050505050565b60008060408385031215613d1257600080fd5b613d1b8361383a565b915060208301358015158114613d3057600080fd5b809150509250929050565b60008060008060808587031215613d5157600080fd5b613d5a8561383a565b9350613d686020860161383a565b92506040850135915060608501356001600160401b03811115613d8a57600080fd5b8501601f81018713613d9b57600080fd5b613daa87823560208401613896565b91505092959194509250565b60008060408385031215613dc957600080fd5b613dd28361383a565b9150613de06020840161383a565b90509250929050565b60008083601f840112613dfb57600080fd5b5081356001600160401b03811115613e1257600080fd5b602083019150836020828501011115613e2a57600080fd5b9250929050565b600080600080600080600080600060c08a8c031215613e4f57600080fd5b89359850613e5f60208b016139ab565b9750613e6d60408b016139ab565b965060608a01356001600160401b0380821115613e8957600080fd5b613e958d838e01613de9565b909850965060808c0135915080821115613eae57600080fd5b613eba8d838e01613de9565b909650945060a08c0135915080821115613ed357600080fd5b50613ee08c828d01613de9565b915080935050809150509295985092959850929598565b600181811c90821680613f0b57607f821691505b602082108103613f2b57634e487b7160e01b600052602260045260246000fd5b50919050565b6020808252600c908201526b1259081a5b98dbdc9c9958dd60a21b604082015260600190565b60208082526010908201526f12d650c81b9bdd08185c1c1c9bdd995960821b604082015260600190565b602080825260129082015271165bdd481b9bdd08185d5d1a1bdc9a5e995960721b604082015260600190565b602080825260059082015264456d70747960d81b604082015260600190565b601f82111561082e57600081815260208120601f850160051c81016020861015613ff35750805b601f850160051c820191505b8181101561401257828155600101613fff565b505050505050565b600019600383901b1c191660019190911b1790565b81516001600160401b0381111561404857614048613880565b61405c816140568454613ef7565b84613fcc565b602080601f83116001811461408b57600084156140795750858301515b614083858261401a565b865550614012565b600085815260208120601f198616915b828110156140ba5788860151825594840194600190910190840161409b565b50858210156140d85787850151600019600388901b60f8161c191681555b5050505050600190811b01905550565b600083516140fa8184602088016137be565b603b60f81b90830190815283516141188160018401602088016137be565b01600101949350505050565b60088152674b594320646f6e6560c01b602082015260400190565b60208152600061065a60208301614124565b60608152600061416360608301614124565b6001600160a01b03949094166020830152506040015290565b6020808252602d908201527f4552433732313a2063616c6c6572206973206e6f7420746f6b656e206f776e6560408201526c1c881bdc88185c1c1c9bdd9959609a1b606082015260800190565b6060808252600890820152673a3930b739b332b960c11b60808201526001600160a01b03929092166020830152604082015260a00190565b6001600160a01b038b168152610140602082018190526000906142268382018d6137e2565b90508a60408401528281036060840152614240818b6137e2565b90508281036080840152614254818a6137e2565b905082810360a084015261426881896137e2565b905082810360c084015261427c81886137e2565b905063ffffffff80871660e085015283820361010085015261429e82876137e2565b925080851661012085015250509b9a5050505050505050505050565b602080825260189082015277115490cdcc8c4e881a5b9d985b1a59081d1bdad95b88125160421b604082015260600190565b6020808252600d908201526c2cb7ba903737ba1037bbb732b960991b604082015260600190565b600083516143258184602088016137be565b8351908301906143398183602088016137be565b01949350505050565b6001600160401b0383111561435957614359613880565b61436d836143678354613ef7565b83613fcc565b6000601f84116001811461439b57600085156143895750838201355b614393868261401a565b8455506143f5565b600083815260209020601f19861690835b828110156143cc57868501358255602094850194600190920191016143ac565b50868210156143e95760001960f88860031b161c19848701351681555b505060018560011b0183555b5050505050565b634e487b7160e01b600052601160045260246000fd5b600063ffffffff80831681810361442b5761442b6143fc565b6001019392505050565b634e487b7160e01b600052603260045260246000fd5b634e487b7160e01b600052603160045260246000fd5b8181038181111561065a5761065a6143fc565b600060018201614486576144866143fc565b5060010190565b60208082526025908201527f4552433732313a207472616e736665722066726f6d20696e636f72726563742060408201526437bbb732b960d91b606082015260800190565b6020808252601c908201527b115490cdcc8c4e881d1bdad95b88185b1c9958591e481b5a5b9d195960221b604082015260600190565b60208082526032908201527f4552433732313a207472616e7366657220746f206e6f6e20455243373231526560408201527131b2b4bb32b91034b6b83632b6b2b73a32b960711b606082015260800190565b6001600160a01b0385811682528416602082015260408101839052608060608201819052600090613cf5908301846137e2565b60006020828403121561459f57600080fd5b81516134278161378b56feeb41bb939756ad181f097f7e48b18e54ec12e25331e6d6855ca98fca7003c5deddf252ad1be2c89b69c2b068fc378daa952ba7f163c4a11628f55a4df523b3efa2646970667358221220453f72c35136b84698bc720e610e1f0cd98fcfd3d41e4fd781f57739b8184ece64736f6c63430008120033",
  "immutableReferences": {},
  "source": "// SPDX-License-Identifier: MIT\npragma solidity 0.8.18;\n\nimport \"@openzeppelin/contracts/token/ERC721/ERC721.sol\";\nimport \"@openzeppelin/contracts/token/ERC721/extensions/ERC721URIStorage.sol\";\nimport \"@openzeppelin/contracts/utils/Counters.sol\";\nimport \"@openzeppelin/contracts/access/Ownable.sol\";\n\n\n/**\n * @title BlockCar\n * @author Germain Winckel\n * @notice The blockCar contract\n * @dev The blockCar contract which inherits from ERC721\n */\ncontract BlockCar is ERC721URIStorage, Ownable {\n    /**\n    * @dev The counter from the openzeppelin contract Counters.sol\n    */\n    using Counters for Counters.Counter;\n    Counters.Counter private tokenIds;\n\n    /**\n    * @dev The Status of each NFT, this struct is in the Car struct. When mint, all values are false\n    */\n    struct Status {\n        bool isOnSale;\n        bool isDelegated;\n        bool isStolen;\n        bool isWaitingKyc;\n        bool isKycDone;\n        bool isScrapped;\n    }\n\n    /**\n    * @dev Others informations we need to sell the car\n    */\n    struct InfosForSale {\n      \tuint32 mileage;\n      \tuint256 price;\n      \tstring country;\n      \tstring localisation;\n      \tstring contactDetails;\n    }\n\n    /**\n    * @dev A complex type with all the statics informations of a NFT. \n\t* linkDocument contains all the link to the differents documents, the separtoir is \";\" only value which can change\n    */\n\tstruct Car{\n\t\tstring vin;\n\t\tstring brand;\n\t\tstring model;\n      \tstring color;\n      \tuint32 power; //kw\n      \tstring registrationCountry;\n      \tuint32 registrationDate;    // dd/mm/yyyy\n      \tstring linkDocument;        \n      \tStatus status;\n        InfosForSale infosForSale;\n\t}\n    \n\t/// @dev Mapping the NFT ID with the car informations\n    mapping(uint256 => Car) nftCarInfos;\n\n    /// @dev Mapping the NFT ID with the owner\n    mapping(address => uint256[]) public nftIdAndOwner;  \n\n    /// @dev Mapping the NFT ID with the delegator\n    mapping(address => uint256[]) public nftIdAndDelegator;  \n\t\n\t/// @dev An event that registers when a user did the KYC for a car\n    event Minted (address userAddress, string tokenURI, uint256 nftId, string vin, string brand, string model, string color, uint32 power, string registrationCountry, uint32 registrationDate);\n\n    /// @dev An event when a car is for sale\n    event ChangingStatus (string status, address _address, uint256 indexed nftId, uint256 timestamp);\n\n    /// @dev An event when a deposit is received\n    event LogDepositReceived (address _address);\n\n    constructor() ERC721 (\"BlockCar\", \"BLC\") {\n    }\n\n\t/**\n     * @dev To mint an NFT\n\t * @param _tokenURI : Link to jdon/image\n\t * @param _vin : Vehicle Identification Number\n\t * @param _brand : Brand of the car\n\t * @param _model : Model of the car\n\t * @param _color : color of the car\n\t * @param _power : Power of the car in Kw\n\t * @param _registrationCountry : Reistration country\n\t * @param _registrationDate : Regisytration date in ddmmyyyy\n     * @return newItemId The Id of the NFT \n     */\n    function mintCar(string memory _tokenURI, string memory _vin, string memory _brand, string memory _model, string memory _color, uint32 _power, string memory _registrationCountry, uint32 _registrationDate) public returns (uint256) {\n        require(msg.sender != address(0), \"Empty\");\n        require(bytes(_tokenURI).length > 0, \"Empty\");\n        require(bytes(_vin).length > 0, \"Empty\");\n        require(bytes(_brand).length > 0, \"Empty\");\n        require(bytes(_model).length > 0, \"Empty\");\n        require(bytes(_color).length > 0, \"Empty\");\n        require(_power > 0, \"Empty\");\n        require(bytes(_registrationCountry).length > 0, \"Empty\");\n        require(_registrationDate > 0, \"Empty\");\n\n        tokenIds.increment();\n        uint256 newItemId = tokenIds.current();\n        _mint(msg.sender, newItemId);\n        _setTokenURI(newItemId, _tokenURI);\n\n        nftIdAndOwner[msg.sender].push(newItemId);\n        \n        Status memory statusIni = Status(false,false,false,false,false,false);\n        InfosForSale memory infosForSaleIni = InfosForSale(0,0,\"\",\"\",\"\");\n\t\tCar memory car = Car(_vin, _brand, _model, _color, _power, _registrationCountry, _registrationDate, \"\",statusIni, infosForSaleIni);\n\t\tnftCarInfos[newItemId] = car;\n\t\temit Minted (msg.sender, _tokenURI, newItemId, _vin, _brand, _model, _color, _power, _registrationCountry, _registrationDate);\n        return newItemId;\n    }\n\n    /**\n    * @dev Returns the current value of the tokenIds counter, which represents the number of tokens minted so far.\n    * @return current value of the tokenIds counter.\n    */\n    function getCurrentId() external view returns(uint256) {\n        return tokenIds.current();\n    }\n\n    /**\n    * @dev Returns an array of NFT IDs owned by the specified address.\n    * @param _owner The address to retrieve NFT IDs for.\n    * @return nftIdAndOwner[] array of NFT IDs.\n    */\n    function getNftIdsByAddress(address _owner) external view returns (uint256[] memory) {\n        return nftIdAndOwner[_owner];\n    }\n\n    /**\n    * @dev Returns an array of NFT IDs owned by a delelegator address.\n    * @param _owner The address to retrieve NFT IDs for.\n    * @return nftIdAndDelegator[] array of NFT IDs.\n    */\n    function getNftIdsByDelegatorAddress(address _owner) external view returns (uint256[] memory) {\n        return nftIdAndDelegator[_owner];\n    }    \n\n    /**\n    * @dev Returns an array of NFT of all NFT which have status isOnSale to true\n    * @return Ids[] array of NFT IDs.\n    */\n    function getNftIdsByOnSale() external view returns (uint256[] memory) {\n        uint256 itemId = tokenIds.current();\n        uint32 count;\n\n       // First, we count the number of cars that match the specified status\n        for (uint32 i = 0; i <= itemId; i++) {\n            if ((nftCarInfos[i].status.isOnSale == true)) {\n                count++;\n            }\n        }\n\n        uint256[] memory Ids = new uint256[](count);\n        uint32 index = 0;\n\n        for (uint32 i = 0; i <= itemId; i++) {\n            if ((nftCarInfos[i].status.isOnSale == true)) {\n                Ids[index] = i;\n                index++;\n            }\n        }\n        return Ids;\n    }\n\n    /**\n    * @dev Modifier to check if the address is owner or the delegator of the NFT\n    * @param _tokenId The Id of the NFT \n    */\n    modifier isNftOwnerOrDelegator(uint256 _tokenId) {\n        require(_tokenId <= tokenIds.current(), 'Id incorrect');\n        require(nftCarInfos[_tokenId].status.isKycDone == true, \"KYC not approved\");\n        require(ownerOf(_tokenId)==msg.sender || (getApproved(_tokenId)==msg.sender &&  nftCarInfos[_tokenId].status.isDelegated == true) , 'You not authorized');\n        _;\n    }\n\n    /**\n    * @dev Modifier to check if the address is owner of the NFT\n    * @param _tokenId The Id of the NFT \n    */\n    modifier isNftOwner(uint256 _tokenId) {\n        require(_tokenId <= tokenIds.current(), 'Id incorrect');\n        require(ownerOf(_tokenId)==msg.sender, 'You not owner');\n        _;\n    }\n\n    /**\n    * @dev Get the NFT informations\n    * @param _tokenId The Id of the NFT \n    * @return nftCarInfos struct.\n    */\n    function getCarNft (uint256 _tokenId) external view returns (Car memory) {\n        require(_tokenId <= tokenIds.current(), 'Id incorrect');\n        return nftCarInfos[_tokenId];\n    }\n\n    /**\n    * @dev Change boolean 'isWaitingKyc' to false, the admnin has to approve now\n    * @param _tokenId The Id of the NFT \n    */\n    function askKyc (uint256 _tokenId) external isNftOwner (_tokenId) {\n        require(nftCarInfos[_tokenId].status.isKycDone == false, \"KYC is done\");\n        require(nftCarInfos[_tokenId].status.isWaitingKyc == false, \"KYC already waiting\");\n        nftCarInfos[_tokenId].status.isWaitingKyc = true;\n        emit ChangingStatus(\"KYC asked\",msg.sender, _tokenId, block.timestamp);\n    }\n\n    /**\n    * @dev Change the status of isKycDone to true, so the KYC is done\n    * @param _tokenId The Id of the NFT \n    */\n    function kycIsApproved (uint256 _tokenId) external onlyOwner {\n        require(nftCarInfos[_tokenId].status.isKycDone == false, 'KYC done');\n\t\tnftCarInfos[_tokenId].status.isWaitingKyc = false;\n\t\tnftCarInfos[_tokenId].status.isKycDone = true;\n        emit ChangingStatus(\"KYC done\",msg.sender , _tokenId, block.timestamp);\n    }\n\n    /**\n    * @dev Change boolean 'isOnSale' to true, this car is for sale\n    * @param _tokenId The Id of the NFT \n    * @param _mileage the mileage of the car\n    * @param _price The price of the car\n    * @param _localisation the localisation of the car\n    * @param _contactDetails The details of the contact\n    */\n    function carIsForSale (uint256 _tokenId, uint32 _mileage, uint32 _price, string calldata _country, string calldata _localisation, string calldata _contactDetails) external isNftOwnerOrDelegator (_tokenId) {\n        require(_mileage > 0, \"Empty\");\n        require(_price > 0, \"Empty\");\n        require(bytes(_country).length > 0, \"Empty\");\n        require(bytes(_localisation).length > 0, \"Empty\");\n        require(bytes(_contactDetails).length > 0, \"Empty\");\n        nftCarInfos[_tokenId].infosForSale.mileage = _mileage;\n        nftCarInfos[_tokenId].infosForSale.price = _price;\n        nftCarInfos[_tokenId].infosForSale.country = _country;\n        nftCarInfos[_tokenId].infosForSale.localisation = _localisation;\n        nftCarInfos[_tokenId].infosForSale.contactDetails = _contactDetails;\n        nftCarInfos[_tokenId].status.isOnSale = true;\n        emit ChangingStatus(\"Car for sale\",msg.sender, _tokenId, block.timestamp);\n    }\n\n    /**\n    * @dev Change boolean 'isOnSale' to false, the sale is canceled\n    * @param _tokenId The Id of the NFT \n    */\n    function stopSale (uint256 _tokenId) external isNftOwnerOrDelegator (_tokenId) {\n        nftCarInfos[_tokenId].status.isOnSale = false;\n        emit ChangingStatus(\"Sale stoped\",msg.sender, _tokenId, block.timestamp);\n    }\n\n    /**\n    * @dev Change boolean 'isStolen' to true, this car is stolen\n    * @param _tokenId The Id of the NFT \n    */\n    function carIsStolen (uint256 _tokenId) external isNftOwnerOrDelegator (_tokenId) {\n        nftCarInfos[_tokenId].status.isStolen = true;\n        nftCarInfos[_tokenId].status.isOnSale = false;\n        emit ChangingStatus(\"Car stolen\",msg.sender, _tokenId, block.timestamp);\n    }\n\n    /**\n    * @dev Change boolean 'isStolen' to true, the car was found\n    * @param _tokenId The Id of the NFT \n    */\n    function carFound (uint256 _tokenId) external isNftOwnerOrDelegator (_tokenId) {\n        nftCarInfos[_tokenId].status.isStolen = false;\n        emit ChangingStatus(\"Car found\",msg.sender, _tokenId, block.timestamp);\n    }\n\n    /**\n    * @dev Change boolean 'isScrapped' to true, this car is Scrapped\n    * @param _tokenId The Id of the NFT \n    */\n    function carIsScrapped (uint256 _tokenId) external isNftOwnerOrDelegator (_tokenId) {\n        nftCarInfos[_tokenId].status.isScrapped = true;\n        nftCarInfos[_tokenId].status.isOnSale = false;\n        emit ChangingStatus(\"Car scrapped\",msg.sender, _tokenId, block.timestamp);\n    }\n\n    /**\n    * @dev Change boolean 'isDelegated' to true, this car is Delegated\n    * @param delegatorAddress delegator address\n    * @param _tokenId The Id of the NFT \n    */\n    function delegeteCar (address delegatorAddress, uint256 _tokenId) external isNftOwner (_tokenId) {\n        require(nftCarInfos[_tokenId].status.isKycDone == true, \"KYC not approved\");\n        approve(delegatorAddress, _tokenId);\n        nftIdAndDelegator[delegatorAddress].push(_tokenId);\n        nftCarInfos[_tokenId].status.isDelegated = true;\n        emit ChangingStatus(\"Car delegated\", delegatorAddress, _tokenId, block.timestamp);\n    }\n\n    /**\n    * @dev Change boolean 'isDelegated' to false, this car is not delegated anymore\n    * @param _tokenId The Id of the NFT \n    */\n    function stopDelegation (uint256 _tokenId) external isNftOwnerOrDelegator (_tokenId) {\n        require(nftCarInfos[_tokenId].status.isDelegated == true, \"NFT not delegated\");\n        deleteDelegation(_tokenId);\n        emit ChangingStatus(\"Delegation stoped\",msg.sender, _tokenId, block.timestamp);\n    }\n\n    /**\n    * @dev Delete the delegation of an NFT and remove it from the delegator's list of NFTs.\n    * @param _tokenId The ID of the NFT\n    * @notice This function is private and it is called by testingAndTransfer and deleteDelegation\n    */\n    function deleteDelegation (uint256 _tokenId) private {\n        address delegatorAdress = getApproved(_tokenId);\n        nftCarInfos[_tokenId].status.isDelegated = false;\n        if (nftIdAndDelegator[delegatorAdress].length == 1) {\n            nftIdAndDelegator[delegatorAdress].pop();\n        } else {\n            uint256 length = nftIdAndDelegator[delegatorAdress].length;\n            for (uint256 i = 0; i < nftIdAndDelegator[delegatorAdress].length; i++) {\n                if (nftIdAndDelegator[delegatorAdress][i] == _tokenId) {\n                    nftIdAndDelegator[delegatorAdress][i] = nftIdAndDelegator[delegatorAdress][length - 1];\n                    nftIdAndDelegator[delegatorAdress].pop();\n                    break;\n                }\n            }\n        }\n    }\n\n    /**\n    * @dev add a link to linkDocument in the same field. The separator is \";\"\n    * @param _tokenId The ID of the NFT\n    * @param _newLink new link\n    */\n    function addDocumentLink(string memory _newLink, uint256 _tokenId) external isNftOwnerOrDelegator (_tokenId)  {\n        require(bytes(_newLink).length > 0, \"Empty\");\n        string memory currentLink = nftCarInfos[_tokenId].linkDocument;\n        if (bytes(currentLink).length == 0) {\n            nftCarInfos[_tokenId].linkDocument = _newLink;\n        } else {\n            nftCarInfos[_tokenId].linkDocument = string(abi.encodePacked(currentLink, \";\", _newLink));\n        }\n        emit ChangingStatus(\"Document added\",msg.sender, _tokenId, block.timestamp);\n    }\n\n    /**\n    * @dev testing, changing the status and delete the owner address in nftCarInfos and the delegator address in nftIdAndDelegator (before transfer)\n    * @param _from old owner address\n    * @param _to old owner address\n    * @param tokenId The ID of the NFT\n    */\n    function testingAndTransfer (address _from, address _to, uint256 tokenId) private {\n        require(nftCarInfos[tokenId].status.isKycDone == true, \"KYC not approved\");\n        nftCarInfos[tokenId].status.isKycDone = false;\n        nftCarInfos[tokenId].status.isDelegated = false;\n        nftCarInfos[tokenId].status.isOnSale = false;\n\n        deleteDelegation(tokenId);\n\n        if (nftIdAndOwner[_from].length == 1) {\n            nftIdAndOwner[_from].pop();\n        } else {\n            uint256 length = nftIdAndOwner[_from].length;\n            for (uint256 i = 0; i < nftIdAndOwner[_from].length; i++) {\n                if (nftIdAndOwner[_from][i] == tokenId) {\n                    // Remplace l'lment  supprimer par le dernier lment du tableau\n                    nftIdAndOwner[_from][i] = nftIdAndOwner[_from][length - 1];\n                    // Rduit la longueur du tableau de 1\n                    nftIdAndOwner[_from].pop();\n                    break;\n                }\n            }\n        }\n        nftIdAndOwner[_to].push(tokenId);\n    }\n\n    /**\n    * @dev override ERC721, transfer NFT\n    * @param from old owner address\n    * @param to old owner address\n    * @param tokenId The ID of the NFT\n    */\n    function transferFrom(\n        address from,\n        address to,\n        uint256 tokenId\n    ) public virtual override {\n        require(_isApprovedOrOwner(_msgSender(), tokenId), \"ERC721: caller is not token owner or approved\");\n        testingAndTransfer(from, to, tokenId);\n        _transfer(from, to, tokenId);\n        emit ChangingStatus(\"transfer\",msg.sender, tokenId, block.timestamp);\n    }\n\n    /**\n    * @dev override ERC721, transfer NFT\n    * @param from old owner address\n    * @param to old owner address\n    * @param tokenId The ID of the NFT\n    */\n    function safeTransferFrom(\n        address from,\n        address to,\n        uint256 tokenId\n    ) public virtual override {\n        safeTransferFrom(from, to, tokenId, \"\");\n    }\n\n    /**\n    * @dev override ERC721, transfer NFT\n    * @param from old owner address\n    * @param to old owner address\n    * @param tokenId The ID of the NFT\n    * @param data some dataq\n    */\n    function safeTransferFrom (\n        address from,\n        address to,\n        uint256 tokenId,\n        bytes memory data\n    ) public virtual override {\n        require(_isApprovedOrOwner(_msgSender(), tokenId), \"ERC721: caller is not token owner or approved\");\n        testingAndTransfer(from, to, tokenId);\n        _safeTransfer(from, to, tokenId, data);\n        emit ChangingStatus(\"transfer\",msg.sender, tokenId, block.timestamp);\n    }\n\n    /**\n    * @dev buy function when the nft is in sale\n    * @param _tokenId The ID of the NFT\n    */\n    function buyNftAndTransferValue(uint256 _tokenId) external payable  {\n        require(nftCarInfos[_tokenId].status.isOnSale == true, \"NFT not in sale\");\n        require(nftCarInfos[_tokenId].infosForSale.price <= msg.value, \"Amount not good\");\n\n        uint256 valueSend               = msg.value;\n        address ownerAddress            = ownerOf(_tokenId);\n        testingAndTransfer(ownerAddress, msg.sender, _tokenId);\n        _safeTransfer(ownerAddress, msg.sender, _tokenId, \"\");\n        (bool sent, )                   = payable(ownerAddress).call{value: valueSend}(\"\");\n        require(sent, unicode\"transfer didn't work\");\n        emit ChangingStatus(\"transfer with value\",msg.sender, _tokenId, block.timestamp);\n    }\n}\n",
  "sourcePath": "/home/germain/Projet4/truffle/contracts/BlockCar.sol",
  "compiler": {
    "name": "solc",
    "version": "0.8.18+commit.87f61d96.Emscripten.clang"
  },
  "schemaVersion": "3.4.13",
  "updatedAt": "2023-04-09T21:24:23.377Z",
  "networkType": "ethereum",
  "devdoc": {
    "author": "Germain Winckel",
    "details": "The blockCar contract which inherits from ERC721",
    "events": {
      "Approval(address,address,uint256)": {
        "details": "Emitted when `owner` enables `approved` to manage the `tokenId` token."
      },
      "ApprovalForAll(address,address,bool)": {
        "details": "Emitted when `owner` enables or disables (`approved`) `operator` to manage all of its assets."
      },
      "ChangingStatus(string,address,uint256,uint256)": {
        "details": "An event when a car is for sale"
      },
      "LogDepositReceived(address)": {
        "details": "An event when a deposit is received"
      },
      "Minted(address,string,uint256,string,string,string,string,uint32,string,uint32)": {
        "details": "An event that registers when a user did the KYC for a car"
      },
      "Transfer(address,address,uint256)": {
        "details": "Emitted when `tokenId` token is transferred from `from` to `to`."
      }
    },
    "kind": "dev",
    "methods": {
      "addDocumentLink(string,uint256)": {
        "details": "add a link to linkDocument in the same field. The separator is \";\"",
        "params": {
          "_newLink": "new link",
          "_tokenId": "The ID of the NFT"
        }
      },
      "approve(address,uint256)": {
        "details": "See {IERC721-approve}."
      },
      "askKyc(uint256)": {
        "details": "Change boolean 'isWaitingKyc' to false, the admnin has to approve now",
        "params": {
          "_tokenId": "The Id of the NFT "
        }
      },
      "balanceOf(address)": {
        "details": "See {IERC721-balanceOf}."
      },
      "buyNftAndTransferValue(uint256)": {
        "details": "buy function when the nft is in sale",
        "params": {
          "_tokenId": "The ID of the NFT"
        }
      },
      "carFound(uint256)": {
        "details": "Change boolean 'isStolen' to true, the car was found",
        "params": {
          "_tokenId": "The Id of the NFT "
        }
      },
      "carIsForSale(uint256,uint32,uint32,string,string,string)": {
        "details": "Change boolean 'isOnSale' to true, this car is for sale",
        "params": {
          "_contactDetails": "The details of the contact",
          "_localisation": "the localisation of the car",
          "_mileage": "the mileage of the car",
          "_price": "The price of the car",
          "_tokenId": "The Id of the NFT "
        }
      },
      "carIsScrapped(uint256)": {
        "details": "Change boolean 'isScrapped' to true, this car is Scrapped",
        "params": {
          "_tokenId": "The Id of the NFT "
        }
      },
      "carIsStolen(uint256)": {
        "details": "Change boolean 'isStolen' to true, this car is stolen",
        "params": {
          "_tokenId": "The Id of the NFT "
        }
      },
      "delegeteCar(address,uint256)": {
        "details": "Change boolean 'isDelegated' to true, this car is Delegated",
        "params": {
          "_tokenId": "The Id of the NFT ",
          "delegatorAddress": "delegator address"
        }
      },
      "getApproved(uint256)": {
        "details": "See {IERC721-getApproved}."
      },
      "getCarNft(uint256)": {
        "details": "Get the NFT informations",
        "params": {
          "_tokenId": "The Id of the NFT "
        },
        "returns": {
          "_0": "nftCarInfos struct."
        }
      },
      "getCurrentId()": {
        "details": "Returns the current value of the tokenIds counter, which represents the number of tokens minted so far.",
        "returns": {
          "_0": "current value of the tokenIds counter."
        }
      },
      "getNftIdsByAddress(address)": {
        "details": "Returns an array of NFT IDs owned by the specified address.",
        "params": {
          "_owner": "The address to retrieve NFT IDs for."
        },
        "returns": {
          "_0": "nftIdAndOwner[] array of NFT IDs."
        }
      },
      "getNftIdsByDelegatorAddress(address)": {
        "details": "Returns an array of NFT IDs owned by a delelegator address.",
        "params": {
          "_owner": "The address to retrieve NFT IDs for."
        },
        "returns": {
          "_0": "nftIdAndDelegator[] array of NFT IDs."
        }
      },
      "getNftIdsByOnSale()": {
        "details": "Returns an array of NFT of all NFT which have status isOnSale to true",
        "returns": {
          "_0": "Ids[] array of NFT IDs."
        }
      },
      "isApprovedForAll(address,address)": {
        "details": "See {IERC721-isApprovedForAll}."
      },
      "kycIsApproved(uint256)": {
        "details": "Change the status of isKycDone to true, so the KYC is done",
        "params": {
          "_tokenId": "The Id of the NFT "
        }
      },
      "mintCar(string,string,string,string,string,uint32,string,uint32)": {
        "details": "To mint an NFT",
        "params": {
          "_brand": ": Brand of the car",
          "_color": ": color of the car",
          "_model": ": Model of the car",
          "_power": ": Power of the car in Kw",
          "_registrationCountry": ": Reistration country",
          "_registrationDate": ": Regisytration date in ddmmyyyy",
          "_tokenURI": ": Link to jdon/image",
          "_vin": ": Vehicle Identification Number"
        },
        "returns": {
          "_0": "newItemId The Id of the NFT "
        }
      },
      "name()": {
        "details": "See {IERC721Metadata-name}."
      },
      "owner()": {
        "details": "Returns the address of the current owner."
      },
      "ownerOf(uint256)": {
        "details": "See {IERC721-ownerOf}."
      },
      "renounceOwnership()": {
        "details": "Leaves the contract without owner. It will not be possible to call `onlyOwner` functions anymore. Can only be called by the current owner. NOTE: Renouncing ownership will leave the contract without an owner, thereby removing any functionality that is only available to the owner."
      },
      "safeTransferFrom(address,address,uint256)": {
        "details": "override ERC721, transfer NFT",
        "params": {
          "from": "old owner address",
          "to": "old owner address",
          "tokenId": "The ID of the NFT"
        }
      },
      "safeTransferFrom(address,address,uint256,bytes)": {
        "details": "override ERC721, transfer NFT",
        "params": {
          "data": "some dataq",
          "from": "old owner address",
          "to": "old owner address",
          "tokenId": "The ID of the NFT"
        }
      },
      "setApprovalForAll(address,bool)": {
        "details": "See {IERC721-setApprovalForAll}."
      },
      "stopDelegation(uint256)": {
        "details": "Change boolean 'isDelegated' to false, this car is not delegated anymore",
        "params": {
          "_tokenId": "The Id of the NFT "
        }
      },
      "stopSale(uint256)": {
        "details": "Change boolean 'isOnSale' to false, the sale is canceled",
        "params": {
          "_tokenId": "The Id of the NFT "
        }
      },
      "supportsInterface(bytes4)": {
        "details": "See {IERC165-supportsInterface}."
      },
      "symbol()": {
        "details": "See {IERC721Metadata-symbol}."
      },
      "tokenURI(uint256)": {
        "details": "See {IERC721Metadata-tokenURI}."
      },
      "transferFrom(address,address,uint256)": {
        "details": "override ERC721, transfer NFT",
        "params": {
          "from": "old owner address",
          "to": "old owner address",
          "tokenId": "The ID of the NFT"
        }
      },
      "transferOwnership(address)": {
        "details": "Transfers ownership of the contract to a new account (`newOwner`). Can only be called by the current owner."
      }
    },
    "stateVariables": {
      "nftCarInfos": {
        "details": "Mapping the NFT ID with the car informations"
      },
      "nftIdAndDelegator": {
        "details": "Mapping the NFT ID with the delegator"
      },
      "nftIdAndOwner": {
        "details": "Mapping the NFT ID with the owner"
      }
    },
    "title": "BlockCar",
    "version": 1
  },
  "userdoc": {
    "kind": "user",
    "methods": {},
    "notice": "The blockCar contract",
    "version": 1
  }
}