{
  "contractName": "BlockCar",
  "abi": [
    {
      "inputs": [],
      "stateMutability": "nonpayable",
      "type": "constructor"
    },
    {
      "anonymous": false,
      "inputs": [
        {
          "indexed": true,
          "internalType": "address",
          "name": "owner",
          "type": "address"
        },
        {
          "indexed": true,
          "internalType": "address",
          "name": "approved",
          "type": "address"
        },
        {
          "indexed": true,
          "internalType": "uint256",
          "name": "tokenId",
          "type": "uint256"
        }
      ],
      "name": "Approval",
      "type": "event"
    },
    {
      "anonymous": false,
      "inputs": [
        {
          "indexed": true,
          "internalType": "address",
          "name": "owner",
          "type": "address"
        },
        {
          "indexed": true,
          "internalType": "address",
          "name": "operator",
          "type": "address"
        },
        {
          "indexed": false,
          "internalType": "bool",
          "name": "approved",
          "type": "bool"
        }
      ],
      "name": "ApprovalForAll",
      "type": "event"
    },
    {
      "anonymous": false,
      "inputs": [
        {
          "indexed": false,
          "internalType": "string",
          "name": "status",
          "type": "string"
        },
        {
          "indexed": false,
          "internalType": "address",
          "name": "_address",
          "type": "address"
        },
        {
          "indexed": true,
          "internalType": "uint256",
          "name": "nftId",
          "type": "uint256"
        },
        {
          "indexed": false,
          "internalType": "uint256",
          "name": "timestamp",
          "type": "uint256"
        }
      ],
      "name": "ChangingStatus",
      "type": "event"
    },
    {
      "anonymous": false,
      "inputs": [
        {
          "indexed": false,
          "internalType": "address",
          "name": "_address",
          "type": "address"
        }
      ],
      "name": "LogDepositReceived",
      "type": "event"
    },
    {
      "anonymous": false,
      "inputs": [
        {
          "indexed": false,
          "internalType": "address",
          "name": "userAddress",
          "type": "address"
        },
        {
          "indexed": false,
          "internalType": "string",
          "name": "tokenURI",
          "type": "string"
        },
        {
          "indexed": false,
          "internalType": "uint256",
          "name": "nftId",
          "type": "uint256"
        },
        {
          "indexed": false,
          "internalType": "string",
          "name": "vin",
          "type": "string"
        },
        {
          "indexed": false,
          "internalType": "string",
          "name": "brand",
          "type": "string"
        },
        {
          "indexed": false,
          "internalType": "string",
          "name": "model",
          "type": "string"
        },
        {
          "indexed": false,
          "internalType": "string",
          "name": "color",
          "type": "string"
        },
        {
          "indexed": false,
          "internalType": "uint32",
          "name": "power",
          "type": "uint32"
        },
        {
          "indexed": false,
          "internalType": "string",
          "name": "registrationCountry",
          "type": "string"
        },
        {
          "indexed": false,
          "internalType": "uint32",
          "name": "registrationDate",
          "type": "uint32"
        }
      ],
      "name": "Minted",
      "type": "event"
    },
    {
      "anonymous": false,
      "inputs": [
        {
          "indexed": true,
          "internalType": "address",
          "name": "previousOwner",
          "type": "address"
        },
        {
          "indexed": true,
          "internalType": "address",
          "name": "newOwner",
          "type": "address"
        }
      ],
      "name": "OwnershipTransferred",
      "type": "event"
    },
    {
      "anonymous": false,
      "inputs": [
        {
          "indexed": true,
          "internalType": "address",
          "name": "from",
          "type": "address"
        },
        {
          "indexed": true,
          "internalType": "address",
          "name": "to",
          "type": "address"
        },
        {
          "indexed": true,
          "internalType": "uint256",
          "name": "tokenId",
          "type": "uint256"
        }
      ],
      "name": "Transfer",
      "type": "event"
    },
    {
      "stateMutability": "payable",
      "type": "fallback",
      "payable": true
    },
    {
      "inputs": [
        {
          "internalType": "address",
          "name": "to",
          "type": "address"
        },
        {
          "internalType": "uint256",
          "name": "tokenId",
          "type": "uint256"
        }
      ],
      "name": "approve",
      "outputs": [],
      "stateMutability": "nonpayable",
      "type": "function"
    },
    {
      "inputs": [
        {
          "internalType": "address",
          "name": "owner",
          "type": "address"
        }
      ],
      "name": "balanceOf",
      "outputs": [
        {
          "internalType": "uint256",
          "name": "",
          "type": "uint256"
        }
      ],
      "stateMutability": "view",
      "type": "function",
      "constant": true
    },
    {
      "inputs": [
        {
          "internalType": "uint256",
          "name": "tokenId",
          "type": "uint256"
        }
      ],
      "name": "getApproved",
      "outputs": [
        {
          "internalType": "address",
          "name": "",
          "type": "address"
        }
      ],
      "stateMutability": "view",
      "type": "function",
      "constant": true
    },
    {
      "inputs": [
        {
          "internalType": "address",
          "name": "owner",
          "type": "address"
        },
        {
          "internalType": "address",
          "name": "operator",
          "type": "address"
        }
      ],
      "name": "isApprovedForAll",
      "outputs": [
        {
          "internalType": "bool",
          "name": "",
          "type": "bool"
        }
      ],
      "stateMutability": "view",
      "type": "function",
      "constant": true
    },
    {
      "inputs": [],
      "name": "name",
      "outputs": [
        {
          "internalType": "string",
          "name": "",
          "type": "string"
        }
      ],
      "stateMutability": "view",
      "type": "function",
      "constant": true
    },
    {
      "inputs": [
        {
          "internalType": "address",
          "name": "",
          "type": "address"
        },
        {
          "internalType": "uint256",
          "name": "",
          "type": "uint256"
        }
      ],
      "name": "nftIdAndDelegator",
      "outputs": [
        {
          "internalType": "uint256",
          "name": "",
          "type": "uint256"
        }
      ],
      "stateMutability": "view",
      "type": "function",
      "constant": true
    },
    {
      "inputs": [
        {
          "internalType": "address",
          "name": "",
          "type": "address"
        },
        {
          "internalType": "uint256",
          "name": "",
          "type": "uint256"
        }
      ],
      "name": "nftIdAndOwner",
      "outputs": [
        {
          "internalType": "uint256",
          "name": "",
          "type": "uint256"
        }
      ],
      "stateMutability": "view",
      "type": "function",
      "constant": true
    },
    {
      "inputs": [],
      "name": "owner",
      "outputs": [
        {
          "internalType": "address",
          "name": "",
          "type": "address"
        }
      ],
      "stateMutability": "view",
      "type": "function",
      "constant": true
    },
    {
      "inputs": [
        {
          "internalType": "uint256",
          "name": "tokenId",
          "type": "uint256"
        }
      ],
      "name": "ownerOf",
      "outputs": [
        {
          "internalType": "address",
          "name": "",
          "type": "address"
        }
      ],
      "stateMutability": "view",
      "type": "function",
      "constant": true
    },
    {
      "inputs": [],
      "name": "renounceOwnership",
      "outputs": [],
      "stateMutability": "nonpayable",
      "type": "function"
    },
    {
      "inputs": [
        {
          "internalType": "address",
          "name": "operator",
          "type": "address"
        },
        {
          "internalType": "bool",
          "name": "approved",
          "type": "bool"
        }
      ],
      "name": "setApprovalForAll",
      "outputs": [],
      "stateMutability": "nonpayable",
      "type": "function"
    },
    {
      "inputs": [
        {
          "internalType": "bytes4",
          "name": "interfaceId",
          "type": "bytes4"
        }
      ],
      "name": "supportsInterface",
      "outputs": [
        {
          "internalType": "bool",
          "name": "",
          "type": "bool"
        }
      ],
      "stateMutability": "view",
      "type": "function",
      "constant": true
    },
    {
      "inputs": [],
      "name": "symbol",
      "outputs": [
        {
          "internalType": "string",
          "name": "",
          "type": "string"
        }
      ],
      "stateMutability": "view",
      "type": "function",
      "constant": true
    },
    {
      "inputs": [
        {
          "internalType": "uint256",
          "name": "tokenId",
          "type": "uint256"
        }
      ],
      "name": "tokenURI",
      "outputs": [
        {
          "internalType": "string",
          "name": "",
          "type": "string"
        }
      ],
      "stateMutability": "view",
      "type": "function",
      "constant": true
    },
    {
      "inputs": [
        {
          "internalType": "address",
          "name": "newOwner",
          "type": "address"
        }
      ],
      "name": "transferOwnership",
      "outputs": [],
      "stateMutability": "nonpayable",
      "type": "function"
    },
    {
      "stateMutability": "payable",
      "type": "receive",
      "payable": true
    },
    {
      "inputs": [
        {
          "internalType": "string",
          "name": "_tokenURI",
          "type": "string"
        },
        {
          "internalType": "string",
          "name": "_vin",
          "type": "string"
        },
        {
          "internalType": "string",
          "name": "_brand",
          "type": "string"
        },
        {
          "internalType": "string",
          "name": "_model",
          "type": "string"
        },
        {
          "internalType": "string",
          "name": "_color",
          "type": "string"
        },
        {
          "internalType": "uint32",
          "name": "_power",
          "type": "uint32"
        },
        {
          "internalType": "string",
          "name": "_registrationCountry",
          "type": "string"
        },
        {
          "internalType": "uint32",
          "name": "_registrationDate",
          "type": "uint32"
        }
      ],
      "name": "mintCar",
      "outputs": [
        {
          "internalType": "uint256",
          "name": "",
          "type": "uint256"
        }
      ],
      "stateMutability": "nonpayable",
      "type": "function"
    },
    {
      "inputs": [
        {
          "internalType": "address",
          "name": "_owner",
          "type": "address"
        }
      ],
      "name": "getNftIdsByAddress",
      "outputs": [
        {
          "internalType": "uint256[]",
          "name": "",
          "type": "uint256[]"
        }
      ],
      "stateMutability": "view",
      "type": "function",
      "constant": true
    },
    {
      "inputs": [
        {
          "internalType": "address",
          "name": "_owner",
          "type": "address"
        }
      ],
      "name": "getNftIdsByDelegatorAddress",
      "outputs": [
        {
          "internalType": "uint256[]",
          "name": "",
          "type": "uint256[]"
        }
      ],
      "stateMutability": "view",
      "type": "function",
      "constant": true
    },
    {
      "inputs": [
        {
          "internalType": "bool",
          "name": "_isOnSale",
          "type": "bool"
        },
        {
          "internalType": "bool",
          "name": "_isKycDone",
          "type": "bool"
        }
      ],
      "name": "getNftIdsByOnSaleAndKycDone",
      "outputs": [
        {
          "internalType": "uint256[]",
          "name": "",
          "type": "uint256[]"
        }
      ],
      "stateMutability": "view",
      "type": "function",
      "constant": true
    },
    {
      "inputs": [
        {
          "internalType": "uint256",
          "name": "_tokenIds",
          "type": "uint256"
        }
      ],
      "name": "kycIsApproved",
      "outputs": [],
      "stateMutability": "nonpayable",
      "type": "function"
    },
    {
      "inputs": [
        {
          "internalType": "uint256",
          "name": "_tokenIds",
          "type": "uint256"
        }
      ],
      "name": "getCarNft",
      "outputs": [
        {
          "components": [
            {
              "internalType": "string",
              "name": "vin",
              "type": "string"
            },
            {
              "internalType": "string",
              "name": "brand",
              "type": "string"
            },
            {
              "internalType": "string",
              "name": "model",
              "type": "string"
            },
            {
              "internalType": "string",
              "name": "color",
              "type": "string"
            },
            {
              "internalType": "uint32",
              "name": "power",
              "type": "uint32"
            },
            {
              "internalType": "string",
              "name": "registrationCountry",
              "type": "string"
            },
            {
              "internalType": "uint32",
              "name": "registrationDate",
              "type": "uint32"
            },
            {
              "internalType": "string",
              "name": "linkDocument",
              "type": "string"
            },
            {
              "components": [
                {
                  "internalType": "bool",
                  "name": "isOnSale",
                  "type": "bool"
                },
                {
                  "internalType": "bool",
                  "name": "isDelegated",
                  "type": "bool"
                },
                {
                  "internalType": "bool",
                  "name": "isStolen",
                  "type": "bool"
                },
                {
                  "internalType": "bool",
                  "name": "isWaitingKyc",
                  "type": "bool"
                },
                {
                  "internalType": "bool",
                  "name": "isKycDone",
                  "type": "bool"
                },
                {
                  "internalType": "bool",
                  "name": "isScrapped",
                  "type": "bool"
                }
              ],
              "internalType": "struct BlockCar.Status",
              "name": "status",
              "type": "tuple"
            },
            {
              "components": [
                {
                  "internalType": "uint32",
                  "name": "mileage",
                  "type": "uint32"
                },
                {
                  "internalType": "uint32",
                  "name": "price",
                  "type": "uint32"
                },
                {
                  "internalType": "string",
                  "name": "country",
                  "type": "string"
                },
                {
                  "internalType": "string",
                  "name": "localisation",
                  "type": "string"
                },
                {
                  "internalType": "string",
                  "name": "contactDetails",
                  "type": "string"
                }
              ],
              "internalType": "struct BlockCar.InfosForSale",
              "name": "infosForSale",
              "type": "tuple"
            }
          ],
          "internalType": "struct BlockCar.Car",
          "name": "",
          "type": "tuple"
        }
      ],
      "stateMutability": "view",
      "type": "function",
      "constant": true
    },
    {
      "inputs": [
        {
          "internalType": "uint256",
          "name": "_tokenIds",
          "type": "uint256"
        },
        {
          "internalType": "uint32",
          "name": "_mileage",
          "type": "uint32"
        },
        {
          "internalType": "uint32",
          "name": "_price",
          "type": "uint32"
        },
        {
          "internalType": "string",
          "name": "_country",
          "type": "string"
        },
        {
          "internalType": "string",
          "name": "_localisation",
          "type": "string"
        },
        {
          "internalType": "string",
          "name": "_contactDetails",
          "type": "string"
        }
      ],
      "name": "carIsForSaleAndSetInformationsForSale",
      "outputs": [],
      "stateMutability": "nonpayable",
      "type": "function"
    },
    {
      "inputs": [
        {
          "internalType": "uint256",
          "name": "_tokenIds",
          "type": "uint256"
        }
      ],
      "name": "carIsStolen",
      "outputs": [],
      "stateMutability": "nonpayable",
      "type": "function"
    },
    {
      "inputs": [
        {
          "internalType": "uint256",
          "name": "_tokenIds",
          "type": "uint256"
        }
      ],
      "name": "carIsScrapped",
      "outputs": [],
      "stateMutability": "nonpayable",
      "type": "function"
    },
    {
      "inputs": [
        {
          "internalType": "uint256",
          "name": "_tokenIds",
          "type": "uint256"
        }
      ],
      "name": "stopSale",
      "outputs": [],
      "stateMutability": "nonpayable",
      "type": "function"
    },
    {
      "inputs": [
        {
          "internalType": "uint256",
          "name": "_tokenIds",
          "type": "uint256"
        }
      ],
      "name": "carFound",
      "outputs": [],
      "stateMutability": "nonpayable",
      "type": "function"
    },
    {
      "inputs": [
        {
          "internalType": "address",
          "name": "delegatorAddress",
          "type": "address"
        },
        {
          "internalType": "uint256",
          "name": "_tokenIds",
          "type": "uint256"
        }
      ],
      "name": "delegeteCar",
      "outputs": [],
      "stateMutability": "nonpayable",
      "type": "function"
    },
    {
      "inputs": [
        {
          "internalType": "uint256",
          "name": "_tokenIds",
          "type": "uint256"
        }
      ],
      "name": "stopDelegation",
      "outputs": [],
      "stateMutability": "nonpayable",
      "type": "function"
    },
    {
      "inputs": [
        {
          "internalType": "uint256",
          "name": "_tokenIds",
          "type": "uint256"
        }
      ],
      "name": "askKyc",
      "outputs": [],
      "stateMutability": "nonpayable",
      "type": "function"
    },
    {
      "inputs": [
        {
          "internalType": "string",
          "name": "_newLink",
          "type": "string"
        },
        {
          "internalType": "uint256",
          "name": "_tokenId",
          "type": "uint256"
        }
      ],
      "name": "addDocumentLink",
      "outputs": [],
      "stateMutability": "nonpayable",
      "type": "function"
    },
    {
      "inputs": [
        {
          "internalType": "address",
          "name": "from",
          "type": "address"
        },
        {
          "internalType": "address",
          "name": "to",
          "type": "address"
        },
        {
          "internalType": "uint256",
          "name": "tokenId",
          "type": "uint256"
        }
      ],
      "name": "transferFrom",
      "outputs": [],
      "stateMutability": "nonpayable",
      "type": "function"
    },
    {
      "inputs": [
        {
          "internalType": "address",
          "name": "from",
          "type": "address"
        },
        {
          "internalType": "address",
          "name": "to",
          "type": "address"
        },
        {
          "internalType": "uint256",
          "name": "tokenId",
          "type": "uint256"
        }
      ],
      "name": "safeTransferFrom",
      "outputs": [],
      "stateMutability": "nonpayable",
      "type": "function"
    },
    {
      "inputs": [
        {
          "internalType": "address",
          "name": "from",
          "type": "address"
        },
        {
          "internalType": "address",
          "name": "to",
          "type": "address"
        },
        {
          "internalType": "uint256",
          "name": "tokenId",
          "type": "uint256"
        },
        {
          "internalType": "bytes",
          "name": "data",
          "type": "bytes"
        }
      ],
      "name": "safeTransferFrom",
      "outputs": [],
      "stateMutability": "nonpayable",
      "type": "function"
    },
    {
      "inputs": [
        {
          "internalType": "uint256",
          "name": "_tokenId",
          "type": "uint256"
        }
      ],
      "name": "sellNftAndTransferValueToOwner",
      "outputs": [],
      "stateMutability": "payable",
      "type": "function",
      "payable": true
    },
    {
      "inputs": [],
      "name": "withdrawal",
      "outputs": [],
      "stateMutability": "nonpayable",
      "type": "function"
    }
  ],
  "bytecode": "0x60806040523480156200001157600080fd5b5060405180604001604052806008815260200167213637b1b5a1b0b960c11b81525060405180604001604052806003815260200162424c4360e81b81525081600090816200006091906200018d565b5060016200006f82826200018d565b5050506200008c620000866200009260201b60201c565b62000096565b62000259565b3390565b600780546001600160a01b038381166001600160a01b0319831681179093556040519116919082907f8be0079c531659141344cd1fd0a4f28419497f9722a3daafe3b4186f6b6457e090600090a35050565b634e487b7160e01b600052604160045260246000fd5b600181811c908216806200011357607f821691505b6020821081036200013457634e487b7160e01b600052602260045260246000fd5b50919050565b601f8211156200018857600081815260208120601f850160051c81016020861015620001635750805b601f850160051c820191505b8181101562000184578281556001016200016f565b5050505b505050565b81516001600160401b03811115620001a957620001a9620000e8565b620001c181620001ba8454620000fe565b846200013a565b602080601f831160018114620001f95760008415620001e05750858301515b600019600386901b1c1916600185901b17855562000184565b600085815260208120601f198616915b828110156200022a5788860151825594840194600190910190840162000209565b5085821015620002495787850151600019600388901b60f8161c191681555b5050505050600190811b01905550565b61456580620002696000396000f3fe6080604052600436106101985760003560e01c806301ffc9a7146101ec57806306fdde0314610221578063081812fc14610243578063095ea7b31461027057806310c1123214610292578063138391cf146102b257806317077f34146102d25780631dc341ed146102f257806323b872dd1461031f5780632bb02add1461033f57806342842e0e1461035f5780635e99032c1461037f57806362232d60146103ad5780636352211e146103cd5780636dfdd3d1146103ed57806370a082311461040d578063715018a61461042d578063843cdb25146104425780638654ffae1461046f5780638da5cb5b1461048f57806395d89b41146104a4578063a22cb465146104b9578063aeee67c6146104d9578063b1dcf54b146104f9578063b88d4fde1461050c578063c3eb1cb01461052c578063c87b56dd1461054c578063d4d50cf51461056c578063d4e932921461058c578063dd797530146105a1578063e4003a8b146105c1578063e556e7f4146105e1578063e985e9c514610601578063f2fde38b1461064a578063f8dd1f761461066a576101c4565b366101c457600080516020614510833981519152336040516101ba91906136d3565b60405180910390a1005b36156101cf57600080fd5b600080516020614510833981519152336040516101ba91906136d3565b3480156101f857600080fd5b5061020c6102073660046136fd565b61068a565b60405190151581526020015b60405180910390f35b34801561022d57600080fd5b506102366106dc565b604051610218919061376a565b34801561024f57600080fd5b5061026361025e36600461377d565b61076e565b60405161021891906136d3565b34801561027c57600080fd5b5061029061028b3660046137b2565b610795565b005b34801561029e57600080fd5b506102906102ad366004613887565b6108af565b3480156102be57600080fd5b506102906102cd36600461377d565b610aa0565b3480156102de57600080fd5b506102906102ed36600461377d565b610b31565b3480156102fe57600080fd5b5061031261030d3660046138db565b610c4f565b604051610218919061390e565b34801561032b57600080fd5b5061029061033a366004613946565b610df5565b34801561034b57600080fd5b5061029061035a36600461377d565b610e38565b34801561036b57600080fd5b5061029061037a366004613946565b611017565b34801561038b57600080fd5b5061039f61039a3660046137b2565b611032565b604051908152602001610218565b3480156103b957600080fd5b5061039f6103c8366004613996565b611063565b3480156103d957600080fd5b506102636103e836600461377d565b611565565b3480156103f957600080fd5b50610312610408366004613aad565b611599565b34801561041957600080fd5b5061039f610428366004613aad565b611605565b34801561043957600080fd5b5061029061168b565b34801561044e57600080fd5b5061046261045d36600461377d565b61169f565b6040516102189190613b37565b34801561047b57600080fd5b5061029061048a3660046137b2565b611cf6565b34801561049b57600080fd5b50610263611e4b565b3480156104b057600080fd5b50610236611e5a565b3480156104c557600080fd5b506102906104d4366004613c96565b611e69565b3480156104e557600080fd5b506102906104f4366004613cfa565b611e78565b61029061050736600461377d565b611fd6565b34801561051857600080fd5b50610290610527366004613dc0565b6120be565b34801561053857600080fd5b5061029061054736600461377d565b6120f5565b34801561055857600080fd5b5061023661056736600461377d565b6121ef565b34801561057857600080fd5b50610312610587366004613aad565b6122ff565b34801561059857600080fd5b50610290612369565b3480156105ad57600080fd5b506102906105bc36600461377d565b612439565b3480156105cd57600080fd5b506102906105dc36600461377d565b612545565b3480156105ed57600080fd5b5061039f6105fc3660046137b2565b6126d1565b34801561060d57600080fd5b5061020c61061c366004613e3b565b6001600160a01b03918216600090815260056020908152604080832093909416825291909152205460ff1690565b34801561065657600080fd5b50610290610665366004613aad565b6126ed565b34801561067657600080fd5b5061029061068536600461377d565b612763565b60006001600160e01b031982166380ac58cd60e01b14806106bb57506001600160e01b03198216635b5e139f60e01b145b806106d657506301ffc9a760e01b6001600160e01b03198316145b92915050565b6060600080546106eb90613e65565b80601f016020809104026020016040519081016040528092919081815260200182805461071790613e65565b80156107645780601f1061073957610100808354040283529160200191610764565b820191906000526020600020905b81548152906001019060200180831161074757829003601f168201915b5050505050905090565b600061077982612869565b506000908152600460205260409020546001600160a01b031690565b60006107a082611565565b9050806001600160a01b0316836001600160a01b0316036108125760405162461bcd60e51b815260206004820152602160248201527f4552433732313a20617070726f76616c20746f2063757272656e74206f776e656044820152603960f91b60648201526084015b60405180910390fd5b336001600160a01b038216148061082e575061082e813361061c565b6108a05760405162461bcd60e51b815260206004820152603d60248201527f4552433732313a20617070726f76652063616c6c6572206973206e6f7420746f60448201527f6b656e206f776e6572206f7220617070726f76656420666f7220616c6c0000006064820152608401610809565b6108aa838361288e565b505050565b80336108ba82611565565b6001600160a01b031614806109065750336108d48261076e565b6001600160a01b0316148015610906575060008181526009602052604090206008015460ff6101009091041615156001145b6109225760405162461bcd60e51b815260040161080990613e9f565b6008548111156109445760405162461bcd60e51b815260040161080990613ecb565b6000828152600960205260408120600701805461096090613e65565b80601f016020809104026020016040519081016040528092919081815260200182805461098c90613e65565b80156109d95780601f106109ae576101008083540402835291602001916109d9565b820191906000526020600020905b8154815290600101906020018083116109bc57829003601f168201915b505050505090508051600003610a0a576000838152600960205260409020600701610a048582613f54565b50610a48565b8084604051602001610a1d92919061400d565b60408051601f19818403018152918152600085815260096020522060070190610a469082613f54565b505b604080516060808252600e908201526d111bd8dd5b595b9d08185919195960921b6080820152336020820152429181019190915283906000805160206144d08339815191529060a0015b60405180910390a250505050565b610aa86128fc565b600081815260096020526040902060080154600160201b900460ff1615610ae15760405162461bcd60e51b815260040161080990614064565b60008181526009602052604090819020600801805464ffff0000001916600160201b1790555181906000805160206144d083398151915290610b269033904290614076565b60405180910390a250565b8033610b3c82611565565b6001600160a01b03161480610b88575033610b568261076e565b6001600160a01b0316148015610b88575060008181526009602052604090206008015460ff6101009091041615156001145b610ba45760405162461bcd60e51b815260040161080990613e9f565b600854811115610bc65760405162461bcd60e51b815260040161080990613ecb565b60008281526009602052604090819020600801805465ff00000000ff1916600160281b1790555182906000805160206144d083398151915290610c4390339042906060808252600c908201526b10d85c881cd8dc985c1c195960a21b60808201526001600160a01b03929092166020830152604082015260a00190565b60405180910390a25050565b60606000610c5c60085490565b90506000805b828163ffffffff1611610ce85763ffffffff811660009081526009602052604090206008015460ff161515861515148015610cc3575063ffffffff811660009081526009602052604090206008015460ff600160201b909104161515851515145b15610cd65781610cd2816140b7565b9250505b80610ce0816140b7565b915050610c62565b5060008163ffffffff166001600160401b03811115610d0957610d096137dc565b604051908082528060200260200182016040528015610d32578160200160208202803683370190505b5090506000805b848163ffffffff1611610de95763ffffffff811660009081526009602052604090206008015460ff161515881515148015610d9a575063ffffffff811660009081526009602052604090206008015460ff600160201b909104161515871515145b15610dd7578063ffffffff16838363ffffffff1681518110610dbe57610dbe6140da565b602090810291909101015281610dd3816140b7565b9250505b80610de1816140b7565b915050610d39565b50909695505050505050565b610e0083838361295b565b610e0b838383612a0f565b806000805160206144d08339815191523342604051610e2b9291906140f0565b60405180910390a2505050565b8033610e4382611565565b6001600160a01b03161480610e8f575033610e5d8261076e565b6001600160a01b0316148015610e8f575060008181526009602052604090206008015460ff6101009091041615156001145b610eab5760405162461bcd60e51b815260040161080990613e9f565b600854811115610ecd5760405162461bcd60e51b815260040161080990613ecb565b60008281526009602052604090206008015460ff610100909104161515600114610f345760405162461bcd60e51b8152602060048201526018602482015277151a1948139195081a5cc81b9bdd0819195b1959d85d195960421b6044820152606401610809565b6000610f3f8361076e565b6000848152600960209081526040808320600801805461ff00191690556001600160a01b0384168352600b909152902054909150600103610fbc576001600160a01b0381166000908152600b60205260409020805480610fa157610fa1614128565b60019003818190600052602060002001600090559055610fc6565b610fc68184612b61565b6040805160608082526011908201527011195b1959d85d1a5bdb881cdd1bdc1959607a1b6080820152336020820152429181019190915283906000805160206144d08339815191529060a001610e2b565b6108aa838383604051806020016040528060008152506120be565b600a602052816000526040600020818154811061104e57600080fd5b90600052602060002001600091509150505481565b6000336110825760405162461bcd60e51b81526004016108099061413e565b60008951116110a35760405162461bcd60e51b81526004016108099061413e565b60008851116110c45760405162461bcd60e51b81526004016108099061413e565b60008751116110e55760405162461bcd60e51b81526004016108099061413e565b60008651116111065760405162461bcd60e51b81526004016108099061413e565b60008551116111275760405162461bcd60e51b81526004016108099061413e565b60008463ffffffff161161114d5760405162461bcd60e51b81526004016108099061413e565b600083511161116e5760405162461bcd60e51b81526004016108099061413e565b60008263ffffffff16116111945760405162461bcd60e51b81526004016108099061413e565b6111a2600880546001019055565b60006111ad60085490565b90506111b93382612cb5565b6111c3818b612db0565b600a6000336001600160a01b03166001600160a01b0316815260200190815260200160002081908060018154018082558091505060019003906000526020600020016000909190919091505560006040518060c0016040528060001515815260200160001515815260200160001515815260200160001515815260200160001515815260200160001515815250905060006040518060a00160405280600063ffffffff168152602001600063ffffffff16815260200160405180602001604052806000815250815260200160405180602001604052806000815250815260200160405180602001604052806000815250815250905060006040518061014001604052808d81526020018c81526020018b81526020018a81526020018963ffffffff1681526020018881526020018763ffffffff168152602001604051806020016040528060008152508152602001848152602001838152509050806009600086815260200190815260200160002060008201518160000190816113469190613f54565b506020820151600182019061135b9082613f54565b50604082015160028201906113709082613f54565b50606082015160038201906113859082613f54565b50608082015160048201805463ffffffff191663ffffffff90921691909117905560a082015160058201906113ba9082613f54565b5060c082015160068201805463ffffffff191663ffffffff90921691909117905560e082015160078201906113ef9082613f54565b506101008281015180516008840180546020808501516040808701516060880151608089015160a09099015161ffff1990961697151561ff001916979097179215159098029190911763ffff00001916620100009715159790970263ff0000001916969096176301000000941515949094029390931761ffff60201b1916600160201b941515850260ff60281b191617600160281b9115159190910217905561012085015180516009860180549383015163ffffffff9283166001600160401b0319909516949094179190931690930292909217815591810151909190600a8401906114db9082613f54565b50606082015160028201906114f09082613f54565b50608082015160038201906115059082613f54565b5050509050507f9d9e037da80b359004ae7c185bb38ec26e586e28db82390fd43ec2664e105868338e868f8f8f8f8f8f8f60405161154c9a9998979695949392919061415d565b60405180910390a150919b9a5050505050505050505050565b60008061157183612e34565b90506001600160a01b0381166106d65760405162461bcd60e51b815260040161080990614216565b6001600160a01b0381166000908152600a60209081526040918290208054835181840281018401909452808452606093928301828280156115f957602002820191906000526020600020905b8154815260200190600101908083116115e5575b50505050509050919050565b60006001600160a01b03821661166f5760405162461bcd60e51b815260206004820152602960248201527f4552433732313a2061646472657373207a65726f206973206e6f7420612076616044820152683634b21037bbb732b960b91b6064820152608401610809565b506001600160a01b031660009081526003602052604090205490565b6116936128fc565b61169d6000612e4f565b565b6116a76135f6565b6008548211156116e85760405162461bcd60e51b815260206004820152600c60248201526b1259081a5b98dbdc9c9958dd60a21b6044820152606401610809565b600082815260096020526040908190208151610140810190925280548290829061171190613e65565b80601f016020809104026020016040519081016040528092919081815260200182805461173d90613e65565b801561178a5780601f1061175f5761010080835404028352916020019161178a565b820191906000526020600020905b81548152906001019060200180831161176d57829003601f168201915b505050505081526020016001820180546117a390613e65565b80601f01602080910402602001604051908101604052809291908181526020018280546117cf90613e65565b801561181c5780601f106117f15761010080835404028352916020019161181c565b820191906000526020600020905b8154815290600101906020018083116117ff57829003601f168201915b5050505050815260200160028201805461183590613e65565b80601f016020809104026020016040519081016040528092919081815260200182805461186190613e65565b80156118ae5780601f10611883576101008083540402835291602001916118ae565b820191906000526020600020905b81548152906001019060200180831161189157829003601f168201915b505050505081526020016003820180546118c790613e65565b80601f01602080910402602001604051908101604052809291908181526020018280546118f390613e65565b80156119405780601f1061191557610100808354040283529160200191611940565b820191906000526020600020905b81548152906001019060200180831161192357829003601f168201915b5050509183525050600482015463ffffffff16602082015260058201805460409092019161196d90613e65565b80601f016020809104026020016040519081016040528092919081815260200182805461199990613e65565b80156119e65780601f106119bb576101008083540402835291602001916119e6565b820191906000526020600020905b8154815290600101906020018083116119c957829003601f168201915b5050509183525050600682015463ffffffff166020820152600782018054604090920191611a1390613e65565b80601f0160208091040260200160405190810160405280929190818152602001828054611a3f90613e65565b8015611a8c5780601f10611a6157610100808354040283529160200191611a8c565b820191906000526020600020905b815481529060010190602001808311611a6f57829003601f168201915b50505091835250506040805160c081018252600884015460ff80821615158352610100820481161515602084810191909152620100008304821615158486015263010000008304821615156060850152600160201b808404831615156080860152600160281b909304909116151560a080850191909152818601939093528351928301845260098601805463ffffffff808216865293900490921690830152600a85018054948401949293919291840191611b4690613e65565b80601f0160208091040260200160405190810160405280929190818152602001828054611b7290613e65565b8015611bbf5780601f10611b9457610100808354040283529160200191611bbf565b820191906000526020600020905b815481529060010190602001808311611ba257829003601f168201915b50505050508152602001600282018054611bd890613e65565b80601f0160208091040260200160405190810160405280929190818152602001828054611c0490613e65565b8015611c515780601f10611c2657610100808354040283529160200191611c51565b820191906000526020600020905b815481529060010190602001808311611c3457829003601f168201915b50505050508152602001600382018054611c6a90613e65565b80601f0160208091040260200160405190810160405280929190818152602001828054611c9690613e65565b8015611ce35780601f10611cb857610100808354040283529160200191611ce3565b820191906000526020600020905b815481529060010190602001808311611cc657829003601f168201915b5050509190925250505090525092915050565b8033611d0182611565565b6001600160a01b031614611d275760405162461bcd60e51b815260040161080990614248565b600854811115611d495760405162461bcd60e51b815260040161080990613ecb565b600082815260096020526040902060080154600160201b900460ff161515600114611db05760405162461bcd60e51b8152602060048201526017602482015276151a194812d650c81a5cc81b9bdd08185c1c1c9bdd9959604a1b6044820152606401610809565b611dba8383610795565b6001600160a01b0383166000818152600b602090815260408083208054600181018255908452828420018690558583526009825291829020600801805461ff00191661010017905581516060808252600d908201526c10d85c8819195b1959d85d1959609a1b608082015290810192909252429082015282906000805160206144d08339815191529060a001610e2b565b6007546001600160a01b031690565b6060600180546106eb90613e65565b611e74338383612ea1565b5050565b8833611e8382611565565b6001600160a01b03161480611ecf575033611e9d8261076e565b6001600160a01b0316148015611ecf575060008181526009602052604090206008015460ff6101009091041615156001145b611eeb5760405162461bcd60e51b815260040161080990613e9f565b600854811115611f0d5760405162461bcd60e51b815260040161080990613ecb565b60008963ffffffff1611611f335760405162461bcd60e51b81526004016108099061413e565b60008863ffffffff1611611f595760405162461bcd60e51b81526004016108099061413e565b85611f765760405162461bcd60e51b81526004016108099061413e565b83611f935760405162461bcd60e51b81526004016108099061413e565b81611fb05760405162461bcd60e51b81526004016108099061413e565b611fb98a612f6b565b611fca8a8a8a8a8a8a8a8a8a613075565b50505050505050505050565b346000611fe283611565565b9050611ff7611ff084611565565b3385611017565b6000816001600160a01b03168360405160006040518083038185875af1925050503d8060008114612044576040519150601f19603f3d011682016040523d82523d6000602084013e612049565b606091505b505090508061206a5760405162461bcd60e51b81526004016108099061426f565b604080516060808252601490820152731d1c985b9cd9995c881dda5d1a08185b5bdd5b9d60621b6080820152336020820152429181019190915284906000805160206144d08339815191529060a001610a92565b6120c984848461295b565b6120d584848484613196565b816000805160206144d08339815191523342604051610a929291906140f0565b803361210082611565565b6001600160a01b0316148061214c57503361211a8261076e565b6001600160a01b031614801561214c575060008181526009602052604090206008015460ff6101009091041615156001145b6121685760405162461bcd60e51b815260040161080990613e9f565b60085481111561218a5760405162461bcd60e51b815260040161080990613ecb565b600082815260096020818152604092839020600801805462ff000019169055825160608082528101929092526810d85c88199bdd5b9960ba1b60808301523390820152429181019190915282906000805160206144d08339815191529060a001610c43565b60606121fa82612869565b6000828152600660205260408120805461221390613e65565b80601f016020809104026020016040519081016040528092919081815260200182805461223f90613e65565b801561228c5780601f106122615761010080835404028352916020019161228c565b820191906000526020600020905b81548152906001019060200180831161226f57829003601f168201915b5050505050905060006122aa60408051602081019091526000815290565b905080516000036122bc575092915050565b8151156122ee5780826040516020016122d692919061429d565b60405160208183030381529060405292505050919050565b6122f7846131c9565b949350505050565b6001600160a01b0381166000908152600b60209081526040918290208054835181840281018401909452808452606093928301828280156115f957602002820191906000526020600020908154815260200190600101908083116115e55750505050509050919050565b6123716128fc565b60014710156123ce5760405162461bcd60e51b815260206004820152602360248201527f596f75206e656564206174206c6561737420312045544820746f20776974686460448201526272617760e81b6064820152608401610809565b604051600090339047908381818185875af1925050503d8060008114612410576040519150601f19603f3d011682016040523d82523d6000602084013e612415565b606091505b50509050806124365760405162461bcd60e51b81526004016108099061426f565b50565b803361244482611565565b6001600160a01b0316148061249057503361245e8261076e565b6001600160a01b0316148015612490575060008181526009602052604090206008015460ff6101009091041615156001145b6124ac5760405162461bcd60e51b815260040161080990613e9f565b6008548111156124ce5760405162461bcd60e51b815260040161080990613ecb565b60008281526009602052604090819020600801805462ff00ff1916620100001790555182906000805160206144d083398151915290610c4390339042906060808252600a908201526921b0b91039ba37b632b760b11b60808201526001600160a01b03929092166020830152604082015260a00190565b803361255082611565565b6001600160a01b0316146125765760405162461bcd60e51b815260040161080990614248565b6008548111156125985760405162461bcd60e51b815260040161080990613ecb565b600082815260096020526040902060080154600160201b900460ff16156125f35760405162461bcd60e51b815260206004820152600f60248201526e546865204b594320697320646f6e6560881b6044820152606401610809565b6000828152600960205260409020600801546301000000900460ff16156126595760405162461bcd60e51b815260206004820152601a602482015279546865204b594320697320616c72656164792077616974696e6760301b6044820152606401610809565b60008281526009602052604090819020600801805463ff000000191663010000001790555182906000805160206144d083398151915290610c43903390429060608082526009908201526812d650c8185cdad95960ba1b60808201526001600160a01b03929092166020830152604082015260a00190565b600b602052816000526040600020818154811061104e57600080fd5b6126f56128fc565b6001600160a01b03811661275a5760405162461bcd60e51b815260206004820152602660248201527f4f776e61626c653a206e6577206f776e657220697320746865207a65726f206160448201526564647265737360d01b6064820152608401610809565b61243681612e4f565b803361276e82611565565b6001600160a01b031614806127ba5750336127888261076e565b6001600160a01b03161480156127ba575060008181526009602052604090206008015460ff6101009091041615156001145b6127d65760405162461bcd60e51b815260040161080990613e9f565b6008548111156127f85760405162461bcd60e51b815260040161080990613ecb565b60008281526009602052604090819020600801805460ff191690555182906000805160206144d083398151915290610c4390339042906060808252600b908201526a14d85b19481cdd1bdc195960aa1b60808201526001600160a01b03929092166020830152604082015260a00190565b6128728161323d565b6124365760405162461bcd60e51b815260040161080990614216565b600081815260046020526040902080546001600160a01b0319166001600160a01b03841690811790915581906128c382611565565b6001600160a01b03167f8c5be1e5ebec7d5bd14f71427d1e84f3dd0314c0f7b2291e5b200ac8c7c3b92560405160405180910390a45050565b33612905611e4b565b6001600160a01b03161461169d5760405162461bcd60e51b815260206004820181905260248201527f4f776e61626c653a2063616c6c6572206973206e6f7420746865206f776e65726044820152606401610809565b6000818152600960209081526040808320600801805464ff0000ffff191690556001600160a01b0386168352600a9091529020546001036129d8576001600160a01b0383166000908152600a602052604090208054806129bd576129bd614128565b600190038181906000526020600020016000905590556129e2565b6129e2838261325a565b6001600160a01b039091166000908152600a60209081526040822080546001810182559083529120015550565b826001600160a01b0316612a2282611565565b6001600160a01b031614612a485760405162461bcd60e51b8152600401610809906142cc565b6001600160a01b038216612aaa5760405162461bcd60e51b8152602060048201526024808201527f4552433732313a207472616e7366657220746f20746865207a65726f206164646044820152637265737360e01b6064820152608401610809565b826001600160a01b0316612abd82611565565b6001600160a01b031614612ae35760405162461bcd60e51b8152600401610809906142cc565b600081815260046020908152604080832080546001600160a01b03199081169091556001600160a01b0387811680865260038552838620805460001901905590871680865283862080546001019055868652600290945282852080549092168417909155905184936000805160206144f083398151915291a4505050565b6001600160a01b0382166000908152600b6020526040812054905b6001600160a01b0384166000908152600b6020526040902054811015612caf576001600160a01b0384166000908152600b60205260409020805484919083908110612bc957612bc96140da565b906000526020600020015403612c9d576001600160a01b0384166000908152600b60205260409020612bfc600184614311565b81548110612c0c57612c0c6140da565b9060005260206000200154600b6000866001600160a01b03166001600160a01b031681526020019081526020016000208281548110612c4d57612c4d6140da565b60009182526020808320909101929092556001600160a01b0386168152600b90915260409020805480612c8257612c82614128565b60019003818190600052602060002001600090559055612caf565b80612ca781614324565b915050612b7c565b50505050565b6001600160a01b038216612d0b5760405162461bcd60e51b815260206004820181905260248201527f4552433732313a206d696e7420746f20746865207a65726f20616464726573736044820152606401610809565b612d148161323d565b15612d315760405162461bcd60e51b81526004016108099061433d565b612d3a8161323d565b15612d575760405162461bcd60e51b81526004016108099061433d565b6001600160a01b038216600081815260036020908152604080832080546001019055848352600290915280822080546001600160a01b0319168417905551839291906000805160206144f0833981519152908290a45050565b612db98261323d565b612e1c5760405162461bcd60e51b815260206004820152602e60248201527f45524337323155524953746f726167653a2055524920736574206f66206e6f6e60448201526d32bc34b9ba32b73a103a37b5b2b760911b6064820152608401610809565b60008281526006602052604090206108aa8282613f54565b6000908152600260205260409020546001600160a01b031690565b600780546001600160a01b038381166001600160a01b0319831681179093556040519116919082907f8be0079c531659141344cd1fd0a4f28419497f9722a3daafe3b4186f6b6457e090600090a35050565b816001600160a01b0316836001600160a01b031603612efe5760405162461bcd60e51b815260206004820152601960248201527822a9219b99189d1030b8383937bb32903a379031b0b63632b960391b6044820152606401610809565b6001600160a01b03838116600081815260056020908152604080832094871680845294825291829020805460ff191686151590811790915591519182527f17307eab39ab6107e8899845ad3d59bd9653f200f220920489ca2b5937696c31910160405180910390a3505050565b8033612f7682611565565b6001600160a01b03161480612fc2575033612f908261076e565b6001600160a01b0316148015612fc2575060008181526009602052604090206008015460ff6101009091041615156001145b612fde5760405162461bcd60e51b815260040161080990613e9f565b6008548111156130005760405162461bcd60e51b815260040161080990613ecb565b60008281526009602052604090819020600801805460ff191660011790555182906000805160206144d083398151915290610c4390339042906060808252600c908201526b43617220666f722073616c6560a01b60808201526001600160a01b03929092166020830152604082015260a00190565b883361308082611565565b6001600160a01b031614806130cc57503361309a8261076e565b6001600160a01b03161480156130cc575060008181526009602052604090206008015460ff6101009091041615156001145b6130e85760405162461bcd60e51b815260040161080990613e9f565b60085481111561310a5760405162461bcd60e51b815260040161080990613ecb565b60008a8152600960208190526040909120908101805463ffffffff8b8116600160201b026001600160401b0319909216908d1617179055600a0161314f878983614373565b5060008a8152600960205260409020600b0161316c858783614373565b5060008a8152600960205260409020600c01613189838583614373565b5050505050505050505050565b6131a1848484612a0f565b6131ad8484848461338d565b612caf5760405162461bcd60e51b81526004016108099061442d565b60606131d482612869565b60006131eb60408051602081019091526000815290565b9050600081511161320b5760405180602001604052806000815250613236565b806132158461348e565b60405160200161322692919061429d565b6040516020818303038152906040525b9392505050565b60008061324983612e34565b6001600160a01b0316141592915050565b6001600160a01b0382166000908152600a6020526040812054905b6001600160a01b0384166000908152600a6020526040902054811015612caf576001600160a01b0384166000908152600a602052604090208054849190839081106132c2576132c26140da565b90600052602060002001540361337b576001600160a01b0384166000908152600a602052604090206132f5600184614311565b81548110613305576133056140da565b9060005260206000200154600a6000866001600160a01b03166001600160a01b031681526020019081526020016000208281548110613346576133466140da565b60009182526020808320909101929092556001600160a01b0386168152600a90915260409020805480612c8257612c82614128565b8061338581614324565b915050613275565b60006001600160a01b0384163b1561348357604051630a85bd0160e11b81526001600160a01b0385169063150b7a02906133d190339089908890889060040161447f565b6020604051808303816000875af192505050801561340c575060408051601f3d908101601f19168201909252613409918101906144b2565b60015b613469573d80801561343a576040519150601f19603f3d011682016040523d82523d6000602084013e61343f565b606091505b5080516000036134615760405162461bcd60e51b81526004016108099061442d565b805181602001fd5b6001600160e01b031916630a85bd0160e11b1490506122f7565b506001949350505050565b6060600061349b83613520565b60010190506000816001600160401b038111156134ba576134ba6137dc565b6040519080825280601f01601f1916602001820160405280156134e4576020820181803683370190505b5090508181016020015b600019016f181899199a1a9b1b9c1cb0b131b232b360811b600a86061a8153600a85049450846134ee57509392505050565b60008072184f03e93ff9f4daa797ed6e38ed64bf6a1f0160401b831061355f5772184f03e93ff9f4daa797ed6e38ed64bf6a1f0160401b830492506040015b6904ee2d6d415b85acef8160201b8310613589576904ee2d6d415b85acef8160201b830492506020015b662386f26fc1000083106135a757662386f26fc10000830492506010015b6305f5e10083106135bf576305f5e100830492506008015b61271083106135d357612710830492506004015b606483106135e5576064830492506002015b600a83106106d65760010192915050565b60405180610140016040528060608152602001606081526020016060815260200160608152602001600063ffffffff16815260200160608152602001600063ffffffff1681526020016060815260200161368b6040518060c001604052806000151581526020016000151581526020016000151581526020016000151581526020016000151581526020016000151581525090565b81526020016136ce6040518060a00160405280600063ffffffff168152602001600063ffffffff1681526020016060815260200160608152602001606081525090565b905290565b6001600160a01b0391909116815260200190565b6001600160e01b03198116811461243657600080fd5b60006020828403121561370f57600080fd5b8135613236816136e7565b60005b8381101561373557818101518382015260200161371d565b50506000910152565b6000815180845261375681602086016020860161371a565b601f01601f19169290920160200192915050565b602081526000613236602083018461373e565b60006020828403121561378f57600080fd5b5035919050565b80356001600160a01b03811681146137ad57600080fd5b919050565b600080604083850312156137c557600080fd5b6137ce83613796565b946020939093013593505050565b634e487b7160e01b600052604160045260246000fd5b60006001600160401b038084111561380c5761380c6137dc565b604051601f8501601f19908116603f01168101908282118183101715613834576138346137dc565b8160405280935085815286868601111561384d57600080fd5b858560208301376000602087830101525050509392505050565b600082601f83011261387857600080fd5b613236838335602085016137f2565b6000806040838503121561389a57600080fd5b82356001600160401b038111156138b057600080fd5b6138bc85828601613867565b95602094909401359450505050565b803580151581146137ad57600080fd5b600080604083850312156138ee57600080fd5b6138f7836138cb565b9150613905602084016138cb565b90509250929050565b6020808252825182820181905260009190848201906040850190845b81811015610de95783518352928401929184019160010161392a565b60008060006060848603121561395b57600080fd5b61396484613796565b925061397260208501613796565b9150604084013590509250925092565b803563ffffffff811681146137ad57600080fd5b600080600080600080600080610100898b0312156139b357600080fd5b88356001600160401b03808211156139ca57600080fd5b6139d68c838d01613867565b995060208b01359150808211156139ec57600080fd5b6139f88c838d01613867565b985060408b0135915080821115613a0e57600080fd5b613a1a8c838d01613867565b975060608b0135915080821115613a3057600080fd5b613a3c8c838d01613867565b965060808b0135915080821115613a5257600080fd5b613a5e8c838d01613867565b9550613a6c60a08c01613982565b945060c08b0135915080821115613a8257600080fd5b50613a8f8b828c01613867565b925050613a9e60e08a01613982565b90509295985092959890939650565b600060208284031215613abf57600080fd5b61323682613796565b600063ffffffff80835116845280602084015116602085015250604082015160a06040850152613afb60a085018261373e565b905060608301518482036060860152613b14828261373e565b91505060808301518482036080860152613b2e828261373e565b95945050505050565b60208152600082516101e0806020850152613b5661020085018361373e565b91506020850151601f1980868503016040870152613b74848361373e565b93506040870151915080868503016060870152613b91848361373e565b93506060870151915080868503016080870152613bae848361373e565b935060808701519150613bc960a087018363ffffffff169052565b60a08701519150808685030160c0870152613be4848361373e565b935060c08701519150613bff60e087018363ffffffff169052565b60e08701519150610100818786030181880152613c1c858461373e565b908801518051151561012089810191909152602082015115156101408a0152604082015115156101608a0152606082015115156101808a0152608082015115156101a08a015260a09091015115156101c0890152880151878203929092018488015293509050613c8c8382613ac8565b9695505050505050565b60008060408385031215613ca957600080fd5b6138f783613796565b60008083601f840112613cc457600080fd5b5081356001600160401b03811115613cdb57600080fd5b602083019150836020828501011115613cf357600080fd5b9250929050565b600080600080600080600080600060c08a8c031215613d1857600080fd5b89359850613d2860208b01613982565b9750613d3660408b01613982565b965060608a01356001600160401b0380821115613d5257600080fd5b613d5e8d838e01613cb2565b909850965060808c0135915080821115613d7757600080fd5b613d838d838e01613cb2565b909650945060a08c0135915080821115613d9c57600080fd5b50613da98c828d01613cb2565b915080935050809150509295985092959850929598565b60008060008060808587031215613dd657600080fd5b613ddf85613796565b9350613ded60208601613796565b92506040850135915060608501356001600160401b03811115613e0f57600080fd5b8501601f81018713613e2057600080fd5b613e2f878235602084016137f2565b91505092959194509250565b60008060408385031215613e4e57600080fd5b613e5783613796565b915061390560208401613796565b600181811c90821680613e7957607f821691505b602082108103613e9957634e487b7160e01b600052602260045260246000fd5b50919050565b602080825260129082015271165bdd481b9bdd08185d5d1a1bdc9a5e995960721b604082015260600190565b6020808252600c908201526b1a59081a5b98dbdc9c9958dd60a21b604082015260600190565b601f8211156108aa57600081815260208120601f850160051c81016020861015613f185750805b601f850160051c820191505b81811015613f3757828155600101613f24565b505050505050565b600019600383901b1c191660019190911b1790565b81516001600160401b03811115613f6d57613f6d6137dc565b613f8181613f7b8454613e65565b84613ef1565b602080601f831160018114613fb05760008415613f9e5750858301515b613fa88582613f3f565b865550613f37565b600085815260208120601f198616915b82811015613fdf57888601518255948401946001909101908401613fc0565b5085821015613ffd5787850151600019600388901b60f8161c191681555b5050505050600190811b01905550565b6000835161401f81846020880161371a565b603b60f81b908301908152835161403d81600184016020880161371a565b01600101949350505050565b60088152674b594320646f6e6560c01b602082015260400190565b6020815260006106d660208301614049565b60608152600061408860608301614049565b6001600160a01b03949094166020830152506040015290565b634e487b7160e01b600052601160045260246000fd5b600063ffffffff8083168181036140d0576140d06140a1565b6001019392505050565b634e487b7160e01b600052603260045260246000fd5b6060808252600890820152673a3930b739b332b960c11b60808201526001600160a01b03929092166020830152604082015260a00190565b634e487b7160e01b600052603160045260246000fd5b602080825260059082015264456d70747960d81b604082015260600190565b6001600160a01b038b168152610140602082018190526000906141828382018d61373e565b90508a6040840152828103606084015261419c818b61373e565b905082810360808401526141b0818a61373e565b905082810360a08401526141c4818961373e565b905082810360c08401526141d8818861373e565b905063ffffffff80871660e08501528382036101008501526141fa828761373e565b925080851661012085015250509b9a5050505050505050505050565b602080825260189082015277115490cdcc8c4e881a5b9d985b1a59081d1bdad95b88125160421b604082015260600190565b6020808252600d908201526c2cb7ba903737ba1037bbb732b960991b604082015260600190565b6020808252601490820152737472616e73666572206469646e277420776f726b60601b604082015260600190565b600083516142af81846020880161371a565b8351908301906142c381836020880161371a565b01949350505050565b60208082526025908201527f4552433732313a207472616e736665722066726f6d20696e636f72726563742060408201526437bbb732b960d91b606082015260800190565b818103818111156106d6576106d66140a1565b600060018201614336576143366140a1565b5060010190565b6020808252601c908201527b115490cdcc8c4e881d1bdad95b88185b1c9958591e481b5a5b9d195960221b604082015260600190565b6001600160401b0383111561438a5761438a6137dc565b61439e836143988354613e65565b83613ef1565b6000601f8411600181146143cc57600085156143ba5750838201355b6143c48682613f3f565b845550614426565b600083815260209020601f19861690835b828110156143fd57868501358255602094850194600190920191016143dd565b508682101561441a5760001960f88860031b161c19848701351681555b505060018560011b0183555b5050505050565b60208082526032908201527f4552433732313a207472616e7366657220746f206e6f6e20455243373231526560408201527131b2b4bb32b91034b6b83632b6b2b73a32b960711b606082015260800190565b6001600160a01b0385811682528416602082015260408101839052608060608201819052600090613c8c9083018461373e565b6000602082840312156144c457600080fd5b8151613236816136e756feeb41bb939756ad181f097f7e48b18e54ec12e25331e6d6855ca98fca7003c5deddf252ad1be2c89b69c2b068fc378daa952ba7f163c4a11628f55a4df523b3ef15382559391789f1865e10e9c8b51327a9cb0381eae89973ada229e7a78c08f3a2646970667358221220c48cd18bd9a3f5c561bcc4b8692e1e34264e0c613638bcf995bc7bae584b18c564736f6c63430008120033",
  "immutableReferences": {},
  "source": "// SPDX-License-Identifier: MIT\npragma solidity 0.8.18;\n\nimport \"@openzeppelin/contracts/token/ERC721/ERC721.sol\";\nimport \"@openzeppelin/contracts/token/ERC721/extensions/ERC721URIStorage.sol\";\nimport \"@openzeppelin/contracts/utils/Counters.sol\";\nimport \"@openzeppelin/contracts/access/Ownable.sol\";\n\n\n/**\n * @title BlockCar\n * @author Germain Winckel\n * @notice The blockCar contract code\n * @dev The blockCar contract code\n */\ncontract BlockCar is ERC721URIStorage, Ownable {\n    /**\n    * @dev The counter from the openzeppelin contract Counters.sol\n    */\n    using Counters for Counters.Counter;\n    Counters.Counter private tokenIds;\n\n    /**\n    * @dev The Status of each NFT, this struct is in the Car struct. When mint, all values are false\n    */\n    struct Status {\n        bool isOnSale;\n        bool isDelegated;\n        bool isStolen;\n        bool isWaitingKyc;\n        bool isKycDone;\n        bool isScrapped;\n    }\n\n    /**\n    * @dev Others informations we need for sell the car\n    */\n    struct InfosForSale {\n      \tuint32 mileage;\n      \tuint32 price;\n      \tstring country;\n      \tstring localisation;\n      \tstring contactDetails;\n    }\n\n    /**\n    * @dev A complex type that all the statics informations of a NFT. \n\t* linkDocument contains all the link to the differents documents, the separtoir is ;\n    */\n\tstruct Car{\n\t\tstring vin;\n\t\tstring brand;\n\t\tstring model;\n      \tstring color;\n      \tuint32 power; //kw\n      \tstring registrationCountry;\n      \tuint32 registrationDate;    // dd/mm/yyyy\n      \tstring linkDocument;        //only value which can change\n      \tStatus status;\n        InfosForSale infosForSale;\n\t}\n    \n\t/// @dev Mapping the NFT ID with the car informations\n    mapping(uint256 => Car) nftCarInfos;\n\n    /// @dev Mapping the NFT ID with the owner\n    mapping(address => uint256[]) public nftIdAndOwner;  \n\n    /// @dev Mapping the NFT ID with the delegator\n    mapping(address => uint256[]) public nftIdAndDelegator;  \n\t\n\t/// @dev An event that registers when a user did the KYC for a car\n    event Minted (address userAddress, string tokenURI, uint256 nftId, string vin, string brand, string model, string color, uint32 power, string registrationCountry, uint32 registrationDate);\n\n    /// @dev An event when a car is for sale\n    event ChangingStatus (string status, address _address, uint256 indexed nftId, uint256 timestamp);\n\n    /// @dev An event when a deposit is received\n    event LogDepositReceived (address _address);\n\n    constructor() ERC721 (\"BlockCar\", \"BLC\") {\n    }\n\n\t/**\n     * @dev To mint an NFT\n\t * @param _tokenURI : Link to jdon/image\n\t * @param _vin : Vehicle Identification Number\n\t * @param _brand : Brand of the car\n\t * @param _model : Model of the car\n\t * @param _color : color of the car\n\t * @param _power : Power of the car in Kw\n\t * @param _registrationCountry : Reistration country\n\t * @param _registrationDate : Regisytration date in ddmmyyyy\n     * @return newItemId mThe Id of the NFT \n     */\n    function mintCar(string memory _tokenURI, string memory _vin, string memory _brand, string memory _model, string memory _color, uint32 _power, string memory _registrationCountry, uint32 _registrationDate) public returns (uint256) {\n        require(msg.sender != address(0), \"Empty\");\n        require(bytes(_tokenURI).length > 0, \"Empty\");\n        require(bytes(_vin).length > 0, \"Empty\");\n        require(bytes(_brand).length > 0, \"Empty\");\n        require(bytes(_model).length > 0, \"Empty\");\n        require(bytes(_color).length > 0, \"Empty\");\n        require(_power > 0, \"Empty\");\n        require(bytes(_registrationCountry).length > 0, \"Empty\");\n        require(_registrationDate > 0, \"Empty\");\n\n        tokenIds.increment();\n        uint256 newItemId = tokenIds.current();\n        _mint(msg.sender, newItemId);\n        _setTokenURI(newItemId, _tokenURI);\n\n        nftIdAndOwner[msg.sender].push(newItemId);\n        \n        Status memory statusIni = Status(false,false,false,false,false,false);\n        InfosForSale memory infosForSaleIni = InfosForSale(0,0,\"\",\"\",\"\");\n\t\tCar memory car = Car(_vin, _brand, _model, _color, _power, _registrationCountry, _registrationDate, \"\",statusIni, infosForSaleIni);\n\t\tnftCarInfos[newItemId] = car;\n\t\temit Minted (msg.sender, _tokenURI, newItemId, _vin, _brand, _model, _color, _power, _registrationCountry, _registrationDate);\n        return newItemId;\n    }\n\n    function getNftIdsByAddress(address _owner) external view returns (uint256[] memory) {\n        return nftIdAndOwner[_owner];\n    }\n\n    function getNftIdsByDelegatorAddress(address _owner) external view returns (uint256[] memory) {\n        return nftIdAndDelegator[_owner];\n    }    \n\n    function getNftIdsByOnSaleAndKycDone(bool _isOnSale, bool _isKycDone) external view returns (uint256[] memory) {\n        uint256 itemId = tokenIds.current();\n        uint32 count;\n\n       // First, we count the number of cars that match the specified status\n        for (uint32 i = 0; i <= itemId; i++) {\n            if ((nftCarInfos[i].status.isOnSale == _isOnSale) &&\n                (nftCarInfos[i].status.isKycDone == _isKycDone)) {\n                count++;\n            }\n        }\n\n        uint256[] memory Ids = new uint256[](count);\n        uint32 index = 0;\n\n        for (uint32 i = 0; i <= itemId; i++) {\n            if ((nftCarInfos[i].status.isOnSale == _isOnSale) &&\n                (nftCarInfos[i].status.isKycDone == _isKycDone)) {\n                Ids[index] = i;\n                index++;\n            }\n        }\n        return Ids;\n    }\n\n    /**\n    * @dev Modifier to check if the address is owner or the delegator of the NFT\n    * @param _tokenIds The Id of the NFT \n    */\n    modifier isNftOwnerOrDelegator(uint256 _tokenIds) {\n        require(ownerOf(_tokenIds)==msg.sender || (getApproved(_tokenIds)==msg.sender &&  nftCarInfos[_tokenIds].status.isDelegated == true) , 'You not authorized');\n        require(_tokenIds <= tokenIds.current(), 'id incorrect');\n        _;\n    }\n\n        /**\n    * @dev Modifier to check if the address is owner of the NFT\n    * @param _tokenIds The Id of the NFT \n    */\n    modifier isNftOwner(uint256 _tokenIds) {\n        require(ownerOf(_tokenIds)==msg.sender, 'You not owner');\n        require(_tokenIds <= tokenIds.current(), 'id incorrect');\n        _;\n    }\n\n    /**\n    * @dev Change the status of isKycDone to true\n    * @param _tokenIds The Id of the NFT \n    */\n    function kycIsApproved (uint256 _tokenIds) external onlyOwner {\n        require(nftCarInfos[_tokenIds].status.isKycDone == false, 'KYC done');\n\t\tnftCarInfos[_tokenIds].status.isWaitingKyc = false;\n\t\tnftCarInfos[_tokenIds].status.isKycDone = true;\n        emit ChangingStatus(\"KYC done\",msg.sender , _tokenIds, block.timestamp);\n    }\n\n    /**\n    * @dev Get the NFT informations\n    * @param _tokenIds The Id of the NFT \n    */\n    function getCarNft (uint256 _tokenIds) external view returns (Car memory) {\n        require(_tokenIds <= tokenIds.current(), 'Id incorrect');\n        return nftCarInfos[_tokenIds];\n    }\n\n    /**\n    * @dev Change boolean 'isOnSale' to true, is car is for sale\n    * @param _tokenIds The Id of the NFT \n    */\n    function carIsForSale (uint256 _tokenIds) internal isNftOwnerOrDelegator (_tokenIds) {\n        nftCarInfos[_tokenIds].status.isOnSale = true;\n        emit ChangingStatus(\"Car for sale\",msg.sender, _tokenIds, block.timestamp);\n    }\n\n    /**\n    * @dev Change boolean 'isOnSale' to true, this car is for sale\n    * @param _tokenIds The Id of the NFT \n    * @param _mileage the mileage of the car\n    * @param _price The price of the car\n    * @param _localisation the localisation of the car\n    * @param _contactDetails The details of the contact\n    */\n    function setInformationsForSale (uint256 _tokenIds, uint32 _mileage, uint32 _price, string calldata _country, string calldata _localisation, string calldata _contactDetails) internal isNftOwnerOrDelegator (_tokenIds) {\n        nftCarInfos[_tokenIds].infosForSale.mileage = _mileage;\n        nftCarInfos[_tokenIds].infosForSale.price = _price;\n        nftCarInfos[_tokenIds].infosForSale.country = _country;\n        nftCarInfos[_tokenIds].infosForSale.localisation = _localisation;\n        nftCarInfos[_tokenIds].infosForSale.contactDetails = _contactDetails;\n    }\n\n    function carIsForSaleAndSetInformationsForSale (uint256 _tokenIds, uint32 _mileage, uint32 _price, string calldata _country, string calldata _localisation, string calldata _contactDetails) external isNftOwnerOrDelegator (_tokenIds) {\n        require(_mileage > 0, \"Empty\");\n        require(_price > 0, \"Empty\");\n        require(bytes(_country).length > 0, \"Empty\");\n        require(bytes(_localisation).length > 0, \"Empty\");\n        require(bytes(_contactDetails).length > 0, \"Empty\");\n        carIsForSale(_tokenIds);\n        setInformationsForSale(_tokenIds, _mileage, _price, _country, _localisation, _contactDetails);\n    }\n\n    /**\n    * @dev Change boolean 'isStolen' to true, this car is stolen\n    * @param _tokenIds The Id of the NFT \n    */\n    function carIsStolen (uint256 _tokenIds) external isNftOwnerOrDelegator (_tokenIds) {\n        nftCarInfos[_tokenIds].status.isStolen = true;\n        nftCarInfos[_tokenIds].status.isOnSale = false;\n        emit ChangingStatus(\"Car stolen\",msg.sender, _tokenIds, block.timestamp);\n    }\n\n    /**\n    * @dev Change boolean 'isScrapped' to true, this car is Scrapped\n    * @param _tokenIds The Id of the NFT \n    */\n    function carIsScrapped (uint256 _tokenIds) external isNftOwnerOrDelegator (_tokenIds) {\n        nftCarInfos[_tokenIds].status.isScrapped = true;\n        nftCarInfos[_tokenIds].status.isOnSale = false;\n        emit ChangingStatus(\"Car scrapped\",msg.sender, _tokenIds, block.timestamp);\n    }\n\n    /**\n    * @dev Change boolean 'isScrapped' to true, this car is Scrapped\n    * @param _tokenIds The Id of the NFT \n    */\n    function stopSale (uint256 _tokenIds) external isNftOwnerOrDelegator (_tokenIds) {\n        nftCarInfos[_tokenIds].status.isOnSale = false;\n        emit ChangingStatus(\"Sale stoped\",msg.sender, _tokenIds, block.timestamp);\n    }\n\n    /**\n    * @dev Change boolean 'isScrapped' to true, this car is Scrapped\n    * @param _tokenIds The Id of the NFT \n    */\n    function carFound (uint256 _tokenIds) external isNftOwnerOrDelegator (_tokenIds) {\n        nftCarInfos[_tokenIds].status.isStolen = false;\n        emit ChangingStatus(\"Car found\",msg.sender, _tokenIds, block.timestamp);\n    }\n\n    /**\n    * @dev Change boolean 'isDelegated' to true, this car is Delegated\n    * @param _tokenIds The Id of the NFT \n    */\n    function delegeteCar (address delegatorAddress, uint256 _tokenIds) external isNftOwner (_tokenIds) {\n        require(nftCarInfos[_tokenIds].status.isKycDone == true, \"The KYC is not approved\");\n        approve(delegatorAddress, _tokenIds);\n        nftIdAndDelegator[delegatorAddress].push(_tokenIds);\n        nftCarInfos[_tokenIds].status.isDelegated = true;\n        emit ChangingStatus(\"Car delegated\", delegatorAddress, _tokenIds, block.timestamp);\n    }\n\n    /**\n    * @dev Change boolean 'isDelegated' to false, this car is not delegated anymore\n    * @param _tokenIds The Id of the NFT \n    */\n    function stopDelegation (uint256 _tokenIds) external isNftOwnerOrDelegator (_tokenIds) {\n        require(nftCarInfos[_tokenIds].status.isDelegated == true, \"The NFT is not delegated\");\n\n        address delegatorAdress = getApproved(_tokenIds);\n\n        nftCarInfos[_tokenIds].status.isDelegated = false;\n\n        if (nftIdAndDelegator[delegatorAdress].length == 1) {\n            nftIdAndDelegator[delegatorAdress].pop();\n        } else {\n            removeTokenIdDelegator(delegatorAdress, _tokenIds);\n        }\n\n        emit ChangingStatus(\"Delegation stoped\",msg.sender, _tokenIds, block.timestamp);\n    }\n\n    function removeTokenIdDelegator(address _addressToDel, uint256 _tokenIds) internal {\n        uint256 length = nftIdAndDelegator[_addressToDel].length;\n        for (uint256 i = 0; i < nftIdAndDelegator[_addressToDel].length; i++) {\n            if (nftIdAndDelegator[_addressToDel][i] == _tokenIds) {\n                // Remplace l'lment  supprimer par le dernier lment du tableau\n                nftIdAndDelegator[_addressToDel][i] = nftIdAndDelegator[_addressToDel][length - 1];\n                \n                // Rduit la longueur du tableau de 1\n                nftIdAndDelegator[_addressToDel].pop();\n                break;\n            }\n        }\n    }\n\n    /**\n    * @dev Change boolean 'isWaitingKyc' to false, this car is not delegated anymore\n    * @param _tokenIds The Id of the NFT \n    */\n    function askKyc (uint256 _tokenIds) external isNftOwner (_tokenIds) {\n        require(nftCarInfos[_tokenIds].status.isKycDone == false, \"The KYC is done\");\n        require(nftCarInfos[_tokenIds].status.isWaitingKyc == false, \"The KYC is already waiting\");\n        nftCarInfos[_tokenIds].status.isWaitingKyc = true;\n        emit ChangingStatus(\"KYC asked\",msg.sender, _tokenIds, block.timestamp);\n    }\n\n    function removeTokenIdNftOwner(address _addressToDel, uint256 _tokenIds) internal {\n        uint256 length = nftIdAndOwner[_addressToDel].length;\n        for (uint256 i = 0; i < nftIdAndOwner[_addressToDel].length; i++) {\n            if (nftIdAndOwner[_addressToDel][i] == _tokenIds) {\n                // Remplace l'lment  supprimer par le dernier lment du tableau\n                nftIdAndOwner[_addressToDel][i] = nftIdAndOwner[_addressToDel][length - 1];\n                \n                // Rduit la longueur du tableau de 1\n                nftIdAndOwner[_addressToDel].pop();\n                break;\n            }\n        }\n    }\n\n    function addDocumentLink(string memory _newLink, uint256 _tokenId) external isNftOwnerOrDelegator (_tokenId)  {\n        string memory currentLink = nftCarInfos[_tokenId].linkDocument;\n        if (bytes(currentLink).length == 0) {\n            nftCarInfos[_tokenId].linkDocument = _newLink;\n        } else {\n            nftCarInfos[_tokenId].linkDocument = string(abi.encodePacked(currentLink, \";\", _newLink));\n        }\n        emit ChangingStatus(\"Document added\",msg.sender, _tokenId, block.timestamp);\n    }\n\n    function testingAndTransfer (address _from, address _to, uint256 _tokenIds) internal {\n        nftCarInfos[_tokenIds].status.isKycDone = false;\n        nftCarInfos[_tokenIds].status.isDelegated = false;\n        nftCarInfos[_tokenIds].status.isOnSale = false;\n\n        if (nftIdAndOwner[_from].length == 1) {\n            nftIdAndOwner[_from].pop();\n        } else {\n            removeTokenIdNftOwner(_from, _tokenIds);\n        }\n        nftIdAndOwner[_to].push(_tokenIds);\n    }\n\n    /**\n     * @dev See {IERC721-transferFrom}.\n     */\n    function transferFrom(\n        address from,\n        address to,\n        uint256 tokenId\n    ) public virtual override {\n        testingAndTransfer(from, to, tokenId);\n        _transfer(from, to, tokenId);\n        emit ChangingStatus(\"transfer\",msg.sender, tokenId, block.timestamp);\n    }\n\n    /**\n     * @dev See {IERC721-safeTransferFrom}.\n     */\n    function safeTransferFrom(\n        address from,\n        address to,\n        uint256 tokenId\n    ) public virtual override {\n        safeTransferFrom(from, to, tokenId, \"\");\n    }\n\n    /**\n     * @dev See {IERC721-safeTransferFrom}.\n     */\n    function safeTransferFrom(\n        address from,\n        address to,\n        uint256 tokenId,\n        bytes memory data\n    ) public virtual override {\n        testingAndTransfer(from, to, tokenId);\n        _safeTransfer(from, to, tokenId, data);\n        emit ChangingStatus(\"transfer\",msg.sender, tokenId, block.timestamp);\n    }\n\n    function sellNftAndTransferValueToOwner(uint256 _tokenId) external payable  {\n        uint256 valueSend               = msg.value;\n        address ownerAddress            = ownerOf(_tokenId);\n        safeTransferFrom(ownerOf(_tokenId),msg.sender,_tokenId);\n        (bool sent, )                   = payable(ownerAddress).call{value: valueSend}(\"\");\n        require(sent, unicode\"transfer didn't work\");\n        emit ChangingStatus(\"transfer with amount\",msg.sender, _tokenId, block.timestamp);\n    }\n\n    fallback() external payable { \n        require(msg.data.length == 0);\n        emit LogDepositReceived(msg.sender); \n    }\n \n    receive() external payable { \n        emit LogDepositReceived(msg.sender); \n    }\n\n    function withdrawal() public onlyOwner {\n        require(address(this).balance >= 1, \"You need at least 1 ETH to withdraw\");\n        (bool sent, )                   = payable(msg.sender).call{value: address(this).balance}(\"\");\n        require(sent, unicode\"transfer didn't work\");\n    }\n}\n",
  "sourcePath": "/home/germain/Projet4/truffle/contracts/BlockCar.sol",
  "compiler": {
    "name": "solc",
    "version": "0.8.18+commit.87f61d96.Emscripten.clang"
  },
  "schemaVersion": "3.4.13",
  "updatedAt": "2023-04-06T00:10:38.903Z",
  "networkType": "ethereum",
  "devdoc": {
    "author": "Germain Winckel",
    "details": "The blockCar contract code",
    "events": {
      "Approval(address,address,uint256)": {
        "details": "Emitted when `owner` enables `approved` to manage the `tokenId` token."
      },
      "ApprovalForAll(address,address,bool)": {
        "details": "Emitted when `owner` enables or disables (`approved`) `operator` to manage all of its assets."
      },
      "ChangingStatus(string,address,uint256,uint256)": {
        "details": "An event when a car is for sale"
      },
      "LogDepositReceived(address)": {
        "details": "An event when a deposit is received"
      },
      "Minted(address,string,uint256,string,string,string,string,uint32,string,uint32)": {
        "details": "An event that registers when a user did the KYC for a car"
      },
      "Transfer(address,address,uint256)": {
        "details": "Emitted when `tokenId` token is transferred from `from` to `to`."
      }
    },
    "kind": "dev",
    "methods": {
      "approve(address,uint256)": {
        "details": "See {IERC721-approve}."
      },
      "askKyc(uint256)": {
        "details": "Change boolean 'isWaitingKyc' to false, this car is not delegated anymore",
        "params": {
          "_tokenIds": "The Id of the NFT "
        }
      },
      "balanceOf(address)": {
        "details": "See {IERC721-balanceOf}."
      },
      "carFound(uint256)": {
        "details": "Change boolean 'isScrapped' to true, this car is Scrapped",
        "params": {
          "_tokenIds": "The Id of the NFT "
        }
      },
      "carIsScrapped(uint256)": {
        "details": "Change boolean 'isScrapped' to true, this car is Scrapped",
        "params": {
          "_tokenIds": "The Id of the NFT "
        }
      },
      "carIsStolen(uint256)": {
        "details": "Change boolean 'isStolen' to true, this car is stolen",
        "params": {
          "_tokenIds": "The Id of the NFT "
        }
      },
      "delegeteCar(address,uint256)": {
        "details": "Change boolean 'isDelegated' to true, this car is Delegated",
        "params": {
          "_tokenIds": "The Id of the NFT "
        }
      },
      "getApproved(uint256)": {
        "details": "See {IERC721-getApproved}."
      },
      "getCarNft(uint256)": {
        "details": "Get the NFT informations",
        "params": {
          "_tokenIds": "The Id of the NFT "
        }
      },
      "isApprovedForAll(address,address)": {
        "details": "See {IERC721-isApprovedForAll}."
      },
      "kycIsApproved(uint256)": {
        "details": "Change the status of isKycDone to true",
        "params": {
          "_tokenIds": "The Id of the NFT "
        }
      },
      "mintCar(string,string,string,string,string,uint32,string,uint32)": {
        "details": "To mint an NFT",
        "params": {
          "_brand": ": Brand of the car",
          "_color": ": color of the car",
          "_model": ": Model of the car",
          "_power": ": Power of the car in Kw",
          "_registrationCountry": ": Reistration country",
          "_registrationDate": ": Regisytration date in ddmmyyyy",
          "_tokenURI": ": Link to jdon/image",
          "_vin": ": Vehicle Identification Number"
        },
        "returns": {
          "_0": "newItemId mThe Id of the NFT "
        }
      },
      "name()": {
        "details": "See {IERC721Metadata-name}."
      },
      "owner()": {
        "details": "Returns the address of the current owner."
      },
      "ownerOf(uint256)": {
        "details": "See {IERC721-ownerOf}."
      },
      "renounceOwnership()": {
        "details": "Leaves the contract without owner. It will not be possible to call `onlyOwner` functions anymore. Can only be called by the current owner. NOTE: Renouncing ownership will leave the contract without an owner, thereby removing any functionality that is only available to the owner."
      },
      "safeTransferFrom(address,address,uint256)": {
        "details": "See {IERC721-safeTransferFrom}."
      },
      "safeTransferFrom(address,address,uint256,bytes)": {
        "details": "See {IERC721-safeTransferFrom}."
      },
      "setApprovalForAll(address,bool)": {
        "details": "See {IERC721-setApprovalForAll}."
      },
      "stopDelegation(uint256)": {
        "details": "Change boolean 'isDelegated' to false, this car is not delegated anymore",
        "params": {
          "_tokenIds": "The Id of the NFT "
        }
      },
      "stopSale(uint256)": {
        "details": "Change boolean 'isScrapped' to true, this car is Scrapped",
        "params": {
          "_tokenIds": "The Id of the NFT "
        }
      },
      "supportsInterface(bytes4)": {
        "details": "See {IERC165-supportsInterface}."
      },
      "symbol()": {
        "details": "See {IERC721Metadata-symbol}."
      },
      "tokenURI(uint256)": {
        "details": "See {IERC721Metadata-tokenURI}."
      },
      "transferFrom(address,address,uint256)": {
        "details": "See {IERC721-transferFrom}."
      },
      "transferOwnership(address)": {
        "details": "Transfers ownership of the contract to a new account (`newOwner`). Can only be called by the current owner."
      }
    },
    "stateVariables": {
      "nftCarInfos": {
        "details": "Mapping the NFT ID with the car informations"
      },
      "nftIdAndDelegator": {
        "details": "Mapping the NFT ID with the delegator"
      },
      "nftIdAndOwner": {
        "details": "Mapping the NFT ID with the owner"
      }
    },
    "title": "BlockCar",
    "version": 1
  },
  "userdoc": {
    "kind": "user",
    "methods": {},
    "notice": "The blockCar contract code",
    "version": 1
  }
}