{
  "contractName": "BlockCar",
  "abi": [
    {
      "inputs": [],
      "stateMutability": "nonpayable",
      "type": "constructor"
    },
    {
      "anonymous": false,
      "inputs": [
        {
          "indexed": true,
          "internalType": "address",
          "name": "owner",
          "type": "address"
        },
        {
          "indexed": true,
          "internalType": "address",
          "name": "approved",
          "type": "address"
        },
        {
          "indexed": true,
          "internalType": "uint256",
          "name": "tokenId",
          "type": "uint256"
        }
      ],
      "name": "Approval",
      "type": "event"
    },
    {
      "anonymous": false,
      "inputs": [
        {
          "indexed": true,
          "internalType": "address",
          "name": "owner",
          "type": "address"
        },
        {
          "indexed": true,
          "internalType": "address",
          "name": "operator",
          "type": "address"
        },
        {
          "indexed": false,
          "internalType": "bool",
          "name": "approved",
          "type": "bool"
        }
      ],
      "name": "ApprovalForAll",
      "type": "event"
    },
    {
      "anonymous": false,
      "inputs": [
        {
          "indexed": false,
          "internalType": "address",
          "name": "_address",
          "type": "address"
        },
        {
          "indexed": false,
          "internalType": "uint256",
          "name": "nftId",
          "type": "uint256"
        }
      ],
      "name": "CarForSale",
      "type": "event"
    },
    {
      "anonymous": false,
      "inputs": [
        {
          "indexed": false,
          "internalType": "address",
          "name": "_address",
          "type": "address"
        },
        {
          "indexed": false,
          "internalType": "uint256",
          "name": "nftId",
          "type": "uint256"
        }
      ],
      "name": "CarInfosIsUpdatedForSale",
      "type": "event"
    },
    {
      "anonymous": false,
      "inputs": [
        {
          "indexed": false,
          "internalType": "address",
          "name": "_address",
          "type": "address"
        },
        {
          "indexed": false,
          "internalType": "uint256",
          "name": "nftId",
          "type": "uint256"
        }
      ],
      "name": "CarIsScrapped",
      "type": "event"
    },
    {
      "anonymous": false,
      "inputs": [
        {
          "indexed": false,
          "internalType": "address",
          "name": "_address",
          "type": "address"
        },
        {
          "indexed": false,
          "internalType": "uint256",
          "name": "nftId",
          "type": "uint256"
        }
      ],
      "name": "CarIsStolen",
      "type": "event"
    },
    {
      "anonymous": false,
      "inputs": [
        {
          "indexed": false,
          "internalType": "address",
          "name": "_address",
          "type": "address"
        },
        {
          "indexed": false,
          "internalType": "uint256",
          "name": "nftId",
          "type": "uint256"
        }
      ],
      "name": "CarStatusReinitForSale",
      "type": "event"
    },
    {
      "anonymous": false,
      "inputs": [
        {
          "indexed": false,
          "internalType": "uint256",
          "name": "nftId",
          "type": "uint256"
        }
      ],
      "name": "KycIsDone",
      "type": "event"
    },
    {
      "anonymous": false,
      "inputs": [
        {
          "indexed": false,
          "internalType": "address",
          "name": "_address",
          "type": "address"
        },
        {
          "indexed": false,
          "internalType": "uint256",
          "name": "nftId",
          "type": "uint256"
        }
      ],
      "name": "KycIsWaiting",
      "type": "event"
    },
    {
      "anonymous": false,
      "inputs": [
        {
          "indexed": false,
          "internalType": "address",
          "name": "_address",
          "type": "address"
        }
      ],
      "name": "LogDepositReceived",
      "type": "event"
    },
    {
      "anonymous": false,
      "inputs": [
        {
          "indexed": false,
          "internalType": "address",
          "name": "userAddress",
          "type": "address"
        },
        {
          "indexed": false,
          "internalType": "string",
          "name": "tokenURI",
          "type": "string"
        },
        {
          "indexed": false,
          "internalType": "uint256",
          "name": "nftId",
          "type": "uint256"
        },
        {
          "indexed": false,
          "internalType": "string",
          "name": "vin",
          "type": "string"
        },
        {
          "indexed": false,
          "internalType": "string",
          "name": "brand",
          "type": "string"
        },
        {
          "indexed": false,
          "internalType": "string",
          "name": "model",
          "type": "string"
        },
        {
          "indexed": false,
          "internalType": "string",
          "name": "color",
          "type": "string"
        },
        {
          "indexed": false,
          "internalType": "uint32",
          "name": "power",
          "type": "uint32"
        },
        {
          "indexed": false,
          "internalType": "string",
          "name": "registrationCountry",
          "type": "string"
        },
        {
          "indexed": false,
          "internalType": "uint32",
          "name": "registrationDate",
          "type": "uint32"
        }
      ],
      "name": "Minted",
      "type": "event"
    },
    {
      "anonymous": false,
      "inputs": [
        {
          "indexed": true,
          "internalType": "address",
          "name": "previousOwner",
          "type": "address"
        },
        {
          "indexed": true,
          "internalType": "address",
          "name": "newOwner",
          "type": "address"
        }
      ],
      "name": "OwnershipTransferred",
      "type": "event"
    },
    {
      "anonymous": false,
      "inputs": [
        {
          "indexed": false,
          "internalType": "address",
          "name": "_address",
          "type": "address"
        },
        {
          "indexed": false,
          "internalType": "uint256",
          "name": "nftId",
          "type": "uint256"
        }
      ],
      "name": "StopDelegation",
      "type": "event"
    },
    {
      "anonymous": false,
      "inputs": [
        {
          "indexed": true,
          "internalType": "address",
          "name": "from",
          "type": "address"
        },
        {
          "indexed": true,
          "internalType": "address",
          "name": "to",
          "type": "address"
        },
        {
          "indexed": true,
          "internalType": "uint256",
          "name": "tokenId",
          "type": "uint256"
        }
      ],
      "name": "Transfer",
      "type": "event"
    },
    {
      "stateMutability": "payable",
      "type": "fallback",
      "payable": true
    },
    {
      "inputs": [
        {
          "internalType": "address",
          "name": "to",
          "type": "address"
        },
        {
          "internalType": "uint256",
          "name": "tokenId",
          "type": "uint256"
        }
      ],
      "name": "approve",
      "outputs": [],
      "stateMutability": "nonpayable",
      "type": "function"
    },
    {
      "inputs": [
        {
          "internalType": "address",
          "name": "owner",
          "type": "address"
        }
      ],
      "name": "balanceOf",
      "outputs": [
        {
          "internalType": "uint256",
          "name": "",
          "type": "uint256"
        }
      ],
      "stateMutability": "view",
      "type": "function",
      "constant": true
    },
    {
      "inputs": [
        {
          "internalType": "uint256",
          "name": "tokenId",
          "type": "uint256"
        }
      ],
      "name": "getApproved",
      "outputs": [
        {
          "internalType": "address",
          "name": "",
          "type": "address"
        }
      ],
      "stateMutability": "view",
      "type": "function",
      "constant": true
    },
    {
      "inputs": [
        {
          "internalType": "address",
          "name": "owner",
          "type": "address"
        },
        {
          "internalType": "address",
          "name": "operator",
          "type": "address"
        }
      ],
      "name": "isApprovedForAll",
      "outputs": [
        {
          "internalType": "bool",
          "name": "",
          "type": "bool"
        }
      ],
      "stateMutability": "view",
      "type": "function",
      "constant": true
    },
    {
      "inputs": [],
      "name": "name",
      "outputs": [
        {
          "internalType": "string",
          "name": "",
          "type": "string"
        }
      ],
      "stateMutability": "view",
      "type": "function",
      "constant": true
    },
    {
      "inputs": [
        {
          "internalType": "address",
          "name": "",
          "type": "address"
        },
        {
          "internalType": "uint256",
          "name": "",
          "type": "uint256"
        }
      ],
      "name": "nftIdAndOwner",
      "outputs": [
        {
          "internalType": "uint256",
          "name": "",
          "type": "uint256"
        }
      ],
      "stateMutability": "view",
      "type": "function",
      "constant": true
    },
    {
      "inputs": [],
      "name": "owner",
      "outputs": [
        {
          "internalType": "address",
          "name": "",
          "type": "address"
        }
      ],
      "stateMutability": "view",
      "type": "function",
      "constant": true
    },
    {
      "inputs": [
        {
          "internalType": "uint256",
          "name": "tokenId",
          "type": "uint256"
        }
      ],
      "name": "ownerOf",
      "outputs": [
        {
          "internalType": "address",
          "name": "",
          "type": "address"
        }
      ],
      "stateMutability": "view",
      "type": "function",
      "constant": true
    },
    {
      "inputs": [],
      "name": "renounceOwnership",
      "outputs": [],
      "stateMutability": "nonpayable",
      "type": "function"
    },
    {
      "inputs": [
        {
          "internalType": "address",
          "name": "operator",
          "type": "address"
        },
        {
          "internalType": "bool",
          "name": "approved",
          "type": "bool"
        }
      ],
      "name": "setApprovalForAll",
      "outputs": [],
      "stateMutability": "nonpayable",
      "type": "function"
    },
    {
      "inputs": [
        {
          "internalType": "bytes4",
          "name": "interfaceId",
          "type": "bytes4"
        }
      ],
      "name": "supportsInterface",
      "outputs": [
        {
          "internalType": "bool",
          "name": "",
          "type": "bool"
        }
      ],
      "stateMutability": "view",
      "type": "function",
      "constant": true
    },
    {
      "inputs": [],
      "name": "symbol",
      "outputs": [
        {
          "internalType": "string",
          "name": "",
          "type": "string"
        }
      ],
      "stateMutability": "view",
      "type": "function",
      "constant": true
    },
    {
      "inputs": [
        {
          "internalType": "uint256",
          "name": "tokenId",
          "type": "uint256"
        }
      ],
      "name": "tokenURI",
      "outputs": [
        {
          "internalType": "string",
          "name": "",
          "type": "string"
        }
      ],
      "stateMutability": "view",
      "type": "function",
      "constant": true
    },
    {
      "inputs": [
        {
          "internalType": "address",
          "name": "newOwner",
          "type": "address"
        }
      ],
      "name": "transferOwnership",
      "outputs": [],
      "stateMutability": "nonpayable",
      "type": "function"
    },
    {
      "stateMutability": "payable",
      "type": "receive",
      "payable": true
    },
    {
      "inputs": [
        {
          "internalType": "string",
          "name": "_tokenURI",
          "type": "string"
        },
        {
          "internalType": "string",
          "name": "_vin",
          "type": "string"
        },
        {
          "internalType": "string",
          "name": "_brand",
          "type": "string"
        },
        {
          "internalType": "string",
          "name": "_model",
          "type": "string"
        },
        {
          "internalType": "string",
          "name": "_color",
          "type": "string"
        },
        {
          "internalType": "uint32",
          "name": "_power",
          "type": "uint32"
        },
        {
          "internalType": "string",
          "name": "_registrationCountry",
          "type": "string"
        },
        {
          "internalType": "uint32",
          "name": "_registrationDate",
          "type": "uint32"
        }
      ],
      "name": "mintCar",
      "outputs": [
        {
          "internalType": "uint256",
          "name": "",
          "type": "uint256"
        }
      ],
      "stateMutability": "nonpayable",
      "type": "function"
    },
    {
      "inputs": [
        {
          "internalType": "uint256",
          "name": "_tokenIds",
          "type": "uint256"
        }
      ],
      "name": "kycIsApproved",
      "outputs": [],
      "stateMutability": "nonpayable",
      "type": "function"
    },
    {
      "inputs": [
        {
          "internalType": "uint256",
          "name": "_tokenIds",
          "type": "uint256"
        }
      ],
      "name": "getCarNft",
      "outputs": [
        {
          "components": [
            {
              "internalType": "string",
              "name": "vin",
              "type": "string"
            },
            {
              "internalType": "string",
              "name": "brand",
              "type": "string"
            },
            {
              "internalType": "string",
              "name": "model",
              "type": "string"
            },
            {
              "internalType": "string",
              "name": "color",
              "type": "string"
            },
            {
              "internalType": "uint32",
              "name": "power",
              "type": "uint32"
            },
            {
              "internalType": "string",
              "name": "registrationCountry",
              "type": "string"
            },
            {
              "internalType": "uint32",
              "name": "registrationDate",
              "type": "uint32"
            },
            {
              "internalType": "string",
              "name": "linkDocument",
              "type": "string"
            },
            {
              "components": [
                {
                  "internalType": "bool",
                  "name": "isOnSale",
                  "type": "bool"
                },
                {
                  "internalType": "bool",
                  "name": "isDelegated",
                  "type": "bool"
                },
                {
                  "internalType": "bool",
                  "name": "isStolen",
                  "type": "bool"
                },
                {
                  "internalType": "bool",
                  "name": "isWaitingKyc",
                  "type": "bool"
                },
                {
                  "internalType": "bool",
                  "name": "isKycDone",
                  "type": "bool"
                },
                {
                  "internalType": "bool",
                  "name": "isScrapped",
                  "type": "bool"
                }
              ],
              "internalType": "struct BlockCar.Status",
              "name": "status",
              "type": "tuple"
            },
            {
              "components": [
                {
                  "internalType": "uint32",
                  "name": "mileage",
                  "type": "uint32"
                },
                {
                  "internalType": "uint32",
                  "name": "price",
                  "type": "uint32"
                },
                {
                  "internalType": "uint32",
                  "name": "localisation",
                  "type": "uint32"
                },
                {
                  "internalType": "string",
                  "name": "contactDetails",
                  "type": "string"
                }
              ],
              "internalType": "struct BlockCar.InfosForSale",
              "name": "infosForSale",
              "type": "tuple"
            }
          ],
          "internalType": "struct BlockCar.Car",
          "name": "",
          "type": "tuple"
        }
      ],
      "stateMutability": "view",
      "type": "function",
      "constant": true
    },
    {
      "inputs": [
        {
          "internalType": "uint256",
          "name": "_tokenIds",
          "type": "uint256"
        },
        {
          "internalType": "uint32",
          "name": "_mileage",
          "type": "uint32"
        },
        {
          "internalType": "uint32",
          "name": "_price",
          "type": "uint32"
        },
        {
          "internalType": "uint32",
          "name": "_localisation",
          "type": "uint32"
        },
        {
          "internalType": "string",
          "name": "_contactDetails",
          "type": "string"
        }
      ],
      "name": "carIsForSaleAndSetInformationsForSale",
      "outputs": [],
      "stateMutability": "nonpayable",
      "type": "function"
    },
    {
      "inputs": [
        {
          "internalType": "uint256",
          "name": "_tokenIds",
          "type": "uint256"
        }
      ],
      "name": "carIsStolen",
      "outputs": [],
      "stateMutability": "nonpayable",
      "type": "function"
    },
    {
      "inputs": [
        {
          "internalType": "uint256",
          "name": "_tokenIds",
          "type": "uint256"
        }
      ],
      "name": "carIsScrapped",
      "outputs": [],
      "stateMutability": "nonpayable",
      "type": "function"
    },
    {
      "inputs": [
        {
          "internalType": "uint256",
          "name": "_tokenIds",
          "type": "uint256"
        }
      ],
      "name": "reinitStatusForSelling",
      "outputs": [],
      "stateMutability": "nonpayable",
      "type": "function"
    },
    {
      "inputs": [
        {
          "internalType": "address",
          "name": "delegatorAddress",
          "type": "address"
        },
        {
          "internalType": "uint256",
          "name": "_tokenIds",
          "type": "uint256"
        }
      ],
      "name": "delegeteCar",
      "outputs": [],
      "stateMutability": "nonpayable",
      "type": "function"
    },
    {
      "inputs": [
        {
          "internalType": "uint256",
          "name": "_tokenIds",
          "type": "uint256"
        }
      ],
      "name": "stopDelegation",
      "outputs": [],
      "stateMutability": "nonpayable",
      "type": "function"
    },
    {
      "inputs": [
        {
          "internalType": "uint256",
          "name": "_tokenIds",
          "type": "uint256"
        }
      ],
      "name": "askKyc",
      "outputs": [],
      "stateMutability": "nonpayable",
      "type": "function"
    },
    {
      "inputs": [
        {
          "internalType": "address",
          "name": "from",
          "type": "address"
        },
        {
          "internalType": "address",
          "name": "to",
          "type": "address"
        },
        {
          "internalType": "uint256",
          "name": "tokenId",
          "type": "uint256"
        }
      ],
      "name": "transferFrom",
      "outputs": [],
      "stateMutability": "nonpayable",
      "type": "function"
    },
    {
      "inputs": [
        {
          "internalType": "address",
          "name": "from",
          "type": "address"
        },
        {
          "internalType": "address",
          "name": "to",
          "type": "address"
        },
        {
          "internalType": "uint256",
          "name": "tokenId",
          "type": "uint256"
        }
      ],
      "name": "safeTransferFrom",
      "outputs": [],
      "stateMutability": "nonpayable",
      "type": "function"
    },
    {
      "inputs": [
        {
          "internalType": "address",
          "name": "from",
          "type": "address"
        },
        {
          "internalType": "address",
          "name": "to",
          "type": "address"
        },
        {
          "internalType": "uint256",
          "name": "tokenId",
          "type": "uint256"
        },
        {
          "internalType": "bytes",
          "name": "data",
          "type": "bytes"
        }
      ],
      "name": "safeTransferFrom",
      "outputs": [],
      "stateMutability": "nonpayable",
      "type": "function"
    },
    {
      "inputs": [
        {
          "internalType": "uint256",
          "name": "_tokenIds",
          "type": "uint256"
        }
      ],
      "name": "sellNftAndTransferValueToOwner",
      "outputs": [],
      "stateMutability": "payable",
      "type": "function",
      "payable": true
    },
    {
      "inputs": [
        {
          "internalType": "uint256",
          "name": "_tokenIds",
          "type": "uint256"
        }
      ],
      "name": "sellNftAndTransferValueToOwnerAndDelegator",
      "outputs": [],
      "stateMutability": "payable",
      "type": "function",
      "payable": true
    },
    {
      "inputs": [],
      "name": "withdrawal",
      "outputs": [],
      "stateMutability": "nonpayable",
      "type": "function"
    }
  ],
  "bytecode": "0x60806040523480156200001157600080fd5b5060405180604001604052806008815260200167213637b1b5a1b0b960c11b81525060405180604001604052806003815260200162424c4360e81b81525081600090816200006091906200018d565b5060016200006f82826200018d565b5050506200008c620000866200009260201b60201c565b62000096565b62000259565b3390565b600780546001600160a01b038381166001600160a01b0319831681179093556040519116919082907f8be0079c531659141344cd1fd0a4f28419497f9722a3daafe3b4186f6b6457e090600090a35050565b634e487b7160e01b600052604160045260246000fd5b600181811c908216806200011357607f821691505b6020821081036200013457634e487b7160e01b600052602260045260246000fd5b50919050565b601f8211156200018857600081815260208120601f850160051c81016020861015620001635750805b601f850160051c820191505b8181101562000184578281556001016200016f565b5050505b505050565b81516001600160401b03811115620001a957620001a9620000e8565b620001c181620001ba8454620000fe565b846200013a565b602080601f831160018114620001f95760008415620001e05750858301515b600019600386901b1c1916600185901b17855562000184565b600085815260208120601f198616915b828110156200022a5788860151825594840194600190910190840162000209565b5085821015620002495787850151600019600388901b60f8161c191681555b5050505050600190811b01905550565b6139c780620002696000396000f3fe6080604052600436106101615760003560e01c806301ffc9a7146101b557806304fd79eb146101ea57806306fdde03146101ff578063081812fc14610221578063095ea7b31461024e578063138391cf1461026e57806317077f341461028e57806323b872dd146102ae5780632bb02add146102ce57806342842e0e146102ee5780635e99032c1461030e57806362232d601461033c5780636352211e1461035c57806370a082311461037c578063715018a61461039c578063843cdb25146103b15780638654ffae146103de5780638da5cb5b146103fe57806395d89b4114610413578063a22cb46514610428578063b1dcf54b14610448578063b7e388741461045b578063b88d4fde1461047b578063c87b56dd1461049b578063d3ee4b1f146104bb578063d4e93292146104db578063dd797530146104f0578063e4003a8b14610510578063e985e9c514610530578063f2fde38b146105505761018d565b3661018d57600080516020613972833981519152336040516101839190612d43565b60405180910390a1005b361561019857600080fd5b600080516020613972833981519152336040516101839190612d43565b3480156101c157600080fd5b506101d56101d0366004612d6d565b610570565b60405190151581526020015b60405180910390f35b6101fd6101f8366004612d8a565b6105c2565b005b34801561020b57600080fd5b50610214610711565b6040516101e19190612df3565b34801561022d57600080fd5b5061024161023c366004612d8a565b6107a3565b6040516101e19190612d43565b34801561025a57600080fd5b506101fd610269366004612e22565b6107ca565b34801561027a57600080fd5b506101fd610289366004612d8a565b6108df565b34801561029a57600080fd5b506101fd6102a9366004612d8a565b6109a6565b3480156102ba57600080fd5b506101fd6102c9366004612e4c565b610a9d565b3480156102da57600080fd5b506101fd6102e9366004612d8a565b610ab3565b3480156102fa57600080fd5b506101fd610309366004612e4c565b610bb9565b34801561031a57600080fd5b5061032e610329366004612e22565b610bd4565b6040519081526020016101e1565b34801561034857600080fd5b5061032e610357366004612f47565b610c05565b34801561036857600080fd5b50610241610377366004612d8a565b6111fd565b34801561038857600080fd5b5061032e61039736600461305e565b611231565b3480156103a857600080fd5b506101fd6112b7565b3480156103bd57600080fd5b506103d16103cc366004612d8a565b6112cb565b6040516101e191906130b8565b3480156103ea57600080fd5b506101fd6103f9366004612e22565b6117f5565b34801561040a57600080fd5b506102416118db565b34801561041f57600080fd5b506102146118ea565b34801561043457600080fd5b506101fd610443366004613217565b6118f9565b6101fd610456366004612d8a565b611908565b34801561046757600080fd5b506101fd610476366004613253565b6119a2565b34801561048757600080fd5b506101fd6104963660046132ff565b611b55565b3480156104a757600080fd5b506102146104b6366004612d8a565b611b6c565b3480156104c757600080fd5b506101fd6104d6366004612d8a565b611c7c565b3480156104e757600080fd5b506101fd611d64565b3480156104fc57600080fd5b506101fd61050b366004612d8a565b611e34565b34801561051c57600080fd5b506101fd61052b366004612d8a565b611f1b565b34801561053c57600080fd5b506101d561054b36600461337a565b61208b565b34801561055c57600080fd5b506101fd61056b36600461305e565b6120b9565b60006001600160e01b031982166380ac58cd60e01b14806105a157506001600160e01b03198216635b5e139f60e01b145b806105bc57506301ffc9a760e01b6001600160e01b03198316145b92915050565b6000600a6105d13460096133ad565b6105db91906133d2565b905060006105ea600a346133d2565b905060006105f7846111fd565b90506000610604856107a3565b9050610619610612866111fd565b3387610bb9565b6000826001600160a01b03168560405160006040518083038185875af1925050503d8060008114610666576040519150601f19603f3d011682016040523d82523d6000602084013e61066b565b606091505b50509050806106955760405162461bcd60e51b815260040161068c906133f4565b60405180910390fd5b6000826001600160a01b03168560405160006040518083038185875af1925050503d80600081146106e2576040519150601f19603f3d011682016040523d82523d6000602084013e6106e7565b606091505b50509050806107085760405162461bcd60e51b815260040161068c906133f4565b50505050505050565b60606000805461072090613422565b80601f016020809104026020016040519081016040528092919081815260200182805461074c90613422565b80156107995780601f1061076e57610100808354040283529160200191610799565b820191906000526020600020905b81548152906001019060200180831161077c57829003601f168201915b5050505050905090565b60006107ae8261212f565b506000908152600460205260409020546001600160a01b031690565b60006107d5826111fd565b9050806001600160a01b0316836001600160a01b0316036108425760405162461bcd60e51b815260206004820152602160248201527f4552433732313a20617070726f76616c20746f2063757272656e74206f776e656044820152603960f91b606482015260840161068c565b336001600160a01b038216148061085e575061085e813361208b565b6108d05760405162461bcd60e51b815260206004820152603d60248201527f4552433732313a20617070726f76652063616c6c6572206973206e6f7420746f60448201527f6b656e206f776e6572206f7220617070726f76656420666f7220616c6c000000606482015260840161068c565b6108da8383612154565b505050565b6108e76121c2565b600081815260096020526040902060080154600160201b900460ff16156109465760405162461bcd60e51b81526020600482015260136024820152724b594320697320616c726561647920646f6e6560681b604482015260640161068c565b60008181526009602052604090819020600801805464ffff0000001916600160201b179055517fb4293506fd0891b482e7ab2fdd3324ba5140637e19b16e1500b0c9e10007912c9061099b9083815260200190565b60405180910390a150565b80336109b1826111fd565b6001600160a01b031614806109fd5750336109cb826107a3565b6001600160a01b03161480156109fd575060008181526009602052604090206008015460ff6101009091041615156001145b610a195760405162461bcd60e51b815260040161068c9061345c565b600854811115610a3b5760405162461bcd60e51b815260040161068c9061348c565b60008281526009602052604090819020600801805465ff00000000ff1916600160281b179055517fb96055dc390556bfafab4e01280bb37f129238dfdf4f5ce86cb8254a296a5fcd90610a9190339085906134bf565b60405180910390a15050565b610aa8838383612221565b6108da838383612336565b8033610abe826111fd565b6001600160a01b031614610ae45760405162461bcd60e51b815260040161068c906134d8565b600854811115610b065760405162461bcd60e51b815260040161068c9061348c565b60008281526009602052604090206008015460ff610100909104161515600114610b6d5760405162461bcd60e51b8152602060048201526018602482015277151a1948139195081a5cc81b9bdd0819195b1959d85d195960421b604482015260640161068c565b60008281526009602052604090819020600801805461ff0019169055517fad49dd00456a9f6e9ce6a3ba7797224fd1b1aac7ee2fe01bdf250b1a41f3323e90610a9190339085906134bf565b6108da83838360405180602001604052806000815250611b55565b600a6020528160005260406000208181548110610bf057600080fd5b90600052602060002001600091509150505481565b600033610c465760405162461bcd60e51b815260206004820152600f60248201526e496e76616c6964206164647265737360881b604482015260640161068c565b6000895111610c8b5760405162461bcd60e51b8152602060048201526011602482015270496e76616c696420746f6b656e2055524960781b604482015260640161068c565b6000885111610cca5760405162461bcd60e51b815260206004820152600b60248201526a24b73b30b634b2102b24a760a91b604482015260640161068c565b6000875111610d0b5760405162461bcd60e51b815260206004820152600d60248201526c125b9d985b1a5908189c985b99609a1b604482015260640161068c565b6000865111610d4d5760405162461bcd60e51b815260206004820152600e60248201526d125b9d985b1a59081b5bd90c195b60921b604482015260640161068c565b6000855111610d6e5760405162461bcd60e51b815260040161068c90613507565b60008463ffffffff1611610db45760405162461bcd60e51b815260206004820152600d60248201526c24b73b30b634b2103837bbb2b960991b604482015260640161068c565b6000835111610e045760405162461bcd60e51b815260206004820152601c60248201527b496e76616c696420726567697374726174696f6e20636f756e74727960201b604482015260640161068c565b60008263ffffffff1611610e565760405162461bcd60e51b8152602060048201526019602482015278496e76616c696420726567697374726174696f6e206461746560381b604482015260640161068c565b610e64600880546001019055565b6000610e6f60085490565b9050610e7b3382612488565b610e85818b612583565b600a6000336001600160a01b03166001600160a01b0316815260200190815260200160002081908060018154018082558091505060019003906000526020600020016000909190919091505560006040518060c0016040528060001515815260200160001515815260200160001515815260200160001515815260200160001515815260200160001515815250905060006040518060800160405280600063ffffffff168152602001600063ffffffff168152602001600063ffffffff16815260200160405180602001604052806000815250815250905060006040518061014001604052808d81526020018c81526020018b81526020018a81526020018963ffffffff1681526020018881526020018763ffffffff16815260200160405180602001604052806000815250815260200184815260200183815250905080600960008681526020019081526020016000206000820151816000019081610feb9190613591565b50602082015160018201906110009082613591565b50604082015160028201906110159082613591565b506060820151600382019061102a9082613591565b50608082015160048201805463ffffffff191663ffffffff90921691909117905560a0820151600582019061105f9082613591565b5060c082015160068201805463ffffffff191663ffffffff90921691909117905560e082015160078201906110949082613591565b5061010082810151805160088401805460208085015160408087015160608089015160808a015160a0909a015161ffff1990971698151561ff001916989098179315159099029290921763ffff00001916620100009215159290920263ff0000001916919091176301000000951515959095029490941761ffff60201b1916600160201b951515860260ff60281b191617600160281b92151592909202919091179091556101208601518051600987018054938301519483015163ffffffff9283166001600160401b0319909516949094179482169095029390931763ffffffff60401b1916600160401b939092169290920217825591820151600a84019061119d9082613591565b5050509050507f9d9e037da80b359004ae7c185bb38ec26e586e28db82390fd43ec2664e105868338e868f8f8f8f8f8f8f6040516111e49a9998979695949392919061364a565b60405180910390a150919b9a5050505050505050505050565b60008061120983612607565b90506001600160a01b0381166105bc5760405162461bcd60e51b815260040161068c90613703565b60006001600160a01b03821661129b5760405162461bcd60e51b815260206004820152602960248201527f4552433732313a2061646472657373207a65726f206973206e6f7420612076616044820152683634b21037bbb732b960b91b606482015260840161068c565b506001600160a01b031660009081526003602052604090205490565b6112bf6121c2565b6112c96000612622565b565b6112d3612c85565b6008548211156112f55760405162461bcd60e51b815260040161068c9061348c565b600082815260096020526040908190208151610140810190925280548290829061131e90613422565b80601f016020809104026020016040519081016040528092919081815260200182805461134a90613422565b80156113975780601f1061136c57610100808354040283529160200191611397565b820191906000526020600020905b81548152906001019060200180831161137a57829003601f168201915b505050505081526020016001820180546113b090613422565b80601f01602080910402602001604051908101604052809291908181526020018280546113dc90613422565b80156114295780601f106113fe57610100808354040283529160200191611429565b820191906000526020600020905b81548152906001019060200180831161140c57829003601f168201915b5050505050815260200160028201805461144290613422565b80601f016020809104026020016040519081016040528092919081815260200182805461146e90613422565b80156114bb5780601f10611490576101008083540402835291602001916114bb565b820191906000526020600020905b81548152906001019060200180831161149e57829003601f168201915b505050505081526020016003820180546114d490613422565b80601f016020809104026020016040519081016040528092919081815260200182805461150090613422565b801561154d5780601f106115225761010080835404028352916020019161154d565b820191906000526020600020905b81548152906001019060200180831161153057829003601f168201915b5050509183525050600482015463ffffffff16602082015260058201805460409092019161157a90613422565b80601f01602080910402602001604051908101604052809291908181526020018280546115a690613422565b80156115f35780601f106115c8576101008083540402835291602001916115f3565b820191906000526020600020905b8154815290600101906020018083116115d657829003601f168201915b5050509183525050600682015463ffffffff16602082015260078201805460409092019161162090613422565b80601f016020809104026020016040519081016040528092919081815260200182805461164c90613422565b80156116995780601f1061166e57610100808354040283529160200191611699565b820191906000526020600020905b81548152906001019060200180831161167c57829003601f168201915b50505091835250506040805160c081018252600884015460ff8082161515835261010082048116151560208481019190915262010000830482161515848601526301000000830482161515606080860191909152600160201b80850484161515608080880191909152600160281b909504909316151560a0860152818701949094528451928301855260098701805463ffffffff8082168652938104841692850192909252600160401b90910490911682850152600a860180549490950194919390928401919061176990613422565b80601f016020809104026020016040519081016040528092919081815260200182805461179590613422565b80156117e25780601f106117b7576101008083540402835291602001916117e2565b820191906000526020600020905b8154815290600101906020018083116117c557829003601f168201915b5050509190925250505090525092915050565b8033611800826111fd565b6001600160a01b0316146118265760405162461bcd60e51b815260040161068c906134d8565b6008548111156118485760405162461bcd60e51b815260040161068c9061348c565b600082815260096020526040902060080154600160201b900460ff1615156001146118af5760405162461bcd60e51b8152602060048201526017602482015276151a194812d650c81a5cc81b9bdd08185c1c1c9bdd9959604a1b604482015260640161068c565b6118b983836107ca565b506000908152600960205260409020600801805461ff00191661010017905550565b6007546001600160a01b031690565b60606001805461072090613422565b611904338383612674565b5050565b346000611914836111fd565b9050611929611922846111fd565b3385610bb9565b6000816001600160a01b03168360405160006040518083038185875af1925050503d8060008114611976576040519150601f19603f3d011682016040523d82523d6000602084013e61197b565b606091505b505090508061199c5760405162461bcd60e51b815260040161068c906133f4565b50505050565b85336119ad826111fd565b6001600160a01b031614806119f95750336119c7826107a3565b6001600160a01b03161480156119f9575060008181526009602052604090206008015460ff6101009091041615156001145b611a155760405162461bcd60e51b815260040161068c9061345c565b600854811115611a375760405162461bcd60e51b815260040161068c9061348c565b60008663ffffffff1611611a845760405162461bcd60e51b81526020600482015260146024820152730546865206d696c656167652063616e20626520360641b604482015260640161068c565b60008563ffffffff1611611ace5760405162461bcd60e51b81526020600482015260116024820152705468657265206973206e6f20707269636560781b604482015260640161068c565b60008463ffffffff1611611b215760405162461bcd60e51b815260206004820152601a602482015279151a19481c1bddd95c881a5cc81b9bdd081a5b991a58d85d195960321b604482015260640161068c565b81611b3e5760405162461bcd60e51b815260040161068c90613507565b611b478761273e565b610708878787878787612821565b611b60848484612221565b61199c84848484612958565b6060611b778261212f565b60008281526006602052604081208054611b9090613422565b80601f0160208091040260200160405190810160405280929190818152602001828054611bbc90613422565b8015611c095780601f10611bde57610100808354040283529160200191611c09565b820191906000526020600020905b815481529060010190602001808311611bec57829003601f168201915b505050505090506000611c2760408051602081019091526000815290565b90508051600003611c39575092915050565b815115611c6b578082604051602001611c53929190613735565b60405160208183030381529060405292505050919050565b611c748461298b565b949350505050565b8033611c87826111fd565b6001600160a01b03161480611cd3575033611ca1826107a3565b6001600160a01b0316148015611cd3575060008181526009602052604090206008015460ff6101009091041615156001145b611cef5760405162461bcd60e51b815260040161068c9061345c565b600854811115611d115760405162461bcd60e51b815260040161068c9061348c565b60008281526009602052604090819020600801805465ff0000ff00ff19166001179055517f42de0c82dcee68944531d0808772e3ecdb27934b4ca5e911f5d3aa5f84f8051c90610a9190339085906134bf565b611d6c6121c2565b6001471015611dc95760405162461bcd60e51b815260206004820152602360248201527f596f75206e656564206174206c6561737420312045544820746f20776974686460448201526272617760e81b606482015260840161068c565b604051600090339047908381818185875af1925050503d8060008114611e0b576040519150601f19603f3d011682016040523d82523d6000602084013e611e10565b606091505b5050905080611e315760405162461bcd60e51b815260040161068c906133f4565b50565b8033611e3f826111fd565b6001600160a01b03161480611e8b575033611e59826107a3565b6001600160a01b0316148015611e8b575060008181526009602052604090206008015460ff6101009091041615156001145b611ea75760405162461bcd60e51b815260040161068c9061345c565b600854811115611ec95760405162461bcd60e51b815260040161068c9061348c565b60008281526009602052604090819020600801805462ff00ff191662010000179055517f60e8a429222a855335f96447eb29a2ad534c03839cee40535bae9e8b90c35fa490610a9190339085906134bf565b8033611f26826111fd565b6001600160a01b031614611f4c5760405162461bcd60e51b815260040161068c906134d8565b600854811115611f6e5760405162461bcd60e51b815260040161068c9061348c565b600082815260096020526040902060080154600160201b900460ff161515600114611fcd5760405162461bcd60e51b815260206004820152600f60248201526e546865204b594320697320646f6e6560881b604482015260640161068c565b6000828152600960205260409020600801546301000000900460ff1615156001146120375760405162461bcd60e51b815260206004820152601a602482015279546865204b594320697320616c72656164792077616974696e6760301b604482015260640161068c565b60008281526009602052604090819020600801805463ff00000019166301000000179055517f37c9295f2badb14d8e2d0c130c195c55982826812bed878e9fa0c3bd804d005190610a9190339085906134bf565b6001600160a01b03918216600090815260056020908152604080832093909416825291909152205460ff1690565b6120c16121c2565b6001600160a01b0381166121265760405162461bcd60e51b815260206004820152602660248201527f4f776e61626c653a206e6577206f776e657220697320746865207a65726f206160448201526564647265737360d01b606482015260840161068c565b611e3181612622565b612138816129ff565b611e315760405162461bcd60e51b815260040161068c90613703565b600081815260046020526040902080546001600160a01b0319166001600160a01b0384169081179091558190612189826111fd565b6001600160a01b03167f8c5be1e5ebec7d5bd14f71427d1e84f3dd0314c0f7b2291e5b200ac8c7c3b92560405160405180910390a45050565b336121cb6118db565b6001600160a01b0316146112c95760405162461bcd60e51b815260206004820181905260248201527f4f776e61626c653a2063616c6c6572206973206e6f7420746865206f776e6572604482015260640161068c565b803361222c826111fd565b6001600160a01b03161480612278575033612246826107a3565b6001600160a01b0316148015612278575060008181526009602052604090206008015460ff6101009091041615156001145b6122945760405162461bcd60e51b815260040161068c9061345c565b6008548111156122b65760405162461bcd60e51b815260040161068c9061348c565b6000828152600960209081526040808320600801805464ff0000ffff191690556001600160a01b0387168352600a90915290208054839081106122fb576122fb613764565b600091825260208083209091018290556001600160a01b039094168152600a8452604081208054600181018255908252939020909201555050565b826001600160a01b0316612349826111fd565b6001600160a01b03161461236f5760405162461bcd60e51b815260040161068c9061377a565b6001600160a01b0382166123d15760405162461bcd60e51b8152602060048201526024808201527f4552433732313a207472616e7366657220746f20746865207a65726f206164646044820152637265737360e01b606482015260840161068c565b826001600160a01b03166123e4826111fd565b6001600160a01b03161461240a5760405162461bcd60e51b815260040161068c9061377a565b600081815260046020908152604080832080546001600160a01b03199081169091556001600160a01b03878116808652600385528386208054600019019055908716808652838620805460010190558686526002909452828520805490921684179091559051849360008051602061395283398151915291a4505050565b6001600160a01b0382166124de5760405162461bcd60e51b815260206004820181905260248201527f4552433732313a206d696e7420746f20746865207a65726f2061646472657373604482015260640161068c565b6124e7816129ff565b156125045760405162461bcd60e51b815260040161068c906137bf565b61250d816129ff565b1561252a5760405162461bcd60e51b815260040161068c906137bf565b6001600160a01b038216600081815260036020908152604080832080546001019055848352600290915280822080546001600160a01b031916841790555183929190600080516020613952833981519152908290a45050565b61258c826129ff565b6125ef5760405162461bcd60e51b815260206004820152602e60248201527f45524337323155524953746f726167653a2055524920736574206f66206e6f6e60448201526d32bc34b9ba32b73a103a37b5b2b760911b606482015260840161068c565b60008281526006602052604090206108da8282613591565b6000908152600260205260409020546001600160a01b031690565b600780546001600160a01b038381166001600160a01b0319831681179093556040519116919082907f8be0079c531659141344cd1fd0a4f28419497f9722a3daafe3b4186f6b6457e090600090a35050565b816001600160a01b0316836001600160a01b0316036126d15760405162461bcd60e51b815260206004820152601960248201527822a9219b99189d1030b8383937bb32903a379031b0b63632b960391b604482015260640161068c565b6001600160a01b03838116600081815260056020908152604080832094871680845294825291829020805460ff191686151590811790915591519182527f17307eab39ab6107e8899845ad3d59bd9653f200f220920489ca2b5937696c31910160405180910390a3505050565b8033612749826111fd565b6001600160a01b03161480612795575033612763826107a3565b6001600160a01b0316148015612795575060008181526009602052604090206008015460ff6101009091041615156001145b6127b15760405162461bcd60e51b815260040161068c9061345c565b6008548111156127d35760405162461bcd60e51b815260040161068c9061348c565b60008281526009602052604090819020600801805460ff19166001179055517f3430d398933c226727007f56eff4241254cdc4b3f2301b0fb5d396795bd5e6a090610a9190339085906134bf565b853361282c826111fd565b6001600160a01b03161480612878575033612846826107a3565b6001600160a01b0316148015612878575060008181526009602052604090206008015460ff6101009091041615156001145b6128945760405162461bcd60e51b815260040161068c9061345c565b6008548111156128b65760405162461bcd60e51b815260040161068c9061348c565b6000878152600960208190526040909120908101805463ffffffff878116600160401b0263ffffffff60401b198a8316600160201b026001600160401b0319909416928c16929092179290921716179055600a016129158385836137f5565b507fd8a68757b0f1a481cde06cf48ee7ea1ccd5d4cf3a737c3aedda4c26e86a5081c33886040516129479291906134bf565b60405180910390a150505050505050565b612963848484612336565b61296f84848484612a1c565b61199c5760405162461bcd60e51b815260040161068c906138af565b60606129968261212f565b60006129ad60408051602081019091526000815290565b905060008151116129cd57604051806020016040528060008152506129f8565b806129d784612b1d565b6040516020016129e8929190613735565b6040516020818303038152906040525b9392505050565b600080612a0b83612607565b6001600160a01b0316141592915050565b60006001600160a01b0384163b15612b1257604051630a85bd0160e11b81526001600160a01b0385169063150b7a0290612a60903390899088908890600401613901565b6020604051808303816000875af1925050508015612a9b575060408051601f3d908101601f19168201909252612a9891810190613934565b60015b612af8573d808015612ac9576040519150601f19603f3d011682016040523d82523d6000602084013e612ace565b606091505b508051600003612af05760405162461bcd60e51b815260040161068c906138af565b805181602001fd5b6001600160e01b031916630a85bd0160e11b149050611c74565b506001949350505050565b60606000612b2a83612baf565b60010190506000816001600160401b03811115612b4957612b49612e88565b6040519080825280601f01601f191660200182016040528015612b73576020820181803683370190505b5090508181016020015b600019016f181899199a1a9b1b9c1cb0b131b232b360811b600a86061a8153600a8504945084612b7d57509392505050565b60008072184f03e93ff9f4daa797ed6e38ed64bf6a1f0160401b8310612bee5772184f03e93ff9f4daa797ed6e38ed64bf6a1f0160401b830492506040015b6904ee2d6d415b85acef8160201b8310612c18576904ee2d6d415b85acef8160201b830492506020015b662386f26fc100008310612c3657662386f26fc10000830492506010015b6305f5e1008310612c4e576305f5e100830492506008015b6127108310612c6257612710830492506004015b60648310612c74576064830492506002015b600a83106105bc5760010192915050565b60405180610140016040528060608152602001606081526020016060815260200160608152602001600063ffffffff16815260200160608152602001600063ffffffff16815260200160608152602001612d1a6040518060c001604052806000151581526020016000151581526020016000151581526020016000151581526020016000151581526020016000151581525090565b815260408051608081018252600080825260208281018290529282015260608082015291015290565b6001600160a01b0391909116815260200190565b6001600160e01b031981168114611e3157600080fd5b600060208284031215612d7f57600080fd5b81356129f881612d57565b600060208284031215612d9c57600080fd5b5035919050565b60005b83811015612dbe578181015183820152602001612da6565b50506000910152565b60008151808452612ddf816020860160208601612da3565b601f01601f19169290920160200192915050565b6020815260006129f86020830184612dc7565b80356001600160a01b0381168114612e1d57600080fd5b919050565b60008060408385031215612e3557600080fd5b612e3e83612e06565b946020939093013593505050565b600080600060608486031215612e6157600080fd5b612e6a84612e06565b9250612e7860208501612e06565b9150604084013590509250925092565b634e487b7160e01b600052604160045260246000fd5b60006001600160401b0380841115612eb857612eb8612e88565b604051601f8501601f19908116603f01168101908282118183101715612ee057612ee0612e88565b81604052809350858152868686011115612ef957600080fd5b858560208301376000602087830101525050509392505050565b600082601f830112612f2457600080fd5b6129f883833560208501612e9e565b803563ffffffff81168114612e1d57600080fd5b600080600080600080600080610100898b031215612f6457600080fd5b88356001600160401b0380821115612f7b57600080fd5b612f878c838d01612f13565b995060208b0135915080821115612f9d57600080fd5b612fa98c838d01612f13565b985060408b0135915080821115612fbf57600080fd5b612fcb8c838d01612f13565b975060608b0135915080821115612fe157600080fd5b612fed8c838d01612f13565b965060808b013591508082111561300357600080fd5b61300f8c838d01612f13565b955061301d60a08c01612f33565b945060c08b013591508082111561303357600080fd5b506130408b828c01612f13565b92505061304f60e08a01612f33565b90509295985092959890939650565b60006020828403121561307057600080fd5b6129f882612e06565b600063ffffffff80835116845280602084015116602085015280604084015116604085015250606082015160806060850152611c746080850182612dc7565b60208152600082516101e08060208501526130d7610200850183612dc7565b91506020850151601f19808685030160408701526130f58483612dc7565b935060408701519150808685030160608701526131128483612dc7565b9350606087015191508086850301608087015261312f8483612dc7565b93506080870151915061314a60a087018363ffffffff169052565b60a08701519150808685030160c08701526131658483612dc7565b935060c0870151915061318060e087018363ffffffff169052565b60e0870151915061010081878603018188015261319d8584612dc7565b908801518051151561012089810191909152602082015115156101408a0152604082015115156101608a0152606082015115156101808a0152608082015115156101a08a015260a09091015115156101c089015288015187820392909201848801529350905061320d8382613079565b9695505050505050565b6000806040838503121561322a57600080fd5b61323383612e06565b91506020830135801515811461324857600080fd5b809150509250929050565b60008060008060008060a0878903121561326c57600080fd5b8635955061327c60208801612f33565b945061328a60408801612f33565b935061329860608801612f33565b925060808701356001600160401b03808211156132b457600080fd5b818901915089601f8301126132c857600080fd5b8135818111156132d757600080fd5b8a60208285010111156132e957600080fd5b6020830194508093505050509295509295509295565b6000806000806080858703121561331557600080fd5b61331e85612e06565b935061332c60208601612e06565b92506040850135915060608501356001600160401b0381111561334e57600080fd5b8501601f8101871361335f57600080fd5b61336e87823560208401612e9e565b91505092959194509250565b6000806040838503121561338d57600080fd5b61339683612e06565b91506133a460208401612e06565b90509250929050565b80820281158282048414176105bc57634e487b7160e01b600052601160045260246000fd5b6000826133ef57634e487b7160e01b600052601260045260246000fd5b500490565b6020808252601490820152737472616e73666572206469646e277420776f726b60601b604082015260600190565b600181811c9082168061343657607f821691505b60208210810361345657634e487b7160e01b600052602260045260246000fd5b50919050565b602080825260169082015275165bdd48185c99481b9bdd08185d5d1a1bdc9a5e995960521b604082015260600190565b602080825260199082015278151a1948139195081a59081a5cc81b9bdd0818dbdc9c9958dd603a1b604082015260600190565b6001600160a01b03929092168252602082015260400190565b6020808252601590820152742cb7ba9030b932903737ba103a34329037bbb732b960591b604082015260600190565b6020808252600d908201526c24b73b30b634b21031b7b637b960991b604082015260600190565b601f8211156108da57600081815260208120601f850160051c810160208610156135555750805b601f850160051c820191505b8181101561357457828155600101613561565b505050505050565b600019600383901b1c191660019190911b1790565b81516001600160401b038111156135aa576135aa612e88565b6135be816135b88454613422565b8461352e565b602080601f8311600181146135ed57600084156135db5750858301515b6135e5858261357c565b865550613574565b600085815260208120601f198616915b8281101561361c578886015182559484019460019091019084016135fd565b508582101561363a5787850151600019600388901b60f8161c191681555b5050505050600190811b01905550565b6001600160a01b038b1681526101406020820181905260009061366f8382018d612dc7565b90508a60408401528281036060840152613689818b612dc7565b9050828103608084015261369d818a612dc7565b905082810360a08401526136b18189612dc7565b905082810360c08401526136c58188612dc7565b905063ffffffff80871660e08501528382036101008501526136e78287612dc7565b925080851661012085015250509b9a5050505050505050505050565b602080825260189082015277115490cdcc8c4e881a5b9d985b1a59081d1bdad95b88125160421b604082015260600190565b60008351613747818460208801612da3565b83519083019061375b818360208801612da3565b01949350505050565b634e487b7160e01b600052603260045260246000fd5b60208082526025908201527f4552433732313a207472616e736665722066726f6d20696e636f72726563742060408201526437bbb732b960d91b606082015260800190565b6020808252601c908201527b115490cdcc8c4e881d1bdad95b88185b1c9958591e481b5a5b9d195960221b604082015260600190565b6001600160401b0383111561380c5761380c612e88565b6138208361381a8354613422565b8361352e565b6000601f84116001811461384e576000851561383c5750838201355b613846868261357c565b8455506138a8565b600083815260209020601f19861690835b8281101561387f578685013582556020948501946001909201910161385f565b508682101561389c5760001960f88860031b161c19848701351681555b505060018560011b0183555b5050505050565b60208082526032908201527f4552433732313a207472616e7366657220746f206e6f6e20455243373231526560408201527131b2b4bb32b91034b6b83632b6b2b73a32b960711b606082015260800190565b6001600160a01b038581168252841660208201526040810183905260806060820181905260009061320d90830184612dc7565b60006020828403121561394657600080fd5b81516129f881612d5756feddf252ad1be2c89b69c2b068fc378daa952ba7f163c4a11628f55a4df523b3ef15382559391789f1865e10e9c8b51327a9cb0381eae89973ada229e7a78c08f3a264697066735822122002574c98db87efb57c8de6c456ab6877c0a01f674d34c4216998331871b78aa964736f6c63430008120033",
  "immutableReferences": {},
  "source": "// SPDX-License-Identifier: MIT\npragma solidity 0.8.18;\n\nimport \"@openzeppelin/contracts/token/ERC721/ERC721.sol\";\nimport \"@openzeppelin/contracts/token/ERC721/extensions/ERC721URIStorage.sol\";\nimport \"@openzeppelin/contracts/utils/Counters.sol\";\nimport \"@openzeppelin/contracts/access/Ownable.sol\";\n//import \"./BlockCarLib.sol\";\n\n\n/**\n * @title BlockCar\n * @author Germain Winckel\n * @notice The blockCar contract code\n * @dev The blockCar contract code\n */\ncontract BlockCar is ERC721URIStorage, Ownable {\n    /**\n    * @dev The counter from the openzeppelin contract Counters.sol\n    */\n    using Counters for Counters.Counter;\n    Counters.Counter private tokenIds;\n\n    /**\n    * @dev The Status of each NFT, this struct is in the Car struct. When mint, all values are false\n    */\n    struct Status {\n        bool isOnSale;\n        bool isDelegated;\n        bool isStolen;\n        bool isWaitingKyc;\n        bool isKycDone;\n        bool isScrapped;\n    }\n\n    /**\n    * @dev Others informations we need for sell the car\n    */\n    struct InfosForSale {\n      \tuint32 mileage;\n      \tuint32 price;\n      \tuint32 localisation;\n      \tstring contactDetails;\n    }\n\n    /**\n    * @dev A complex type that all the statics informations of a NFT. \n\t* linkDocument contains all the link to the differents documents, the separtoir is ;\n    */\n\tstruct Car{\n\t\tstring vin;\n\t\tstring brand;\n\t\tstring model;\n      \tstring color;\n      \tuint32 power; //kw\n      \tstring registrationCountry;\n      \tuint32 registrationDate;    // dd/mm/yyyy\n      \tstring linkDocument;        //only value which can change\n      \tStatus status;\n        InfosForSale infosForSale;\n\t}\n    \n\t/// @dev Mapping the NFT ID with the car informations\n    mapping(uint256 => Car) nftCarInfos;\n\n    /// @dev Mapping the NFT ID with informations for sale\n    mapping(address => uint256[]) public nftIdAndOwner;  \n\n    /// @dev Mapping the NFT ID with informations for sale\n    //mapping(uint256 => address) delegatorList;\n\n\t/// @dev An event when a user did the KYC for a car\n    event KycIsDone (uint256 nftId);\n\n    /// @dev An event when a user did is waiting for the KYC\n    event KycIsWaiting (address _address, uint256 nftId);\n\t\n\t/// @dev An event that registers when a user did the KYC for a car\n    event Minted (address userAddress, string tokenURI, uint256 nftId, string vin, string brand, string model, string color, uint32 power, string registrationCountry, uint32 registrationDate);\n\n    /// @dev An event when a car is for sale\n    event CarForSale (address _address, uint256 nftId);\n\n    /// @dev An event when a the car sell is delegated          // not sure we need this event\n    //event CarIsDelegated (address _addressOwner, address delegatedAddress, uint256 nftId);\n\n    /// @dev An event when a the car sell saled                 // not sure we need this event\n    //event CarIsSaled (address _oldAddressOwner, address _newAddressOwner, uint256 nftId);\n\n    /// @dev An event when the car is Scrapped\n    event CarIsScrapped (address _address, uint256 nftId);\n\n    /// @dev An event when the car is Stolen\n    event CarIsStolen (address _address, uint256 nftId);\n\n    /// @dev An event when the car informations are updated for sale\n    event CarInfosIsUpdatedForSale (address _address, uint256 nftId);\n\n    /// @dev An event when the car informations are updated for sale\n    event CarStatusReinitForSale (address _address, uint256 nftId);\n\n    /// @dev An event when the car informations are updated for sale\n    event StopDelegation (address _address, uint256 nftId);\n\n    /// @dev An event when a deposit is received\n    event LogDepositReceived (address _address);\n\n    constructor() ERC721 (\"BlockCar\", \"BLC\") {\n    }\n\n\t/**\n     * @dev To mint an NFT\n\t * @param _tokenURI : Link to jdon/image\n\t * @param _vin : Vehicle Identification Number\n\t * @param _brand : Brand of the car\n\t * @param _model : Model of the car\n\t * @param _color : color of the car\n\t * @param _power : Power of the car in Kw\n\t * @param _registrationCountry : Reistration country\n\t * @param _registrationDate : Regisytration date in ddmmyyyy\n     * @return newItemId mThe Id of the NFT \n     */\n    function mintCar(string memory _tokenURI, string memory _vin, string memory _brand, string memory _model, string memory _color, uint32 _power, string memory _registrationCountry, uint32 _registrationDate) public returns (uint256) {\n        require(msg.sender != address(0), \"Invalid address\");\n        require(bytes(_tokenURI).length > 0, \"Invalid token URI\");\n        require(bytes(_vin).length > 0, \"Invalid VIN\");\n        require(bytes(_brand).length > 0, \"Invalid brand\");\n        require(bytes(_model).length > 0, \"Invalid mod0el\");\n        require(bytes(_color).length > 0, \"Invalid color\");\n        require(_power > 0, \"Invalid power\");\n        require(bytes(_registrationCountry).length > 0, \"Invalid registration country\");\n        require(_registrationDate > 0, \"Invalid registration date\");\n\n        tokenIds.increment();\n        uint256 newItemId = tokenIds.current();\n        _mint(msg.sender, newItemId);\n        _setTokenURI(newItemId, _tokenURI);\n\n        nftIdAndOwner[msg.sender].push(newItemId);\n        \n        Status memory statusIni = Status(false,false,false,false,false,false);\n        InfosForSale memory infosForSaleIni = InfosForSale(0,0,0,\"\");\n\t\tCar memory car = Car(_vin, _brand, _model, _color, _power, _registrationCountry, _registrationDate, \"\",statusIni, infosForSaleIni);\n\t\tnftCarInfos[newItemId] = car;\n\t\temit Minted (msg.sender, _tokenURI, newItemId, _vin, _brand, _model, _color, _power, _registrationCountry, _registrationDate);\n        return newItemId;\n    }\n\n    /**\n    * @dev Modifier to check if the address is owner or the delegator of the NFT\n    * @param _tokenIds The Id of the NFT \n    */\n    modifier isNftOwnerOrDelegator(uint256 _tokenIds) {\n        require(ownerOf(_tokenIds)==msg.sender || (getApproved(_tokenIds)==msg.sender &&  nftCarInfos[_tokenIds].status.isDelegated == true) , 'You are not authorized');\n        require(_tokenIds <= tokenIds.current(), 'The NFT id is not correct');\n        _;\n    }\n\n        /**\n    * @dev Modifier to check if the address is owner of the NFT\n    * @param _tokenIds The Id of the NFT \n    */\n    modifier isNftOwner(uint256 _tokenIds) {\n        require(ownerOf(_tokenIds)==msg.sender, 'You are not the owner');\n        require(_tokenIds <= tokenIds.current(), 'The NFT id is not correct');\n        _;\n    }\n\n    /**\n    * @dev Change the status of isKycDone to true\n    * @param _tokenIds The Id of the NFT \n    */\n    function kycIsApproved (uint256 _tokenIds) external onlyOwner {\n        require(nftCarInfos[_tokenIds].status.isKycDone == false, 'KYC is already done');\n\t\tnftCarInfos[_tokenIds].status.isWaitingKyc = false;\n\t\tnftCarInfos[_tokenIds].status.isKycDone = true;\n\t\temit KycIsDone(_tokenIds);\n    }\n\n    /**\n    * @dev Get the NFT informations\n    * @param _tokenIds The Id of the NFT \n    */\n    function getCarNft (uint256 _tokenIds) external view returns (Car memory) {\n        require(_tokenIds <= tokenIds.current(), 'The NFT id is not correct');\n        return nftCarInfos[_tokenIds];\n    }\n\n    /**\n    * @dev Change boolean 'isOnSale' to true, is car is for sale\n    * @param _tokenIds The Id of the NFT \n    */\n    function carIsForSale (uint256 _tokenIds) internal isNftOwnerOrDelegator (_tokenIds) {\n        nftCarInfos[_tokenIds].status.isOnSale = true;\n        emit CarForSale (msg.sender, _tokenIds);\n    }\n\n    /**\n    * @dev Change boolean 'isOnSale' to true, this car is for sale\n    * @param _tokenIds The Id of the NFT \n    * @param _mileage the mileage of the car\n    * @param _price The price of the car\n    * @param _localisation the localisation of the car\n    * @param _contactDetails The details of the contact\n    */\n    function setInformationsForSale (uint256 _tokenIds, uint32 _mileage, uint32 _price, uint32 _localisation, string calldata _contactDetails) internal isNftOwnerOrDelegator (_tokenIds) {\n        nftCarInfos[_tokenIds].infosForSale.mileage = _mileage;\n        nftCarInfos[_tokenIds].infosForSale.price = _price;\n        nftCarInfos[_tokenIds].infosForSale.localisation = _localisation;\n        nftCarInfos[_tokenIds].infosForSale.contactDetails = _contactDetails;\n        emit CarInfosIsUpdatedForSale (msg.sender, _tokenIds);\n    }\n\n    function carIsForSaleAndSetInformationsForSale (uint256 _tokenIds, uint32 _mileage, uint32 _price, uint32 _localisation, string calldata _contactDetails) external isNftOwnerOrDelegator (_tokenIds) {\n        require(_mileage > 0, \"The mileage can be 0\");\n        require(_price > 0, \"There is no price\");\n        require(_localisation > 0, \"The power is not indicated\");\n        require(bytes(_contactDetails).length > 0, \"Invalid color\");\n        carIsForSale(_tokenIds);\n        setInformationsForSale(_tokenIds, _mileage, _price, _localisation, _contactDetails);\n    }\n\n    /**\n    * @dev Change boolean 'isStolen' to true, this car is stolen\n    * @param _tokenIds The Id of the NFT \n    */\n    function carIsStolen (uint256 _tokenIds) external isNftOwnerOrDelegator (_tokenIds) {\n        nftCarInfos[_tokenIds].status.isStolen = true;\n        nftCarInfos[_tokenIds].status.isOnSale = false;\n        emit CarIsStolen (msg.sender, _tokenIds);\n    }\n\n    /**\n    * @dev Change boolean 'isScrapped' to true, this car is Scrapped\n    * @param _tokenIds The Id of the NFT \n    */\n    function carIsScrapped (uint256 _tokenIds) external isNftOwnerOrDelegator (_tokenIds) {\n        nftCarInfos[_tokenIds].status.isScrapped = true;\n        nftCarInfos[_tokenIds].status.isOnSale = false;\n        emit CarIsScrapped(msg.sender, _tokenIds);\n    }\n\n        /**\n    * @dev Change boolean 'isScrapped' to true, this car is Scrapped\n    * @param _tokenIds The Id of the NFT \n    */\n    function reinitStatusForSelling (uint256 _tokenIds) external isNftOwnerOrDelegator (_tokenIds) {\n        nftCarInfos[_tokenIds].status.isScrapped = false;\n        nftCarInfos[_tokenIds].status.isStolen = false;\n        nftCarInfos[_tokenIds].status.isOnSale = true;\n        emit CarStatusReinitForSale(msg.sender, _tokenIds);\n    }\n\n    /**\n    * @dev Change boolean 'isDelegated' to true, this car is Delegated\n    * @param _tokenIds The Id of the NFT \n    */\n    function delegeteCar (address delegatorAddress, uint256 _tokenIds) external isNftOwner (_tokenIds) {\n        require(nftCarInfos[_tokenIds].status.isKycDone == true, \"The KYC is not approved\");\n        approve(delegatorAddress, _tokenIds);\n        nftCarInfos[_tokenIds].status.isDelegated = true;\n        //emit CarIsDelegated(msg.sender, delegatorAddress, _tokenIds);\n    }\n\n    /**\n    * @dev Change boolean 'isDelegated' to false, this car is not delegated anymore\n    * @param _tokenIds The Id of the NFT \n    */\n    function stopDelegation (uint256 _tokenIds) external isNftOwner (_tokenIds) {\n        require(nftCarInfos[_tokenIds].status.isDelegated == true, \"The NFT is not delegated\");\n        nftCarInfos[_tokenIds].status.isDelegated = false;\n        emit StopDelegation(msg.sender, _tokenIds);\n    }\n\n    /**\n    * @dev Change boolean 'isWaitingKyc' to false, this car is not delegated anymore\n    * @param _tokenIds The Id of the NFT \n    */\n    function askKyc (uint256 _tokenIds) external isNftOwner (_tokenIds) {\n        require(nftCarInfos[_tokenIds].status.isKycDone == true, \"The KYC is done\");\n        require(nftCarInfos[_tokenIds].status.isWaitingKyc == true, \"The KYC is already waiting\");\n        nftCarInfos[_tokenIds].status.isWaitingKyc = true;\n        emit KycIsWaiting(msg.sender, _tokenIds);\n    }\n\n    function testingAndTransfer (address _from, address _to, uint256 _tokenIds) internal isNftOwnerOrDelegator (_tokenIds)  {\n        nftCarInfos[_tokenIds].status.isKycDone = false;\n        nftCarInfos[_tokenIds].status.isDelegated = false;\n        nftCarInfos[_tokenIds].status.isOnSale = false;\n        delete (nftIdAndOwner[_from][_tokenIds]);\n        nftIdAndOwner[_to].push(_tokenIds);\n\n    }\n\n    function addDocumentLink(string memory _newLink, uint256 _tokenIds) internal isNftOwnerOrDelegator (_tokenIds)  {\n        string memory currentLink = nftCarInfos[_tokenIds].linkDocument;\n        if (bytes(currentLink).length == 0) {\n            nftCarInfos[_tokenIds].linkDocument = _newLink;\n        } else {\n            nftCarInfos[_tokenIds].linkDocument = string(abi.encodePacked(currentLink, \";\", _newLink));\n        }\n    }\n\n    /**\n     * @dev See {IERC721-transferFrom}.\n     */\n    function transferFrom(\n        address from,\n        address to,\n        uint256 tokenId\n    ) public virtual override {\n        testingAndTransfer(from, to, tokenId);\n        _transfer(from, to, tokenId);\n    }\n\n    /**\n     * @dev See {IERC721-safeTransferFrom}.\n     */\n    function safeTransferFrom(\n        address from,\n        address to,\n        uint256 tokenId\n    ) public virtual override {\n        safeTransferFrom(from, to, tokenId, \"\");\n    }\n\n    /**\n     * @dev See {IERC721-safeTransferFrom}.\n     */\n    function safeTransferFrom(\n        address from,\n        address to,\n        uint256 tokenId,\n        bytes memory data\n    ) public virtual override {\n        testingAndTransfer(from, to, tokenId);\n        _safeTransfer(from, to, tokenId, data);\n    }\n\n    function sellNftAndTransferValueToOwner(uint256 _tokenIds) external payable  {\n        uint256 valueSend               = msg.value;\n        address ownerAddress            = ownerOf(_tokenIds);\n        safeTransferFrom(ownerOf(_tokenIds),msg.sender,_tokenIds);\n        (bool sent, )                   = payable(ownerAddress).call{value: valueSend}(\"\");\n        require(sent, unicode\"transfer didn't work\");\n    }\n\n    function sellNftAndTransferValueToOwnerAndDelegator(uint256 _tokenIds) external payable  {\n        uint256 valueSendForOwner       = (msg.value*9)/10;\n        uint256 valueSendForDelegator   = msg.value/10;\n        address ownerAddress            = ownerOf(_tokenIds);\n        address delegatorAddress        = getApproved(_tokenIds);\n\n        safeTransferFrom(ownerOf(_tokenIds),msg.sender,_tokenIds);\n\n        (bool sent1, )                   = payable(ownerAddress).call{value: valueSendForOwner}(\"\");\n        require(sent1, unicode\"transfer didn't work\");\n        \n        (bool sent2, )                   = payable(delegatorAddress).call{value: valueSendForDelegator}(\"\");\n        require(sent2, unicode\"transfer didn't work\");\n    \n    }\n\n\n    fallback() external payable { \n        require(msg.data.length == 0);\n        emit LogDepositReceived(msg.sender); \n    }\n \n    receive() external payable { \n        emit LogDepositReceived(msg.sender); \n    }\n\n    function withdrawal() public onlyOwner {\n        require(address(this).balance >= 1, \"You need at least 1 ETH to withdraw\");\n        (bool sent, )                   = payable(msg.sender).call{value: address(this).balance}(\"\");\n        require(sent, unicode\"transfer didn't work\");\n    }\n    //add others documents\n}\n",
  "sourcePath": "/home/germain/Projet4/truffle/contracts/BlockCar.sol",
  "compiler": {
    "name": "solc",
    "version": "0.8.18+commit.87f61d96.Emscripten.clang"
  },
  "schemaVersion": "3.4.13",
  "updatedAt": "2023-03-30T18:15:13.671Z",
  "networkType": "ethereum",
  "devdoc": {
    "author": "Germain Winckel",
    "details": "The blockCar contract code",
    "events": {
      "Approval(address,address,uint256)": {
        "details": "Emitted when `owner` enables `approved` to manage the `tokenId` token."
      },
      "ApprovalForAll(address,address,bool)": {
        "details": "Emitted when `owner` enables or disables (`approved`) `operator` to manage all of its assets."
      },
      "CarForSale(address,uint256)": {
        "details": "An event when a car is for sale"
      },
      "CarInfosIsUpdatedForSale(address,uint256)": {
        "details": "An event when the car informations are updated for sale"
      },
      "CarIsScrapped(address,uint256)": {
        "details": "An event when the car is Scrapped"
      },
      "CarIsStolen(address,uint256)": {
        "details": "An event when the car is Stolen"
      },
      "CarStatusReinitForSale(address,uint256)": {
        "details": "An event when the car informations are updated for sale"
      },
      "KycIsDone(uint256)": {
        "details": "An event when a user did the KYC for a car"
      },
      "KycIsWaiting(address,uint256)": {
        "details": "An event when a user did is waiting for the KYC"
      },
      "LogDepositReceived(address)": {
        "details": "An event when a deposit is received"
      },
      "Minted(address,string,uint256,string,string,string,string,uint32,string,uint32)": {
        "details": "An event that registers when a user did the KYC for a car"
      },
      "StopDelegation(address,uint256)": {
        "details": "An event when the car informations are updated for sale"
      },
      "Transfer(address,address,uint256)": {
        "details": "Emitted when `tokenId` token is transferred from `from` to `to`."
      }
    },
    "kind": "dev",
    "methods": {
      "approve(address,uint256)": {
        "details": "See {IERC721-approve}."
      },
      "askKyc(uint256)": {
        "details": "Change boolean 'isWaitingKyc' to false, this car is not delegated anymore",
        "params": {
          "_tokenIds": "The Id of the NFT "
        }
      },
      "balanceOf(address)": {
        "details": "See {IERC721-balanceOf}."
      },
      "carIsScrapped(uint256)": {
        "details": "Change boolean 'isScrapped' to true, this car is Scrapped",
        "params": {
          "_tokenIds": "The Id of the NFT "
        }
      },
      "carIsStolen(uint256)": {
        "details": "Change boolean 'isStolen' to true, this car is stolen",
        "params": {
          "_tokenIds": "The Id of the NFT "
        }
      },
      "delegeteCar(address,uint256)": {
        "details": "Change boolean 'isDelegated' to true, this car is Delegated",
        "params": {
          "_tokenIds": "The Id of the NFT "
        }
      },
      "getApproved(uint256)": {
        "details": "See {IERC721-getApproved}."
      },
      "getCarNft(uint256)": {
        "details": "Get the NFT informations",
        "params": {
          "_tokenIds": "The Id of the NFT "
        }
      },
      "isApprovedForAll(address,address)": {
        "details": "See {IERC721-isApprovedForAll}."
      },
      "kycIsApproved(uint256)": {
        "details": "Change the status of isKycDone to true",
        "params": {
          "_tokenIds": "The Id of the NFT "
        }
      },
      "mintCar(string,string,string,string,string,uint32,string,uint32)": {
        "details": "To mint an NFT",
        "params": {
          "_brand": ": Brand of the car",
          "_color": ": color of the car",
          "_model": ": Model of the car",
          "_power": ": Power of the car in Kw",
          "_registrationCountry": ": Reistration country",
          "_registrationDate": ": Regisytration date in ddmmyyyy",
          "_tokenURI": ": Link to jdon/image",
          "_vin": ": Vehicle Identification Number"
        },
        "returns": {
          "_0": "newItemId mThe Id of the NFT "
        }
      },
      "name()": {
        "details": "See {IERC721Metadata-name}."
      },
      "owner()": {
        "details": "Returns the address of the current owner."
      },
      "ownerOf(uint256)": {
        "details": "See {IERC721-ownerOf}."
      },
      "reinitStatusForSelling(uint256)": {
        "details": "Change boolean 'isScrapped' to true, this car is Scrapped",
        "params": {
          "_tokenIds": "The Id of the NFT "
        }
      },
      "renounceOwnership()": {
        "details": "Leaves the contract without owner. It will not be possible to call `onlyOwner` functions anymore. Can only be called by the current owner. NOTE: Renouncing ownership will leave the contract without an owner, thereby removing any functionality that is only available to the owner."
      },
      "safeTransferFrom(address,address,uint256)": {
        "details": "See {IERC721-safeTransferFrom}."
      },
      "safeTransferFrom(address,address,uint256,bytes)": {
        "details": "See {IERC721-safeTransferFrom}."
      },
      "setApprovalForAll(address,bool)": {
        "details": "See {IERC721-setApprovalForAll}."
      },
      "stopDelegation(uint256)": {
        "details": "Change boolean 'isDelegated' to false, this car is not delegated anymore",
        "params": {
          "_tokenIds": "The Id of the NFT "
        }
      },
      "supportsInterface(bytes4)": {
        "details": "See {IERC165-supportsInterface}."
      },
      "symbol()": {
        "details": "See {IERC721Metadata-symbol}."
      },
      "tokenURI(uint256)": {
        "details": "See {IERC721Metadata-tokenURI}."
      },
      "transferFrom(address,address,uint256)": {
        "details": "See {IERC721-transferFrom}."
      },
      "transferOwnership(address)": {
        "details": "Transfers ownership of the contract to a new account (`newOwner`). Can only be called by the current owner."
      }
    },
    "stateVariables": {
      "nftCarInfos": {
        "details": "Mapping the NFT ID with the car informations"
      },
      "nftIdAndOwner": {
        "details": "Mapping the NFT ID with informations for sale"
      }
    },
    "title": "BlockCar",
    "version": 1
  },
  "userdoc": {
    "kind": "user",
    "methods": {},
    "notice": "The blockCar contract code",
    "version": 1
  }
}