{
  "contractName": "BlockCar",
  "abi": [
    {
      "inputs": [],
      "stateMutability": "nonpayable",
      "type": "constructor"
    },
    {
      "anonymous": false,
      "inputs": [
        {
          "indexed": true,
          "internalType": "address",
          "name": "owner",
          "type": "address"
        },
        {
          "indexed": true,
          "internalType": "address",
          "name": "approved",
          "type": "address"
        },
        {
          "indexed": true,
          "internalType": "uint256",
          "name": "tokenId",
          "type": "uint256"
        }
      ],
      "name": "Approval",
      "type": "event"
    },
    {
      "anonymous": false,
      "inputs": [
        {
          "indexed": true,
          "internalType": "address",
          "name": "owner",
          "type": "address"
        },
        {
          "indexed": true,
          "internalType": "address",
          "name": "operator",
          "type": "address"
        },
        {
          "indexed": false,
          "internalType": "bool",
          "name": "approved",
          "type": "bool"
        }
      ],
      "name": "ApprovalForAll",
      "type": "event"
    },
    {
      "anonymous": false,
      "inputs": [
        {
          "indexed": false,
          "internalType": "string",
          "name": "status",
          "type": "string"
        },
        {
          "indexed": false,
          "internalType": "address",
          "name": "_address",
          "type": "address"
        },
        {
          "indexed": true,
          "internalType": "uint256",
          "name": "nftId",
          "type": "uint256"
        },
        {
          "indexed": false,
          "internalType": "uint256",
          "name": "timestamp",
          "type": "uint256"
        }
      ],
      "name": "ChangingStatus",
      "type": "event"
    },
    {
      "anonymous": false,
      "inputs": [
        {
          "indexed": false,
          "internalType": "address",
          "name": "_address",
          "type": "address"
        }
      ],
      "name": "LogDepositReceived",
      "type": "event"
    },
    {
      "anonymous": false,
      "inputs": [
        {
          "indexed": false,
          "internalType": "address",
          "name": "userAddress",
          "type": "address"
        },
        {
          "indexed": false,
          "internalType": "string",
          "name": "tokenURI",
          "type": "string"
        },
        {
          "indexed": false,
          "internalType": "uint256",
          "name": "nftId",
          "type": "uint256"
        },
        {
          "indexed": false,
          "internalType": "string",
          "name": "vin",
          "type": "string"
        },
        {
          "indexed": false,
          "internalType": "string",
          "name": "brand",
          "type": "string"
        },
        {
          "indexed": false,
          "internalType": "string",
          "name": "model",
          "type": "string"
        },
        {
          "indexed": false,
          "internalType": "string",
          "name": "color",
          "type": "string"
        },
        {
          "indexed": false,
          "internalType": "uint32",
          "name": "power",
          "type": "uint32"
        },
        {
          "indexed": false,
          "internalType": "string",
          "name": "registrationCountry",
          "type": "string"
        },
        {
          "indexed": false,
          "internalType": "uint32",
          "name": "registrationDate",
          "type": "uint32"
        }
      ],
      "name": "Minted",
      "type": "event"
    },
    {
      "anonymous": false,
      "inputs": [
        {
          "indexed": true,
          "internalType": "address",
          "name": "previousOwner",
          "type": "address"
        },
        {
          "indexed": true,
          "internalType": "address",
          "name": "newOwner",
          "type": "address"
        }
      ],
      "name": "OwnershipTransferred",
      "type": "event"
    },
    {
      "anonymous": false,
      "inputs": [
        {
          "indexed": true,
          "internalType": "address",
          "name": "from",
          "type": "address"
        },
        {
          "indexed": true,
          "internalType": "address",
          "name": "to",
          "type": "address"
        },
        {
          "indexed": true,
          "internalType": "uint256",
          "name": "tokenId",
          "type": "uint256"
        }
      ],
      "name": "Transfer",
      "type": "event"
    },
    {
      "stateMutability": "payable",
      "type": "fallback",
      "payable": true
    },
    {
      "inputs": [
        {
          "internalType": "address",
          "name": "to",
          "type": "address"
        },
        {
          "internalType": "uint256",
          "name": "tokenId",
          "type": "uint256"
        }
      ],
      "name": "approve",
      "outputs": [],
      "stateMutability": "nonpayable",
      "type": "function"
    },
    {
      "inputs": [
        {
          "internalType": "address",
          "name": "owner",
          "type": "address"
        }
      ],
      "name": "balanceOf",
      "outputs": [
        {
          "internalType": "uint256",
          "name": "",
          "type": "uint256"
        }
      ],
      "stateMutability": "view",
      "type": "function",
      "constant": true
    },
    {
      "inputs": [
        {
          "internalType": "uint256",
          "name": "tokenId",
          "type": "uint256"
        }
      ],
      "name": "getApproved",
      "outputs": [
        {
          "internalType": "address",
          "name": "",
          "type": "address"
        }
      ],
      "stateMutability": "view",
      "type": "function",
      "constant": true
    },
    {
      "inputs": [
        {
          "internalType": "address",
          "name": "owner",
          "type": "address"
        },
        {
          "internalType": "address",
          "name": "operator",
          "type": "address"
        }
      ],
      "name": "isApprovedForAll",
      "outputs": [
        {
          "internalType": "bool",
          "name": "",
          "type": "bool"
        }
      ],
      "stateMutability": "view",
      "type": "function",
      "constant": true
    },
    {
      "inputs": [],
      "name": "name",
      "outputs": [
        {
          "internalType": "string",
          "name": "",
          "type": "string"
        }
      ],
      "stateMutability": "view",
      "type": "function",
      "constant": true
    },
    {
      "inputs": [
        {
          "internalType": "address",
          "name": "",
          "type": "address"
        },
        {
          "internalType": "uint256",
          "name": "",
          "type": "uint256"
        }
      ],
      "name": "nftIdAndDelegator",
      "outputs": [
        {
          "internalType": "uint256",
          "name": "",
          "type": "uint256"
        }
      ],
      "stateMutability": "view",
      "type": "function",
      "constant": true
    },
    {
      "inputs": [
        {
          "internalType": "address",
          "name": "",
          "type": "address"
        },
        {
          "internalType": "uint256",
          "name": "",
          "type": "uint256"
        }
      ],
      "name": "nftIdAndOwner",
      "outputs": [
        {
          "internalType": "uint256",
          "name": "",
          "type": "uint256"
        }
      ],
      "stateMutability": "view",
      "type": "function",
      "constant": true
    },
    {
      "inputs": [],
      "name": "owner",
      "outputs": [
        {
          "internalType": "address",
          "name": "",
          "type": "address"
        }
      ],
      "stateMutability": "view",
      "type": "function",
      "constant": true
    },
    {
      "inputs": [
        {
          "internalType": "uint256",
          "name": "tokenId",
          "type": "uint256"
        }
      ],
      "name": "ownerOf",
      "outputs": [
        {
          "internalType": "address",
          "name": "",
          "type": "address"
        }
      ],
      "stateMutability": "view",
      "type": "function",
      "constant": true
    },
    {
      "inputs": [],
      "name": "renounceOwnership",
      "outputs": [],
      "stateMutability": "nonpayable",
      "type": "function"
    },
    {
      "inputs": [
        {
          "internalType": "address",
          "name": "operator",
          "type": "address"
        },
        {
          "internalType": "bool",
          "name": "approved",
          "type": "bool"
        }
      ],
      "name": "setApprovalForAll",
      "outputs": [],
      "stateMutability": "nonpayable",
      "type": "function"
    },
    {
      "inputs": [
        {
          "internalType": "bytes4",
          "name": "interfaceId",
          "type": "bytes4"
        }
      ],
      "name": "supportsInterface",
      "outputs": [
        {
          "internalType": "bool",
          "name": "",
          "type": "bool"
        }
      ],
      "stateMutability": "view",
      "type": "function",
      "constant": true
    },
    {
      "inputs": [],
      "name": "symbol",
      "outputs": [
        {
          "internalType": "string",
          "name": "",
          "type": "string"
        }
      ],
      "stateMutability": "view",
      "type": "function",
      "constant": true
    },
    {
      "inputs": [
        {
          "internalType": "uint256",
          "name": "tokenId",
          "type": "uint256"
        }
      ],
      "name": "tokenURI",
      "outputs": [
        {
          "internalType": "string",
          "name": "",
          "type": "string"
        }
      ],
      "stateMutability": "view",
      "type": "function",
      "constant": true
    },
    {
      "inputs": [
        {
          "internalType": "address",
          "name": "newOwner",
          "type": "address"
        }
      ],
      "name": "transferOwnership",
      "outputs": [],
      "stateMutability": "nonpayable",
      "type": "function"
    },
    {
      "stateMutability": "payable",
      "type": "receive",
      "payable": true
    },
    {
      "inputs": [
        {
          "internalType": "string",
          "name": "_tokenURI",
          "type": "string"
        },
        {
          "internalType": "string",
          "name": "_vin",
          "type": "string"
        },
        {
          "internalType": "string",
          "name": "_brand",
          "type": "string"
        },
        {
          "internalType": "string",
          "name": "_model",
          "type": "string"
        },
        {
          "internalType": "string",
          "name": "_color",
          "type": "string"
        },
        {
          "internalType": "uint32",
          "name": "_power",
          "type": "uint32"
        },
        {
          "internalType": "string",
          "name": "_registrationCountry",
          "type": "string"
        },
        {
          "internalType": "uint32",
          "name": "_registrationDate",
          "type": "uint32"
        }
      ],
      "name": "mintCar",
      "outputs": [
        {
          "internalType": "uint256",
          "name": "",
          "type": "uint256"
        }
      ],
      "stateMutability": "nonpayable",
      "type": "function"
    },
    {
      "inputs": [],
      "name": "getCurrentId",
      "outputs": [
        {
          "internalType": "uint256",
          "name": "",
          "type": "uint256"
        }
      ],
      "stateMutability": "view",
      "type": "function",
      "constant": true
    },
    {
      "inputs": [
        {
          "internalType": "address",
          "name": "_owner",
          "type": "address"
        }
      ],
      "name": "getNftIdsByAddress",
      "outputs": [
        {
          "internalType": "uint256[]",
          "name": "",
          "type": "uint256[]"
        }
      ],
      "stateMutability": "view",
      "type": "function",
      "constant": true
    },
    {
      "inputs": [
        {
          "internalType": "address",
          "name": "_owner",
          "type": "address"
        }
      ],
      "name": "getNftIdsByDelegatorAddress",
      "outputs": [
        {
          "internalType": "uint256[]",
          "name": "",
          "type": "uint256[]"
        }
      ],
      "stateMutability": "view",
      "type": "function",
      "constant": true
    },
    {
      "inputs": [],
      "name": "getNftIdsByOnSaleAndKycDone",
      "outputs": [
        {
          "internalType": "uint256[]",
          "name": "",
          "type": "uint256[]"
        }
      ],
      "stateMutability": "view",
      "type": "function",
      "constant": true
    },
    {
      "inputs": [
        {
          "internalType": "uint256",
          "name": "_tokenIds",
          "type": "uint256"
        }
      ],
      "name": "kycIsApproved",
      "outputs": [],
      "stateMutability": "nonpayable",
      "type": "function"
    },
    {
      "inputs": [
        {
          "internalType": "uint256",
          "name": "_tokenIds",
          "type": "uint256"
        }
      ],
      "name": "getCarNft",
      "outputs": [
        {
          "components": [
            {
              "internalType": "string",
              "name": "vin",
              "type": "string"
            },
            {
              "internalType": "string",
              "name": "brand",
              "type": "string"
            },
            {
              "internalType": "string",
              "name": "model",
              "type": "string"
            },
            {
              "internalType": "string",
              "name": "color",
              "type": "string"
            },
            {
              "internalType": "uint32",
              "name": "power",
              "type": "uint32"
            },
            {
              "internalType": "string",
              "name": "registrationCountry",
              "type": "string"
            },
            {
              "internalType": "uint32",
              "name": "registrationDate",
              "type": "uint32"
            },
            {
              "internalType": "string",
              "name": "linkDocument",
              "type": "string"
            },
            {
              "components": [
                {
                  "internalType": "bool",
                  "name": "isOnSale",
                  "type": "bool"
                },
                {
                  "internalType": "bool",
                  "name": "isDelegated",
                  "type": "bool"
                },
                {
                  "internalType": "bool",
                  "name": "isStolen",
                  "type": "bool"
                },
                {
                  "internalType": "bool",
                  "name": "isWaitingKyc",
                  "type": "bool"
                },
                {
                  "internalType": "bool",
                  "name": "isKycDone",
                  "type": "bool"
                },
                {
                  "internalType": "bool",
                  "name": "isScrapped",
                  "type": "bool"
                }
              ],
              "internalType": "struct BlockCar.Status",
              "name": "status",
              "type": "tuple"
            },
            {
              "components": [
                {
                  "internalType": "uint32",
                  "name": "mileage",
                  "type": "uint32"
                },
                {
                  "internalType": "uint32",
                  "name": "price",
                  "type": "uint32"
                },
                {
                  "internalType": "string",
                  "name": "country",
                  "type": "string"
                },
                {
                  "internalType": "string",
                  "name": "localisation",
                  "type": "string"
                },
                {
                  "internalType": "string",
                  "name": "contactDetails",
                  "type": "string"
                }
              ],
              "internalType": "struct BlockCar.InfosForSale",
              "name": "infosForSale",
              "type": "tuple"
            }
          ],
          "internalType": "struct BlockCar.Car",
          "name": "",
          "type": "tuple"
        }
      ],
      "stateMutability": "view",
      "type": "function",
      "constant": true
    },
    {
      "inputs": [
        {
          "internalType": "uint256",
          "name": "_tokenIds",
          "type": "uint256"
        },
        {
          "internalType": "uint32",
          "name": "_mileage",
          "type": "uint32"
        },
        {
          "internalType": "uint32",
          "name": "_price",
          "type": "uint32"
        },
        {
          "internalType": "string",
          "name": "_country",
          "type": "string"
        },
        {
          "internalType": "string",
          "name": "_localisation",
          "type": "string"
        },
        {
          "internalType": "string",
          "name": "_contactDetails",
          "type": "string"
        }
      ],
      "name": "carIsForSaleAndSetInformationsForSale",
      "outputs": [],
      "stateMutability": "nonpayable",
      "type": "function"
    },
    {
      "inputs": [
        {
          "internalType": "uint256",
          "name": "_tokenIds",
          "type": "uint256"
        }
      ],
      "name": "carIsStolen",
      "outputs": [],
      "stateMutability": "nonpayable",
      "type": "function"
    },
    {
      "inputs": [
        {
          "internalType": "uint256",
          "name": "_tokenIds",
          "type": "uint256"
        }
      ],
      "name": "carIsScrapped",
      "outputs": [],
      "stateMutability": "nonpayable",
      "type": "function"
    },
    {
      "inputs": [
        {
          "internalType": "uint256",
          "name": "_tokenIds",
          "type": "uint256"
        }
      ],
      "name": "stopSale",
      "outputs": [],
      "stateMutability": "nonpayable",
      "type": "function"
    },
    {
      "inputs": [
        {
          "internalType": "uint256",
          "name": "_tokenIds",
          "type": "uint256"
        }
      ],
      "name": "carFound",
      "outputs": [],
      "stateMutability": "nonpayable",
      "type": "function"
    },
    {
      "inputs": [
        {
          "internalType": "address",
          "name": "delegatorAddress",
          "type": "address"
        },
        {
          "internalType": "uint256",
          "name": "_tokenIds",
          "type": "uint256"
        }
      ],
      "name": "delegeteCar",
      "outputs": [],
      "stateMutability": "nonpayable",
      "type": "function"
    },
    {
      "inputs": [
        {
          "internalType": "uint256",
          "name": "_tokenIds",
          "type": "uint256"
        }
      ],
      "name": "stopDelegation",
      "outputs": [],
      "stateMutability": "nonpayable",
      "type": "function"
    },
    {
      "inputs": [
        {
          "internalType": "uint256",
          "name": "_tokenIds",
          "type": "uint256"
        }
      ],
      "name": "askKyc",
      "outputs": [],
      "stateMutability": "nonpayable",
      "type": "function"
    },
    {
      "inputs": [
        {
          "internalType": "string",
          "name": "_newLink",
          "type": "string"
        },
        {
          "internalType": "uint256",
          "name": "_tokenId",
          "type": "uint256"
        }
      ],
      "name": "addDocumentLink",
      "outputs": [],
      "stateMutability": "nonpayable",
      "type": "function"
    },
    {
      "inputs": [
        {
          "internalType": "address",
          "name": "from",
          "type": "address"
        },
        {
          "internalType": "address",
          "name": "to",
          "type": "address"
        },
        {
          "internalType": "uint256",
          "name": "tokenId",
          "type": "uint256"
        }
      ],
      "name": "transferFrom",
      "outputs": [],
      "stateMutability": "nonpayable",
      "type": "function"
    },
    {
      "inputs": [
        {
          "internalType": "address",
          "name": "from",
          "type": "address"
        },
        {
          "internalType": "address",
          "name": "to",
          "type": "address"
        },
        {
          "internalType": "uint256",
          "name": "tokenId",
          "type": "uint256"
        }
      ],
      "name": "safeTransferFrom",
      "outputs": [],
      "stateMutability": "nonpayable",
      "type": "function"
    },
    {
      "inputs": [
        {
          "internalType": "address",
          "name": "from",
          "type": "address"
        },
        {
          "internalType": "address",
          "name": "to",
          "type": "address"
        },
        {
          "internalType": "uint256",
          "name": "tokenId",
          "type": "uint256"
        },
        {
          "internalType": "bytes",
          "name": "data",
          "type": "bytes"
        }
      ],
      "name": "safeTransferFrom",
      "outputs": [],
      "stateMutability": "nonpayable",
      "type": "function"
    },
    {
      "inputs": [
        {
          "internalType": "uint256",
          "name": "_tokenId",
          "type": "uint256"
        }
      ],
      "name": "sellNftAndTransferValueToOwner",
      "outputs": [],
      "stateMutability": "payable",
      "type": "function",
      "payable": true
    },
    {
      "inputs": [],
      "name": "withdrawal",
      "outputs": [],
      "stateMutability": "nonpayable",
      "type": "function"
    }
  ],
  "bytecode": "0x60806040523480156200001157600080fd5b5060405180604001604052806008815260200167213637b1b5a1b0b960c11b81525060405180604001604052806003815260200162424c4360e81b81525081600090816200006091906200018d565b5060016200006f82826200018d565b5050506200008c620000866200009260201b60201c565b62000096565b62000259565b3390565b600780546001600160a01b038381166001600160a01b0319831681179093556040519116919082907f8be0079c531659141344cd1fd0a4f28419497f9722a3daafe3b4186f6b6457e090600090a35050565b634e487b7160e01b600052604160045260246000fd5b600181811c908216806200011357607f821691505b6020821081036200013457634e487b7160e01b600052602260045260246000fd5b50919050565b601f8211156200018857600081815260208120601f850160051c81016020861015620001635750805b601f850160051c820191505b8181101562000184578281556001016200016f565b5050505b505050565b81516001600160401b03811115620001a957620001a9620000e8565b620001c181620001ba8454620000fe565b846200013a565b602080601f831160018114620001f95760008415620001e05750858301515b600019600386901b1c1916600185901b17855562000184565b600085815260208120601f198616915b828110156200022a5788860151825594840194600190910190840162000209565b5085821015620002495787850151600019600388901b60f8161c191681555b5050505050600190811b01905550565b61456080620002696000396000f3fe6080604052600436106101a35760003560e01c806301ffc9a7146101f757806306fdde031461022c578063081812fc1461024e578063095ea7b31461027b57806310c112321461029d578063138391cf146102bd57806317077f34146102dd57806323b872dd146102fd5780632bb02add1461031d57806342842e0e1461033d5780635e99032c1461035d57806362232d601461038b5780636352211e146103ab5780636c143862146103cb5780636dfdd3d1146103e057806370a082311461040d578063715018a61461042d578063843cdb25146104425780638654ffae1461046f5780638da5cb5b1461048f57806395d89b41146104a4578063a22cb465146104b9578063aeee67c6146104d9578063b1dcf54b146104f9578063b88d4fde1461050c578063c3eb1cb01461052c578063c87b56dd1461054c578063d4d50cf51461056c578063d4e932921461058c578063dd797530146105a1578063e4003a8b146105c1578063e556e7f4146105e1578063e83a203214610601578063e985e9c514610616578063f2fde38b14610636578063f8dd1f7614610656576101cf565b366101cf5760008051602061450b833981519152336040516101c591906136dc565b60405180910390a1005b36156101da57600080fd5b60008051602061450b833981519152336040516101c591906136dc565b34801561020357600080fd5b50610217610212366004613706565b610676565b60405190151581526020015b60405180910390f35b34801561023857600080fd5b506102416106c8565b6040516102239190613773565b34801561025a57600080fd5b5061026e610269366004613786565b61075a565b60405161022391906136dc565b34801561028757600080fd5b5061029b6102963660046137bb565b610781565b005b3480156102a957600080fd5b5061029b6102b8366004613890565b61089b565b3480156102c957600080fd5b5061029b6102d8366004613786565b610a8c565b3480156102e957600080fd5b5061029b6102f8366004613786565b610b1d565b34801561030957600080fd5b5061029b6103183660046138d4565b610c3b565b34801561032957600080fd5b5061029b610338366004613786565b610c7e565b34801561034957600080fd5b5061029b6103583660046138d4565b610e56565b34801561036957600080fd5b5061037d6103783660046137bb565b610e71565b604051908152602001610223565b34801561039757600080fd5b5061037d6103a6366004613924565b610ea2565b3480156103b757600080fd5b5061026e6103c6366004613786565b6113a4565b3480156103d757600080fd5b5061037d6113d8565b3480156103ec57600080fd5b506104006103fb366004613a3b565b6113e8565b6040516102239190613a56565b34801561041957600080fd5b5061037d610428366004613a3b565b611454565b34801561043957600080fd5b5061029b6114da565b34801561044e57600080fd5b5061046261045d366004613786565b6114ee565b6040516102239190613b09565b34801561047b57600080fd5b5061029b61048a3660046137bb565b611b45565b34801561049b57600080fd5b5061026e611c93565b3480156104b057600080fd5b50610241611ca2565b3480156104c557600080fd5b5061029b6104d4366004613c68565b611cb1565b3480156104e557600080fd5b5061029b6104f4366004613cec565b611cc0565b61029b610507366004613786565b611e1e565b34801561051857600080fd5b5061029b610527366004613db2565b611f06565b34801561053857600080fd5b5061029b610547366004613786565b611f3d565b34801561055857600080fd5b50610241610567366004613786565b612037565b34801561057857600080fd5b50610400610587366004613a3b565b612147565b34801561059857600080fd5b5061029b6121b1565b3480156105ad57600080fd5b5061029b6105bc366004613786565b612281565b3480156105cd57600080fd5b5061029b6105dc366004613786565b61238d565b3480156105ed57600080fd5b5061037d6105fc3660046137bb565b61250e565b34801561060d57600080fd5b5061040061252a565b34801561062257600080fd5b50610217610631366004613e2d565b6126c8565b34801561064257600080fd5b5061029b610651366004613a3b565b6126f6565b34801561066257600080fd5b5061029b610671366004613786565b61276c565b60006001600160e01b031982166380ac58cd60e01b14806106a757506001600160e01b03198216635b5e139f60e01b145b806106c257506301ffc9a760e01b6001600160e01b03198316145b92915050565b6060600080546106d790613e60565b80601f016020809104026020016040519081016040528092919081815260200182805461070390613e60565b80156107505780601f1061072557610100808354040283529160200191610750565b820191906000526020600020905b81548152906001019060200180831161073357829003601f168201915b5050505050905090565b600061076582612872565b506000908152600460205260409020546001600160a01b031690565b600061078c826113a4565b9050806001600160a01b0316836001600160a01b0316036107fe5760405162461bcd60e51b815260206004820152602160248201527f4552433732313a20617070726f76616c20746f2063757272656e74206f776e656044820152603960f91b60648201526084015b60405180910390fd5b336001600160a01b038216148061081a575061081a81336126c8565b61088c5760405162461bcd60e51b815260206004820152603d60248201527f4552433732313a20617070726f76652063616c6c6572206973206e6f7420746f60448201527f6b656e206f776e6572206f7220617070726f76656420666f7220616c6c00000060648201526084016107f5565b6108968383612897565b505050565b80336108a6826113a4565b6001600160a01b031614806108f25750336108c08261075a565b6001600160a01b03161480156108f2575060008181526009602052604090206008015460ff6101009091041615156001145b61090e5760405162461bcd60e51b81526004016107f590613e9a565b6008548111156109305760405162461bcd60e51b81526004016107f590613ec6565b6000828152600960205260408120600701805461094c90613e60565b80601f016020809104026020016040519081016040528092919081815260200182805461097890613e60565b80156109c55780601f1061099a576101008083540402835291602001916109c5565b820191906000526020600020905b8154815290600101906020018083116109a857829003601f168201915b5050505050905080516000036109f65760008381526009602052604090206007016109f08582613f4f565b50610a34565b8084604051602001610a09929190614008565b60408051601f19818403018152918152600085815260096020522060070190610a329082613f4f565b505b604080516060808252600e908201526d111bd8dd5b595b9d08185919195960921b6080820152336020820152429181019190915283906000805160206144cb8339815191529060a0015b60405180910390a250505050565b610a94612905565b600081815260096020526040902060080154600160201b900460ff1615610acd5760405162461bcd60e51b81526004016107f59061405f565b60008181526009602052604090819020600801805464ffff0000001916600160201b1790555181906000805160206144cb83398151915290610b129033904290614071565b60405180910390a250565b8033610b28826113a4565b6001600160a01b03161480610b74575033610b428261075a565b6001600160a01b0316148015610b74575060008181526009602052604090206008015460ff6101009091041615156001145b610b905760405162461bcd60e51b81526004016107f590613e9a565b600854811115610bb25760405162461bcd60e51b81526004016107f590613ec6565b60008281526009602052604090819020600801805465ff00000000ff1916600160281b1790555182906000805160206144cb83398151915290610c2f90339042906060808252600c908201526b10d85c881cd8dc985c1c195960a21b60808201526001600160a01b03929092166020830152604082015260a00190565b60405180910390a25050565b610c46838383612964565b610c51838383612a18565b806000805160206144cb8339815191523342604051610c7192919061409c565b60405180910390a2505050565b8033610c89826113a4565b6001600160a01b03161480610cd5575033610ca38261075a565b6001600160a01b0316148015610cd5575060008181526009602052604090206008015460ff6101009091041615156001145b610cf15760405162461bcd60e51b81526004016107f590613e9a565b600854811115610d135760405162461bcd60e51b81526004016107f590613ec6565b60008281526009602052604090206008015460ff610100909104161515600114610d735760405162461bcd60e51b8152602060048201526011602482015270139195081b9bdd0819195b1959d85d1959607a1b60448201526064016107f5565b6000610d7e8361075a565b6000848152600960209081526040808320600801805461ff00191690556001600160a01b0384168352600b909152902054909150600103610dfb576001600160a01b0381166000908152600b60205260409020805480610de057610de06140d4565b60019003818190600052602060002001600090559055610e05565b610e058184612b6a565b6040805160608082526011908201527011195b1959d85d1a5bdb881cdd1bdc1959607a1b6080820152336020820152429181019190915283906000805160206144cb8339815191529060a001610c71565b61089683838360405180602001604052806000815250611f06565b600a6020528160005260406000208181548110610e8d57600080fd5b90600052602060002001600091509150505481565b600033610ec15760405162461bcd60e51b81526004016107f5906140ea565b6000895111610ee25760405162461bcd60e51b81526004016107f5906140ea565b6000885111610f035760405162461bcd60e51b81526004016107f5906140ea565b6000875111610f245760405162461bcd60e51b81526004016107f5906140ea565b6000865111610f455760405162461bcd60e51b81526004016107f5906140ea565b6000855111610f665760405162461bcd60e51b81526004016107f5906140ea565b60008463ffffffff1611610f8c5760405162461bcd60e51b81526004016107f5906140ea565b6000835111610fad5760405162461bcd60e51b81526004016107f5906140ea565b60008263ffffffff1611610fd35760405162461bcd60e51b81526004016107f5906140ea565b610fe1600880546001019055565b6000610fec60085490565b9050610ff83382612cbe565b611002818b612db9565b600a6000336001600160a01b03166001600160a01b0316815260200190815260200160002081908060018154018082558091505060019003906000526020600020016000909190919091505560006040518060c0016040528060001515815260200160001515815260200160001515815260200160001515815260200160001515815260200160001515815250905060006040518060a00160405280600063ffffffff168152602001600063ffffffff16815260200160405180602001604052806000815250815260200160405180602001604052806000815250815260200160405180602001604052806000815250815250905060006040518061014001604052808d81526020018c81526020018b81526020018a81526020018963ffffffff1681526020018881526020018763ffffffff168152602001604051806020016040528060008152508152602001848152602001838152509050806009600086815260200190815260200160002060008201518160000190816111859190613f4f565b506020820151600182019061119a9082613f4f565b50604082015160028201906111af9082613f4f565b50606082015160038201906111c49082613f4f565b50608082015160048201805463ffffffff191663ffffffff90921691909117905560a082015160058201906111f99082613f4f565b5060c082015160068201805463ffffffff191663ffffffff90921691909117905560e0820151600782019061122e9082613f4f565b506101008281015180516008840180546020808501516040808701516060880151608089015160a09099015161ffff1990961697151561ff001916979097179215159098029190911763ffff00001916620100009715159790970263ff0000001916969096176301000000941515949094029390931761ffff60201b1916600160201b941515850260ff60281b191617600160281b9115159190910217905561012085015180516009860180549383015163ffffffff9283166001600160401b0319909516949094179190931690930292909217815591810151909190600a84019061131a9082613f4f565b506060820151600282019061132f9082613f4f565b50608082015160038201906113449082613f4f565b5050509050507f9d9e037da80b359004ae7c185bb38ec26e586e28db82390fd43ec2664e105868338e868f8f8f8f8f8f8f60405161138b9a99989796959493929190614109565b60405180910390a150919b9a5050505050505050505050565b6000806113b083612e3d565b90506001600160a01b0381166106c25760405162461bcd60e51b81526004016107f5906141c2565b60006113e360085490565b905090565b6001600160a01b0381166000908152600a602090815260409182902080548351818402810184019094528084526060939283018282801561144857602002820191906000526020600020905b815481526020019060010190808311611434575b50505050509050919050565b60006001600160a01b0382166114be5760405162461bcd60e51b815260206004820152602960248201527f4552433732313a2061646472657373207a65726f206973206e6f7420612076616044820152683634b21037bbb732b960b91b60648201526084016107f5565b506001600160a01b031660009081526003602052604090205490565b6114e2612905565b6114ec6000612e58565b565b6114f66135ff565b6008548211156115375760405162461bcd60e51b815260206004820152600c60248201526b1259081a5b98dbdc9c9958dd60a21b60448201526064016107f5565b600082815260096020526040908190208151610140810190925280548290829061156090613e60565b80601f016020809104026020016040519081016040528092919081815260200182805461158c90613e60565b80156115d95780601f106115ae576101008083540402835291602001916115d9565b820191906000526020600020905b8154815290600101906020018083116115bc57829003601f168201915b505050505081526020016001820180546115f290613e60565b80601f016020809104026020016040519081016040528092919081815260200182805461161e90613e60565b801561166b5780601f106116405761010080835404028352916020019161166b565b820191906000526020600020905b81548152906001019060200180831161164e57829003601f168201915b5050505050815260200160028201805461168490613e60565b80601f01602080910402602001604051908101604052809291908181526020018280546116b090613e60565b80156116fd5780601f106116d2576101008083540402835291602001916116fd565b820191906000526020600020905b8154815290600101906020018083116116e057829003601f168201915b5050505050815260200160038201805461171690613e60565b80601f016020809104026020016040519081016040528092919081815260200182805461174290613e60565b801561178f5780601f106117645761010080835404028352916020019161178f565b820191906000526020600020905b81548152906001019060200180831161177257829003601f168201915b5050509183525050600482015463ffffffff1660208201526005820180546040909201916117bc90613e60565b80601f01602080910402602001604051908101604052809291908181526020018280546117e890613e60565b80156118355780601f1061180a57610100808354040283529160200191611835565b820191906000526020600020905b81548152906001019060200180831161181857829003601f168201915b5050509183525050600682015463ffffffff16602082015260078201805460409092019161186290613e60565b80601f016020809104026020016040519081016040528092919081815260200182805461188e90613e60565b80156118db5780601f106118b0576101008083540402835291602001916118db565b820191906000526020600020905b8154815290600101906020018083116118be57829003601f168201915b50505091835250506040805160c081018252600884015460ff80821615158352610100820481161515602084810191909152620100008304821615158486015263010000008304821615156060850152600160201b808404831615156080860152600160281b909304909116151560a080850191909152818601939093528351928301845260098601805463ffffffff808216865293900490921690830152600a8501805494840194929391929184019161199590613e60565b80601f01602080910402602001604051908101604052809291908181526020018280546119c190613e60565b8015611a0e5780601f106119e357610100808354040283529160200191611a0e565b820191906000526020600020905b8154815290600101906020018083116119f157829003601f168201915b50505050508152602001600282018054611a2790613e60565b80601f0160208091040260200160405190810160405280929190818152602001828054611a5390613e60565b8015611aa05780601f10611a7557610100808354040283529160200191611aa0565b820191906000526020600020905b815481529060010190602001808311611a8357829003601f168201915b50505050508152602001600382018054611ab990613e60565b80601f0160208091040260200160405190810160405280929190818152602001828054611ae590613e60565b8015611b325780601f10611b0757610100808354040283529160200191611b32565b820191906000526020600020905b815481529060010190602001808311611b1557829003601f168201915b5050509190925250505090525092915050565b8033611b50826113a4565b6001600160a01b031614611b765760405162461bcd60e51b81526004016107f5906141f4565b600854811115611b985760405162461bcd60e51b81526004016107f590613ec6565b600082815260096020526040902060080154600160201b900460ff161515600114611bf85760405162461bcd60e51b815260206004820152601060248201526f12d650c81b9bdd08185c1c1c9bdd995960821b60448201526064016107f5565b611c028383610781565b6001600160a01b0383166000818152600b602090815260408083208054600181018255908452828420018690558583526009825291829020600801805461ff00191661010017905581516060808252600d908201526c10d85c8819195b1959d85d1959609a1b608082015290810192909252429082015282906000805160206144cb8339815191529060a001610c71565b6007546001600160a01b031690565b6060600180546106d790613e60565b611cbc338383612eaa565b5050565b8833611ccb826113a4565b6001600160a01b03161480611d17575033611ce58261075a565b6001600160a01b0316148015611d17575060008181526009602052604090206008015460ff6101009091041615156001145b611d335760405162461bcd60e51b81526004016107f590613e9a565b600854811115611d555760405162461bcd60e51b81526004016107f590613ec6565b60008963ffffffff1611611d7b5760405162461bcd60e51b81526004016107f5906140ea565b60008863ffffffff1611611da15760405162461bcd60e51b81526004016107f5906140ea565b85611dbe5760405162461bcd60e51b81526004016107f5906140ea565b83611ddb5760405162461bcd60e51b81526004016107f5906140ea565b81611df85760405162461bcd60e51b81526004016107f5906140ea565b611e018a612f74565b611e128a8a8a8a8a8a8a8a8a61307e565b50505050505050505050565b346000611e2a836113a4565b9050611e3f611e38846113a4565b3385610e56565b6000816001600160a01b03168360405160006040518083038185875af1925050503d8060008114611e8c576040519150601f19603f3d011682016040523d82523d6000602084013e611e91565b606091505b5050905080611eb25760405162461bcd60e51b81526004016107f59061421b565b604080516060808252601490820152731d1c985b9cd9995c881dda5d1a08185b5bdd5b9d60621b6080820152336020820152429181019190915284906000805160206144cb8339815191529060a001610a7e565b611f11848484612964565b611f1d8484848461319f565b816000805160206144cb8339815191523342604051610a7e92919061409c565b8033611f48826113a4565b6001600160a01b03161480611f94575033611f628261075a565b6001600160a01b0316148015611f94575060008181526009602052604090206008015460ff6101009091041615156001145b611fb05760405162461bcd60e51b81526004016107f590613e9a565b600854811115611fd25760405162461bcd60e51b81526004016107f590613ec6565b600082815260096020818152604092839020600801805462ff000019169055825160608082528101929092526810d85c88199bdd5b9960ba1b60808301523390820152429181019190915282906000805160206144cb8339815191529060a001610c2f565b606061204282612872565b6000828152600660205260408120805461205b90613e60565b80601f016020809104026020016040519081016040528092919081815260200182805461208790613e60565b80156120d45780601f106120a9576101008083540402835291602001916120d4565b820191906000526020600020905b8154815290600101906020018083116120b757829003601f168201915b5050505050905060006120f260408051602081019091526000815290565b90508051600003612104575092915050565b81511561213657808260405160200161211e929190614249565b60405160208183030381529060405292505050919050565b61213f846131d2565b949350505050565b6001600160a01b0381166000908152600b602090815260409182902080548351818402810184019094528084526060939283018282801561144857602002820191906000526020600020908154815260200190600101908083116114345750505050509050919050565b6121b9612905565b60014710156122165760405162461bcd60e51b815260206004820152602360248201527f596f75206e656564206174206c6561737420312045544820746f20776974686460448201526272617760e81b60648201526084016107f5565b604051600090339047908381818185875af1925050503d8060008114612258576040519150601f19603f3d011682016040523d82523d6000602084013e61225d565b606091505b505090508061227e5760405162461bcd60e51b81526004016107f59061421b565b50565b803361228c826113a4565b6001600160a01b031614806122d85750336122a68261075a565b6001600160a01b03161480156122d8575060008181526009602052604090206008015460ff6101009091041615156001145b6122f45760405162461bcd60e51b81526004016107f590613e9a565b6008548111156123165760405162461bcd60e51b81526004016107f590613ec6565b60008281526009602052604090819020600801805462ff00ff1916620100001790555182906000805160206144cb83398151915290610c2f90339042906060808252600a908201526921b0b91039ba37b632b760b11b60808201526001600160a01b03929092166020830152604082015260a00190565b8033612398826113a4565b6001600160a01b0316146123be5760405162461bcd60e51b81526004016107f5906141f4565b6008548111156123e05760405162461bcd60e51b81526004016107f590613ec6565b600082815260096020526040902060080154600160201b900460ff16156124375760405162461bcd60e51b815260206004820152600b60248201526a4b594320697320646f6e6560a81b60448201526064016107f5565b6000828152600960205260409020600801546301000000900460ff16156124965760405162461bcd60e51b81526020600482015260136024820152724b594320616c72656164792077616974696e6760681b60448201526064016107f5565b60008281526009602052604090819020600801805463ff000000191663010000001790555182906000805160206144cb83398151915290610c2f903390429060608082526009908201526812d650c8185cdad95960ba1b60808201526001600160a01b03929092166020830152604082015260a00190565b600b6020528160005260406000208181548110610e8d57600080fd5b6060600061253760085490565b90506000805b828163ffffffff16116125c05763ffffffff811660009081526009602052604090206008015460ff161515600114801561259b575063ffffffff8116600090815260096020526040902060080154600160201b900460ff1615156001145b156125ae57816125aa8161428e565b9250505b806125b88161428e565b91505061253d565b5060008163ffffffff166001600160401b038111156125e1576125e16137e5565b60405190808252806020026020018201604052801561260a578160200160208202803683370190505b5090506000805b848163ffffffff16116126be5763ffffffff811660009081526009602052604090206008015460ff161515600114801561266f575063ffffffff8116600090815260096020526040902060080154600160201b900460ff1615156001145b156126ac578063ffffffff16838363ffffffff1681518110612693576126936142b1565b6020908102919091010152816126a88161428e565b9250505b806126b68161428e565b915050612611565b5090949350505050565b6001600160a01b03918216600090815260056020908152604080832093909416825291909152205460ff1690565b6126fe612905565b6001600160a01b0381166127635760405162461bcd60e51b815260206004820152602660248201527f4f776e61626c653a206e6577206f776e657220697320746865207a65726f206160448201526564647265737360d01b60648201526084016107f5565b61227e81612e58565b8033612777826113a4565b6001600160a01b031614806127c35750336127918261075a565b6001600160a01b03161480156127c3575060008181526009602052604090206008015460ff6101009091041615156001145b6127df5760405162461bcd60e51b81526004016107f590613e9a565b6008548111156128015760405162461bcd60e51b81526004016107f590613ec6565b60008281526009602052604090819020600801805460ff191690555182906000805160206144cb83398151915290610c2f90339042906060808252600b908201526a14d85b19481cdd1bdc195960aa1b60808201526001600160a01b03929092166020830152604082015260a00190565b61287b81613246565b61227e5760405162461bcd60e51b81526004016107f5906141c2565b600081815260046020526040902080546001600160a01b0319166001600160a01b03841690811790915581906128cc826113a4565b6001600160a01b03167f8c5be1e5ebec7d5bd14f71427d1e84f3dd0314c0f7b2291e5b200ac8c7c3b92560405160405180910390a45050565b3361290e611c93565b6001600160a01b0316146114ec5760405162461bcd60e51b815260206004820181905260248201527f4f776e61626c653a2063616c6c6572206973206e6f7420746865206f776e657260448201526064016107f5565b6000818152600960209081526040808320600801805464ff0000ffff191690556001600160a01b0386168352600a9091529020546001036129e1576001600160a01b0383166000908152600a602052604090208054806129c6576129c66140d4565b600190038181906000526020600020016000905590556129eb565b6129eb8382613263565b6001600160a01b039091166000908152600a60209081526040822080546001810182559083529120015550565b826001600160a01b0316612a2b826113a4565b6001600160a01b031614612a515760405162461bcd60e51b81526004016107f5906142c7565b6001600160a01b038216612ab35760405162461bcd60e51b8152602060048201526024808201527f4552433732313a207472616e7366657220746f20746865207a65726f206164646044820152637265737360e01b60648201526084016107f5565b826001600160a01b0316612ac6826113a4565b6001600160a01b031614612aec5760405162461bcd60e51b81526004016107f5906142c7565b600081815260046020908152604080832080546001600160a01b03199081169091556001600160a01b0387811680865260038552838620805460001901905590871680865283862080546001019055868652600290945282852080549092168417909155905184936000805160206144eb83398151915291a4505050565b6001600160a01b0382166000908152600b6020526040812054905b6001600160a01b0384166000908152600b6020526040902054811015612cb8576001600160a01b0384166000908152600b60205260409020805484919083908110612bd257612bd26142b1565b906000526020600020015403612ca6576001600160a01b0384166000908152600b60205260409020612c0560018461430c565b81548110612c1557612c156142b1565b9060005260206000200154600b6000866001600160a01b03166001600160a01b031681526020019081526020016000208281548110612c5657612c566142b1565b60009182526020808320909101929092556001600160a01b0386168152600b90915260409020805480612c8b57612c8b6140d4565b60019003818190600052602060002001600090559055612cb8565b80612cb08161431f565b915050612b85565b50505050565b6001600160a01b038216612d145760405162461bcd60e51b815260206004820181905260248201527f4552433732313a206d696e7420746f20746865207a65726f206164647265737360448201526064016107f5565b612d1d81613246565b15612d3a5760405162461bcd60e51b81526004016107f590614338565b612d4381613246565b15612d605760405162461bcd60e51b81526004016107f590614338565b6001600160a01b038216600081815260036020908152604080832080546001019055848352600290915280822080546001600160a01b0319168417905551839291906000805160206144eb833981519152908290a45050565b612dc282613246565b612e255760405162461bcd60e51b815260206004820152602e60248201527f45524337323155524953746f726167653a2055524920736574206f66206e6f6e60448201526d32bc34b9ba32b73a103a37b5b2b760911b60648201526084016107f5565b60008281526006602052604090206108968282613f4f565b6000908152600260205260409020546001600160a01b031690565b600780546001600160a01b038381166001600160a01b0319831681179093556040519116919082907f8be0079c531659141344cd1fd0a4f28419497f9722a3daafe3b4186f6b6457e090600090a35050565b816001600160a01b0316836001600160a01b031603612f075760405162461bcd60e51b815260206004820152601960248201527822a9219b99189d1030b8383937bb32903a379031b0b63632b960391b60448201526064016107f5565b6001600160a01b03838116600081815260056020908152604080832094871680845294825291829020805460ff191686151590811790915591519182527f17307eab39ab6107e8899845ad3d59bd9653f200f220920489ca2b5937696c31910160405180910390a3505050565b8033612f7f826113a4565b6001600160a01b03161480612fcb575033612f998261075a565b6001600160a01b0316148015612fcb575060008181526009602052604090206008015460ff6101009091041615156001145b612fe75760405162461bcd60e51b81526004016107f590613e9a565b6008548111156130095760405162461bcd60e51b81526004016107f590613ec6565b60008281526009602052604090819020600801805460ff191660011790555182906000805160206144cb83398151915290610c2f90339042906060808252600c908201526b43617220666f722073616c6560a01b60808201526001600160a01b03929092166020830152604082015260a00190565b8833613089826113a4565b6001600160a01b031614806130d55750336130a38261075a565b6001600160a01b03161480156130d5575060008181526009602052604090206008015460ff6101009091041615156001145b6130f15760405162461bcd60e51b81526004016107f590613e9a565b6008548111156131135760405162461bcd60e51b81526004016107f590613ec6565b60008a8152600960208190526040909120908101805463ffffffff8b8116600160201b026001600160401b0319909216908d1617179055600a0161315887898361436e565b5060008a8152600960205260409020600b0161317585878361436e565b5060008a8152600960205260409020600c0161319283858361436e565b5050505050505050505050565b6131aa848484612a18565b6131b684848484613396565b612cb85760405162461bcd60e51b81526004016107f590614428565b60606131dd82612872565b60006131f460408051602081019091526000815290565b90506000815111613214576040518060200160405280600081525061323f565b8061321e84613497565b60405160200161322f929190614249565b6040516020818303038152906040525b9392505050565b60008061325283612e3d565b6001600160a01b0316141592915050565b6001600160a01b0382166000908152600a6020526040812054905b6001600160a01b0384166000908152600a6020526040902054811015612cb8576001600160a01b0384166000908152600a602052604090208054849190839081106132cb576132cb6142b1565b906000526020600020015403613384576001600160a01b0384166000908152600a602052604090206132fe60018461430c565b8154811061330e5761330e6142b1565b9060005260206000200154600a6000866001600160a01b03166001600160a01b03168152602001908152602001600020828154811061334f5761334f6142b1565b60009182526020808320909101929092556001600160a01b0386168152600a90915260409020805480612c8b57612c8b6140d4565b8061338e8161431f565b91505061327e565b60006001600160a01b0384163b1561348c57604051630a85bd0160e11b81526001600160a01b0385169063150b7a02906133da90339089908890889060040161447a565b6020604051808303816000875af1925050508015613415575060408051601f3d908101601f19168201909252613412918101906144ad565b60015b613472573d808015613443576040519150601f19603f3d011682016040523d82523d6000602084013e613448565b606091505b50805160000361346a5760405162461bcd60e51b81526004016107f590614428565b805181602001fd5b6001600160e01b031916630a85bd0160e11b14905061213f565b506001949350505050565b606060006134a483613529565b60010190506000816001600160401b038111156134c3576134c36137e5565b6040519080825280601f01601f1916602001820160405280156134ed576020820181803683370190505b5090508181016020015b600019016f181899199a1a9b1b9c1cb0b131b232b360811b600a86061a8153600a85049450846134f757509392505050565b60008072184f03e93ff9f4daa797ed6e38ed64bf6a1f0160401b83106135685772184f03e93ff9f4daa797ed6e38ed64bf6a1f0160401b830492506040015b6904ee2d6d415b85acef8160201b8310613592576904ee2d6d415b85acef8160201b830492506020015b662386f26fc1000083106135b057662386f26fc10000830492506010015b6305f5e10083106135c8576305f5e100830492506008015b61271083106135dc57612710830492506004015b606483106135ee576064830492506002015b600a83106106c25760010192915050565b60405180610140016040528060608152602001606081526020016060815260200160608152602001600063ffffffff16815260200160608152602001600063ffffffff168152602001606081526020016136946040518060c001604052806000151581526020016000151581526020016000151581526020016000151581526020016000151581526020016000151581525090565b81526020016136d76040518060a00160405280600063ffffffff168152602001600063ffffffff1681526020016060815260200160608152602001606081525090565b905290565b6001600160a01b0391909116815260200190565b6001600160e01b03198116811461227e57600080fd5b60006020828403121561371857600080fd5b813561323f816136f0565b60005b8381101561373e578181015183820152602001613726565b50506000910152565b6000815180845261375f816020860160208601613723565b601f01601f19169290920160200192915050565b60208152600061323f6020830184613747565b60006020828403121561379857600080fd5b5035919050565b80356001600160a01b03811681146137b657600080fd5b919050565b600080604083850312156137ce57600080fd5b6137d78361379f565b946020939093013593505050565b634e487b7160e01b600052604160045260246000fd5b60006001600160401b0380841115613815576138156137e5565b604051601f8501601f19908116603f0116810190828211818310171561383d5761383d6137e5565b8160405280935085815286868601111561385657600080fd5b858560208301376000602087830101525050509392505050565b600082601f83011261388157600080fd5b61323f838335602085016137fb565b600080604083850312156138a357600080fd5b82356001600160401b038111156138b957600080fd5b6138c585828601613870565b95602094909401359450505050565b6000806000606084860312156138e957600080fd5b6138f28461379f565b92506139006020850161379f565b9150604084013590509250925092565b803563ffffffff811681146137b657600080fd5b600080600080600080600080610100898b03121561394157600080fd5b88356001600160401b038082111561395857600080fd5b6139648c838d01613870565b995060208b013591508082111561397a57600080fd5b6139868c838d01613870565b985060408b013591508082111561399c57600080fd5b6139a88c838d01613870565b975060608b01359150808211156139be57600080fd5b6139ca8c838d01613870565b965060808b01359150808211156139e057600080fd5b6139ec8c838d01613870565b95506139fa60a08c01613910565b945060c08b0135915080821115613a1057600080fd5b50613a1d8b828c01613870565b925050613a2c60e08a01613910565b90509295985092959890939650565b600060208284031215613a4d57600080fd5b61323f8261379f565b6020808252825182820181905260009190848201906040850190845b81811015613a8e57835183529284019291840191600101613a72565b50909695505050505050565b600063ffffffff80835116845280602084015116602085015250604082015160a06040850152613acd60a0850182613747565b905060608301518482036060860152613ae68282613747565b91505060808301518482036080860152613b008282613747565b95945050505050565b60208152600082516101e0806020850152613b28610200850183613747565b91506020850151601f1980868503016040870152613b468483613747565b93506040870151915080868503016060870152613b638483613747565b93506060870151915080868503016080870152613b808483613747565b935060808701519150613b9b60a087018363ffffffff169052565b60a08701519150808685030160c0870152613bb68483613747565b935060c08701519150613bd160e087018363ffffffff169052565b60e08701519150610100818786030181880152613bee8584613747565b908801518051151561012089810191909152602082015115156101408a0152604082015115156101608a0152606082015115156101808a0152608082015115156101a08a015260a09091015115156101c0890152880151878203929092018488015293509050613c5e8382613a9a565b9695505050505050565b60008060408385031215613c7b57600080fd5b613c848361379f565b915060208301358015158114613c9957600080fd5b809150509250929050565b60008083601f840112613cb657600080fd5b5081356001600160401b03811115613ccd57600080fd5b602083019150836020828501011115613ce557600080fd5b9250929050565b600080600080600080600080600060c08a8c031215613d0a57600080fd5b89359850613d1a60208b01613910565b9750613d2860408b01613910565b965060608a01356001600160401b0380821115613d4457600080fd5b613d508d838e01613ca4565b909850965060808c0135915080821115613d6957600080fd5b613d758d838e01613ca4565b909650945060a08c0135915080821115613d8e57600080fd5b50613d9b8c828d01613ca4565b915080935050809150509295985092959850929598565b60008060008060808587031215613dc857600080fd5b613dd18561379f565b9350613ddf6020860161379f565b92506040850135915060608501356001600160401b03811115613e0157600080fd5b8501601f81018713613e1257600080fd5b613e21878235602084016137fb565b91505092959194509250565b60008060408385031215613e4057600080fd5b613e498361379f565b9150613e576020840161379f565b90509250929050565b600181811c90821680613e7457607f821691505b602082108103613e9457634e487b7160e01b600052602260045260246000fd5b50919050565b602080825260129082015271165bdd481b9bdd08185d5d1a1bdc9a5e995960721b604082015260600190565b6020808252600c908201526b1a59081a5b98dbdc9c9958dd60a21b604082015260600190565b601f82111561089657600081815260208120601f850160051c81016020861015613f135750805b601f850160051c820191505b81811015613f3257828155600101613f1f565b505050505050565b600019600383901b1c191660019190911b1790565b81516001600160401b03811115613f6857613f686137e5565b613f7c81613f768454613e60565b84613eec565b602080601f831160018114613fab5760008415613f995750858301515b613fa38582613f3a565b865550613f32565b600085815260208120601f198616915b82811015613fda57888601518255948401946001909101908401613fbb565b5085821015613ff85787850151600019600388901b60f8161c191681555b5050505050600190811b01905550565b6000835161401a818460208801613723565b603b60f81b9083019081528351614038816001840160208801613723565b01600101949350505050565b60088152674b594320646f6e6560c01b602082015260400190565b6020815260006106c260208301614044565b60608152600061408360608301614044565b6001600160a01b03949094166020830152506040015290565b6060808252600890820152673a3930b739b332b960c11b60808201526001600160a01b03929092166020830152604082015260a00190565b634e487b7160e01b600052603160045260246000fd5b602080825260059082015264456d70747960d81b604082015260600190565b6001600160a01b038b1681526101406020820181905260009061412e8382018d613747565b90508a60408401528281036060840152614148818b613747565b9050828103608084015261415c818a613747565b905082810360a08401526141708189613747565b905082810360c08401526141848188613747565b905063ffffffff80871660e08501528382036101008501526141a68287613747565b925080851661012085015250509b9a5050505050505050505050565b602080825260189082015277115490cdcc8c4e881a5b9d985b1a59081d1bdad95b88125160421b604082015260600190565b6020808252600d908201526c2cb7ba903737ba1037bbb732b960991b604082015260600190565b6020808252601490820152737472616e73666572206469646e277420776f726b60601b604082015260600190565b6000835161425b818460208801613723565b83519083019061426f818360208801613723565b01949350505050565b634e487b7160e01b600052601160045260246000fd5b600063ffffffff8083168181036142a7576142a7614278565b6001019392505050565b634e487b7160e01b600052603260045260246000fd5b60208082526025908201527f4552433732313a207472616e736665722066726f6d20696e636f72726563742060408201526437bbb732b960d91b606082015260800190565b818103818111156106c2576106c2614278565b60006001820161433157614331614278565b5060010190565b6020808252601c908201527b115490cdcc8c4e881d1bdad95b88185b1c9958591e481b5a5b9d195960221b604082015260600190565b6001600160401b03831115614385576143856137e5565b614399836143938354613e60565b83613eec565b6000601f8411600181146143c757600085156143b55750838201355b6143bf8682613f3a565b845550614421565b600083815260209020601f19861690835b828110156143f857868501358255602094850194600190920191016143d8565b50868210156144155760001960f88860031b161c19848701351681555b505060018560011b0183555b5050505050565b60208082526032908201527f4552433732313a207472616e7366657220746f206e6f6e20455243373231526560408201527131b2b4bb32b91034b6b83632b6b2b73a32b960711b606082015260800190565b6001600160a01b0385811682528416602082015260408101839052608060608201819052600090613c5e90830184613747565b6000602082840312156144bf57600080fd5b815161323f816136f056feeb41bb939756ad181f097f7e48b18e54ec12e25331e6d6855ca98fca7003c5deddf252ad1be2c89b69c2b068fc378daa952ba7f163c4a11628f55a4df523b3ef15382559391789f1865e10e9c8b51327a9cb0381eae89973ada229e7a78c08f3a26469706673582212204f019850f93f839a2acd189922e9d463bea4892dfc43e5562eb03660804ff13f64736f6c63430008120033",
  "immutableReferences": {},
  "source": "// SPDX-License-Identifier: MIT\npragma solidity 0.8.18;\n\nimport \"@openzeppelin/contracts/token/ERC721/ERC721.sol\";\nimport \"@openzeppelin/contracts/token/ERC721/extensions/ERC721URIStorage.sol\";\nimport \"@openzeppelin/contracts/utils/Counters.sol\";\nimport \"@openzeppelin/contracts/access/Ownable.sol\";\n\n\n/**\n * @title BlockCar\n * @author Germain Winckel\n * @notice The blockCar contract code\n * @dev The blockCar contract code\n */\ncontract BlockCar is ERC721URIStorage, Ownable {\n    /**\n    * @dev The counter from the openzeppelin contract Counters.sol\n    */\n    using Counters for Counters.Counter;\n    Counters.Counter private tokenIds;\n\n    /**\n    * @dev The Status of each NFT, this struct is in the Car struct. When mint, all values are false\n    */\n    struct Status {\n        bool isOnSale;\n        bool isDelegated;\n        bool isStolen;\n        bool isWaitingKyc;\n        bool isKycDone;\n        bool isScrapped;\n    }\n\n    /**\n    * @dev Others informations we need for sell the car\n    */\n    struct InfosForSale {\n      \tuint32 mileage;\n      \tuint32 price;\n      \tstring country;\n      \tstring localisation;\n      \tstring contactDetails;\n    }\n\n    /**\n    * @dev A complex type that all the statics informations of a NFT. \n\t* linkDocument contains all the link to the differents documents, the separtoir is ;\n    */\n\tstruct Car{\n\t\tstring vin;\n\t\tstring brand;\n\t\tstring model;\n      \tstring color;\n      \tuint32 power; //kw\n      \tstring registrationCountry;\n      \tuint32 registrationDate;    // dd/mm/yyyy\n      \tstring linkDocument;        //only value which can change\n      \tStatus status;\n        InfosForSale infosForSale;\n\t}\n    \n\t/// @dev Mapping the NFT ID with the car informations\n    mapping(uint256 => Car) nftCarInfos;\n\n    /// @dev Mapping the NFT ID with the owner\n    mapping(address => uint256[]) public nftIdAndOwner;  \n\n    /// @dev Mapping the NFT ID with the delegator\n    mapping(address => uint256[]) public nftIdAndDelegator;  \n\t\n\t/// @dev An event that registers when a user did the KYC for a car\n    event Minted (address userAddress, string tokenURI, uint256 nftId, string vin, string brand, string model, string color, uint32 power, string registrationCountry, uint32 registrationDate);\n\n    /// @dev An event when a car is for sale\n    event ChangingStatus (string status, address _address, uint256 indexed nftId, uint256 timestamp);\n\n    /// @dev An event when a deposit is received\n    event LogDepositReceived (address _address);\n\n    constructor() ERC721 (\"BlockCar\", \"BLC\") {\n    }\n\n\t/**\n     * @dev To mint an NFT\n\t * @param _tokenURI : Link to jdon/image\n\t * @param _vin : Vehicle Identification Number\n\t * @param _brand : Brand of the car\n\t * @param _model : Model of the car\n\t * @param _color : color of the car\n\t * @param _power : Power of the car in Kw\n\t * @param _registrationCountry : Reistration country\n\t * @param _registrationDate : Regisytration date in ddmmyyyy\n     * @return newItemId mThe Id of the NFT \n     */\n    function mintCar(string memory _tokenURI, string memory _vin, string memory _brand, string memory _model, string memory _color, uint32 _power, string memory _registrationCountry, uint32 _registrationDate) public returns (uint256) {\n        require(msg.sender != address(0), \"Empty\");\n        require(bytes(_tokenURI).length > 0, \"Empty\");\n        require(bytes(_vin).length > 0, \"Empty\");\n        require(bytes(_brand).length > 0, \"Empty\");\n        require(bytes(_model).length > 0, \"Empty\");\n        require(bytes(_color).length > 0, \"Empty\");\n        require(_power > 0, \"Empty\");\n        require(bytes(_registrationCountry).length > 0, \"Empty\");\n        require(_registrationDate > 0, \"Empty\");\n\n        tokenIds.increment();\n        uint256 newItemId = tokenIds.current();\n        _mint(msg.sender, newItemId);\n        _setTokenURI(newItemId, _tokenURI);\n\n        nftIdAndOwner[msg.sender].push(newItemId);\n        \n        Status memory statusIni = Status(false,false,false,false,false,false);\n        InfosForSale memory infosForSaleIni = InfosForSale(0,0,\"\",\"\",\"\");\n\t\tCar memory car = Car(_vin, _brand, _model, _color, _power, _registrationCountry, _registrationDate, \"\",statusIni, infosForSaleIni);\n\t\tnftCarInfos[newItemId] = car;\n\t\temit Minted (msg.sender, _tokenURI, newItemId, _vin, _brand, _model, _color, _power, _registrationCountry, _registrationDate);\n        return newItemId;\n    }\n\n    function getCurrentId() external view returns(uint256) {\n        //uint256 currentItemId = tokenIds.current();\n        return tokenIds.current();\n    }\n\n    function getNftIdsByAddress(address _owner) external view returns (uint256[] memory) {\n        return nftIdAndOwner[_owner];\n    }\n\n    function getNftIdsByDelegatorAddress(address _owner) external view returns (uint256[] memory) {\n        return nftIdAndDelegator[_owner];\n    }    \n\n    function getNftIdsByOnSaleAndKycDone() external view returns (uint256[] memory) {\n        uint256 itemId = tokenIds.current();\n        uint32 count;\n\n       // First, we count the number of cars that match the specified status\n        for (uint32 i = 0; i <= itemId; i++) {\n            if ((nftCarInfos[i].status.isOnSale == true) &&\n                (nftCarInfos[i].status.isKycDone == true)) {\n                count++;\n            }\n        }\n\n        uint256[] memory Ids = new uint256[](count);\n        uint32 index = 0;\n\n        for (uint32 i = 0; i <= itemId; i++) {\n            if ((nftCarInfos[i].status.isOnSale == true) &&\n                (nftCarInfos[i].status.isKycDone == true)) {\n                Ids[index] = i;\n                index++;\n            }\n        }\n        return Ids;\n    }\n\n    /**\n    * @dev Modifier to check if the address is owner or the delegator of the NFT\n    * @param _tokenIds The Id of the NFT \n    */\n    modifier isNftOwnerOrDelegator(uint256 _tokenIds) {\n        require(ownerOf(_tokenIds)==msg.sender || (getApproved(_tokenIds)==msg.sender &&  nftCarInfos[_tokenIds].status.isDelegated == true) , 'You not authorized');\n        require(_tokenIds <= tokenIds.current(), 'id incorrect');\n        _;\n    }\n\n        /**\n    * @dev Modifier to check if the address is owner of the NFT\n    * @param _tokenIds The Id of the NFT \n    */\n    modifier isNftOwner(uint256 _tokenIds) {\n        require(ownerOf(_tokenIds)==msg.sender, 'You not owner');\n        require(_tokenIds <= tokenIds.current(), 'id incorrect');\n        _;\n    }\n\n    /**\n    * @dev Change the status of isKycDone to true\n    * @param _tokenIds The Id of the NFT \n    */\n    function kycIsApproved (uint256 _tokenIds) external onlyOwner {\n        require(nftCarInfos[_tokenIds].status.isKycDone == false, 'KYC done');\n\t\tnftCarInfos[_tokenIds].status.isWaitingKyc = false;\n\t\tnftCarInfos[_tokenIds].status.isKycDone = true;\n        emit ChangingStatus(\"KYC done\",msg.sender , _tokenIds, block.timestamp);\n    }\n\n    /**\n    * @dev Get the NFT informations\n    * @param _tokenIds The Id of the NFT \n    */\n    function getCarNft (uint256 _tokenIds) external view returns (Car memory) {\n        require(_tokenIds <= tokenIds.current(), 'Id incorrect');\n        return nftCarInfos[_tokenIds];\n    }\n\n    /**\n    * @dev Change boolean 'isOnSale' to true, is car is for sale\n    * @param _tokenIds The Id of the NFT \n    */\n    function carIsForSale (uint256 _tokenIds) internal isNftOwnerOrDelegator (_tokenIds) {\n        nftCarInfos[_tokenIds].status.isOnSale = true;\n        emit ChangingStatus(\"Car for sale\",msg.sender, _tokenIds, block.timestamp);\n    }\n\n    /**\n    * @dev Change boolean 'isOnSale' to true, this car is for sale\n    * @param _tokenIds The Id of the NFT \n    * @param _mileage the mileage of the car\n    * @param _price The price of the car\n    * @param _localisation the localisation of the car\n    * @param _contactDetails The details of the contact\n    */\n    function setInformationsForSale (uint256 _tokenIds, uint32 _mileage, uint32 _price, string calldata _country, string calldata _localisation, string calldata _contactDetails) internal isNftOwnerOrDelegator (_tokenIds) {\n        nftCarInfos[_tokenIds].infosForSale.mileage = _mileage;\n        nftCarInfos[_tokenIds].infosForSale.price = _price;\n        nftCarInfos[_tokenIds].infosForSale.country = _country;\n        nftCarInfos[_tokenIds].infosForSale.localisation = _localisation;\n        nftCarInfos[_tokenIds].infosForSale.contactDetails = _contactDetails;\n    }\n\n    function carIsForSaleAndSetInformationsForSale (uint256 _tokenIds, uint32 _mileage, uint32 _price, string calldata _country, string calldata _localisation, string calldata _contactDetails) external isNftOwnerOrDelegator (_tokenIds) {\n        require(_mileage > 0, \"Empty\");\n        require(_price > 0, \"Empty\");\n        require(bytes(_country).length > 0, \"Empty\");\n        require(bytes(_localisation).length > 0, \"Empty\");\n        require(bytes(_contactDetails).length > 0, \"Empty\");\n        carIsForSale(_tokenIds);\n        setInformationsForSale(_tokenIds, _mileage, _price, _country, _localisation, _contactDetails);\n    }\n\n    /**\n    * @dev Change boolean 'isStolen' to true, this car is stolen\n    * @param _tokenIds The Id of the NFT \n    */\n    function carIsStolen (uint256 _tokenIds) external isNftOwnerOrDelegator (_tokenIds) {\n        nftCarInfos[_tokenIds].status.isStolen = true;\n        nftCarInfos[_tokenIds].status.isOnSale = false;\n        emit ChangingStatus(\"Car stolen\",msg.sender, _tokenIds, block.timestamp);\n    }\n\n    /**\n    * @dev Change boolean 'isScrapped' to true, this car is Scrapped\n    * @param _tokenIds The Id of the NFT \n    */\n    function carIsScrapped (uint256 _tokenIds) external isNftOwnerOrDelegator (_tokenIds) {\n        nftCarInfos[_tokenIds].status.isScrapped = true;\n        nftCarInfos[_tokenIds].status.isOnSale = false;\n        emit ChangingStatus(\"Car scrapped\",msg.sender, _tokenIds, block.timestamp);\n    }\n\n    /**\n    * @dev Change boolean 'isScrapped' to true, this car is Scrapped\n    * @param _tokenIds The Id of the NFT \n    */\n    function stopSale (uint256 _tokenIds) external isNftOwnerOrDelegator (_tokenIds) {\n        nftCarInfos[_tokenIds].status.isOnSale = false;\n        emit ChangingStatus(\"Sale stoped\",msg.sender, _tokenIds, block.timestamp);\n    }\n\n    /**\n    * @dev Change boolean 'isScrapped' to true, this car is Scrapped\n    * @param _tokenIds The Id of the NFT \n    */\n    function carFound (uint256 _tokenIds) external isNftOwnerOrDelegator (_tokenIds) {\n        nftCarInfos[_tokenIds].status.isStolen = false;\n        emit ChangingStatus(\"Car found\",msg.sender, _tokenIds, block.timestamp);\n    }\n\n    /**\n    * @dev Change boolean 'isDelegated' to true, this car is Delegated\n    * @param _tokenIds The Id of the NFT \n    */\n    function delegeteCar (address delegatorAddress, uint256 _tokenIds) external isNftOwner (_tokenIds) {\n        require(nftCarInfos[_tokenIds].status.isKycDone == true, \"KYC not approved\");\n        approve(delegatorAddress, _tokenIds);\n        nftIdAndDelegator[delegatorAddress].push(_tokenIds);\n        nftCarInfos[_tokenIds].status.isDelegated = true;\n        emit ChangingStatus(\"Car delegated\", delegatorAddress, _tokenIds, block.timestamp);\n    }\n\n    /**\n    * @dev Change boolean 'isDelegated' to false, this car is not delegated anymore\n    * @param _tokenIds The Id of the NFT \n    */\n    function stopDelegation (uint256 _tokenIds) external isNftOwnerOrDelegator (_tokenIds) {\n        require(nftCarInfos[_tokenIds].status.isDelegated == true, \"NFT not delegated\");\n\n        address delegatorAdress = getApproved(_tokenIds);\n\n        nftCarInfos[_tokenIds].status.isDelegated = false;\n\n        if (nftIdAndDelegator[delegatorAdress].length == 1) {\n            nftIdAndDelegator[delegatorAdress].pop();\n        } else {\n            removeTokenIdDelegator(delegatorAdress, _tokenIds);\n        }\n\n        emit ChangingStatus(\"Delegation stoped\",msg.sender, _tokenIds, block.timestamp);\n    }\n\n    function removeTokenIdDelegator(address _addressToDel, uint256 _tokenIds) internal {\n        uint256 length = nftIdAndDelegator[_addressToDel].length;\n        for (uint256 i = 0; i < nftIdAndDelegator[_addressToDel].length; i++) {\n            if (nftIdAndDelegator[_addressToDel][i] == _tokenIds) {\n                // Remplace l'lment  supprimer par le dernier lment du tableau\n                nftIdAndDelegator[_addressToDel][i] = nftIdAndDelegator[_addressToDel][length - 1];\n                \n                // Rduit la longueur du tableau de 1\n                nftIdAndDelegator[_addressToDel].pop();\n                break;\n            }\n        }\n    }\n\n    /**\n    * @dev Change boolean 'isWaitingKyc' to false, this car is not delegated anymore\n    * @param _tokenIds The Id of the NFT \n    */\n    function askKyc (uint256 _tokenIds) external isNftOwner (_tokenIds) {\n        require(nftCarInfos[_tokenIds].status.isKycDone == false, \"KYC is done\");\n        require(nftCarInfos[_tokenIds].status.isWaitingKyc == false, \"KYC already waiting\");\n        nftCarInfos[_tokenIds].status.isWaitingKyc = true;\n        emit ChangingStatus(\"KYC asked\",msg.sender, _tokenIds, block.timestamp);\n    }\n\n    function removeTokenIdNftOwner(address _addressToDel, uint256 _tokenIds) internal {\n        uint256 length = nftIdAndOwner[_addressToDel].length;\n        for (uint256 i = 0; i < nftIdAndOwner[_addressToDel].length; i++) {\n            if (nftIdAndOwner[_addressToDel][i] == _tokenIds) {\n                // Remplace l'lment  supprimer par le dernier lment du tableau\n                nftIdAndOwner[_addressToDel][i] = nftIdAndOwner[_addressToDel][length - 1];\n                \n                // Rduit la longueur du tableau de 1\n                nftIdAndOwner[_addressToDel].pop();\n                break;\n            }\n        }\n    }\n\n    function addDocumentLink(string memory _newLink, uint256 _tokenId) external isNftOwnerOrDelegator (_tokenId)  {\n        string memory currentLink = nftCarInfos[_tokenId].linkDocument;\n        if (bytes(currentLink).length == 0) {\n            nftCarInfos[_tokenId].linkDocument = _newLink;\n        } else {\n            nftCarInfos[_tokenId].linkDocument = string(abi.encodePacked(currentLink, \";\", _newLink));\n        }\n        emit ChangingStatus(\"Document added\",msg.sender, _tokenId, block.timestamp);\n    }\n\n    function testingAndTransfer (address _from, address _to, uint256 _tokenIds) internal {\n        nftCarInfos[_tokenIds].status.isKycDone = false;\n        nftCarInfos[_tokenIds].status.isDelegated = false;\n        nftCarInfos[_tokenIds].status.isOnSale = false;\n\n        if (nftIdAndOwner[_from].length == 1) {\n            nftIdAndOwner[_from].pop();\n        } else {\n            removeTokenIdNftOwner(_from, _tokenIds);\n        }\n        nftIdAndOwner[_to].push(_tokenIds);\n    }\n\n    /**\n     * @dev See {IERC721-transferFrom}.\n     */\n    function transferFrom(\n        address from,\n        address to,\n        uint256 tokenId\n    ) public virtual override {\n        testingAndTransfer(from, to, tokenId);\n        _transfer(from, to, tokenId);\n        emit ChangingStatus(\"transfer\",msg.sender, tokenId, block.timestamp);\n    }\n\n    /**\n     * @dev See {IERC721-safeTransferFrom}.\n     */\n    function safeTransferFrom(\n        address from,\n        address to,\n        uint256 tokenId\n    ) public virtual override {\n        safeTransferFrom(from, to, tokenId, \"\");\n    }\n\n    /**\n     * @dev See {IERC721-safeTransferFrom}.\n     */\n    function safeTransferFrom(\n        address from,\n        address to,\n        uint256 tokenId,\n        bytes memory data\n    ) public virtual override {\n        testingAndTransfer(from, to, tokenId);\n        _safeTransfer(from, to, tokenId, data);\n        emit ChangingStatus(\"transfer\",msg.sender, tokenId, block.timestamp);\n    }\n\n    function sellNftAndTransferValueToOwner(uint256 _tokenId) external payable  {\n        uint256 valueSend               = msg.value;\n        address ownerAddress            = ownerOf(_tokenId);\n        safeTransferFrom(ownerOf(_tokenId),msg.sender,_tokenId);\n        (bool sent, )                   = payable(ownerAddress).call{value: valueSend}(\"\");\n        require(sent, unicode\"transfer didn't work\");\n        emit ChangingStatus(\"transfer with amount\",msg.sender, _tokenId, block.timestamp);\n    }\n\n    fallback() external payable { \n        require(msg.data.length == 0);\n        emit LogDepositReceived(msg.sender); \n    }\n \n    receive() external payable { \n        emit LogDepositReceived(msg.sender); \n    }\n\n    function withdrawal() public onlyOwner {\n        require(address(this).balance >= 1, \"You need at least 1 ETH to withdraw\");\n        (bool sent, )                   = payable(msg.sender).call{value: address(this).balance}(\"\");\n        require(sent, unicode\"transfer didn't work\");\n    }\n}\n",
  "sourcePath": "/home/germain/Projet4/truffle/contracts/BlockCar.sol",
  "compiler": {
    "name": "solc",
    "version": "0.8.18+commit.87f61d96.Emscripten.clang"
  },
  "schemaVersion": "3.4.13",
  "updatedAt": "2023-04-07T16:58:47.963Z",
  "networkType": "ethereum",
  "devdoc": {
    "author": "Germain Winckel",
    "details": "The blockCar contract code",
    "events": {
      "Approval(address,address,uint256)": {
        "details": "Emitted when `owner` enables `approved` to manage the `tokenId` token."
      },
      "ApprovalForAll(address,address,bool)": {
        "details": "Emitted when `owner` enables or disables (`approved`) `operator` to manage all of its assets."
      },
      "ChangingStatus(string,address,uint256,uint256)": {
        "details": "An event when a car is for sale"
      },
      "LogDepositReceived(address)": {
        "details": "An event when a deposit is received"
      },
      "Minted(address,string,uint256,string,string,string,string,uint32,string,uint32)": {
        "details": "An event that registers when a user did the KYC for a car"
      },
      "Transfer(address,address,uint256)": {
        "details": "Emitted when `tokenId` token is transferred from `from` to `to`."
      }
    },
    "kind": "dev",
    "methods": {
      "approve(address,uint256)": {
        "details": "See {IERC721-approve}."
      },
      "askKyc(uint256)": {
        "details": "Change boolean 'isWaitingKyc' to false, this car is not delegated anymore",
        "params": {
          "_tokenIds": "The Id of the NFT "
        }
      },
      "balanceOf(address)": {
        "details": "See {IERC721-balanceOf}."
      },
      "carFound(uint256)": {
        "details": "Change boolean 'isScrapped' to true, this car is Scrapped",
        "params": {
          "_tokenIds": "The Id of the NFT "
        }
      },
      "carIsScrapped(uint256)": {
        "details": "Change boolean 'isScrapped' to true, this car is Scrapped",
        "params": {
          "_tokenIds": "The Id of the NFT "
        }
      },
      "carIsStolen(uint256)": {
        "details": "Change boolean 'isStolen' to true, this car is stolen",
        "params": {
          "_tokenIds": "The Id of the NFT "
        }
      },
      "delegeteCar(address,uint256)": {
        "details": "Change boolean 'isDelegated' to true, this car is Delegated",
        "params": {
          "_tokenIds": "The Id of the NFT "
        }
      },
      "getApproved(uint256)": {
        "details": "See {IERC721-getApproved}."
      },
      "getCarNft(uint256)": {
        "details": "Get the NFT informations",
        "params": {
          "_tokenIds": "The Id of the NFT "
        }
      },
      "isApprovedForAll(address,address)": {
        "details": "See {IERC721-isApprovedForAll}."
      },
      "kycIsApproved(uint256)": {
        "details": "Change the status of isKycDone to true",
        "params": {
          "_tokenIds": "The Id of the NFT "
        }
      },
      "mintCar(string,string,string,string,string,uint32,string,uint32)": {
        "details": "To mint an NFT",
        "params": {
          "_brand": ": Brand of the car",
          "_color": ": color of the car",
          "_model": ": Model of the car",
          "_power": ": Power of the car in Kw",
          "_registrationCountry": ": Reistration country",
          "_registrationDate": ": Regisytration date in ddmmyyyy",
          "_tokenURI": ": Link to jdon/image",
          "_vin": ": Vehicle Identification Number"
        },
        "returns": {
          "_0": "newItemId mThe Id of the NFT "
        }
      },
      "name()": {
        "details": "See {IERC721Metadata-name}."
      },
      "owner()": {
        "details": "Returns the address of the current owner."
      },
      "ownerOf(uint256)": {
        "details": "See {IERC721-ownerOf}."
      },
      "renounceOwnership()": {
        "details": "Leaves the contract without owner. It will not be possible to call `onlyOwner` functions anymore. Can only be called by the current owner. NOTE: Renouncing ownership will leave the contract without an owner, thereby removing any functionality that is only available to the owner."
      },
      "safeTransferFrom(address,address,uint256)": {
        "details": "See {IERC721-safeTransferFrom}."
      },
      "safeTransferFrom(address,address,uint256,bytes)": {
        "details": "See {IERC721-safeTransferFrom}."
      },
      "setApprovalForAll(address,bool)": {
        "details": "See {IERC721-setApprovalForAll}."
      },
      "stopDelegation(uint256)": {
        "details": "Change boolean 'isDelegated' to false, this car is not delegated anymore",
        "params": {
          "_tokenIds": "The Id of the NFT "
        }
      },
      "stopSale(uint256)": {
        "details": "Change boolean 'isScrapped' to true, this car is Scrapped",
        "params": {
          "_tokenIds": "The Id of the NFT "
        }
      },
      "supportsInterface(bytes4)": {
        "details": "See {IERC165-supportsInterface}."
      },
      "symbol()": {
        "details": "See {IERC721Metadata-symbol}."
      },
      "tokenURI(uint256)": {
        "details": "See {IERC721Metadata-tokenURI}."
      },
      "transferFrom(address,address,uint256)": {
        "details": "See {IERC721-transferFrom}."
      },
      "transferOwnership(address)": {
        "details": "Transfers ownership of the contract to a new account (`newOwner`). Can only be called by the current owner."
      }
    },
    "stateVariables": {
      "nftCarInfos": {
        "details": "Mapping the NFT ID with the car informations"
      },
      "nftIdAndDelegator": {
        "details": "Mapping the NFT ID with the delegator"
      },
      "nftIdAndOwner": {
        "details": "Mapping the NFT ID with the owner"
      }
    },
    "title": "BlockCar",
    "version": 1
  },
  "userdoc": {
    "kind": "user",
    "methods": {},
    "notice": "The blockCar contract code",
    "version": 1
  }
}